{
  "address": "0x9BF345565efE79259476b08eB756f4a6224b0b04",
  "abi": [
    {
      "inputs": [
        {
          "internalType": "contract IERC20Mintable",
          "name": "_rewardToken",
          "type": "address"
        },
        {
          "internalType": "address",
          "name": "_owner",
          "type": "address"
        },
        {
          "internalType": "address",
          "name": "_receiver",
          "type": "address"
        }
      ],
      "stateMutability": "nonpayable",
      "type": "constructor"
    },
    {
      "anonymous": false,
      "inputs": [
        {
          "indexed": true,
          "internalType": "address",
          "name": "previousPendingOwner",
          "type": "address"
        },
        {
          "indexed": true,
          "internalType": "address",
          "name": "newPendingOwner",
          "type": "address"
        }
      ],
      "name": "ChangePendingOwner",
      "type": "event"
    },
    {
      "anonymous": false,
      "inputs": [
        {
          "indexed": false,
          "internalType": "address",
          "name": "user",
          "type": "address"
        },
        {
          "indexed": false,
          "internalType": "uint256",
          "name": "amount",
          "type": "uint256"
        },
        {
          "indexed": false,
          "internalType": "uint256",
          "name": "totalAmount",
          "type": "uint256"
        }
      ],
      "name": "Claim",
      "type": "event"
    },
    {
      "anonymous": false,
      "inputs": [
        {
          "indexed": false,
          "internalType": "bytes32",
          "name": "oldHash",
          "type": "bytes32"
        },
        {
          "indexed": false,
          "internalType": "bytes32",
          "name": "newHash",
          "type": "bytes32"
        },
        {
          "indexed": false,
          "internalType": "uint256",
          "name": "updateAt",
          "type": "uint256"
        }
      ],
      "name": "NewHash",
      "type": "event"
    },
    {
      "anonymous": false,
      "inputs": [
        {
          "indexed": false,
          "internalType": "address",
          "name": "oldReceiver",
          "type": "address"
        },
        {
          "indexed": false,
          "internalType": "address",
          "name": "newReceiver",
          "type": "address"
        }
      ],
      "name": "NewReceiver",
      "type": "event"
    },
    {
      "anonymous": false,
      "inputs": [
        {
          "indexed": true,
          "internalType": "address",
          "name": "previousOwner",
          "type": "address"
        },
        {
          "indexed": true,
          "internalType": "address",
          "name": "newOwner",
          "type": "address"
        }
      ],
      "name": "OwnershipTransferred",
      "type": "event"
    },
    {
      "inputs": [],
      "name": "acceptOwner",
      "outputs": [],
      "stateMutability": "nonpayable",
      "type": "function"
    },
    {
      "inputs": [
        {
          "internalType": "address",
          "name": "_to",
          "type": "address"
        },
        {
          "internalType": "uint256",
          "name": "_amount",
          "type": "uint256"
        },
        {
          "internalType": "bytes32[]",
          "name": "_proof",
          "type": "bytes32[]"
        }
      ],
      "name": "claim",
      "outputs": [],
      "stateMutability": "nonpayable",
      "type": "function"
    },
    {
      "inputs": [
        {
          "internalType": "address[]",
          "name": "_users",
          "type": "address[]"
        },
        {
          "internalType": "uint256[]",
          "name": "_amounts",
          "type": "uint256[]"
        },
        {
          "internalType": "uint256[]",
          "name": "_sizes",
          "type": "uint256[]"
        },
        {
          "internalType": "bytes32[]",
          "name": "_proof",
          "type": "bytes32[]"
        }
      ],
      "name": "claimAll",
      "outputs": [],
      "stateMutability": "nonpayable",
      "type": "function"
    },
    {
      "inputs": [
        {
          "internalType": "address[]",
          "name": "addresses",
          "type": "address[]"
        }
      ],
      "name": "getAllUserClaimed",
      "outputs": [
        {
          "internalType": "uint256",
          "name": "claimed",
          "type": "uint256"
        }
      ],
      "stateMutability": "view",
      "type": "function"
    },
    {
      "inputs": [],
      "name": "lastUpdate",
      "outputs": [
        {
          "internalType": "uint256",
          "name": "",
          "type": "uint256"
        }
      ],
      "stateMutability": "view",
      "type": "function"
    },
    {
      "inputs": [],
      "name": "owner",
      "outputs": [
        {
          "internalType": "address",
          "name": "",
          "type": "address"
        }
      ],
      "stateMutability": "view",
      "type": "function"
    },
    {
      "inputs": [
        {
          "internalType": "uint256",
          "name": "_amount",
          "type": "uint256"
        }
      ],
      "name": "ownerWithdraw",
      "outputs": [],
      "stateMutability": "nonpayable",
      "type": "function"
    },
    {
      "inputs": [],
      "name": "pendingOwner",
      "outputs": [
        {
          "internalType": "address",
          "name": "",
          "type": "address"
        }
      ],
      "stateMutability": "view",
      "type": "function"
    },
    {
      "inputs": [],
      "name": "receiver",
      "outputs": [
        {
          "internalType": "address",
          "name": "",
          "type": "address"
        }
      ],
      "stateMutability": "view",
      "type": "function"
    },
    {
      "inputs": [],
      "name": "renounceOwnership",
      "outputs": [],
      "stateMutability": "nonpayable",
      "type": "function"
    },
    {
      "inputs": [],
      "name": "rewardToken",
      "outputs": [
        {
          "internalType": "contract IERC20Mintable",
          "name": "",
          "type": "address"
        }
      ],
      "stateMutability": "view",
      "type": "function"
    },
    {
      "inputs": [],
      "name": "rootHash",
      "outputs": [
        {
          "internalType": "bytes32",
          "name": "",
          "type": "bytes32"
        }
      ],
      "stateMutability": "view",
      "type": "function"
    },
    {
      "inputs": [
        {
          "internalType": "address",
          "name": "pendingOwner_",
          "type": "address"
        }
      ],
      "name": "setPendingOwner",
      "outputs": [],
      "stateMutability": "nonpayable",
      "type": "function"
    },
    {
      "inputs": [
        {
          "internalType": "address",
          "name": "_receiver",
          "type": "address"
        }
      ],
      "name": "setReceiver",
      "outputs": [],
      "stateMutability": "nonpayable",
      "type": "function"
    },
    {
      "inputs": [],
      "name": "totalReleaseAmount",
      "outputs": [
        {
          "internalType": "uint256",
          "name": "",
          "type": "uint256"
        }
      ],
      "stateMutability": "view",
      "type": "function"
    },
    {
      "inputs": [
        {
          "internalType": "bytes32",
          "name": "_rootHash",
          "type": "bytes32"
        },
        {
          "internalType": "uint256",
          "name": "_releaseAmount",
          "type": "uint256"
        },
        {
          "internalType": "uint256",
          "name": "_updateAt",
          "type": "uint256"
        }
      ],
      "name": "updateRootHash",
      "outputs": [],
      "stateMutability": "nonpayable",
      "type": "function"
    },
    {
      "inputs": [
        {
          "internalType": "address",
          "name": "",
          "type": "address"
        }
      ],
      "name": "userClaimed",
      "outputs": [
        {
          "internalType": "uint256",
          "name": "",
          "type": "uint256"
        }
      ],
      "stateMutability": "view",
      "type": "function"
    },
    {
      "inputs": [
        {
          "internalType": "address",
          "name": "",
          "type": "address"
        }
      ],
      "name": "userLastUpdate",
      "outputs": [
        {
          "internalType": "uint256",
          "name": "",
          "type": "uint256"
        }
      ],
      "stateMutability": "view",
      "type": "function"
    }
  ],
  "transactionHash": "0x2f5a9f4193d36b4d45c4ba0a842f0bf63e9281a82229d7c2125232ee9c28a71d",
  "args": [
    "0x456469b4FCd1993A734fe7caE3bE039aB946BA9A",
    "0x7286d8b6a41A3cE6e2360bb62eBc5B15059c2166",
    "0x7286d8b6a41A3cE6e2360bb62eBc5B15059c2166"
  ],
  "solcInputHash": "e533a774d09724de55f0c6c2590573a4",
  "bytecode": "0x60a060405234801561001057600080fd5b5060405161173a38038061173a8339818101604052606081101561003357600080fd5b5080516020820151604090920151909190816001600160a01b03811661005e5761005b61016d565b90505b600080546001600160a01b0319166001600160a01b03831690811782556040519091907f8be0079c531659141344cd1fd0a4f28419497f9722a3daafe3b4186f6b6457e0908290a3506001600160601b0319606084901b166080526001600160a01b038116610107576040805162461bcd60e51b815260206004820152601060248201526f34b63632b3b0b6103932b1b2b4bb32b960811b604482015290519081900360640190fd5b600780546001600160a01b0319166001600160a01b038381169190911791829055604080516000815292909116602083015280517f8c36cb7d5dd6e5782253c7206a7b069026fcf88537a213d67d3fbf4cb4ef4bef9281900390910190a1505050610171565b3390565b60805160601c61159d61019d6000398061078d528061084352806109945280610ffb525061159d6000f3fe608060405234801561001057600080fd5b50600436106101165760003560e01c80638da5cb5b116100a2578063caeae15d11610071578063caeae15d146105c7578063e30c3978146105cf578063ebbc4965146105d7578063f7260d3e146105df578063f7c618c1146105e757610116565b80638da5cb5b1461034e578063ac89593414610372578063c046371114610599578063c42069ec146105a157610116565b80633b7fcdca116100e95780633b7fcdca1461021e5780633cfb3f73146102445780633d13f8741461026a578063715018a614610320578063718da7ee1461032857610116565b80630a624d261461011b578063100f0765146101ce5780631d80009a146101f957806333f707d114610201575b600080fd5b6101bc6004803603602081101561013157600080fd5b810190602081018135600160201b81111561014b57600080fd5b82018360208201111561015d57600080fd5b803590602001918460208302840111600160201b8311171561017e57600080fd5b9190808060200260200160405190810160405280939291908181526020018383602002808284376000920191909152509295506105ef945050505050565b60408051918252519081900360200190f35b6101f7600480360360608110156101e457600080fd5b5080359060208101359060400135610657565b005b6101bc610721565b6101f76004803603602081101561021757600080fd5b5035610727565b6101bc6004803603602081101561023457600080fd5b50356001600160a01b0316610870565b6101bc6004803603602081101561025a57600080fd5b50356001600160a01b0316610882565b6101f76004803603606081101561028057600080fd5b6001600160a01b0382351691602081013591810190606081016040820135600160201b8111156102af57600080fd5b8201836020820111156102c157600080fd5b803590602001918460208302840111600160201b831117156102e257600080fd5b919080806020026020016040519081016040528093929190818152602001838360200280828437600092019190915250929550610894945050505050565b6101f7610a35565b6101f76004803603602081101561033e57600080fd5b50356001600160a01b0316610b3b565b610356610c4c565b604080516001600160a01b039092168252519081900360200190f35b6101f76004803603608081101561038857600080fd5b810190602081018135600160201b8111156103a257600080fd5b8201836020820111156103b457600080fd5b803590602001918460208302840111600160201b831117156103d557600080fd5b9190808060200260200160405190810160405280939291908181526020018383602002808284376000920191909152509295949360208101935035915050600160201b81111561042457600080fd5b82018360208201111561043657600080fd5b803590602001918460208302840111600160201b8311171561045757600080fd5b9190808060200260200160405190810160405280939291908181526020018383602002808284376000920191909152509295949360208101935035915050600160201b8111156104a657600080fd5b8201836020820111156104b857600080fd5b803590602001918460208302840111600160201b831117156104d957600080fd5b9190808060200260200160405190810160405280939291908181526020018383602002808284376000920191909152509295949360208101935035915050600160201b81111561052857600080fd5b82018360208201111561053a57600080fd5b803590602001918460208302840111600160201b8311171561055b57600080fd5b919080806020026020016040519081016040528093929190818152602001838360200280828437600092019190915250929550610c5b945050505050565b6101bc610dd3565b6101f7600480360360208110156105b757600080fd5b50356001600160a01b0316610dd9565b6101bc610edc565b610356610ee2565b6101f7610ef1565b610356610fea565b610356610ff9565b6000805b8251811015610651576106476003600085848151811061060f57fe5b60200260200101516001600160a01b03166001600160a01b03168152602001908152602001600020548361101d90919063ffffffff16565b91506001016105f3565b50919050565b61065f61107e565b6001600160a01b0316610670610c4c565b6001600160a01b0316146106b9576040805162461bcd60e51b815260206004820181905260248201526000805160206114ce833981519152604482015290519081900360640190fd5b60058190556002546040805191825260208201859052818101839052517f643afe342cdaab8a92a8061bc268618b84c9abc46d3b1460c69c8e6484bbe9319181900360600190a16002839055811561071c57600454610718908361101d565b6004555b505050565b60025481565b61072f61107e565b6001600160a01b0316610740610c4c565b6001600160a01b031614610789576040805162461bcd60e51b815260206004820181905260248201526000805160206114ce833981519152604482015290519081900360640190fd5b60007f00000000000000000000000000000000000000000000000000000000000000006001600160a01b03166370a08231306040518263ffffffff1660e01b815260040180826001600160a01b0316815260200191505060206040518083038186803b1580156107f857600080fd5b505afa15801561080c573d6000803e3d6000fd5b505050506040513d602081101561082257600080fd5b5051905081811015610832578091505b60075461086c906001600160a01b037f00000000000000000000000000000000000000000000000000000000000000008116911684611082565b5050565b60036020526000908152604090205481565b60066020526000908152604090205481565b6000838360405160200180836001600160a01b031660601b8152601401828152602001925050506040516020818303038152906040528051906020012090506108e082600254836110d4565b610922576040805162461bcd60e51b815260206004820152600e60248201526d1a5b1b1959d85b08185b5bdd5b9d60921b604482015290519081900360640190fd5b6001600160a01b03841660009081526003602052604090205461094690849061117d565b92508215610a2f576001600160a01b038416600090815260036020526040902054610971908461101d565b6001600160a01b038086166000908152600360205260409020919091556109bb907f0000000000000000000000000000000000000000000000000000000000000000168585611082565b6001600160a01b03841660008181526003602090815260409182902054825193845290830186905282820152517f34fcbac0073d7c3d388e51312faf357774904998eeb8fca628b9e6f65ee1cbf79181900360600190a16005546001600160a01b0385166000908152600660205260409020555b50505050565b610a3d61107e565b6001600160a01b0316610a4e610c4c565b6001600160a01b031614610a97576040805162461bcd60e51b815260206004820181905260248201526000805160206114ce833981519152604482015290519081900360640190fd5b600080546040516001600160a01b03909116907f8be0079c531659141344cd1fd0a4f28419497f9722a3daafe3b4186f6b6457e0908390a3600080546001600160a01b03191690556001546001600160a01b031615610b39576001546040516000916001600160a01b0316907f4465959e7ec1f32e3ebd831ac2459ad6ef4b1d54a83f108a7068e69e62f0702f908390a3600180546001600160a01b03191690555b565b610b4361107e565b6001600160a01b0316610b54610c4c565b6001600160a01b031614610b9d576040805162461bcd60e51b815260206004820181905260248201526000805160206114ce833981519152604482015290519081900360640190fd5b6001600160a01b038116610beb576040805162461bcd60e51b815260206004820152601060248201526f34b63632b3b0b6103932b1b2b4bb32b960811b604482015290519081900360640190fd5b600780546001600160a01b0319166001600160a01b038381169182179283905560408051939091168352602083019190915280517f8c36cb7d5dd6e5782253c7206a7b069026fcf88537a213d67d3fbf4cb4ef4bef9281900390910190a150565b6000546001600160a01b031690565b82518451148015610c6d575081518351145b610caf576040805162461bcd60e51b815260206004820152600e60248201526d0d2d8d8cacec2d840d8cadccee8d60931b604482015290519081900360640190fd5b6000805b8551811015610dcb576000848281518110610cca57fe5b602002602001015167ffffffffffffffff81118015610ce857600080fd5b50604051908082528060200260200182016040528015610d12578160200160208202803683370190505b50905060005b858381518110610d2457fe5b6020026020010151811015610d68578484820181518110610d4157fe5b6020026020010151828281518110610d5557fe5b6020908102919091010152600101610d18565b50610d8f858381518110610d7857fe5b60200260200101518461101d90919063ffffffff16565b9250610dc2878381518110610da057fe5b6020026020010151878481518110610db457fe5b602002602001015183610894565b50600101610cb3565b505050505050565b60055481565b610de161107e565b6001600160a01b0316610df2610c4c565b6001600160a01b031614610e3b576040805162461bcd60e51b815260206004820181905260248201526000805160206114ce833981519152604482015290519081900360640190fd5b6001600160a01b038116610e805760405162461bcd60e51b815260040180806020018281038252602981526020018061153f6029913960400191505060405180910390fd5b6001546040516001600160a01b038084169216907f4465959e7ec1f32e3ebd831ac2459ad6ef4b1d54a83f108a7068e69e62f0702f90600090a3600180546001600160a01b0319166001600160a01b0392909216919091179055565b60045481565b6001546001600160a01b031690565b610ef961107e565b6001600160a01b0316610f0a610ee2565b6001600160a01b031614610f4f5760405162461bcd60e51b81526004018080602001828103825260278152602001806114ee6027913960400191505060405180910390fd5b600154600080546040516001600160a01b0393841693909116917f8be0079c531659141344cd1fd0a4f28419497f9722a3daafe3b4186f6b6457e091a3600154600080546001600160a01b0319166001600160a01b0390921691821781556040519091907f4465959e7ec1f32e3ebd831ac2459ad6ef4b1d54a83f108a7068e69e62f0702f908390a3600180546001600160a01b0319169055565b6007546001600160a01b031681565b7f000000000000000000000000000000000000000000000000000000000000000081565b600082820183811015611077576040805162461bcd60e51b815260206004820152601b60248201527f536166654d6174683a206164646974696f6e206f766572666c6f770000000000604482015290519081900360640190fd5b9392505050565b3390565b604080516001600160a01b038416602482015260448082018490528251808303909101815260649091019091526020810180516001600160e01b031663a9059cbb60e01b17905261071c9084906111da565b600081815b85518110156111725760008682815181106110f057fe5b602002602001015190508083116111375782816040516020018083815260200182815260200192505050604051602081830303815290604052805190602001209250611169565b808360405160200180838152602001828152602001925050506040516020818303038152906040528051906020012092505b506001016110d9565b509092149392505050565b6000828211156111d4576040805162461bcd60e51b815260206004820152601e60248201527f536166654d6174683a207375627472616374696f6e206f766572666c6f770000604482015290519081900360640190fd5b50900390565b600061122f826040518060400160405280602081526020017f5361666545524332303a206c6f772d6c6576656c2063616c6c206661696c6564815250856001600160a01b031661128b9092919063ffffffff16565b80519091501561071c5780806020019051602081101561124e57600080fd5b505161071c5760405162461bcd60e51b815260040180806020018281038252602a815260200180611515602a913960400191505060405180910390fd5b606061129a84846000856112a2565b949350505050565b6060824710156112e35760405162461bcd60e51b81526004018080602001828103825260268152602001806114a86026913960400191505060405180910390fd5b6112ec856113fd565b61133d576040805162461bcd60e51b815260206004820152601d60248201527f416464726573733a2063616c6c20746f206e6f6e2d636f6e7472616374000000604482015290519081900360640190fd5b600080866001600160a01b031685876040518082805190602001908083835b6020831061137b5780518252601f19909201916020918201910161135c565b6001836020036101000a03801982511681845116808217855250505050505090500191505060006040518083038185875af1925050503d80600081146113dd576040519150601f19603f3d011682016040523d82523d6000602084013e6113e2565b606091505b50915091506113f2828286611403565b979650505050505050565b3b151590565b60608315611412575081611077565b8251156114225782518084602001fd5b8160405162461bcd60e51b81526004018080602001828103825283818151815260200191508051906020019080838360005b8381101561146c578181015183820152602001611454565b50505050905090810190601f1680156114995780820380516001836020036101000a031916815260200191505b509250505060405180910390fdfe416464726573733a20696e73756666696369656e742062616c616e636520666f722063616c6c4f776e61626c653a2063616c6c6572206973206e6f7420746865206f776e65724f776e61626c653a2063616c6c6572206973206e6f74207468652070656e64696e674f776e65725361666545524332303a204552433230206f7065726174696f6e20646964206e6f7420737563636565644f776e61626c653a2070656e64696e674f776e657220697320746865207a65726f2061646472657373a264697066735822122005e8709c0d521df0cffe3334d4163da61a7109ce81c2ef8921afc142f5dd65a464736f6c63430007060033",
  "devdoc": {
    "kind": "dev",
    "methods": {},
    "version": 1
  },
  "userdoc": {
    "kind": "user",
    "methods": {},
    "version": 1
  },
  "storageLayout": {
    "storage": [
      {
        "astId": 3297,
        "contract": "contracts/vault/ActiveVault.sol:ActiveVault",
        "label": "_owner",
        "offset": 0,
        "slot": "0",
        "type": "t_address"
      },
      {
        "astId": 3299,
        "contract": "contracts/vault/ActiveVault.sol:ActiveVault",
        "label": "_pendingOwner",
        "offset": 0,
        "slot": "1",
        "type": "t_address"
      },
      {
        "astId": 13182,
        "contract": "contracts/vault/ActiveVault.sol:ActiveVault",
        "label": "rootHash",
        "offset": 0,
        "slot": "2",
        "type": "t_bytes32"
      },
      {
        "astId": 13188,
        "contract": "contracts/vault/ActiveVault.sol:ActiveVault",
        "label": "userClaimed",
        "offset": 0,
        "slot": "3",
        "type": "t_mapping(t_address,t_uint256)"
      },
      {
        "astId": 13190,
        "contract": "contracts/vault/ActiveVault.sol:ActiveVault",
        "label": "totalReleaseAmount",
        "offset": 0,
        "slot": "4",
        "type": "t_uint256"
      },
      {
        "astId": 13192,
        "contract": "contracts/vault/ActiveVault.sol:ActiveVault",
        "label": "lastUpdate",
        "offset": 0,
        "slot": "5",
        "type": "t_uint256"
      },
      {
        "astId": 13196,
        "contract": "contracts/vault/ActiveVault.sol:ActiveVault",
        "label": "userLastUpdate",
        "offset": 0,
        "slot": "6",
        "type": "t_mapping(t_address,t_uint256)"
      },
      {
        "astId": 13198,
        "contract": "contracts/vault/ActiveVault.sol:ActiveVault",
        "label": "receiver",
        "offset": 0,
        "slot": "7",
        "type": "t_address"
      }
    ],
    "types": {
      "t_address": {
        "encoding": "inplace",
        "label": "address",
        "numberOfBytes": "20"
      },
      "t_bytes32": {
        "encoding": "inplace",
        "label": "bytes32",
        "numberOfBytes": "32"
      },
      "t_mapping(t_address,t_uint256)": {
        "encoding": "mapping",
        "key": "t_address",
        "label": "mapping(address => uint256)",
        "numberOfBytes": "32",
        "value": "t_uint256"
      },
      "t_uint256": {
        "encoding": "inplace",
        "label": "uint256",
        "numberOfBytes": "32"
      }
    }
  }
}