{
  "address": "0x83A106A72B911B1BfdE2A3b486D34d36cf205d97",
  "abi": [
    {
      "inputs": [
        {
          "internalType": "string",
          "name": "_name",
          "type": "string"
        },
        {
          "internalType": "string",
          "name": "_symbol",
          "type": "string"
        },
        {
          "internalType": "contract IERC20",
          "name": "_token",
          "type": "address"
        },
        {
          "internalType": "uint256",
          "name": "_firstLockSeconds",
          "type": "uint256"
        },
        {
          "internalType": "uint256",
          "name": "_firstLockPercent",
          "type": "uint256"
        },
        {
          "internalType": "uint256",
          "name": "_lockPeriod",
          "type": "uint256"
        },
        {
          "internalType": "uint256",
          "name": "_lockPeriodNum",
          "type": "uint256"
        }
      ],
      "stateMutability": "nonpayable",
      "type": "constructor"
    },
    {
      "anonymous": false,
      "inputs": [
        {
          "indexed": true,
          "internalType": "address",
          "name": "owner",
          "type": "address"
        },
        {
          "indexed": true,
          "internalType": "address",
          "name": "spender",
          "type": "address"
        },
        {
          "indexed": false,
          "internalType": "uint256",
          "name": "value",
          "type": "uint256"
        }
      ],
      "name": "Approval",
      "type": "event"
    },
    {
      "anonymous": false,
      "inputs": [
        {
          "indexed": false,
          "internalType": "address",
          "name": "receiver",
          "type": "address"
        },
        {
          "indexed": false,
          "internalType": "uint256",
          "name": "sendAmount",
          "type": "uint256"
        },
        {
          "indexed": false,
          "internalType": "uint256",
          "name": "totalReleaseAmount",
          "type": "uint256"
        },
        {
          "indexed": false,
          "internalType": "uint256",
          "name": "lastReleaseAt",
          "type": "uint256"
        }
      ],
      "name": "NewReceiver",
      "type": "event"
    },
    {
      "anonymous": false,
      "inputs": [
        {
          "indexed": false,
          "internalType": "address",
          "name": "receiver",
          "type": "address"
        },
        {
          "indexed": false,
          "internalType": "uint256",
          "name": "releaseAmount",
          "type": "uint256"
        },
        {
          "indexed": false,
          "internalType": "uint256",
          "name": "nextReleaseAmount",
          "type": "uint256"
        },
        {
          "indexed": false,
          "internalType": "uint256",
          "name": "nextReleaseBlockNum",
          "type": "uint256"
        }
      ],
      "name": "ReleaseToken",
      "type": "event"
    },
    {
      "anonymous": false,
      "inputs": [
        {
          "indexed": true,
          "internalType": "address",
          "name": "from",
          "type": "address"
        },
        {
          "indexed": true,
          "internalType": "address",
          "name": "to",
          "type": "address"
        },
        {
          "indexed": false,
          "internalType": "uint256",
          "name": "value",
          "type": "uint256"
        }
      ],
      "name": "Transfer",
      "type": "event"
    },
    {
      "inputs": [],
      "name": "FIRST_LOCK_PERCENT",
      "outputs": [
        {
          "internalType": "uint256",
          "name": "",
          "type": "uint256"
        }
      ],
      "stateMutability": "view",
      "type": "function"
    },
    {
      "inputs": [],
      "name": "FIRST_LOCK_SECONDS",
      "outputs": [
        {
          "internalType": "uint256",
          "name": "",
          "type": "uint256"
        }
      ],
      "stateMutability": "view",
      "type": "function"
    },
    {
      "inputs": [],
      "name": "LOCK_PERIOD",
      "outputs": [
        {
          "internalType": "uint256",
          "name": "",
          "type": "uint256"
        }
      ],
      "stateMutability": "view",
      "type": "function"
    },
    {
      "inputs": [],
      "name": "LOCK_PERIOD_NUM",
      "outputs": [
        {
          "internalType": "uint256",
          "name": "",
          "type": "uint256"
        }
      ],
      "stateMutability": "view",
      "type": "function"
    },
    {
      "inputs": [],
      "name": "MAX_CLAIM_NUM",
      "outputs": [
        {
          "internalType": "uint256",
          "name": "",
          "type": "uint256"
        }
      ],
      "stateMutability": "view",
      "type": "function"
    },
    {
      "inputs": [],
      "name": "PERCENT_BASE",
      "outputs": [
        {
          "internalType": "uint256",
          "name": "",
          "type": "uint256"
        }
      ],
      "stateMutability": "view",
      "type": "function"
    },
    {
      "inputs": [
        {
          "internalType": "address",
          "name": "_receiver",
          "type": "address"
        },
        {
          "internalType": "uint256",
          "name": "_amount",
          "type": "uint256"
        }
      ],
      "name": "addReceiver",
      "outputs": [],
      "stateMutability": "nonpayable",
      "type": "function"
    },
    {
      "inputs": [
        {
          "internalType": "address",
          "name": "owner",
          "type": "address"
        },
        {
          "internalType": "address",
          "name": "spender",
          "type": "address"
        }
      ],
      "name": "allowance",
      "outputs": [
        {
          "internalType": "uint256",
          "name": "",
          "type": "uint256"
        }
      ],
      "stateMutability": "view",
      "type": "function"
    },
    {
      "inputs": [
        {
          "internalType": "address",
          "name": "spender",
          "type": "address"
        },
        {
          "internalType": "uint256",
          "name": "amount",
          "type": "uint256"
        }
      ],
      "name": "approve",
      "outputs": [
        {
          "internalType": "bool",
          "name": "",
          "type": "bool"
        }
      ],
      "stateMutability": "nonpayable",
      "type": "function"
    },
    {
      "inputs": [
        {
          "internalType": "address",
          "name": "account",
          "type": "address"
        }
      ],
      "name": "balanceOf",
      "outputs": [
        {
          "internalType": "uint256",
          "name": "",
          "type": "uint256"
        }
      ],
      "stateMutability": "view",
      "type": "function"
    },
    {
      "inputs": [
        {
          "internalType": "address",
          "name": "_receiver",
          "type": "address"
        }
      ],
      "name": "claim",
      "outputs": [],
      "stateMutability": "nonpayable",
      "type": "function"
    },
    {
      "inputs": [],
      "name": "decimals",
      "outputs": [
        {
          "internalType": "uint8",
          "name": "",
          "type": "uint8"
        }
      ],
      "stateMutability": "view",
      "type": "function"
    },
    {
      "inputs": [
        {
          "internalType": "address",
          "name": "spender",
          "type": "address"
        },
        {
          "internalType": "uint256",
          "name": "subtractedValue",
          "type": "uint256"
        }
      ],
      "name": "decreaseAllowance",
      "outputs": [
        {
          "internalType": "bool",
          "name": "",
          "type": "bool"
        }
      ],
      "stateMutability": "nonpayable",
      "type": "function"
    },
    {
      "inputs": [
        {
          "internalType": "address",
          "name": "_receiver",
          "type": "address"
        }
      ],
      "name": "getReleaseInfo",
      "outputs": [
        {
          "internalType": "uint256",
          "name": "nextReleaseAt",
          "type": "uint256"
        },
        {
          "internalType": "uint256",
          "name": "nextReleaseAmount",
          "type": "uint256"
        },
        {
          "internalType": "uint256",
          "name": "alreadyReleaseAmount",
          "type": "uint256"
        },
        {
          "internalType": "uint256",
          "name": "remainReleaseAmount",
          "type": "uint256"
        }
      ],
      "stateMutability": "view",
      "type": "function"
    },
    {
      "inputs": [
        {
          "internalType": "address",
          "name": "spender",
          "type": "address"
        },
        {
          "internalType": "uint256",
          "name": "addedValue",
          "type": "uint256"
        }
      ],
      "name": "increaseAllowance",
      "outputs": [
        {
          "internalType": "bool",
          "name": "",
          "type": "bool"
        }
      ],
      "stateMutability": "nonpayable",
      "type": "function"
    },
    {
      "inputs": [],
      "name": "name",
      "outputs": [
        {
          "internalType": "string",
          "name": "",
          "type": "string"
        }
      ],
      "stateMutability": "view",
      "type": "function"
    },
    {
      "inputs": [
        {
          "internalType": "address",
          "name": "_receiver",
          "type": "address"
        }
      ],
      "name": "pending",
      "outputs": [
        {
          "internalType": "uint256",
          "name": "",
          "type": "uint256"
        },
        {
          "internalType": "uint256",
          "name": "",
          "type": "uint256"
        },
        {
          "internalType": "uint256",
          "name": "",
          "type": "uint256"
        }
      ],
      "stateMutability": "view",
      "type": "function"
    },
    {
      "inputs": [
        {
          "internalType": "address",
          "name": "",
          "type": "address"
        }
      ],
      "name": "receivers",
      "outputs": [
        {
          "internalType": "address",
          "name": "receiver",
          "type": "address"
        },
        {
          "internalType": "uint256",
          "name": "totalReleaseAmount",
          "type": "uint256"
        },
        {
          "internalType": "bool",
          "name": "firstUnlock",
          "type": "bool"
        },
        {
          "internalType": "uint256",
          "name": "lastReleaseAt",
          "type": "uint256"
        },
        {
          "internalType": "uint256",
          "name": "alreadyReleasedAmount",
          "type": "uint256"
        }
      ],
      "stateMutability": "view",
      "type": "function"
    },
    {
      "inputs": [],
      "name": "symbol",
      "outputs": [
        {
          "internalType": "string",
          "name": "",
          "type": "string"
        }
      ],
      "stateMutability": "view",
      "type": "function"
    },
    {
      "inputs": [],
      "name": "token",
      "outputs": [
        {
          "internalType": "contract IERC20",
          "name": "",
          "type": "address"
        }
      ],
      "stateMutability": "view",
      "type": "function"
    },
    {
      "inputs": [],
      "name": "totalLockAmount",
      "outputs": [
        {
          "internalType": "uint256",
          "name": "",
          "type": "uint256"
        }
      ],
      "stateMutability": "view",
      "type": "function"
    },
    {
      "inputs": [],
      "name": "totalSupply",
      "outputs": [
        {
          "internalType": "uint256",
          "name": "",
          "type": "uint256"
        }
      ],
      "stateMutability": "view",
      "type": "function"
    },
    {
      "inputs": [
        {
          "internalType": "address",
          "name": "recipient",
          "type": "address"
        },
        {
          "internalType": "uint256",
          "name": "amount",
          "type": "uint256"
        }
      ],
      "name": "transfer",
      "outputs": [
        {
          "internalType": "bool",
          "name": "",
          "type": "bool"
        }
      ],
      "stateMutability": "nonpayable",
      "type": "function"
    },
    {
      "inputs": [
        {
          "internalType": "address",
          "name": "sender",
          "type": "address"
        },
        {
          "internalType": "address",
          "name": "recipient",
          "type": "address"
        },
        {
          "internalType": "uint256",
          "name": "amount",
          "type": "uint256"
        }
      ],
      "name": "transferFrom",
      "outputs": [
        {
          "internalType": "bool",
          "name": "",
          "type": "bool"
        }
      ],
      "stateMutability": "nonpayable",
      "type": "function"
    },
    {
      "inputs": [
        {
          "internalType": "address",
          "name": "",
          "type": "address"
        }
      ],
      "name": "userPending",
      "outputs": [
        {
          "internalType": "uint256",
          "name": "",
          "type": "uint256"
        }
      ],
      "stateMutability": "view",
      "type": "function"
    }
  ],
  "transactionHash": "0xd7f954568aa8eebf4a6fdeae8c57649852a90a0c8a8cfd7e68648141dec3c356",
  "args": [
    "Claim TokenLocker",
    "CTokenLocker",
    "0x9BF345565efE79259476b08eB756f4a6224b0b04",
    "0",
    "200000",
    86400,
    80
  ],
  "solcInputHash": "8ede45efb747c027772ef71a4bb32045",
  "bytecode": "0x6101206040523480156200001257600080fd5b506040516200207838038062002078833981810160405260e08110156200003857600080fd5b81019080805160405193929190846401000000008211156200005957600080fd5b9083019060208201858111156200006f57600080fd5b82516401000000008111828201881017156200008a57600080fd5b82525081516020918201929091019080838360005b83811015620000b95781810151838201526020016200009f565b50505050905090810190601f168015620000e75780820380516001836020036101000a031916815260200191505b50604052602001805160405193929190846401000000008211156200010b57600080fd5b9083019060208201858111156200012157600080fd5b82516401000000008111828201881017156200013c57600080fd5b82525081516020918201929091019080838360005b838110156200016b57818101518382015260200162000151565b50505050905090810190601f168015620001995780820380516001836020036101000a031916815260200191505b506040908152602082810151918301516060840151608085015160a09095015189519497509195509392909188918891620001da91600391850190620002e4565b508051620001f0906004906020840190620002e4565b50506005805460ff19166012179055506298968083111562000259576040805162461bcd60e51b815260206004820152601860248201527f696c6c6567616c2066697273744c6f636b50657263656e740000000000000000604482015290519081900360640190fd5b60a08390526001600160a01b038516620002ba576040805162461bcd60e51b815260206004820152601560248201527f746f6b656e2061646472657373206973207a65726f0000000000000000000000604482015290519081900360640190fd5b60609490941b6001600160601b031916610100526080929092525060c05260e05250620003909050565b828054600181600116156101000203166002900490600052602060002090601f0160209004810192826200031c576000855562000367565b82601f106200033757805160ff191683800117855562000367565b8280016001018555821562000367579182015b82811115620003675782518255916020019190600101906200034a565b506200037592915062000379565b5090565b5b808211156200037557600081556001016200037a565b60805160a05160c05160e0516101005160601c611c696200040f600039806106e85280610bce5280610fb652508061084452806109595280610d9252508061066152806109305280610d6b52508061063752806108eb52806109865280610d2b5280610dbf5250806108bc5280610cf85280610e7f5250611c696000f3fe608060405234801561001057600080fd5b50600436106101735760003560e01c80635eebea20116100de57806395d89b4111610097578063a9059cbb11610071578063a9059cbb146104be578063dd62ed3e146104ea578063e959fa0414610518578063fc0c546a1461052057610173565b806395d89b4114610482578063a111bab91461048a578063a457c2d71461049257610173565b80635eebea20146103905780635f3ccdd9146103d4578063684c26111461040057806370a082311461044c578063805d835d146104725780638ace124d1461047a57610173565b80631e83409a116101305780631e83409a146102ba57806323b872dd146102e2578063313ce567146103185780633950935114610336578063414c469514610362578063502ad4ce1461038857610173565b806306fdde0314610178578063095ea7b3146101f55780630cb8150f1461023557806310dbe67f1461029057806318160ddd146102aa5780631820cabb146102b2575b600080fd5b610180610544565b6040805160208082528351818301528351919283929083019185019080838360005b838110156101ba5781810151838201526020016101a2565b50505050905090810190601f1680156101e75780820380516001836020036101000a031916815260200191505b509250505060405180910390f35b6102216004803603604081101561020b57600080fd5b506001600160a01b0381351690602001356105da565b604080519115158252519081900360200190f35b61025b6004803603602081101561024b57600080fd5b50356001600160a01b03166105f8565b604080516001600160a01b03909616865260208601949094529115158484015260608401526080830152519081900360a00190f35b610298610635565b60408051918252519081900360200190f35b610298610659565b61029861065f565b6102e0600480360360208110156102d057600080fd5b50356001600160a01b0316610683565b005b610221600480360360608110156102f857600080fd5b506001600160a01b03813581169160208101359091169060400135610751565b6103206107d9565b6040805160ff9092168252519081900360200190f35b6102216004803603604081101561034c57600080fd5b506001600160a01b0381351690602001356107e2565b6102986004803603602081101561037857600080fd5b50356001600160a01b0316610830565b610298610842565b6103b6600480360360208110156103a657600080fd5b50356001600160a01b0316610866565b60408051938452602084019290925282820152519081900360600190f35b6102e0600480360360408110156103ea57600080fd5b506001600160a01b038135169060200135610a6e565b6104266004803603602081101561041657600080fd5b50356001600160a01b0316610c5b565b604080519485526020850193909352838301919091526060830152519081900360800190f35b6102986004803603602081101561046257600080fd5b50356001600160a01b0316610e57565b610298610e76565b610298610e7d565b610180610ea1565b610298610f02565b610221600480360360408110156104a857600080fd5b506001600160a01b038135169060200135610f08565b610221600480360360408110156104d457600080fd5b506001600160a01b038135169060200135610f70565b6102986004803603604081101561050057600080fd5b506001600160a01b0381358116916020013516610f84565b610298610faf565b610528610fb4565b604080516001600160a01b039092168252519081900360200190f35b60038054604080516020601f60026000196101006001881615020190951694909404938401819004810282018101909252828152606093909290918301828280156105d05780601f106105a5576101008083540402835291602001916105d0565b820191906000526020600020905b8154815290600101906020018083116105b357829003601f168201915b5050505050905090565b60006105ee6105e7610fd8565b8484610fdc565b5060015b92915050565b600760205260009081526040902080546001820154600283015460038401546004909401546001600160a01b0390931693919260ff909116919085565b7f000000000000000000000000000000000000000000000000000000000000000081565b60025490565b7f000000000000000000000000000000000000000000000000000000000000000081565b60005b60648110156106a957610698826110c8565b6106a1576106a9565b600101610686565b506001600160a01b0381166000908152600860205260409020541561074e576001600160a01b03808216600090815260086020526040902054610710917f0000000000000000000000000000000000000000000000000000000000000000169083906111e3565b6001600160a01b03811660009081526008602052604090205461073490829061123a565b6001600160a01b0381166000908152600860205260408120555b50565b600061075e848484611336565b6107ce8461076a610fd8565b6107c985604051806060016040528060288152602001611b53602891396001600160a01b038a166000908152600160205260408120906107a8610fd8565b6001600160a01b031681526020810191909152604001600020549190611491565b610fdc565b5060015b9392505050565b60055460ff1690565b60006105ee6107ef610fd8565b846107c98560016000610800610fd8565b6001600160a01b03908116825260208083019390935260409182016000908120918c168152925290205490611528565b60086020526000908152604090205481565b7f000000000000000000000000000000000000000000000000000000000000000081565b6001600160a01b0380821660008181526007602052604081208054919384938493909116146108a057600080600093509350935050610a67565b6003810154600282015442919060ff1660005b60008261092e577f0000000000000000000000000000000000000000000000000000000000000000840193506109236298968061091d7f0000000000000000000000000000000000000000000000000000000000000000896001015461158290919063ffffffff16565b906115db565b9050600192506109b8565b7f000000000000000000000000000000000000000000000000000000000000000093909301926109b57f000000000000000000000000000000000000000000000000000000000000000061091d62989680816109aa827f0000000000000000000000000000000000000000000000000000000000000000611642565b60018c015490611582565b90505b838510610a0b576109c98183611528565b600487015460018801546109dc91611642565b11156109eb5790810190610a06565b600486015460018701546109fe91611642565b915050610a17565b610a11565b50610a17565b506108b3565b6000610a3e82610a388860040154896001015461164290919063ffffffff16565b90611642565b6001600160a01b038b166000908152600860205260409020549499509190930196509450505050505b9193909250565b60005b6064811015610a9457610a83836110c8565b610a8c57610a94565b600101610a71565b506001600160a01b038216610af0576040805162461bcd60e51b815260206004820152601860248201527f72656365697665722061646472657373206973207a65726f0000000000000000604482015290519081900360640190fd5b60008111610b3e576040805162461bcd60e51b815260206004820152601660248201527572656c6561736520616d6f756e74206973207a65726f60501b604482015290519081900360640190fd5b600654610b4b9082611528565b6006556001600160a01b038216600090815260076020526040812060048101546001820154919291610b88918591610b8291611642565b90611528565b82546001600160a01b0319166001600160a01b038681169190911784556001840182905560028401805460ff1916905542600385015560006004850155909150610bf6907f00000000000000000000000000000000000000000000000000000000000000001633308661169f565b610c0084846116ff565b6003820154604080516001600160a01b0387168152602081018690528082018490526060810192909252517f3884827fc54f3ca6180152f3435804a27e17c9a82a5f7de1655691126ece311a9181900360800190a150505050565b6001600160a01b0381166000818152600760205260408120909182918291829190610cc2576040805162461bcd60e51b81526020600482015260126024820152711c9958d95a5d995c881b9bdd08195e1a5cdd60721b604482015290519081900360640190fd5b80546001600160a01b03878116911614610cea57600080600080945094509450945050610e50565b600281015460ff16610d64577f00000000000000000000000000000000000000000000000000000000000000008160030154019450610d5d6298968061091d7f0000000000000000000000000000000000000000000000000000000000000000846001015461158290919063ffffffff16565b9350610df1565b60038101547f0000000000000000000000000000000000000000000000000000000000000000019450610dee7f000000000000000000000000000000000000000000000000000000000000000061091d6298968081610de3827f0000000000000000000000000000000000000000000000000000000000000000611642565b600187015490611582565b93505b83610e0d8260040154836001015461164290919063ffffffff16565b1015610e295760048101546001820154610e2691611642565b93505b60048101546001820154909350610e409084611642565b915081841115610e4e578193505b505b9193509193565b6001600160a01b0381166000908152602081905260409020545b919050565b6298968081565b7f000000000000000000000000000000000000000000000000000000000000000081565b60048054604080516020601f60026000196101006001881615020190951694909404938401819004810282018101909252828152606093909290918301828280156105d05780601f106105a5576101008083540402835291602001916105d0565b60065481565b60006105ee610f15610fd8565b846107c985604051806060016040528060258152602001611c0f6025913960016000610f3f610fd8565b6001600160a01b03908116825260208083019390935260409182016000908120918d16815292529020549190611491565b60006105ee610f7d610fd8565b8484611336565b6001600160a01b03918216600090815260016020908152604080832093909416825291909152205490565b606481565b7f000000000000000000000000000000000000000000000000000000000000000081565b3390565b6001600160a01b0383166110215760405162461bcd60e51b8152600401808060200182810382526024815260200180611bc16024913960400191505060405180910390fd5b6001600160a01b0382166110665760405162461bcd60e51b8152600401808060200182810382526022815260200180611ac46022913960400191505060405180910390fd5b6001600160a01b03808416600081815260016020908152604080832094871680845294825291829020859055815185815291517f8c5be1e5ebec7d5bd14f71427d1e84f3dd0314c0f7b2291e5b200ac8c7c3b9259281900390910190a3505050565b60008060006110d684610c5b565b505091509150814210806110e8575080155b156110f857600092505050610e71565b6001600160a01b0384166000908152600760205260409020600281015460ff1661112c5760028101805460ff191660011790555b6003810183905560048101546111429083611528565b60048201556006546111549083611642565b6006556001600160a01b03851660009081526008602052604081208054840190558061117f87610c5b565b5050604080516001600160a01b038b168152602081018890528082018490526060810183905290519294509092507fcf9133e9b53c5807f2715505c51b1db615caf0f32801f31abf2137b249a1b589919081900360800190a1509195945050505050565b604080516001600160a01b038416602482015260448082018490528251808303909101815260649091019091526020810180516001600160e01b031663a9059cbb60e01b1790526112359084906117ef565b505050565b6001600160a01b03821661127f5760405162461bcd60e51b8152600401808060200182810382526021815260200180611b7b6021913960400191505060405180910390fd5b61128b82600083611235565b6112c881604051806060016040528060228152602001611aa2602291396001600160a01b0385166000908152602081905260409020549190611491565b6001600160a01b0383166000908152602081905260409020556002546112ee9082611642565b6002556040805182815290516000916001600160a01b038516917fddf252ad1be2c89b69c2b068fc378daa952ba7f163c4a11628f55a4df523b3ef9181900360200190a35050565b6001600160a01b03831661137b5760405162461bcd60e51b8152600401808060200182810382526025815260200180611b9c6025913960400191505060405180910390fd5b6001600160a01b0382166113c05760405162461bcd60e51b8152600401808060200182810382526023815260200180611a7f6023913960400191505060405180910390fd5b6113cb838383611235565b61140881604051806060016040528060268152602001611ae6602691396001600160a01b0386166000908152602081905260409020549190611491565b6001600160a01b0380851660009081526020819052604080822093909355908416815220546114379082611528565b6001600160a01b038084166000818152602081815260409182902094909455805185815290519193928716927fddf252ad1be2c89b69c2b068fc378daa952ba7f163c4a11628f55a4df523b3ef92918290030190a3505050565b600081848411156115205760405162461bcd60e51b81526004018080602001828103825283818151815260200191508051906020019080838360005b838110156114e55781810151838201526020016114cd565b50505050905090810190601f1680156115125780820380516001836020036101000a031916815260200191505b509250505060405180910390fd5b505050900390565b6000828201838110156107d2576040805162461bcd60e51b815260206004820152601b60248201527f536166654d6174683a206164646974696f6e206f766572666c6f770000000000604482015290519081900360640190fd5b600082611591575060006105f2565b8282028284828161159e57fe5b04146107d25760405162461bcd60e51b8152600401808060200182810382526021815260200180611b326021913960400191505060405180910390fd5b6000808211611631576040805162461bcd60e51b815260206004820152601a60248201527f536166654d6174683a206469766973696f6e206279207a65726f000000000000604482015290519081900360640190fd5b81838161163a57fe5b049392505050565b600082821115611699576040805162461bcd60e51b815260206004820152601e60248201527f536166654d6174683a207375627472616374696f6e206f766572666c6f770000604482015290519081900360640190fd5b50900390565b604080516001600160a01b0380861660248301528416604482015260648082018490528251808303909101815260849091019091526020810180516001600160e01b03166323b872dd60e01b1790526116f99085906117ef565b50505050565b6001600160a01b03821661175a576040805162461bcd60e51b815260206004820152601f60248201527f45524332303a206d696e7420746f20746865207a65726f206164647265737300604482015290519081900360640190fd5b61176660008383611235565b6002546117739082611528565b6002556001600160a01b0382166000908152602081905260409020546117999082611528565b6001600160a01b0383166000818152602081815260408083209490945583518581529351929391927fddf252ad1be2c89b69c2b068fc378daa952ba7f163c4a11628f55a4df523b3ef9281900390910190a35050565b6000611844826040518060400160405280602081526020017f5361666545524332303a206c6f772d6c6576656c2063616c6c206661696c6564815250856001600160a01b03166118a09092919063ffffffff16565b8051909150156112355780806020019051602081101561186357600080fd5b50516112355760405162461bcd60e51b815260040180806020018281038252602a815260200180611be5602a913960400191505060405180910390fd5b60606118af84846000856118b7565b949350505050565b6060824710156118f85760405162461bcd60e51b8152600401808060200182810382526026815260200180611b0c6026913960400191505060405180910390fd5b61190185611a12565b611952576040805162461bcd60e51b815260206004820152601d60248201527f416464726573733a2063616c6c20746f206e6f6e2d636f6e7472616374000000604482015290519081900360640190fd5b600080866001600160a01b031685876040518082805190602001908083835b602083106119905780518252601f199092019160209182019101611971565b6001836020036101000a03801982511681845116808217855250505050505090500191505060006040518083038185875af1925050503d80600081146119f2576040519150601f19603f3d011682016040523d82523d6000602084013e6119f7565b606091505b5091509150611a07828286611a18565b979650505050505050565b3b151590565b60608315611a275750816107d2565b825115611a375782518084602001fd5b60405162461bcd60e51b81526020600482018181528451602484015284518593919283926044019190850190808383600083156114e55781810151838201526020016114cd56fe45524332303a207472616e7366657220746f20746865207a65726f206164647265737345524332303a206275726e20616d6f756e7420657863656564732062616c616e636545524332303a20617070726f766520746f20746865207a65726f206164647265737345524332303a207472616e7366657220616d6f756e7420657863656564732062616c616e6365416464726573733a20696e73756666696369656e742062616c616e636520666f722063616c6c536166654d6174683a206d756c7469706c69636174696f6e206f766572666c6f7745524332303a207472616e7366657220616d6f756e74206578636565647320616c6c6f77616e636545524332303a206275726e2066726f6d20746865207a65726f206164647265737345524332303a207472616e736665722066726f6d20746865207a65726f206164647265737345524332303a20617070726f76652066726f6d20746865207a65726f20616464726573735361666545524332303a204552433230206f7065726174696f6e20646964206e6f74207375636365656445524332303a2064656372656173656420616c6c6f77616e63652062656c6f77207a65726fa2646970667358221220a937058d6e98e6fb1c6d5a43207cfdcf945acc9e93f8abe3c89cd6994886788e64736f6c63430007060033",
  "devdoc": {
    "kind": "dev",
    "methods": {
      "allowance(address,address)": {
        "details": "See {IERC20-allowance}."
      },
      "approve(address,uint256)": {
        "details": "See {IERC20-approve}. Requirements: - `spender` cannot be the zero address."
      },
      "balanceOf(address)": {
        "details": "See {IERC20-balanceOf}."
      },
      "decimals()": {
        "details": "Returns the number of decimals used to get its user representation. For example, if `decimals` equals `2`, a balance of `505` tokens should be displayed to a user as `5,05` (`505 / 10 ** 2`). Tokens usually opt for a value of 18, imitating the relationship between Ether and Wei. This is the value {ERC20} uses, unless {_setupDecimals} is called. NOTE: This information is only used for _display_ purposes: it in no way affects any of the arithmetic of the contract, including {IERC20-balanceOf} and {IERC20-transfer}."
      },
      "decreaseAllowance(address,uint256)": {
        "details": "Atomically decreases the allowance granted to `spender` by the caller. This is an alternative to {approve} that can be used as a mitigation for problems described in {IERC20-approve}. Emits an {Approval} event indicating the updated allowance. Requirements: - `spender` cannot be the zero address. - `spender` must have allowance for the caller of at least `subtractedValue`."
      },
      "increaseAllowance(address,uint256)": {
        "details": "Atomically increases the allowance granted to `spender` by the caller. This is an alternative to {approve} that can be used as a mitigation for problems described in {IERC20-approve}. Emits an {Approval} event indicating the updated allowance. Requirements: - `spender` cannot be the zero address."
      },
      "name()": {
        "details": "Returns the name of the token."
      },
      "symbol()": {
        "details": "Returns the symbol of the token, usually a shorter version of the name."
      },
      "totalSupply()": {
        "details": "See {IERC20-totalSupply}."
      },
      "transfer(address,uint256)": {
        "details": "See {IERC20-transfer}. Requirements: - `recipient` cannot be the zero address. - the caller must have a balance of at least `amount`."
      },
      "transferFrom(address,address,uint256)": {
        "details": "See {IERC20-transferFrom}. Emits an {Approval} event indicating the updated allowance. This is not required by the EIP. See the note at the beginning of {ERC20}. Requirements: - `sender` and `recipient` cannot be the zero address. - `sender` must have a balance of at least `amount`. - the caller must have allowance for ``sender``'s tokens of at least `amount`."
      }
    },
    "version": 1
  },
  "userdoc": {
    "kind": "user",
    "methods": {},
    "version": 1
  },
  "storageLayout": {
    "storage": [
      {
        "astId": 515,
        "contract": "contracts/token/TokenLocker.sol:TokenLocker",
        "label": "_balances",
        "offset": 0,
        "slot": "0",
        "type": "t_mapping(t_address,t_uint256)"
      },
      {
        "astId": 521,
        "contract": "contracts/token/TokenLocker.sol:TokenLocker",
        "label": "_allowances",
        "offset": 0,
        "slot": "1",
        "type": "t_mapping(t_address,t_mapping(t_address,t_uint256))"
      },
      {
        "astId": 523,
        "contract": "contracts/token/TokenLocker.sol:TokenLocker",
        "label": "_totalSupply",
        "offset": 0,
        "slot": "2",
        "type": "t_uint256"
      },
      {
        "astId": 525,
        "contract": "contracts/token/TokenLocker.sol:TokenLocker",
        "label": "_name",
        "offset": 0,
        "slot": "3",
        "type": "t_string_storage"
      },
      {
        "astId": 527,
        "contract": "contracts/token/TokenLocker.sol:TokenLocker",
        "label": "_symbol",
        "offset": 0,
        "slot": "4",
        "type": "t_string_storage"
      },
      {
        "astId": 529,
        "contract": "contracts/token/TokenLocker.sol:TokenLocker",
        "label": "_decimals",
        "offset": 0,
        "slot": "5",
        "type": "t_uint8"
      },
      {
        "astId": 9980,
        "contract": "contracts/token/TokenLocker.sol:TokenLocker",
        "label": "totalLockAmount",
        "offset": 0,
        "slot": "6",
        "type": "t_uint256"
      },
      {
        "astId": 9995,
        "contract": "contracts/token/TokenLocker.sol:TokenLocker",
        "label": "receivers",
        "offset": 0,
        "slot": "7",
        "type": "t_mapping(t_address,t_struct(ReleaseInfo)9991_storage)"
      },
      {
        "astId": 9999,
        "contract": "contracts/token/TokenLocker.sol:TokenLocker",
        "label": "userPending",
        "offset": 0,
        "slot": "8",
        "type": "t_mapping(t_address,t_uint256)"
      }
    ],
    "types": {
      "t_address": {
        "encoding": "inplace",
        "label": "address",
        "numberOfBytes": "20"
      },
      "t_bool": {
        "encoding": "inplace",
        "label": "bool",
        "numberOfBytes": "1"
      },
      "t_mapping(t_address,t_mapping(t_address,t_uint256))": {
        "encoding": "mapping",
        "key": "t_address",
        "label": "mapping(address => mapping(address => uint256))",
        "numberOfBytes": "32",
        "value": "t_mapping(t_address,t_uint256)"
      },
      "t_mapping(t_address,t_struct(ReleaseInfo)9991_storage)": {
        "encoding": "mapping",
        "key": "t_address",
        "label": "mapping(address => struct TokenLocker.ReleaseInfo)",
        "numberOfBytes": "32",
        "value": "t_struct(ReleaseInfo)9991_storage"
      },
      "t_mapping(t_address,t_uint256)": {
        "encoding": "mapping",
        "key": "t_address",
        "label": "mapping(address => uint256)",
        "numberOfBytes": "32",
        "value": "t_uint256"
      },
      "t_string_storage": {
        "encoding": "bytes",
        "label": "string",
        "numberOfBytes": "32"
      },
      "t_struct(ReleaseInfo)9991_storage": {
        "encoding": "inplace",
        "label": "struct TokenLocker.ReleaseInfo",
        "members": [
          {
            "astId": 9982,
            "contract": "contracts/token/TokenLocker.sol:TokenLocker",
            "label": "receiver",
            "offset": 0,
            "slot": "0",
            "type": "t_address"
          },
          {
            "astId": 9984,
            "contract": "contracts/token/TokenLocker.sol:TokenLocker",
            "label": "totalReleaseAmount",
            "offset": 0,
            "slot": "1",
            "type": "t_uint256"
          },
          {
            "astId": 9986,
            "contract": "contracts/token/TokenLocker.sol:TokenLocker",
            "label": "firstUnlock",
            "offset": 0,
            "slot": "2",
            "type": "t_bool"
          },
          {
            "astId": 9988,
            "contract": "contracts/token/TokenLocker.sol:TokenLocker",
            "label": "lastReleaseAt",
            "offset": 0,
            "slot": "3",
            "type": "t_uint256"
          },
          {
            "astId": 9990,
            "contract": "contracts/token/TokenLocker.sol:TokenLocker",
            "label": "alreadyReleasedAmount",
            "offset": 0,
            "slot": "4",
            "type": "t_uint256"
          }
        ],
        "numberOfBytes": "160"
      },
      "t_uint256": {
        "encoding": "inplace",
        "label": "uint256",
        "numberOfBytes": "32"
      },
      "t_uint8": {
        "encoding": "inplace",
        "label": "uint8",
        "numberOfBytes": "1"
      }
    }
  }
}