{
  "address": "0x0Eb024b9b0A7452633a1AfAf5405CaA8aC2DAd8b",
  "abi": [
    {
      "inputs": [
        {
          "internalType": "contract IFINGOToken",
          "name": "_rewardToken",
          "type": "address"
        },
        {
          "internalType": "address",
          "name": "_owner",
          "type": "address"
        }
      ],
      "stateMutability": "nonpayable",
      "type": "constructor"
    },
    {
      "anonymous": false,
      "inputs": [
        {
          "indexed": true,
          "internalType": "address",
          "name": "previousPendingOwner",
          "type": "address"
        },
        {
          "indexed": true,
          "internalType": "address",
          "name": "newPendingOwner",
          "type": "address"
        }
      ],
      "name": "ChangePendingOwner",
      "type": "event"
    },
    {
      "anonymous": false,
      "inputs": [
        {
          "indexed": false,
          "internalType": "address",
          "name": "user",
          "type": "address"
        },
        {
          "indexed": false,
          "internalType": "uint256",
          "name": "amount",
          "type": "uint256"
        },
        {
          "indexed": false,
          "internalType": "uint256",
          "name": "totalAmount",
          "type": "uint256"
        }
      ],
      "name": "Claim",
      "type": "event"
    },
    {
      "anonymous": false,
      "inputs": [
        {
          "indexed": false,
          "internalType": "bytes32",
          "name": "oldHash",
          "type": "bytes32"
        },
        {
          "indexed": false,
          "internalType": "bytes32",
          "name": "newHash",
          "type": "bytes32"
        },
        {
          "indexed": false,
          "internalType": "uint256",
          "name": "updateAt",
          "type": "uint256"
        }
      ],
      "name": "NewHash",
      "type": "event"
    },
    {
      "anonymous": false,
      "inputs": [
        {
          "indexed": true,
          "internalType": "address",
          "name": "previousOwner",
          "type": "address"
        },
        {
          "indexed": true,
          "internalType": "address",
          "name": "newOwner",
          "type": "address"
        }
      ],
      "name": "OwnershipTransferred",
      "type": "event"
    },
    {
      "inputs": [],
      "name": "acceptOwner",
      "outputs": [],
      "stateMutability": "nonpayable",
      "type": "function"
    },
    {
      "inputs": [
        {
          "internalType": "address",
          "name": "_to",
          "type": "address"
        },
        {
          "internalType": "uint256",
          "name": "_amount",
          "type": "uint256"
        },
        {
          "internalType": "bytes32[]",
          "name": "_proof",
          "type": "bytes32[]"
        }
      ],
      "name": "claim",
      "outputs": [],
      "stateMutability": "nonpayable",
      "type": "function"
    },
    {
      "inputs": [
        {
          "internalType": "address[]",
          "name": "_users",
          "type": "address[]"
        },
        {
          "internalType": "uint256[]",
          "name": "_amounts",
          "type": "uint256[]"
        },
        {
          "internalType": "uint256[]",
          "name": "_sizes",
          "type": "uint256[]"
        },
        {
          "internalType": "bytes32[]",
          "name": "_proof",
          "type": "bytes32[]"
        }
      ],
      "name": "claimAll",
      "outputs": [],
      "stateMutability": "nonpayable",
      "type": "function"
    },
    {
      "inputs": [
        {
          "internalType": "address[]",
          "name": "addresses",
          "type": "address[]"
        }
      ],
      "name": "getAllUserClaimed",
      "outputs": [
        {
          "internalType": "uint256",
          "name": "claimed",
          "type": "uint256"
        }
      ],
      "stateMutability": "view",
      "type": "function"
    },
    {
      "inputs": [],
      "name": "lastUpdate",
      "outputs": [
        {
          "internalType": "uint256",
          "name": "",
          "type": "uint256"
        }
      ],
      "stateMutability": "view",
      "type": "function"
    },
    {
      "inputs": [],
      "name": "owner",
      "outputs": [
        {
          "internalType": "address",
          "name": "",
          "type": "address"
        }
      ],
      "stateMutability": "view",
      "type": "function"
    },
    {
      "inputs": [],
      "name": "pendingOwner",
      "outputs": [
        {
          "internalType": "address",
          "name": "",
          "type": "address"
        }
      ],
      "stateMutability": "view",
      "type": "function"
    },
    {
      "inputs": [],
      "name": "renounceOwnership",
      "outputs": [],
      "stateMutability": "nonpayable",
      "type": "function"
    },
    {
      "inputs": [],
      "name": "rewardToken",
      "outputs": [
        {
          "internalType": "contract IFINGOToken",
          "name": "",
          "type": "address"
        }
      ],
      "stateMutability": "view",
      "type": "function"
    },
    {
      "inputs": [],
      "name": "rootHash",
      "outputs": [
        {
          "internalType": "bytes32",
          "name": "",
          "type": "bytes32"
        }
      ],
      "stateMutability": "view",
      "type": "function"
    },
    {
      "inputs": [
        {
          "internalType": "address",
          "name": "pendingOwner_",
          "type": "address"
        }
      ],
      "name": "setPendingOwner",
      "outputs": [],
      "stateMutability": "nonpayable",
      "type": "function"
    },
    {
      "inputs": [],
      "name": "totalReleaseAmount",
      "outputs": [
        {
          "internalType": "uint256",
          "name": "",
          "type": "uint256"
        }
      ],
      "stateMutability": "view",
      "type": "function"
    },
    {
      "inputs": [
        {
          "internalType": "bytes32",
          "name": "_rootHash",
          "type": "bytes32"
        },
        {
          "internalType": "uint256",
          "name": "_releaseAmount",
          "type": "uint256"
        },
        {
          "internalType": "uint256",
          "name": "_updateAt",
          "type": "uint256"
        }
      ],
      "name": "updateRooHash",
      "outputs": [],
      "stateMutability": "nonpayable",
      "type": "function"
    },
    {
      "inputs": [
        {
          "internalType": "address",
          "name": "",
          "type": "address"
        }
      ],
      "name": "userClaimed",
      "outputs": [
        {
          "internalType": "uint256",
          "name": "",
          "type": "uint256"
        }
      ],
      "stateMutability": "view",
      "type": "function"
    }
  ],
  "transactionHash": "0x6ce4d9c2d0af3800794149b35d49ea44a1e1e7434a62595c76bde9f1f2364b9e",
  "args": [
    "0xFc91E19833D05654a396E7B43726baD1692b0b21",
    "0x274fb58a4A2001699CdfF099E5c2aBE99aCc0C7F"
  ],
  "solcInputHash": "3d9e9eb3e3188c0241d398a1cb1b84fd",
  "bytecode": "0x60a060405234801561001057600080fd5b506040516114433803806114438339818101604052604081101561003357600080fd5b508051602090910151806001600160a01b038116610056576100536100b5565b90505b600080546001600160a01b0319166001600160a01b03831690811782556040519091907f8be0079c531659141344cd1fd0a4f28419497f9722a3daafe3b4186f6b6457e0908290a3505060601b6001600160601b0319166080526100b9565b3390565b60805160601c6113636100e0600039806106d2528061088d5280610de152506113636000f3fe608060405234801561001057600080fd5b50600436106100ea5760003560e01c8063ac8959341161008c578063caeae15d11610066578063caeae15d14610532578063e30c39781461053a578063ebbc496514610542578063f7c618c11461054a576100ea565b8063ac895934146102dd578063c046371114610504578063c42069ec1461050c576100ea565b80633d13f874116100c85780633d13f874146101d057806343da991114610288578063715018a6146102b15780638da5cb5b146102b9576100ea565b80630a624d26146100ef5780631d80009a146101a25780633b7fcdca146101aa575b600080fd5b6101906004803603602081101561010557600080fd5b810190602081018135600160201b81111561011f57600080fd5b82018360208201111561013157600080fd5b803590602001918460208302840111600160201b8311171561015257600080fd5b919080806020026020016040519081016040528093929190818152602001838360200280828437600092019190915250929550610552945050505050565b60408051918252519081900360200190f35b6101906105ba565b610190600480360360208110156101c057600080fd5b50356001600160a01b03166105c0565b610286600480360360608110156101e657600080fd5b6001600160a01b0382351691602081013591810190606081016040820135600160201b81111561021557600080fd5b82018360208201111561022757600080fd5b803590602001918460208302840111600160201b8311171561024857600080fd5b9190808060200260200160405190810160405280939291908181526020018383602002808284376000920191909152509295506105d2945050505050565b005b6102866004803603606081101561029e57600080fd5b5080359060208101359060400135610757565b610286610917565b6102c1610a2f565b604080516001600160a01b039092168252519081900360200190f35b610286600480360360808110156102f357600080fd5b810190602081018135600160201b81111561030d57600080fd5b82018360208201111561031f57600080fd5b803590602001918460208302840111600160201b8311171561034057600080fd5b9190808060200260200160405190810160405280939291908181526020018383602002808284376000920191909152509295949360208101935035915050600160201b81111561038f57600080fd5b8201836020820111156103a157600080fd5b803590602001918460208302840111600160201b831117156103c257600080fd5b9190808060200260200160405190810160405280939291908181526020018383602002808284376000920191909152509295949360208101935035915050600160201b81111561041157600080fd5b82018360208201111561042357600080fd5b803590602001918460208302840111600160201b8311171561044457600080fd5b9190808060200260200160405190810160405280939291908181526020018383602002808284376000920191909152509295949360208101935035915050600160201b81111561049357600080fd5b8201836020820111156104a557600080fd5b803590602001918460208302840111600160201b831117156104c657600080fd5b919080806020026020016040519081016040528093929190818152602001838360200280828437600092019190915250929550610a3e945050505050565b610190610bb6565b6102866004803603602081101561052257600080fd5b50356001600160a01b0316610bbc565b610190610cd1565b6102c1610cd7565b610286610ce6565b6102c1610ddf565b6000805b82518110156105b4576105aa6003600085848151811061057257fe5b60200260200101516001600160a01b03166001600160a01b031681526020019081526020016000205483610e0390919063ffffffff16565b9150600101610556565b50919050565b60025481565b60036020526000908152604090205481565b6000838360405160200180836001600160a01b031660601b81526014018281526020019250505060405160208183030381529060405280519060200120905061061e8260025483610e64565b610660576040805162461bcd60e51b815260206004820152600e60248201526d1a5b1b1959d85b08185b5bdd5b9d60921b604482015290519081900360640190fd5b6001600160a01b038416600090815260036020526040902054610684908490610f0d565b92508215610751576001600160a01b0384166000908152600360205260409020546106af9084610e03565b6001600160a01b038086166000908152600360205260409020919091556106f9907f0000000000000000000000000000000000000000000000000000000000000000168585610f6a565b6001600160a01b03841660008181526003602090815260409182902054825193845290830186905282820152517f34fcbac0073d7c3d388e51312faf357774904998eeb8fca628b9e6f65ee1cbf79181900360600190a15b50505050565b61075f610fbc565b6001600160a01b0316610770610a2f565b6001600160a01b0316146107cb576040805162461bcd60e51b815260206004820181905260248201527f4f776e61626c653a2063616c6c6572206973206e6f7420746865206f776e6572604482015290519081900360640190fd5b6005548111610814576040805162461bcd60e51b815260206004820152601060248201526f185b1c9958591e481d5c19185d19595960821b604482015290519081900360640190fd5b60058190556002546040805191825260208201859052818101839052517f643afe342cdaab8a92a8061bc268618b84c9abc46d3b1460c69c8e6484bbe9319181900360600190a16002839055811561091257604080516340c10f1960e01b81523060048201526024810184905290516001600160a01b037f000000000000000000000000000000000000000000000000000000000000000016916340c10f199160448083019260209291908290030181600087803b1580156108d557600080fd5b505af11580156108e9573d6000803e3d6000fd5b505050506040513d60208110156108ff57600080fd5b505060045461090e9083610e03565b6004555b505050565b61091f610fbc565b6001600160a01b0316610930610a2f565b6001600160a01b03161461098b576040805162461bcd60e51b815260206004820181905260248201527f4f776e61626c653a2063616c6c6572206973206e6f7420746865206f776e6572604482015290519081900360640190fd5b600080546040516001600160a01b03909116907f8be0079c531659141344cd1fd0a4f28419497f9722a3daafe3b4186f6b6457e0908390a3600080546001600160a01b03191690556001546001600160a01b031615610a2d576001546040516000916001600160a01b0316907f4465959e7ec1f32e3ebd831ac2459ad6ef4b1d54a83f108a7068e69e62f0702f908390a3600180546001600160a01b03191690555b565b6000546001600160a01b031690565b82518451148015610a50575081518351145b610a92576040805162461bcd60e51b815260206004820152600e60248201526d0d2d8d8cacec2d840d8cadccee8d60931b604482015290519081900360640190fd5b6000805b8551811015610bae576000848281518110610aad57fe5b602002602001015167ffffffffffffffff81118015610acb57600080fd5b50604051908082528060200260200182016040528015610af5578160200160208202803683370190505b50905060005b858381518110610b0757fe5b6020026020010151811015610b4b578484820181518110610b2457fe5b6020026020010151828281518110610b3857fe5b6020908102919091010152600101610afb565b50610b72858381518110610b5b57fe5b602002602001015184610e0390919063ffffffff16565b9250610ba5878381518110610b8357fe5b6020026020010151878481518110610b9757fe5b6020026020010151836105d2565b50600101610a96565b505050505050565b60055481565b610bc4610fbc565b6001600160a01b0316610bd5610a2f565b6001600160a01b031614610c30576040805162461bcd60e51b815260206004820181905260248201527f4f776e61626c653a2063616c6c6572206973206e6f7420746865206f776e6572604482015290519081900360640190fd5b6001600160a01b038116610c755760405162461bcd60e51b81526004018080602001828103825260298152602001806113056029913960400191505060405180910390fd5b6001546040516001600160a01b038084169216907f4465959e7ec1f32e3ebd831ac2459ad6ef4b1d54a83f108a7068e69e62f0702f90600090a3600180546001600160a01b0319166001600160a01b0392909216919091179055565b60045481565b6001546001600160a01b031690565b610cee610fbc565b6001600160a01b0316610cff610cd7565b6001600160a01b031614610d445760405162461bcd60e51b81526004018080602001828103825260278152602001806112b46027913960400191505060405180910390fd5b600154600080546040516001600160a01b0393841693909116917f8be0079c531659141344cd1fd0a4f28419497f9722a3daafe3b4186f6b6457e091a3600154600080546001600160a01b0319166001600160a01b0390921691821781556040519091907f4465959e7ec1f32e3ebd831ac2459ad6ef4b1d54a83f108a7068e69e62f0702f908390a3600180546001600160a01b0319169055565b7f000000000000000000000000000000000000000000000000000000000000000081565b600082820183811015610e5d576040805162461bcd60e51b815260206004820152601b60248201527f536166654d6174683a206164646974696f6e206f766572666c6f770000000000604482015290519081900360640190fd5b9392505050565b600081815b8551811015610f02576000868281518110610e8057fe5b60200260200101519050808311610ec75782816040516020018083815260200182815260200192505050604051602081830303815290604052805190602001209250610ef9565b808360405160200180838152602001828152602001925050506040516020818303038152906040528051906020012092505b50600101610e69565b509092149392505050565b600082821115610f64576040805162461bcd60e51b815260206004820152601e60248201527f536166654d6174683a207375627472616374696f6e206f766572666c6f770000604482015290519081900360640190fd5b50900390565b604080516001600160a01b038416602482015260448082018490528251808303909101815260649091019091526020810180516001600160e01b031663a9059cbb60e01b179052610912908490610fc0565b3390565b6000611015826040518060400160405280602081526020017f5361666545524332303a206c6f772d6c6576656c2063616c6c206661696c6564815250856001600160a01b03166110719092919063ffffffff16565b8051909150156109125780806020019051602081101561103457600080fd5b50516109125760405162461bcd60e51b815260040180806020018281038252602a8152602001806112db602a913960400191505060405180910390fd5b60606110808484600085611088565b949350505050565b6060824710156110c95760405162461bcd60e51b815260040180806020018281038252602681526020018061128e6026913960400191505060405180910390fd5b6110d2856111e3565b611123576040805162461bcd60e51b815260206004820152601d60248201527f416464726573733a2063616c6c20746f206e6f6e2d636f6e7472616374000000604482015290519081900360640190fd5b600080866001600160a01b031685876040518082805190602001908083835b602083106111615780518252601f199092019160209182019101611142565b6001836020036101000a03801982511681845116808217855250505050505090500191505060006040518083038185875af1925050503d80600081146111c3576040519150601f19603f3d011682016040523d82523d6000602084013e6111c8565b606091505b50915091506111d88282866111e9565b979650505050505050565b3b151590565b606083156111f8575081610e5d565b8251156112085782518084602001fd5b8160405162461bcd60e51b81526004018080602001828103825283818151815260200191508051906020019080838360005b8381101561125257818101518382015260200161123a565b50505050905090810190601f16801561127f5780820380516001836020036101000a031916815260200191505b509250505060405180910390fdfe416464726573733a20696e73756666696369656e742062616c616e636520666f722063616c6c4f776e61626c653a2063616c6c6572206973206e6f74207468652070656e64696e674f776e65725361666545524332303a204552433230206f7065726174696f6e20646964206e6f7420737563636565644f776e61626c653a2070656e64696e674f776e657220697320746865207a65726f2061646472657373a26469706673582212203664c80c71e0ded34ef79a0545e946fea5e83b292607296cca50f4153a2a3af264736f6c63430007060033",
  "devdoc": {
    "kind": "dev",
    "methods": {},
    "version": 1
  },
  "userdoc": {
    "kind": "user",
    "methods": {},
    "version": 1
  },
  "storageLayout": {
    "storage": [
      {
        "astId": 1665,
        "contract": "contracts/vault/FINGOVault.sol:FINGOVault",
        "label": "_owner",
        "offset": 0,
        "slot": "0",
        "type": "t_address"
      },
      {
        "astId": 1667,
        "contract": "contracts/vault/FINGOVault.sol:FINGOVault",
        "label": "_pendingOwner",
        "offset": 0,
        "slot": "1",
        "type": "t_address"
      },
      {
        "astId": 5220,
        "contract": "contracts/vault/FINGOVault.sol:FINGOVault",
        "label": "rootHash",
        "offset": 0,
        "slot": "2",
        "type": "t_bytes32"
      },
      {
        "astId": 5226,
        "contract": "contracts/vault/FINGOVault.sol:FINGOVault",
        "label": "userClaimed",
        "offset": 0,
        "slot": "3",
        "type": "t_mapping(t_address,t_uint256)"
      },
      {
        "astId": 5228,
        "contract": "contracts/vault/FINGOVault.sol:FINGOVault",
        "label": "totalReleaseAmount",
        "offset": 0,
        "slot": "4",
        "type": "t_uint256"
      },
      {
        "astId": 5230,
        "contract": "contracts/vault/FINGOVault.sol:FINGOVault",
        "label": "lastUpdate",
        "offset": 0,
        "slot": "5",
        "type": "t_uint256"
      }
    ],
    "types": {
      "t_address": {
        "encoding": "inplace",
        "label": "address",
        "numberOfBytes": "20"
      },
      "t_bytes32": {
        "encoding": "inplace",
        "label": "bytes32",
        "numberOfBytes": "32"
      },
      "t_mapping(t_address,t_uint256)": {
        "encoding": "mapping",
        "key": "t_address",
        "label": "mapping(address => uint256)",
        "numberOfBytes": "32",
        "value": "t_uint256"
      },
      "t_uint256": {
        "encoding": "inplace",
        "label": "uint256",
        "numberOfBytes": "32"
      }
    }
  }
}