{
  "address": "0xe12A9f2fD128335B386EaA03a35bEc9422FcAd61",
  "abi": [
    {
      "inputs": [
        {
          "internalType": "contract IERC20Mintable",
          "name": "_rewardToken",
          "type": "address"
        },
        {
          "internalType": "uint256",
          "name": "_rewardPerBlock",
          "type": "uint256"
        },
        {
          "internalType": "uint256",
          "name": "_startBlock",
          "type": "uint256"
        }
      ],
      "stateMutability": "nonpayable",
      "type": "constructor"
    },
    {
      "anonymous": false,
      "inputs": [
        {
          "indexed": true,
          "internalType": "address",
          "name": "previousPendingOwner",
          "type": "address"
        },
        {
          "indexed": true,
          "internalType": "address",
          "name": "newPendingOwner",
          "type": "address"
        }
      ],
      "name": "ChangePendingOwner",
      "type": "event"
    },
    {
      "anonymous": false,
      "inputs": [
        {
          "indexed": true,
          "internalType": "address",
          "name": "user",
          "type": "address"
        },
        {
          "indexed": true,
          "internalType": "uint256",
          "name": "pid",
          "type": "uint256"
        },
        {
          "indexed": false,
          "internalType": "uint256",
          "name": "amount",
          "type": "uint256"
        }
      ],
      "name": "Deposit",
      "type": "event"
    },
    {
      "anonymous": false,
      "inputs": [
        {
          "indexed": true,
          "internalType": "address",
          "name": "user",
          "type": "address"
        },
        {
          "indexed": true,
          "internalType": "uint256",
          "name": "pid",
          "type": "uint256"
        },
        {
          "indexed": false,
          "internalType": "uint256",
          "name": "amount",
          "type": "uint256"
        }
      ],
      "name": "EmergencyWithdraw",
      "type": "event"
    },
    {
      "anonymous": false,
      "inputs": [
        {
          "indexed": false,
          "internalType": "uint256",
          "name": "oldMultiplier",
          "type": "uint256"
        },
        {
          "indexed": false,
          "internalType": "uint256",
          "name": "newMultiplier",
          "type": "uint256"
        }
      ],
      "name": "NewMultiplier",
      "type": "event"
    },
    {
      "anonymous": false,
      "inputs": [
        {
          "indexed": false,
          "internalType": "uint256",
          "name": "pid",
          "type": "uint256"
        },
        {
          "indexed": false,
          "internalType": "address",
          "name": "lpToken",
          "type": "address"
        },
        {
          "indexed": false,
          "internalType": "uint256",
          "name": "allocPoint",
          "type": "uint256"
        },
        {
          "indexed": false,
          "internalType": "uint256",
          "name": "totalPoint",
          "type": "uint256"
        }
      ],
      "name": "NewPool",
      "type": "event"
    },
    {
      "anonymous": false,
      "inputs": [
        {
          "indexed": false,
          "internalType": "uint256",
          "name": "oldReward",
          "type": "uint256"
        },
        {
          "indexed": false,
          "internalType": "uint256",
          "name": "newReward",
          "type": "uint256"
        }
      ],
      "name": "NewRewardPerBlock",
      "type": "event"
    },
    {
      "anonymous": false,
      "inputs": [
        {
          "indexed": false,
          "internalType": "contract TokenLocker",
          "name": "oldTokenLocker",
          "type": "address"
        },
        {
          "indexed": false,
          "internalType": "contract TokenLocker",
          "name": "newTokenLocker",
          "type": "address"
        }
      ],
      "name": "NewTokenLocker",
      "type": "event"
    },
    {
      "anonymous": false,
      "inputs": [
        {
          "indexed": true,
          "internalType": "address",
          "name": "previousOwner",
          "type": "address"
        },
        {
          "indexed": true,
          "internalType": "address",
          "name": "newOwner",
          "type": "address"
        }
      ],
      "name": "OwnershipTransferred",
      "type": "event"
    },
    {
      "anonymous": false,
      "inputs": [
        {
          "indexed": true,
          "internalType": "address",
          "name": "user",
          "type": "address"
        },
        {
          "indexed": true,
          "internalType": "uint256",
          "name": "pid",
          "type": "uint256"
        },
        {
          "indexed": false,
          "internalType": "uint256",
          "name": "amount",
          "type": "uint256"
        }
      ],
      "name": "Withdraw",
      "type": "event"
    },
    {
      "inputs": [],
      "name": "BONUS_MULTIPLIER",
      "outputs": [
        {
          "internalType": "uint256",
          "name": "",
          "type": "uint256"
        }
      ],
      "stateMutability": "view",
      "type": "function"
    },
    {
      "inputs": [],
      "name": "acceptOwner",
      "outputs": [],
      "stateMutability": "nonpayable",
      "type": "function"
    },
    {
      "inputs": [
        {
          "internalType": "uint256",
          "name": "_allocPoint",
          "type": "uint256"
        },
        {
          "internalType": "contract IERC20",
          "name": "_lpToken",
          "type": "address"
        },
        {
          "internalType": "bool",
          "name": "_withUpdate",
          "type": "bool"
        }
      ],
      "name": "add",
      "outputs": [],
      "stateMutability": "nonpayable",
      "type": "function"
    },
    {
      "inputs": [
        {
          "internalType": "uint256",
          "name": "_pid",
          "type": "uint256"
        },
        {
          "internalType": "uint256",
          "name": "_amount",
          "type": "uint256"
        }
      ],
      "name": "deposit",
      "outputs": [],
      "stateMutability": "nonpayable",
      "type": "function"
    },
    {
      "inputs": [
        {
          "internalType": "uint256",
          "name": "_pid",
          "type": "uint256"
        }
      ],
      "name": "emergencyWithdraw",
      "outputs": [],
      "stateMutability": "nonpayable",
      "type": "function"
    },
    {
      "inputs": [
        {
          "internalType": "address",
          "name": "",
          "type": "address"
        }
      ],
      "name": "existsLP",
      "outputs": [
        {
          "internalType": "bool",
          "name": "",
          "type": "bool"
        }
      ],
      "stateMutability": "view",
      "type": "function"
    },
    {
      "inputs": [
        {
          "internalType": "uint256",
          "name": "_from",
          "type": "uint256"
        },
        {
          "internalType": "uint256",
          "name": "_to",
          "type": "uint256"
        }
      ],
      "name": "getMultiplier",
      "outputs": [
        {
          "internalType": "uint256",
          "name": "",
          "type": "uint256"
        }
      ],
      "stateMutability": "view",
      "type": "function"
    },
    {
      "inputs": [],
      "name": "massUpdatePools",
      "outputs": [],
      "stateMutability": "nonpayable",
      "type": "function"
    },
    {
      "inputs": [],
      "name": "owner",
      "outputs": [
        {
          "internalType": "address",
          "name": "",
          "type": "address"
        }
      ],
      "stateMutability": "view",
      "type": "function"
    },
    {
      "inputs": [
        {
          "internalType": "uint256",
          "name": "_pid",
          "type": "uint256"
        },
        {
          "internalType": "address",
          "name": "_user",
          "type": "address"
        }
      ],
      "name": "pending",
      "outputs": [
        {
          "internalType": "uint256",
          "name": "",
          "type": "uint256"
        }
      ],
      "stateMutability": "view",
      "type": "function"
    },
    {
      "inputs": [],
      "name": "pendingOwner",
      "outputs": [
        {
          "internalType": "address",
          "name": "",
          "type": "address"
        }
      ],
      "stateMutability": "view",
      "type": "function"
    },
    {
      "inputs": [
        {
          "internalType": "address",
          "name": "",
          "type": "address"
        }
      ],
      "name": "pidOfLP",
      "outputs": [
        {
          "internalType": "uint256",
          "name": "",
          "type": "uint256"
        }
      ],
      "stateMutability": "view",
      "type": "function"
    },
    {
      "inputs": [
        {
          "internalType": "uint256",
          "name": "",
          "type": "uint256"
        }
      ],
      "name": "poolInfo",
      "outputs": [
        {
          "internalType": "contract IERC20",
          "name": "lpToken",
          "type": "address"
        },
        {
          "internalType": "uint256",
          "name": "allocPoint",
          "type": "uint256"
        },
        {
          "internalType": "uint256",
          "name": "lastRewardBlock",
          "type": "uint256"
        },
        {
          "internalType": "uint256",
          "name": "accPerShare",
          "type": "uint256"
        }
      ],
      "stateMutability": "view",
      "type": "function"
    },
    {
      "inputs": [],
      "name": "poolLength",
      "outputs": [
        {
          "internalType": "uint256",
          "name": "",
          "type": "uint256"
        }
      ],
      "stateMutability": "view",
      "type": "function"
    },
    {
      "inputs": [],
      "name": "renounceOwnership",
      "outputs": [],
      "stateMutability": "nonpayable",
      "type": "function"
    },
    {
      "inputs": [],
      "name": "rewardPerBlock",
      "outputs": [
        {
          "internalType": "uint256",
          "name": "",
          "type": "uint256"
        }
      ],
      "stateMutability": "view",
      "type": "function"
    },
    {
      "inputs": [],
      "name": "rewardToken",
      "outputs": [
        {
          "internalType": "contract IERC20Mintable",
          "name": "",
          "type": "address"
        }
      ],
      "stateMutability": "view",
      "type": "function"
    },
    {
      "inputs": [
        {
          "internalType": "uint256",
          "name": "_pid",
          "type": "uint256"
        },
        {
          "internalType": "uint256",
          "name": "_allocPoint",
          "type": "uint256"
        },
        {
          "internalType": "bool",
          "name": "_withUpdate",
          "type": "bool"
        }
      ],
      "name": "set",
      "outputs": [],
      "stateMutability": "nonpayable",
      "type": "function"
    },
    {
      "inputs": [
        {
          "internalType": "address",
          "name": "pendingOwner_",
          "type": "address"
        }
      ],
      "name": "setPendingOwner",
      "outputs": [],
      "stateMutability": "nonpayable",
      "type": "function"
    },
    {
      "inputs": [
        {
          "internalType": "contract TokenLocker",
          "name": "_tokenLocker",
          "type": "address"
        }
      ],
      "name": "setTokenLocker",
      "outputs": [],
      "stateMutability": "nonpayable",
      "type": "function"
    },
    {
      "inputs": [],
      "name": "startBlock",
      "outputs": [
        {
          "internalType": "uint256",
          "name": "",
          "type": "uint256"
        }
      ],
      "stateMutability": "view",
      "type": "function"
    },
    {
      "inputs": [],
      "name": "tokenLocker",
      "outputs": [
        {
          "internalType": "contract TokenLocker",
          "name": "",
          "type": "address"
        }
      ],
      "stateMutability": "view",
      "type": "function"
    },
    {
      "inputs": [],
      "name": "totalAllocPoint",
      "outputs": [
        {
          "internalType": "uint256",
          "name": "",
          "type": "uint256"
        }
      ],
      "stateMutability": "view",
      "type": "function"
    },
    {
      "inputs": [
        {
          "internalType": "uint256",
          "name": "multiplierNumber",
          "type": "uint256"
        },
        {
          "internalType": "bool",
          "name": "withUpdate",
          "type": "bool"
        }
      ],
      "name": "updateMultiplier",
      "outputs": [],
      "stateMutability": "nonpayable",
      "type": "function"
    },
    {
      "inputs": [
        {
          "internalType": "uint256",
          "name": "_pid",
          "type": "uint256"
        }
      ],
      "name": "updatePool",
      "outputs": [],
      "stateMutability": "nonpayable",
      "type": "function"
    },
    {
      "inputs": [
        {
          "internalType": "uint256",
          "name": "_rewardPerBlock",
          "type": "uint256"
        },
        {
          "internalType": "bool",
          "name": "_withUpdate",
          "type": "bool"
        }
      ],
      "name": "updateRewardPerBlock",
      "outputs": [],
      "stateMutability": "nonpayable",
      "type": "function"
    },
    {
      "inputs": [
        {
          "internalType": "uint256",
          "name": "",
          "type": "uint256"
        },
        {
          "internalType": "address",
          "name": "",
          "type": "address"
        }
      ],
      "name": "userInfo",
      "outputs": [
        {
          "internalType": "uint256",
          "name": "amount",
          "type": "uint256"
        },
        {
          "internalType": "uint256",
          "name": "rewardDebt",
          "type": "uint256"
        }
      ],
      "stateMutability": "view",
      "type": "function"
    },
    {
      "inputs": [
        {
          "internalType": "uint256",
          "name": "_pid",
          "type": "uint256"
        },
        {
          "internalType": "uint256",
          "name": "_amount",
          "type": "uint256"
        }
      ],
      "name": "withdraw",
      "outputs": [],
      "stateMutability": "nonpayable",
      "type": "function"
    }
  ],
  "transactionHash": "0x8bfc5c08b520d161f831ab296d5fb1549ecd6dc3d5e237f4bec5f7538c708a54",
  "args": [
    "0x9BF345565efE79259476b08eB756f4a6224b0b04",
    "1000000000000000000",
    13681329
  ],
  "solcInputHash": "8ede45efb747c027772ef71a4bb32045",
  "bytecode": "0x60806040526000600a553480156200001657600080fd5b50604051620022ae380380620022ae833981810160405260608110156200003c57600080fd5b5080516020820151604090920151909190338062000061576200005e6200013d565b90505b600080546001600160a01b0319166001600160a01b03831690811782556040519091907f8be0079c531659141344cd1fd0a4f28419497f9722a3daafe3b4186f6b6457e0908290a35060016002556001600160a01b0383166200010b576040805162461bcd60e51b815260206004820152601360248201527f696c6c6567616c20726577617264546f6b656e00000000000000000000000000604482015290519081900360640190fd5b600380546001600160a01b0319166001600160a01b039490941693909317909255600455600b55600160055562000141565b3390565b61215d80620001516000396000f3fe608060405234801561001057600080fd5b50600436106101c45760003560e01c80638ae39cac116100f9578063bf65476811610097578063e30c397811610071578063e30c3978146104cb578063e4c75c27146104d3578063ebbc4965146104ff578063f7c618c114610507576101c4565b8063bf6547681461045d578063c42069ec14610482578063e2bbb158146104a8576101c4565b806393f1a40b116100d357806393f1a40b146103c5578063a80bf3e61461040a578063ae485c1b14610412578063be4218ee14610437576101c4565b80638ae39cac146103765780638da5cb5b1461037e5780638dbb1e3a146103a2576101c4565b806351eb05a611610166578063630b5ba111610140578063630b5ba11461033357806364482f791461033b578063715018a6146103665780638aa285501461036e576101c4565b806351eb05a6146102bf5780635312ea8e146102dc578063610b0a5f146102f9576101c4565b80631eaaa045116101a25780631eaaa045146102385780632e64d82c1461026e578063441a3e701461029457806348cd4cb1146102b7576101c4565b8063081e3eda146101c95780631526fe27146101e357806317caf6f114610230575b600080fd5b6101d161050f565b60408051918252519081900360200190f35b610200600480360360208110156101f957600080fd5b5035610515565b604080516001600160a01b0390951685526020850193909352838301919091526060830152519081900360800190f35b6101d1610559565b61026c6004803603606081101561024e57600080fd5b508035906001600160a01b036020820135169060400135151561055f565b005b61026c6004803603602081101561028457600080fd5b50356001600160a01b031661081b565b61026c600480360360408110156102aa57600080fd5b50803590602001356108e7565b6101d1610bfb565b61026c600480360360208110156102d557600080fd5b5035610c01565b61026c600480360360208110156102f257600080fd5b5035610e03565b61031f6004803603602081101561030f57600080fd5b50356001600160a01b0316610f4e565b604080519115158252519081900360200190f35b61026c610f63565b61026c6004803603606081101561035157600080fd5b50803590602081013590604001351515610f82565b61026c61112c565b6101d1611232565b6101d1611238565b61038661123e565b604080516001600160a01b039092168252519081900360200190f35b6101d1600480360360408110156103b857600080fd5b508035906020013561124d565b6103f1600480360360408110156103db57600080fd5b50803590602001356001600160a01b031661126a565b6040805192835260208301919091528051918290030190f35b61038661128e565b61026c6004803603604081101561042857600080fd5b5080359060200135151561129d565b6101d16004803603602081101561044d57600080fd5b50356001600160a01b0316611350565b61026c6004803603604081101561047357600080fd5b50803590602001351515611362565b61026c6004803603602081101561049857600080fd5b50356001600160a01b0316611415565b61026c600480360360408110156104be57600080fd5b5080359060200135611518565b6103866117df565b6101d1600480360360408110156104e957600080fd5b50803590602001356001600160a01b03166117ee565b61026c6119a1565b610386611a9a565b60065490565b6006818154811061052557600080fd5b600091825260209091206004909102018054600182015460028301546003909301546001600160a01b039092169350919084565b600a5481565b610567611aa9565b6001600160a01b031661057861123e565b6001600160a01b0316146105c1576040805162461bcd60e51b8152602060048201819052602482015260008051602061208e833981519152604482015290519081900360640190fd5b6003546001600160a01b0383811691161415610619576040805162461bcd60e51b815260206004820152601260248201527118d85b881b9bdd08185919081c995dd85c9960721b604482015290519081900360640190fd5b6001600160a01b03821660009081526008602052604090205460ff161561067a576040805162461bcd60e51b815260206004820152601060248201526f1b1c08185b1c9958591e48195e1a5cdd60821b604482015290519081900360640190fd5b801561068857610688610f63565b6000600b54431161069b57600b5461069d565b435b600a549091506106ad9085611aad565b600a908155600680546001600160a01b03868116600081815260076020908152604080832095909555600881528482208054600160ff1990911681179091558551608080820188528582528184018e81528289018c815260608085018881528c549687018d55978c905293517ff652222313e28459528d920b65115c16c04f3efc82aaedc97be59f3f377c0d3f600490960295860180546001600160a01b03191691909a1617909855517ff652222313e28459528d920b65115c16c04f3efc82aaedc97be59f3f377c0d4084015595517ff652222313e28459528d920b65115c16c04f3efc82aaedc97be59f3f377c0d4183015592517ff652222313e28459528d920b65115c16c04f3efc82aaedc97be59f3f377c0d429091015594549554845160001997909701875294860191909152848301899052840192909252517fd194e96f60e9745052f77b89a5ee23392770de5846609447847ddcc5868cf55b9281900390910190a150505050565b610823611aa9565b6001600160a01b031661083461123e565b6001600160a01b03161461087d576040805162461bcd60e51b8152602060048201819052602482015260008051602061208e833981519152604482015290519081900360640190fd5b600c54604080516001600160a01b039283168152918316602083015280517f34c8b5a07c71e24d7de40c12824b66dae61598f76eb8dec253c268e9937af3719281900390910190a1600c80546001600160a01b0319166001600160a01b0392909216919091179055565b60028054141561093e576040805162461bcd60e51b815260206004820152601f60248201527f5265656e7472616e637947756172643a207265656e7472616e742063616c6c00604482015290519081900360640190fd5b6002805560065482908110610990576040805162461bcd60e51b8152602060048201526013602482015272141bdbdb08191bd95cc81b9bdd08195e1a5cdd606a1b604482015290519081900360640190fd5b60006006848154811061099f57fe5b600091825260208083208784526009825260408085203386529092529220805460049092029092019250841115610a12576040805162461bcd60e51b81526020600482015260126024820152711dda5d1a191c985dce881b9bdd0819dbdbd960721b604482015290519081900360640190fd5b610a1b85610c01565b6000610a558260010154610a4f64e8d4a51000610a4987600301548760000154611b0790919063ffffffff16565b90611b60565b90611bc7565b90508015610b6d57600c546001600160a01b0316610a7c57610a773382611c24565b610b6d565b600354600c546040805163095ea7b360e01b81526001600160a01b039283166004820152602481018590529051919092169163095ea7b39160448083019260209291908290030181600087803b158015610ad557600080fd5b505af1158015610ae9573d6000803e3d6000fd5b505050506040513d6020811015610aff57600080fd5b5050600c5460408051635f3ccdd960e01b81523360048201526024810184905290516001600160a01b0390921691635f3ccdd99160448082019260009290919082900301818387803b158015610b5457600080fd5b505af1158015610b68573d6000803e3d6000fd5b505050505b8415610b97578154610b7f9086611bc7565b82558254610b97906001600160a01b03163387611cc5565b60038301548254610bb29164e8d4a5100091610a4991611b07565b6001830155604080518681529051879133917ff279e6a1f5e320cca91135676d9cb6e44ca8a08c0b88342bcdb1144f6511b5689181900360200190a35050600160025550505050565b600b5481565b60065481908110610c4f576040805162461bcd60e51b8152602060048201526013602482015272141bdbdb08191bd95cc81b9bdd08195e1a5cdd606a1b604482015290519081900360640190fd5b600060068381548110610c5e57fe5b9060005260206000209060040201905080600201544311610c7f5750610dff565b8054604080516370a0823160e01b815230600482015290516000926001600160a01b0316916370a08231916024808301926020929190829003018186803b158015610cc957600080fd5b505afa158015610cdd573d6000803e3d6000fd5b505050506040513d6020811015610cf357600080fd5b5051905080610d09575043600290910155610dff565b6000610d1983600201544361124d565b90506000610d46600a54610a498660010154610d4060045487611b0790919063ffffffff16565b90611b07565b600354604080516340c10f1960e01b81523060048201526024810184905290519293506001600160a01b03909116916340c10f19916044808201926020929091908290030181600087803b158015610d9d57600080fd5b505af1158015610db1573d6000803e3d6000fd5b505050506040513d6020811015610dc757600080fd5b50519050610dec610de184610a498464e8d4a51000611b07565b600386015490611aad565b6003850155505043600290920191909155505b5050565b600280541415610e5a576040805162461bcd60e51b815260206004820152601f60248201527f5265656e7472616e637947756172643a207265656e7472616e742063616c6c00604482015290519081900360640190fd5b6002805560065481908110610eac576040805162461bcd60e51b8152602060048201526013602482015272141bdbdb08191bd95cc81b9bdd08195e1a5cdd606a1b604482015290519081900360640190fd5b600060068381548110610ebb57fe5b600091825260208083208684526009825260408085203380875293528420805485825560018201959095556004909302018054909450919291610f0b916001600160a01b03919091169083611cc5565b604080518281529051869133917fbb757047c2b5f3974fe26b7c10f732e7bce710b0952a71082702781e62ae05959181900360200190a350506001600255505050565b60086020526000908152604090205460ff1681565b60065460005b81811015610dff57610f7a81610c01565b600101610f69565b610f8a611aa9565b6001600160a01b0316610f9b61123e565b6001600160a01b031614610fe4576040805162461bcd60e51b8152602060048201819052602482015260008051602061208e833981519152604482015290519081900360640190fd5b60065483908110611032576040805162461bcd60e51b8152602060048201526013602482015272141bdbdb08191bd95cc81b9bdd08195e1a5cdd606a1b604482015290519081900360640190fd5b811561104057611040610f63565b60006006858154811061104f57fe5b9060005260206000209060040201600101549050836006868154811061107157fe5b9060005260206000209060040201600101819055508381146110b0576110ac846110a683600a54611bc790919063ffffffff16565b90611aad565b600a555b7fd194e96f60e9745052f77b89a5ee23392770de5846609447847ddcc5868cf55b85600687815481106110df57fe5b600091825260209182902060049091020154600a54604080519485526001600160a01b03909216928401929092528281018890526060830191909152519081900360800190a15050505050565b611134611aa9565b6001600160a01b031661114561123e565b6001600160a01b03161461118e576040805162461bcd60e51b8152602060048201819052602482015260008051602061208e833981519152604482015290519081900360640190fd5b600080546040516001600160a01b03909116907f8be0079c531659141344cd1fd0a4f28419497f9722a3daafe3b4186f6b6457e0908390a3600080546001600160a01b03191690556001546001600160a01b031615611230576001546040516000916001600160a01b0316907f4465959e7ec1f32e3ebd831ac2459ad6ef4b1d54a83f108a7068e69e62f0702f908390a3600180546001600160a01b03191690555b565b60055481565b60045481565b6000546001600160a01b031690565b60055460009061126190610d408486611bc7565b90505b92915050565b60096020908152600092835260408084209091529082529020805460019091015482565b600c546001600160a01b031681565b6112a5611aa9565b6001600160a01b03166112b661123e565b6001600160a01b0316146112ff576040805162461bcd60e51b8152602060048201819052602482015260008051602061208e833981519152604482015290519081900360640190fd5b801561130d5761130d610f63565b600454604080519182526020820184905280517f3b7a406bf2b66d0f83f6b1cf4c39edf1269cad80712b94cd80a44d13f61f13579281900390910190a150600455565b60076020526000908152604090205481565b61136a611aa9565b6001600160a01b031661137b61123e565b6001600160a01b0316146113c4576040805162461bcd60e51b8152602060048201819052602482015260008051602061208e833981519152604482015290519081900360640190fd5b80156113d2576113d2610f63565b600554604080519182526020820184905280517fbb69b052a57be2126300a5702ad98a79ab8ac71f0d3f61df1fde7e4c681433439281900390910190a150600555565b61141d611aa9565b6001600160a01b031661142e61123e565b6001600160a01b031614611477576040805162461bcd60e51b8152602060048201819052602482015260008051602061208e833981519152604482015290519081900360640190fd5b6001600160a01b0381166114bc5760405162461bcd60e51b81526004018080602001828103825260298152602001806120ff6029913960400191505060405180910390fd5b6001546040516001600160a01b038084169216907f4465959e7ec1f32e3ebd831ac2459ad6ef4b1d54a83f108a7068e69e62f0702f90600090a3600180546001600160a01b0319166001600160a01b0392909216919091179055565b60028054141561156f576040805162461bcd60e51b815260206004820152601f60248201527f5265656e7472616e637947756172643a207265656e7472616e742063616c6c00604482015290519081900360640190fd5b60028055600654829081106115c1576040805162461bcd60e51b8152602060048201526013602482015272141bdbdb08191bd95cc81b9bdd08195e1a5cdd606a1b604482015290519081900360640190fd5b6000600684815481106115d057fe5b6000918252602080832087845260098252604080852033865290925292206004909102909101915061160185610c01565b8054156117505760006116368260010154610a4f64e8d4a51000610a4987600301548760000154611b0790919063ffffffff16565b9050801561174e57600c546001600160a01b031661165d576116583382611c24565b61174e565b600354600c546040805163095ea7b360e01b81526001600160a01b039283166004820152602481018590529051919092169163095ea7b39160448083019260209291908290030181600087803b1580156116b657600080fd5b505af11580156116ca573d6000803e3d6000fd5b505050506040513d60208110156116e057600080fd5b5050600c5460408051635f3ccdd960e01b81523360048201526024810184905290516001600160a01b0390921691635f3ccdd99160448082019260009290919082900301818387803b15801561173557600080fd5b505af1158015611749573d6000803e3d6000fd5b505050505b505b831561177c57815461176d906001600160a01b0316333087611d17565b80546117799085611aad565b81555b600382015481546117979164e8d4a5100091610a4991611b07565b6001820155604080518581529051869133917f90890809c654f11d6e72a28fa60149770a0d11ec6c92319d6ceb2bb0a4ea1a159181900360200190a350506001600255505050565b6001546001600160a01b031690565b6006546000908390811061183f576040805162461bcd60e51b8152602060048201526013602482015272141bdbdb08191bd95cc81b9bdd08195e1a5cdd606a1b604482015290519081900360640190fd5b60006006858154811061184e57fe5b600091825260208083208884526009825260408085206001600160a01b038a8116875290845281862060049586029093016003810154815484516370a0823160e01b81523098810198909852935191985093969395939492909116926370a08231926024808301939192829003018186803b1580156118cc57600080fd5b505afa1580156118e0573d6000803e3d6000fd5b505050506040513d60208110156118f657600080fd5b505160028501549091504311801561190d57508015155b1561196d57600061192285600201544361124d565b90506000611949600a54610a498860010154610d4060045487611b0790919063ffffffff16565b905061196861196184610a498464e8d4a51000611b07565b8590611aad565b935050505b6119958360010154610a4f64e8d4a51000610a49868860000154611b0790919063ffffffff16565b98975050505050505050565b6119a9611aa9565b6001600160a01b03166119ba6117df565b6001600160a01b0316146119ff5760405162461bcd60e51b81526004018080602001828103825260278152602001806120ae6027913960400191505060405180910390fd5b600154600080546040516001600160a01b0393841693909116917f8be0079c531659141344cd1fd0a4f28419497f9722a3daafe3b4186f6b6457e091a3600154600080546001600160a01b0319166001600160a01b0390921691821781556040519091907f4465959e7ec1f32e3ebd831ac2459ad6ef4b1d54a83f108a7068e69e62f0702f908390a3600180546001600160a01b0319169055565b6003546001600160a01b031681565b3390565b600082820183811015611261576040805162461bcd60e51b815260206004820152601b60248201527f536166654d6174683a206164646974696f6e206f766572666c6f770000000000604482015290519081900360640190fd5b600082611b1657506000611264565b82820282848281611b2357fe5b04146112615760405162461bcd60e51b815260040180806020018281038252602181526020018061206d6021913960400191505060405180910390fd5b6000808211611bb6576040805162461bcd60e51b815260206004820152601a60248201527f536166654d6174683a206469766973696f6e206279207a65726f000000000000604482015290519081900360640190fd5b818381611bbf57fe5b049392505050565b600082821115611c1e576040805162461bcd60e51b815260206004820152601e60248201527f536166654d6174683a207375627472616374696f6e206f766572666c6f770000604482015290519081900360640190fd5b50900390565b600354604080516370a0823160e01b815230600482015290516000926001600160a01b0316916370a08231916024808301926020929190829003018186803b158015611c6f57600080fd5b505afa158015611c83573d6000803e3d6000fd5b505050506040513d6020811015611c9957600080fd5b5051905081811015611ca9578091505b600354611cc0906001600160a01b03168484611cc5565b505050565b604080516001600160a01b038416602482015260448082018490528251808303909101815260649091019091526020810180516001600160e01b031663a9059cbb60e01b179052611cc0908490611d77565b604080516001600160a01b0380861660248301528416604482015260648082018490528251808303909101815260849091019091526020810180516001600160e01b03166323b872dd60e01b179052611d71908590611d77565b50505050565b6000611dcc826040518060400160405280602081526020017f5361666545524332303a206c6f772d6c6576656c2063616c6c206661696c6564815250856001600160a01b0316611e289092919063ffffffff16565b805190915015611cc057808060200190516020811015611deb57600080fd5b5051611cc05760405162461bcd60e51b815260040180806020018281038252602a8152602001806120d5602a913960400191505060405180910390fd5b6060611e378484600085611e41565b90505b9392505050565b606082471015611e825760405162461bcd60e51b81526004018080602001828103825260268152602001806120476026913960400191505060405180910390fd5b611e8b85611f9c565b611edc576040805162461bcd60e51b815260206004820152601d60248201527f416464726573733a2063616c6c20746f206e6f6e2d636f6e7472616374000000604482015290519081900360640190fd5b600080866001600160a01b031685876040518082805190602001908083835b60208310611f1a5780518252601f199092019160209182019101611efb565b6001836020036101000a03801982511681845116808217855250505050505090500191505060006040518083038185875af1925050503d8060008114611f7c576040519150601f19603f3d011682016040523d82523d6000602084013e611f81565b606091505b5091509150611f91828286611fa2565b979650505050505050565b3b151590565b60608315611fb1575081611e3a565b825115611fc15782518084602001fd5b8160405162461bcd60e51b81526004018080602001828103825283818151815260200191508051906020019080838360005b8381101561200b578181015183820152602001611ff3565b50505050905090810190601f1680156120385780820380516001836020036101000a031916815260200191505b509250505060405180910390fdfe416464726573733a20696e73756666696369656e742062616c616e636520666f722063616c6c536166654d6174683a206d756c7469706c69636174696f6e206f766572666c6f774f776e61626c653a2063616c6c6572206973206e6f7420746865206f776e65724f776e61626c653a2063616c6c6572206973206e6f74207468652070656e64696e674f776e65725361666545524332303a204552433230206f7065726174696f6e20646964206e6f7420737563636565644f776e61626c653a2070656e64696e674f776e657220697320746865207a65726f2061646472657373a26469706673582212207ba2e119814c3738d9c32d430f4ea002e4daa1386b0bd7fef91abc90d82c258064736f6c63430007060033",
  "devdoc": {
    "kind": "dev",
    "methods": {},
    "version": 1
  },
  "userdoc": {
    "kind": "user",
    "methods": {},
    "version": 1
  },
  "storageLayout": {
    "storage": [
      {
        "astId": 1738,
        "contract": "contracts/farm/MasterChef.sol:MasterChef",
        "label": "_owner",
        "offset": 0,
        "slot": "0",
        "type": "t_address"
      },
      {
        "astId": 1740,
        "contract": "contracts/farm/MasterChef.sol:MasterChef",
        "label": "_pendingOwner",
        "offset": 0,
        "slot": "1",
        "type": "t_address"
      },
      {
        "astId": 1701,
        "contract": "contracts/farm/MasterChef.sol:MasterChef",
        "label": "_status",
        "offset": 0,
        "slot": "2",
        "type": "t_uint256"
      },
      {
        "astId": 1962,
        "contract": "contracts/farm/MasterChef.sol:MasterChef",
        "label": "rewardToken",
        "offset": 0,
        "slot": "3",
        "type": "t_contract(IERC20Mintable)3587"
      },
      {
        "astId": 1964,
        "contract": "contracts/farm/MasterChef.sol:MasterChef",
        "label": "rewardPerBlock",
        "offset": 0,
        "slot": "4",
        "type": "t_uint256"
      },
      {
        "astId": 1966,
        "contract": "contracts/farm/MasterChef.sol:MasterChef",
        "label": "BONUS_MULTIPLIER",
        "offset": 0,
        "slot": "5",
        "type": "t_uint256"
      },
      {
        "astId": 1969,
        "contract": "contracts/farm/MasterChef.sol:MasterChef",
        "label": "poolInfo",
        "offset": 0,
        "slot": "6",
        "type": "t_array(t_struct(PoolInfo)1960_storage)dyn_storage"
      },
      {
        "astId": 1973,
        "contract": "contracts/farm/MasterChef.sol:MasterChef",
        "label": "pidOfLP",
        "offset": 0,
        "slot": "7",
        "type": "t_mapping(t_address,t_uint256)"
      },
      {
        "astId": 1977,
        "contract": "contracts/farm/MasterChef.sol:MasterChef",
        "label": "existsLP",
        "offset": 0,
        "slot": "8",
        "type": "t_mapping(t_address,t_bool)"
      },
      {
        "astId": 1983,
        "contract": "contracts/farm/MasterChef.sol:MasterChef",
        "label": "userInfo",
        "offset": 0,
        "slot": "9",
        "type": "t_mapping(t_uint256,t_mapping(t_address,t_struct(UserInfo)1951_storage))"
      },
      {
        "astId": 1986,
        "contract": "contracts/farm/MasterChef.sol:MasterChef",
        "label": "totalAllocPoint",
        "offset": 0,
        "slot": "10",
        "type": "t_uint256"
      },
      {
        "astId": 1988,
        "contract": "contracts/farm/MasterChef.sol:MasterChef",
        "label": "startBlock",
        "offset": 0,
        "slot": "11",
        "type": "t_uint256"
      },
      {
        "astId": 1990,
        "contract": "contracts/farm/MasterChef.sol:MasterChef",
        "label": "tokenLocker",
        "offset": 0,
        "slot": "12",
        "type": "t_contract(TokenLocker)10639"
      }
    ],
    "types": {
      "t_address": {
        "encoding": "inplace",
        "label": "address",
        "numberOfBytes": "20"
      },
      "t_array(t_struct(PoolInfo)1960_storage)dyn_storage": {
        "base": "t_struct(PoolInfo)1960_storage",
        "encoding": "dynamic_array",
        "label": "struct MasterChef.PoolInfo[]",
        "numberOfBytes": "32"
      },
      "t_bool": {
        "encoding": "inplace",
        "label": "bool",
        "numberOfBytes": "1"
      },
      "t_contract(IERC20)1158": {
        "encoding": "inplace",
        "label": "contract IERC20",
        "numberOfBytes": "20"
      },
      "t_contract(IERC20Mintable)3587": {
        "encoding": "inplace",
        "label": "contract IERC20Mintable",
        "numberOfBytes": "20"
      },
      "t_contract(TokenLocker)10639": {
        "encoding": "inplace",
        "label": "contract TokenLocker",
        "numberOfBytes": "20"
      },
      "t_mapping(t_address,t_bool)": {
        "encoding": "mapping",
        "key": "t_address",
        "label": "mapping(address => bool)",
        "numberOfBytes": "32",
        "value": "t_bool"
      },
      "t_mapping(t_address,t_struct(UserInfo)1951_storage)": {
        "encoding": "mapping",
        "key": "t_address",
        "label": "mapping(address => struct MasterChef.UserInfo)",
        "numberOfBytes": "32",
        "value": "t_struct(UserInfo)1951_storage"
      },
      "t_mapping(t_address,t_uint256)": {
        "encoding": "mapping",
        "key": "t_address",
        "label": "mapping(address => uint256)",
        "numberOfBytes": "32",
        "value": "t_uint256"
      },
      "t_mapping(t_uint256,t_mapping(t_address,t_struct(UserInfo)1951_storage))": {
        "encoding": "mapping",
        "key": "t_uint256",
        "label": "mapping(uint256 => mapping(address => struct MasterChef.UserInfo))",
        "numberOfBytes": "32",
        "value": "t_mapping(t_address,t_struct(UserInfo)1951_storage)"
      },
      "t_struct(PoolInfo)1960_storage": {
        "encoding": "inplace",
        "label": "struct MasterChef.PoolInfo",
        "members": [
          {
            "astId": 1953,
            "contract": "contracts/farm/MasterChef.sol:MasterChef",
            "label": "lpToken",
            "offset": 0,
            "slot": "0",
            "type": "t_contract(IERC20)1158"
          },
          {
            "astId": 1955,
            "contract": "contracts/farm/MasterChef.sol:MasterChef",
            "label": "allocPoint",
            "offset": 0,
            "slot": "1",
            "type": "t_uint256"
          },
          {
            "astId": 1957,
            "contract": "contracts/farm/MasterChef.sol:MasterChef",
            "label": "lastRewardBlock",
            "offset": 0,
            "slot": "2",
            "type": "t_uint256"
          },
          {
            "astId": 1959,
            "contract": "contracts/farm/MasterChef.sol:MasterChef",
            "label": "accPerShare",
            "offset": 0,
            "slot": "3",
            "type": "t_uint256"
          }
        ],
        "numberOfBytes": "128"
      },
      "t_struct(UserInfo)1951_storage": {
        "encoding": "inplace",
        "label": "struct MasterChef.UserInfo",
        "members": [
          {
            "astId": 1948,
            "contract": "contracts/farm/MasterChef.sol:MasterChef",
            "label": "amount",
            "offset": 0,
            "slot": "0",
            "type": "t_uint256"
          },
          {
            "astId": 1950,
            "contract": "contracts/farm/MasterChef.sol:MasterChef",
            "label": "rewardDebt",
            "offset": 0,
            "slot": "1",
            "type": "t_uint256"
          }
        ],
        "numberOfBytes": "64"
      },
      "t_uint256": {
        "encoding": "inplace",
        "label": "uint256",
        "numberOfBytes": "32"
      }
    }
  }
}