{
	"data": {
		"bytecode": {
			"linkReferences": {},
			"object": "6080604052600160005534801561001557600080fd5b506126ee806100256000396000f3fe60806040523480156200001157600080fd5b5060043610620000e25760003560e01c8063a96a7f111162000099578063bdf90933116200006f578063bdf9093314620002a6578063c627136c14620002dc578063e36ae92414620002ff578063f16e9d1f146200031f57620000e2565b8063a96a7f111462000202578063afd93309146200023a578063b93c893d146200027057620000e2565b8063188ff33914620000e75780631dbb3c61146200011d57806350edd1a714620001535780635edb2fb314620001735780636352a29b14620001a957806370d1abe114620001cc575b600080fd5b620001056004803603810190620000ff919062000ef1565b6200033f565b60405162000114919062001517565b60405180910390f35b6200013b600480360381019062000135919062000f1d565b620003c4565b6040516200014a919062001517565b60405180910390f35b6200017160048036038101906200016b919062000f1d565b6200049c565b005b6200019160048036038101906200018b919062000f1d565b6200052a565b604051620001a0919062001561565b60405180910390f35b620001b36200055c565b604051620001c3929190620015e8565b60405180910390f35b620001ea6004803603810190620001e4919062000f1d565b620005d6565b604051620001f9919062001517565b60405180910390f35b6200022060048036038101906200021a919062000f1d565b62000649565b60405162000231939291906200157e565b60405180910390f35b62000258600480360381019062000252919062000f1d565b62000781565b60405162000267919062001517565b60405180910390f35b6200028e600480360381019062000288919062000ef1565b62000861565b6040516200029d919062001517565b60405180910390f35b620002c46004803603810190620002be919062000f1d565b620008ac565b604051620002d3919062001517565b60405180910390f35b620002e66200095f565b604051620002f6929190620015bb565b60405180910390f35b6200031d600480360381019062000317919062000f1d565b62000a37565b005b6200033d600480360381019062000337919062000f1d565b62000b7e565b005b60008060405180602001620003549062000e8c565b6020820181038252601f19601f82011660405250600160026040516020016200037f92919062001650565b604051602081830303815290604052604051602001620003a192919062001411565b6040516020818303038152906040529050828151602083016000f5915050919050565b600060ff3083604051602001620003dc91906200169f565b6040516020818303038152906040528051906020012060405180602001620004049062000e8c565b6020820181038252601f19601f82011660405250600160026040516020016200042f92919062001650565b6040516020818303038152906040526040516020016200045192919062001411565b604051602081830303815290604052805190602001206040516020016200047c9493929190620014c1565b6040516020818303038152906040528051906020012060001c9050919050565b60005b8181101562000526576000620004b83060005462000bf7565b90508033604051620004ca9062000e99565b620004d792919062001534565b604051809103906000f080158015620004f4573d6000803e3d6000fd5b505060016000808282546200050a9190620016f4565b9250508190555050806200051e9062001885565b90506200049f565b5050565b6000816040516020016200053f91906200169f565b604051602081830303815290604052805190602001209050919050565b60608060405180602001620005719062000e8c565b6020820181038252601f19601f8201166040525091508160806040516020016200059c919062001474565b60405160208183030381529060405260ff604051602001620005c19392919062001439565b60405160208183030381529060405290509091565b600081604051602001620005eb91906200169f565b6040516020818303038152906040528051906020012060016002604051620006139062000e8c565b6200062092919062001623565b8190604051809103906000f590508015801562000641573d6000803e3d6000fd5b509050919050565b600080600080846040516020016200066291906200169f565b604051602081830303815290604052805190602001209050606060d660f81b609460f81b30886040516020016200069d9493929190620013a2565b6040516020818303038152906040529050600060405180602001620006c29062000e8c565b6020820181038252601f19601f8201166040525090508060016002604051602001620006f092919062001650565b6040516020818303038152906040526040516020016200071292919062001411565b604051602081830303815290604052905060ff60f81b3084838051906020012060405160200162000747949392919062001152565b604051602081830303815290604052915081805190602001209550856000526000519450828151602083016000f593505050509193909250565b60008060ff30846040516020016200079a91906200169f565b6040516020818303038152906040528051906020012060405180602001620007c29062000e8c565b6020820181038252601f19601f8201166040525060016002604051602001620007ed92919062001650565b6040516020818303038152906040526040516020016200080f92919062001411565b604051602081830303815290604052805190602001206040516020016200083a9493929190620014c1565b60405160208183030381529060405280519060200120905080600052600051915050919050565b60008160016002604051620008769062000e8c565b6200088392919062001623565b8190604051809103906000f5905080158015620008a4573d6000803e3d6000fd5b509050919050565b60008082604051602001620008c291906200169f565b604051602081830303815290604052805190602001209050600060405180602001620008ee9062000e8c565b6020820181038252601f19601f82011660405250600160026040516020016200091992919062001650565b6040516020818303038152906040526040516020016200093b92919062001411565b6040516020818303038152906040529050818151602083016000f592505050919050565b600080600060405180602001620009769062000e8c565b6020820181038252601f19601f820116604052509050600060016002604051602001620009a592919062001491565b60405160208183030381529060405290508181604051602001620009cb92919062001411565b60405160208183030381529060405280519060200120935081604051602001620009f69190620013f8565b6040516020818303038152906040528160405160200162000a1992919062001411565b60405160208183030381529060405280519060200120925050509091565b600060405162000a479062000ea7565b604051809103906000f08015801562000a64573d6000803e3d6000fd5b5090506000600190505b8281101562000b0a57600062000a848362000db4565b90508073ffffffffffffffffffffffffffffffffffffffff166359e2d4a7336040518263ffffffff1660e01b815260040162000ac1919062001517565b600060405180830381600087803b15801562000adc57600080fd5b505af115801562000af1573d6000803e3d6000fd5b50505050508062000b029062001885565b905062000a6e565b508073ffffffffffffffffffffffffffffffffffffffff166359e2d4a7336040518263ffffffff1660e01b815260040162000b46919062001517565b600060405180830381600087803b15801562000b6157600080fd5b505af115801562000b76573d6000803e3d6000fd5b505050505050565b60005b8181101562000bf3573360405162000b999062000eb5565b62000ba5919062001517565b604051809103906000f08015801562000bc2573d6000803e3d6000fd5b5050600160008082825462000bd89190620016f4565b925050819055508062000beb9062001885565b905062000b81565b5050565b60006060600083141562000c415760d660f81b609460f81b85608060f81b60405160200162000c2a9493929190620011a8565b604051602081830303815290604052905062000d97565b607f831162000c825760d660f81b609460f81b858560405160200162000c6b9493929190620013a2565b604051602081830303815290604052905062000d96565b60ff831162000cc95760d760f81b609460f81b85608160f81b8660405160200162000cb295949392919062001339565b604051602081830303815290604052905062000d95565b61ffff831162000d115760d860f81b609460f81b85608260f81b8660405160200162000cfa959493929190620011fe565b604051602081830303815290604052905062000d94565b62ffffff831162000d5a5760d960f81b609460f81b85608360f81b8660405160200162000d4395949392919062001267565b604051602081830303815290604052905062000d93565b60da60f81b609460f81b85608460f81b8660405160200162000d81959493929190620012d0565b60405160208183030381529060405290505b5b5b5b5b600081805190602001209050806000526000519250505092915050565b60006040517f3d602d80600a3d3981f3363d3d373d3d3d363d7300000000000000000000000081528260601b60148201527f5af43d82803e903d91602b57fd5bf3000000000000000000000000000000000060288201526037816000f0915050600073ffffffffffffffffffffffffffffffffffffffff168173ffffffffffffffffffffffffffffffffffffffff16141562000e87576040517f08c379a000000000000000000000000000000000000000000000000000000000815260040162000e7e906200167d565b60405180910390fd5b919050565b60e78062001a1f83390190565b6103ce8062001b0683390190565b61042a8062001ed483390190565b6103bb80620022fe83390190565b60008135905062000ed481620019ea565b92915050565b60008135905062000eeb8162001a04565b92915050565b60006020828403121562000f0457600080fd5b600062000f148482850162000ec3565b91505092915050565b60006020828403121562000f3057600080fd5b600062000f408482850162000eda565b91505092915050565b62000f548162001751565b82525050565b62000f6f62000f698262001751565b620018d3565b82525050565b62000f8a62000f848262001765565b620018e7565b82525050565b62000f9b8162001791565b82525050565b62000fb662000fb08262001791565b620018f1565b82525050565b600062000fc982620016bc565b62000fd58185620016c7565b935062000fe78185602086016200184f565b62000ff28162001998565b840191505092915050565b60006200100a82620016bc565b620010168185620016d8565b9350620010288185602086016200184f565b80840191505092915050565b6200103f81620017ff565b82525050565b620010508162001813565b82525050565b620010618162001827565b82525050565b62001072816200183b565b82525050565b600062001087601683620016e3565b91507f455243313136373a20637265617465206661696c6564000000000000000000006000830152602082019050919050565b620010cf620010c9826200179b565b620018fb565b82525050565b620010ea620010e482620017c9565b62001923565b82525050565b620010fb81620017d8565b82525050565b620011166200111082620017d8565b62001937565b82525050565b620011316200112b82620017e2565b62001941565b82525050565b6200114c6200114682620017f2565b62001955565b82525050565b600062001160828762000f75565b60018201915062001172828662000f5a565b60148201915062001184828562000fa1565b60208201915062001196828462000fa1565b60208201915081905095945050505050565b6000620011b6828762000f75565b600182019150620011c8828662000f75565b600182019150620011da828562000f5a565b601482019150620011ec828462000f75565b60018201915081905095945050505050565b60006200120c828862000f75565b6001820191506200121e828762000f75565b60018201915062001230828662000f5a565b60148201915062001242828562000f75565b600182019150620012548284620010ba565b6002820191508190509695505050505050565b600062001275828862000f75565b60018201915062001287828762000f75565b60018201915062001299828662000f5a565b601482019150620012ab828562000f75565b600182019150620012bd8284620010d5565b6003820191508190509695505050505050565b6000620012de828862000f75565b600182019150620012f0828762000f75565b60018201915062001302828662000f5a565b60148201915062001314828562000f75565b6001820191506200132682846200111c565b6004820191508190509695505050505050565b600062001347828862000f75565b60018201915062001359828762000f75565b6001820191506200136b828662000f5a565b6014820191506200137d828562000f75565b6001820191506200138f828462001137565b6001820191508190509695505050505050565b6000620013b0828762000f75565b600182019150620013c2828662000f75565b600182019150620013d4828562000f5a565b601482019150620013e6828462001137565b60018201915081905095945050505050565b600062001406828462000ffd565b915081905092915050565b60006200141f828562000ffd565b91506200142d828462000ffd565b91508190509392505050565b600062001447828662000ffd565b915062001455828562000ffd565b915062001463828462001101565b602082019150819050949350505050565b600062001482828462001101565b60208201915081905092915050565b60006200149f828562001101565b602082019150620014b1828462001101565b6020820191508190509392505050565b6000620014cf828762001137565b600182019150620014e1828662000f5a565b601482019150620014f3828562000fa1565b60208201915062001505828462000fa1565b60208201915081905095945050505050565b60006020820190506200152e600083018462000f49565b92915050565b60006040820190506200154b600083018562000f49565b6200155a602083018462000f49565b9392505050565b600060208201905062001578600083018462000f90565b92915050565b600060608201905062001595600083018662000f90565b620015a4602083018562000f49565b620015b3604083018462000f49565b949350505050565b6000604082019050620015d2600083018562000f90565b620015e1602083018462000f90565b9392505050565b6000604082019050818103600083015262001604818562000fbc565b905081810360208301526200161a818462000fbc565b90509392505050565b60006040820190506200163a600083018562001034565b62001649602083018462001056565b9392505050565b600060408201905062001667600083018562001045565b62001676602083018462001067565b9392505050565b60006020820190508181036000830152620016988162001078565b9050919050565b6000602082019050620016b66000830184620010f0565b92915050565b600081519050919050565b600082825260208201905092915050565b600081905092915050565b600082825260208201905092915050565b60006200170182620017d8565b91506200170e83620017d8565b9250827fffffffffffffffffffffffffffffffffffffffffffffffffffffffffffffffff0382111562001746576200174562001969565b5b828201905092915050565b60006200175e82620017a9565b9050919050565b60007fff0000000000000000000000000000000000000000000000000000000000000082169050919050565b6000819050919050565b600061ffff82169050919050565b600073ffffffffffffffffffffffffffffffffffffffff82169050919050565b600062ffffff82169050919050565b6000819050919050565b600063ffffffff82169050919050565b600060ff82169050919050565b60006200180c82620017d8565b9050919050565b60006200182082620017f2565b9050919050565b60006200183482620017d8565b9050919050565b60006200184882620017f2565b9050919050565b60005b838110156200186f57808201518184015260208101905062001852565b838111156200187f576000848401525b50505050565b60006200189282620017d8565b91507fffffffffffffffffffffffffffffffffffffffffffffffffffffffffffffffff821415620018c857620018c762001969565b5b600182019050919050565b6000620018e0826200190f565b9050919050565b6000819050919050565b6000819050919050565b60006200190882620019c3565b9050919050565b60006200191c82620019dd565b9050919050565b60006200193082620019b6565b9050919050565b6000819050919050565b60006200194e82620019a9565b9050919050565b60006200196282620019d0565b9050919050565b7f4e487b7100000000000000000000000000000000000000000000000000000000600052601160045260246000fd5b6000601f19601f8301169050919050565b60008160e01b9050919050565b60008160e81b9050919050565b60008160f01b9050919050565b60008160f81b9050919050565b60008160601b9050919050565b620019f58162001791565b811462001a0157600080fd5b50565b62001a0f81620017d8565b811462001a1b57600080fd5b5056fe6080604052348015600f57600080fd5b5060405160e738038060e78339818101604052810190602d91906046565b5050609b565b6000815190506040816087565b92915050565b60008060408385031215605857600080fd5b60006064858286016033565b92505060206073858286016033565b9150509250929050565b6000819050919050565b608e81607d565b8114609857600080fd5b50565b603f8060a86000396000f3fe6080604052600080fdfea26469706673582212202e73014c31cd5716c26c13eb50b597a26c72580d7abadff7ab3633b9f10f0e5364736f6c63430008000033608060405234801561001057600080fd5b506040516103ce3803806103ce8339818101604052810190610032919061022b565b600073d9145cce52d386f254917e481eb44e9943f3913890508073ffffffffffffffffffffffffffffffffffffffff16634e71d92d6040518163ffffffff1660e01b8152600401600060405180830381600087803b15801561009357600080fd5b505af11580156100a7573d6000803e3d6000fd5b5050505060008173ffffffffffffffffffffffffffffffffffffffff166370a08231856040518263ffffffff1660e01b81526004016100e691906102ee565b60206040518083038186803b1580156100fe57600080fd5b505afa158015610112573d6000803e3d6000fd5b505050506040513d601f19601f820116820180604052508101906101369190610267565b90506000811161017b576040517f08c379a000000000000000000000000000000000000000000000000000000000815260040161017290610332565b60405180910390fd5b8173ffffffffffffffffffffffffffffffffffffffff1663a9059cbb84836040518363ffffffff1660e01b81526004016101b6929190610309565b600060405180830381600087803b1580156101d057600080fd5b505af11580156101e4573d6000803e3d6000fd5b505050503373ffffffffffffffffffffffffffffffffffffffff16ff5b6000815190506102108161039f565b92915050565b600081519050610225816103b6565b92915050565b6000806040838503121561023e57600080fd5b600061024c85828601610201565b925050602061025d85828601610201565b9150509250929050565b60006020828403121561027957600080fd5b600061028784828501610216565b91505092915050565b61029981610363565b82525050565b60006102ac600583610352565b91507f4f68206e6f0000000000000000000000000000000000000000000000000000006000830152602082019050919050565b6102e881610395565b82525050565b60006020820190506103036000830184610290565b92915050565b600060408201905061031e6000830185610290565b61032b60208301846102df565b9392505050565b6000602082019050818103600083015261034b8161029f565b9050919050565b600082825260208201905092915050565b600061036e82610375565b9050919050565b600073ffffffffffffffffffffffffffffffffffffffff82169050919050565b6000819050919050565b6103a881610363565b81146103b357600080fd5b50565b6103bf81610395565b81146103ca57600080fd5b5056fe608060405234801561001057600080fd5b5061040a806100206000396000f3fe608060405234801561001057600080fd5b506004361061002b5760003560e01c806359e2d4a714610030575b600080fd5b61004a60048036038101906100459190610245565b61004c565b005b600073d9145cce52d386f254917e481eb44e9943f3913890508073ffffffffffffffffffffffffffffffffffffffff16634e71d92d6040518163ffffffff1660e01b8152600401600060405180830381600087803b1580156100ad57600080fd5b505af11580156100c1573d6000803e3d6000fd5b5050505060008173ffffffffffffffffffffffffffffffffffffffff166370a08231306040518263ffffffff1660e01b815260040161010091906102f5565b60206040518083038186803b15801561011857600080fd5b505afa15801561012c573d6000803e3d6000fd5b505050506040513d601f19601f82011682018060405250810190610150919061026e565b905060008111610195576040517f08c379a000000000000000000000000000000000000000000000000000000000815260040161018c90610339565b60405180910390fd5b8173ffffffffffffffffffffffffffffffffffffffff1663a9059cbb84836040518363ffffffff1660e01b81526004016101d0929190610310565b600060405180830381600087803b1580156101ea57600080fd5b505af11580156101fe573d6000803e3d6000fd5b505050503373ffffffffffffffffffffffffffffffffffffffff16ff5b60008135905061022a816103a6565b92915050565b60008151905061023f816103bd565b92915050565b60006020828403121561025757600080fd5b60006102658482850161021b565b91505092915050565b60006020828403121561028057600080fd5b600061028e84828501610230565b91505092915050565b6102a08161036a565b82525050565b60006102b3600583610359565b91507f4f68206e6f0000000000000000000000000000000000000000000000000000006000830152602082019050919050565b6102ef8161039c565b82525050565b600060208201905061030a6000830184610297565b92915050565b60006040820190506103256000830185610297565b61033260208301846102e6565b9392505050565b60006020820190508181036000830152610352816102a6565b9050919050565b600082825260208201905092915050565b60006103758261037c565b9050919050565b600073ffffffffffffffffffffffffffffffffffffffff82169050919050565b6000819050919050565b6103af8161036a565b81146103ba57600080fd5b50565b6103c68161039c565b81146103d157600080fd5b5056fea264697066735822122095440eb0408272b172dc5fb26df4a24ed0c532746159723c36f366df4932347d64736f6c63430008000033608060405234801561001057600080fd5b506040516103bb3803806103bb8339818101604052810190610032919061022b565b600073d9145cce52d386f254917e481eb44e9943f3913890508073ffffffffffffffffffffffffffffffffffffffff16634e71d92d6040518163ffffffff1660e01b8152600401600060405180830381600087803b15801561009357600080fd5b505af11580156100a7573d6000803e3d6000fd5b5050505060008173ffffffffffffffffffffffffffffffffffffffff166370a08231306040518263ffffffff1660e01b81526004016100e691906102db565b60206040518083038186803b1580156100fe57600080fd5b505afa158015610112573d6000803e3d6000fd5b505050506040513d601f19601f820116820180604052508101906101369190610254565b90506000811161017b576040517f08c379a00000000000000000000000000000000000000000000000000000000081526004016101729061031f565b60405180910390fd5b8173ffffffffffffffffffffffffffffffffffffffff1663a9059cbb84836040518363ffffffff1660e01b81526004016101b69291906102f6565b600060405180830381600087803b1580156101d057600080fd5b505af11580156101e4573d6000803e3d6000fd5b505050503373ffffffffffffffffffffffffffffffffffffffff16ff5b6000815190506102108161038c565b92915050565b600081519050610225816103a3565b92915050565b60006020828403121561023d57600080fd5b600061024b84828501610201565b91505092915050565b60006020828403121561026657600080fd5b600061027484828501610216565b91505092915050565b61028681610350565b82525050565b600061029960058361033f565b91507f4f68206e6f0000000000000000000000000000000000000000000000000000006000830152602082019050919050565b6102d581610382565b82525050565b60006020820190506102f0600083018461027d565b92915050565b600060408201905061030b600083018561027d565b61031860208301846102cc565b9392505050565b600060208201905081810360008301526103388161028c565b9050919050565b600082825260208201905092915050565b600061035b82610362565b9050919050565b600073ffffffffffffffffffffffffffffffffffffffff82169050919050565b6000819050919050565b61039581610350565b81146103a057600080fd5b50565b6103ac81610382565b81146103b757600080fd5b5056fea26469706673582212205b59814fe1e731d4101e8baa6a866deaf7e37b778f5045a1f84ad147fd16916364736f6c63430008000033",
			"opcodes": "PUSH1 0x80 PUSH1 0x40 MSTORE PUSH1 0x1 PUSH1 0x0 SSTORE CALLVALUE DUP1 ISZERO PUSH2 0x15 JUMPI PUSH1 0x0 DUP1 REVERT JUMPDEST POP PUSH2 0x26EE DUP1 PUSH2 0x25 PUSH1 0x0 CODECOPY PUSH1 0x0 RETURN INVALID PUSH1 0x80 PUSH1 0x40 MSTORE CALLVALUE DUP1 ISZERO PUSH3 0x11 JUMPI PUSH1 0x0 DUP1 REVERT JUMPDEST POP PUSH1 0x4 CALLDATASIZE LT PUSH3 0xE2 JUMPI PUSH1 0x0 CALLDATALOAD PUSH1 0xE0 SHR DUP1 PUSH4 0xA96A7F11 GT PUSH3 0x99 JUMPI DUP1 PUSH4 0xBDF90933 GT PUSH3 0x6F JUMPI DUP1 PUSH4 0xBDF90933 EQ PUSH3 0x2A6 JUMPI DUP1 PUSH4 0xC627136C EQ PUSH3 0x2DC JUMPI DUP1 PUSH4 0xE36AE924 EQ PUSH3 0x2FF JUMPI DUP1 PUSH4 0xF16E9D1F EQ PUSH3 0x31F JUMPI PUSH3 0xE2 JUMP JUMPDEST DUP1 PUSH4 0xA96A7F11 EQ PUSH3 0x202 JUMPI DUP1 PUSH4 0xAFD93309 EQ PUSH3 0x23A JUMPI DUP1 PUSH4 0xB93C893D EQ PUSH3 0x270 JUMPI PUSH3 0xE2 JUMP JUMPDEST DUP1 PUSH4 0x188FF339 EQ PUSH3 0xE7 JUMPI DUP1 PUSH4 0x1DBB3C61 EQ PUSH3 0x11D JUMPI DUP1 PUSH4 0x50EDD1A7 EQ PUSH3 0x153 JUMPI DUP1 PUSH4 0x5EDB2FB3 EQ PUSH3 0x173 JUMPI DUP1 PUSH4 0x6352A29B EQ PUSH3 0x1A9 JUMPI DUP1 PUSH4 0x70D1ABE1 EQ PUSH3 0x1CC JUMPI JUMPDEST PUSH1 0x0 DUP1 REVERT JUMPDEST PUSH3 0x105 PUSH1 0x4 DUP1 CALLDATASIZE SUB DUP2 ADD SWAP1 PUSH3 0xFF SWAP2 SWAP1 PUSH3 0xEF1 JUMP JUMPDEST PUSH3 0x33F JUMP JUMPDEST PUSH1 0x40 MLOAD PUSH3 0x114 SWAP2 SWAP1 PUSH3 0x1517 JUMP JUMPDEST PUSH1 0x40 MLOAD DUP1 SWAP2 SUB SWAP1 RETURN JUMPDEST PUSH3 0x13B PUSH1 0x4 DUP1 CALLDATASIZE SUB DUP2 ADD SWAP1 PUSH3 0x135 SWAP2 SWAP1 PUSH3 0xF1D JUMP JUMPDEST PUSH3 0x3C4 JUMP JUMPDEST PUSH1 0x40 MLOAD PUSH3 0x14A SWAP2 SWAP1 PUSH3 0x1517 JUMP JUMPDEST PUSH1 0x40 MLOAD DUP1 SWAP2 SUB SWAP1 RETURN JUMPDEST PUSH3 0x171 PUSH1 0x4 DUP1 CALLDATASIZE SUB DUP2 ADD SWAP1 PUSH3 0x16B SWAP2 SWAP1 PUSH3 0xF1D JUMP JUMPDEST PUSH3 0x49C JUMP JUMPDEST STOP JUMPDEST PUSH3 0x191 PUSH1 0x4 DUP1 CALLDATASIZE SUB DUP2 ADD SWAP1 PUSH3 0x18B SWAP2 SWAP1 PUSH3 0xF1D JUMP JUMPDEST PUSH3 0x52A JUMP JUMPDEST PUSH1 0x40 MLOAD PUSH3 0x1A0 SWAP2 SWAP1 PUSH3 0x1561 JUMP JUMPDEST PUSH1 0x40 MLOAD DUP1 SWAP2 SUB SWAP1 RETURN JUMPDEST PUSH3 0x1B3 PUSH3 0x55C JUMP JUMPDEST PUSH1 0x40 MLOAD PUSH3 0x1C3 SWAP3 SWAP2 SWAP1 PUSH3 0x15E8 JUMP JUMPDEST PUSH1 0x40 MLOAD DUP1 SWAP2 SUB SWAP1 RETURN JUMPDEST PUSH3 0x1EA PUSH1 0x4 DUP1 CALLDATASIZE SUB DUP2 ADD SWAP1 PUSH3 0x1E4 SWAP2 SWAP1 PUSH3 0xF1D JUMP JUMPDEST PUSH3 0x5D6 JUMP JUMPDEST PUSH1 0x40 MLOAD PUSH3 0x1F9 SWAP2 SWAP1 PUSH3 0x1517 JUMP JUMPDEST PUSH1 0x40 MLOAD DUP1 SWAP2 SUB SWAP1 RETURN JUMPDEST PUSH3 0x220 PUSH1 0x4 DUP1 CALLDATASIZE SUB DUP2 ADD SWAP1 PUSH3 0x21A SWAP2 SWAP1 PUSH3 0xF1D JUMP JUMPDEST PUSH3 0x649 JUMP JUMPDEST PUSH1 0x40 MLOAD PUSH3 0x231 SWAP4 SWAP3 SWAP2 SWAP1 PUSH3 0x157E JUMP JUMPDEST PUSH1 0x40 MLOAD DUP1 SWAP2 SUB SWAP1 RETURN JUMPDEST PUSH3 0x258 PUSH1 0x4 DUP1 CALLDATASIZE SUB DUP2 ADD SWAP1 PUSH3 0x252 SWAP2 SWAP1 PUSH3 0xF1D JUMP JUMPDEST PUSH3 0x781 JUMP JUMPDEST PUSH1 0x40 MLOAD PUSH3 0x267 SWAP2 SWAP1 PUSH3 0x1517 JUMP JUMPDEST PUSH1 0x40 MLOAD DUP1 SWAP2 SUB SWAP1 RETURN JUMPDEST PUSH3 0x28E PUSH1 0x4 DUP1 CALLDATASIZE SUB DUP2 ADD SWAP1 PUSH3 0x288 SWAP2 SWAP1 PUSH3 0xEF1 JUMP JUMPDEST PUSH3 0x861 JUMP JUMPDEST PUSH1 0x40 MLOAD PUSH3 0x29D SWAP2 SWAP1 PUSH3 0x1517 JUMP JUMPDEST PUSH1 0x40 MLOAD DUP1 SWAP2 SUB SWAP1 RETURN JUMPDEST PUSH3 0x2C4 PUSH1 0x4 DUP1 CALLDATASIZE SUB DUP2 ADD SWAP1 PUSH3 0x2BE SWAP2 SWAP1 PUSH3 0xF1D JUMP JUMPDEST PUSH3 0x8AC JUMP JUMPDEST PUSH1 0x40 MLOAD PUSH3 0x2D3 SWAP2 SWAP1 PUSH3 0x1517 JUMP JUMPDEST PUSH1 0x40 MLOAD DUP1 SWAP2 SUB SWAP1 RETURN JUMPDEST PUSH3 0x2E6 PUSH3 0x95F JUMP JUMPDEST PUSH1 0x40 MLOAD PUSH3 0x2F6 SWAP3 SWAP2 SWAP1 PUSH3 0x15BB JUMP JUMPDEST PUSH1 0x40 MLOAD DUP1 SWAP2 SUB SWAP1 RETURN JUMPDEST PUSH3 0x31D PUSH1 0x4 DUP1 CALLDATASIZE SUB DUP2 ADD SWAP1 PUSH3 0x317 SWAP2 SWAP1 PUSH3 0xF1D JUMP JUMPDEST PUSH3 0xA37 JUMP JUMPDEST STOP JUMPDEST PUSH3 0x33D PUSH1 0x4 DUP1 CALLDATASIZE SUB DUP2 ADD SWAP1 PUSH3 0x337 SWAP2 SWAP1 PUSH3 0xF1D JUMP JUMPDEST PUSH3 0xB7E JUMP JUMPDEST STOP JUMPDEST PUSH1 0x0 DUP1 PUSH1 0x40 MLOAD DUP1 PUSH1 0x20 ADD PUSH3 0x354 SWAP1 PUSH3 0xE8C JUMP JUMPDEST PUSH1 0x20 DUP3 ADD DUP2 SUB DUP3 MSTORE PUSH1 0x1F NOT PUSH1 0x1F DUP3 ADD AND PUSH1 0x40 MSTORE POP PUSH1 0x1 PUSH1 0x2 PUSH1 0x40 MLOAD PUSH1 0x20 ADD PUSH3 0x37F SWAP3 SWAP2 SWAP1 PUSH3 0x1650 JUMP JUMPDEST PUSH1 0x40 MLOAD PUSH1 0x20 DUP2 DUP4 SUB SUB DUP2 MSTORE SWAP1 PUSH1 0x40 MSTORE PUSH1 0x40 MLOAD PUSH1 0x20 ADD PUSH3 0x3A1 SWAP3 SWAP2 SWAP1 PUSH3 0x1411 JUMP JUMPDEST PUSH1 0x40 MLOAD PUSH1 0x20 DUP2 DUP4 SUB SUB DUP2 MSTORE SWAP1 PUSH1 0x40 MSTORE SWAP1 POP DUP3 DUP2 MLOAD PUSH1 0x20 DUP4 ADD PUSH1 0x0 CREATE2 SWAP2 POP POP SWAP2 SWAP1 POP JUMP JUMPDEST PUSH1 0x0 PUSH1 0xFF ADDRESS DUP4 PUSH1 0x40 MLOAD PUSH1 0x20 ADD PUSH3 0x3DC SWAP2 SWAP1 PUSH3 0x169F JUMP JUMPDEST PUSH1 0x40 MLOAD PUSH1 0x20 DUP2 DUP4 SUB SUB DUP2 MSTORE SWAP1 PUSH1 0x40 MSTORE DUP1 MLOAD SWAP1 PUSH1 0x20 ADD KECCAK256 PUSH1 0x40 MLOAD DUP1 PUSH1 0x20 ADD PUSH3 0x404 SWAP1 PUSH3 0xE8C JUMP JUMPDEST PUSH1 0x20 DUP3 ADD DUP2 SUB DUP3 MSTORE PUSH1 0x1F NOT PUSH1 0x1F DUP3 ADD AND PUSH1 0x40 MSTORE POP PUSH1 0x1 PUSH1 0x2 PUSH1 0x40 MLOAD PUSH1 0x20 ADD PUSH3 0x42F SWAP3 SWAP2 SWAP1 PUSH3 0x1650 JUMP JUMPDEST PUSH1 0x40 MLOAD PUSH1 0x20 DUP2 DUP4 SUB SUB DUP2 MSTORE SWAP1 PUSH1 0x40 MSTORE PUSH1 0x40 MLOAD PUSH1 0x20 ADD PUSH3 0x451 SWAP3 SWAP2 SWAP1 PUSH3 0x1411 JUMP JUMPDEST PUSH1 0x40 MLOAD PUSH1 0x20 DUP2 DUP4 SUB SUB DUP2 MSTORE SWAP1 PUSH1 0x40 MSTORE DUP1 MLOAD SWAP1 PUSH1 0x20 ADD KECCAK256 PUSH1 0x40 MLOAD PUSH1 0x20 ADD PUSH3 0x47C SWAP5 SWAP4 SWAP3 SWAP2 SWAP1 PUSH3 0x14C1 JUMP JUMPDEST PUSH1 0x40 MLOAD PUSH1 0x20 DUP2 DUP4 SUB SUB DUP2 MSTORE SWAP1 PUSH1 0x40 MSTORE DUP1 MLOAD SWAP1 PUSH1 0x20 ADD KECCAK256 PUSH1 0x0 SHR SWAP1 POP SWAP2 SWAP1 POP JUMP JUMPDEST PUSH1 0x0 JUMPDEST DUP2 DUP2 LT ISZERO PUSH3 0x526 JUMPI PUSH1 0x0 PUSH3 0x4B8 ADDRESS PUSH1 0x0 SLOAD PUSH3 0xBF7 JUMP JUMPDEST SWAP1 POP DUP1 CALLER PUSH1 0x40 MLOAD PUSH3 0x4CA SWAP1 PUSH3 0xE99 JUMP JUMPDEST PUSH3 0x4D7 SWAP3 SWAP2 SWAP1 PUSH3 0x1534 JUMP JUMPDEST PUSH1 0x40 MLOAD DUP1 SWAP2 SUB SWAP1 PUSH1 0x0 CREATE DUP1 ISZERO DUP1 ISZERO PUSH3 0x4F4 JUMPI RETURNDATASIZE PUSH1 0x0 DUP1 RETURNDATACOPY RETURNDATASIZE PUSH1 0x0 REVERT JUMPDEST POP POP PUSH1 0x1 PUSH1 0x0 DUP1 DUP3 DUP3 SLOAD PUSH3 0x50A SWAP2 SWAP1 PUSH3 0x16F4 JUMP JUMPDEST SWAP3 POP POP DUP2 SWAP1 SSTORE POP POP DUP1 PUSH3 0x51E SWAP1 PUSH3 0x1885 JUMP JUMPDEST SWAP1 POP PUSH3 0x49F JUMP JUMPDEST POP POP JUMP JUMPDEST PUSH1 0x0 DUP2 PUSH1 0x40 MLOAD PUSH1 0x20 ADD PUSH3 0x53F SWAP2 SWAP1 PUSH3 0x169F JUMP JUMPDEST PUSH1 0x40 MLOAD PUSH1 0x20 DUP2 DUP4 SUB SUB DUP2 MSTORE SWAP1 PUSH1 0x40 MSTORE DUP1 MLOAD SWAP1 PUSH1 0x20 ADD KECCAK256 SWAP1 POP SWAP2 SWAP1 POP JUMP JUMPDEST PUSH1 0x60 DUP1 PUSH1 0x40 MLOAD DUP1 PUSH1 0x20 ADD PUSH3 0x571 SWAP1 PUSH3 0xE8C JUMP JUMPDEST PUSH1 0x20 DUP3 ADD DUP2 SUB DUP3 MSTORE PUSH1 0x1F NOT PUSH1 0x1F DUP3 ADD AND PUSH1 0x40 MSTORE POP SWAP2 POP DUP2 PUSH1 0x80 PUSH1 0x40 MLOAD PUSH1 0x20 ADD PUSH3 0x59C SWAP2 SWAP1 PUSH3 0x1474 JUMP JUMPDEST PUSH1 0x40 MLOAD PUSH1 0x20 DUP2 DUP4 SUB SUB DUP2 MSTORE SWAP1 PUSH1 0x40 MSTORE PUSH1 0xFF PUSH1 0x40 MLOAD PUSH1 0x20 ADD PUSH3 0x5C1 SWAP4 SWAP3 SWAP2 SWAP1 PUSH3 0x1439 JUMP JUMPDEST PUSH1 0x40 MLOAD PUSH1 0x20 DUP2 DUP4 SUB SUB DUP2 MSTORE SWAP1 PUSH1 0x40 MSTORE SWAP1 POP SWAP1 SWAP2 JUMP JUMPDEST PUSH1 0x0 DUP2 PUSH1 0x40 MLOAD PUSH1 0x20 ADD PUSH3 0x5EB SWAP2 SWAP1 PUSH3 0x169F JUMP JUMPDEST PUSH1 0x40 MLOAD PUSH1 0x20 DUP2 DUP4 SUB SUB DUP2 MSTORE SWAP1 PUSH1 0x40 MSTORE DUP1 MLOAD SWAP1 PUSH1 0x20 ADD KECCAK256 PUSH1 0x1 PUSH1 0x2 PUSH1 0x40 MLOAD PUSH3 0x613 SWAP1 PUSH3 0xE8C JUMP JUMPDEST PUSH3 0x620 SWAP3 SWAP2 SWAP1 PUSH3 0x1623 JUMP JUMPDEST DUP2 SWAP1 PUSH1 0x40 MLOAD DUP1 SWAP2 SUB SWAP1 PUSH1 0x0 CREATE2 SWAP1 POP DUP1 ISZERO DUP1 ISZERO PUSH3 0x641 JUMPI RETURNDATASIZE PUSH1 0x0 DUP1 RETURNDATACOPY RETURNDATASIZE PUSH1 0x0 REVERT JUMPDEST POP SWAP1 POP SWAP2 SWAP1 POP JUMP JUMPDEST PUSH1 0x0 DUP1 PUSH1 0x0 DUP1 DUP5 PUSH1 0x40 MLOAD PUSH1 0x20 ADD PUSH3 0x662 SWAP2 SWAP1 PUSH3 0x169F JUMP JUMPDEST PUSH1 0x40 MLOAD PUSH1 0x20 DUP2 DUP4 SUB SUB DUP2 MSTORE SWAP1 PUSH1 0x40 MSTORE DUP1 MLOAD SWAP1 PUSH1 0x20 ADD KECCAK256 SWAP1 POP PUSH1 0x60 PUSH1 0xD6 PUSH1 0xF8 SHL PUSH1 0x94 PUSH1 0xF8 SHL ADDRESS DUP9 PUSH1 0x40 MLOAD PUSH1 0x20 ADD PUSH3 0x69D SWAP5 SWAP4 SWAP3 SWAP2 SWAP1 PUSH3 0x13A2 JUMP JUMPDEST PUSH1 0x40 MLOAD PUSH1 0x20 DUP2 DUP4 SUB SUB DUP2 MSTORE SWAP1 PUSH1 0x40 MSTORE SWAP1 POP PUSH1 0x0 PUSH1 0x40 MLOAD DUP1 PUSH1 0x20 ADD PUSH3 0x6C2 SWAP1 PUSH3 0xE8C JUMP JUMPDEST PUSH1 0x20 DUP3 ADD DUP2 SUB DUP3 MSTORE PUSH1 0x1F NOT PUSH1 0x1F DUP3 ADD AND PUSH1 0x40 MSTORE POP SWAP1 POP DUP1 PUSH1 0x1 PUSH1 0x2 PUSH1 0x40 MLOAD PUSH1 0x20 ADD PUSH3 0x6F0 SWAP3 SWAP2 SWAP1 PUSH3 0x1650 JUMP JUMPDEST PUSH1 0x40 MLOAD PUSH1 0x20 DUP2 DUP4 SUB SUB DUP2 MSTORE SWAP1 PUSH1 0x40 MSTORE PUSH1 0x40 MLOAD PUSH1 0x20 ADD PUSH3 0x712 SWAP3 SWAP2 SWAP1 PUSH3 0x1411 JUMP JUMPDEST PUSH1 0x40 MLOAD PUSH1 0x20 DUP2 DUP4 SUB SUB DUP2 MSTORE SWAP1 PUSH1 0x40 MSTORE SWAP1 POP PUSH1 0xFF PUSH1 0xF8 SHL ADDRESS DUP5 DUP4 DUP1 MLOAD SWAP1 PUSH1 0x20 ADD KECCAK256 PUSH1 0x40 MLOAD PUSH1 0x20 ADD PUSH3 0x747 SWAP5 SWAP4 SWAP3 SWAP2 SWAP1 PUSH3 0x1152 JUMP JUMPDEST PUSH1 0x40 MLOAD PUSH1 0x20 DUP2 DUP4 SUB SUB DUP2 MSTORE SWAP1 PUSH1 0x40 MSTORE SWAP2 POP DUP2 DUP1 MLOAD SWAP1 PUSH1 0x20 ADD KECCAK256 SWAP6 POP DUP6 PUSH1 0x0 MSTORE PUSH1 0x0 MLOAD SWAP5 POP DUP3 DUP2 MLOAD PUSH1 0x20 DUP4 ADD PUSH1 0x0 CREATE2 SWAP4 POP POP POP POP SWAP2 SWAP4 SWAP1 SWAP3 POP JUMP JUMPDEST PUSH1 0x0 DUP1 PUSH1 0xFF ADDRESS DUP5 PUSH1 0x40 MLOAD PUSH1 0x20 ADD PUSH3 0x79A SWAP2 SWAP1 PUSH3 0x169F JUMP JUMPDEST PUSH1 0x40 MLOAD PUSH1 0x20 DUP2 DUP4 SUB SUB DUP2 MSTORE SWAP1 PUSH1 0x40 MSTORE DUP1 MLOAD SWAP1 PUSH1 0x20 ADD KECCAK256 PUSH1 0x40 MLOAD DUP1 PUSH1 0x20 ADD PUSH3 0x7C2 SWAP1 PUSH3 0xE8C JUMP JUMPDEST PUSH1 0x20 DUP3 ADD DUP2 SUB DUP3 MSTORE PUSH1 0x1F NOT PUSH1 0x1F DUP3 ADD AND PUSH1 0x40 MSTORE POP PUSH1 0x1 PUSH1 0x2 PUSH1 0x40 MLOAD PUSH1 0x20 ADD PUSH3 0x7ED SWAP3 SWAP2 SWAP1 PUSH3 0x1650 JUMP JUMPDEST PUSH1 0x40 MLOAD PUSH1 0x20 DUP2 DUP4 SUB SUB DUP2 MSTORE SWAP1 PUSH1 0x40 MSTORE PUSH1 0x40 MLOAD PUSH1 0x20 ADD PUSH3 0x80F SWAP3 SWAP2 SWAP1 PUSH3 0x1411 JUMP JUMPDEST PUSH1 0x40 MLOAD PUSH1 0x20 DUP2 DUP4 SUB SUB DUP2 MSTORE SWAP1 PUSH1 0x40 MSTORE DUP1 MLOAD SWAP1 PUSH1 0x20 ADD KECCAK256 PUSH1 0x40 MLOAD PUSH1 0x20 ADD PUSH3 0x83A SWAP5 SWAP4 SWAP3 SWAP2 SWAP1 PUSH3 0x14C1 JUMP JUMPDEST PUSH1 0x40 MLOAD PUSH1 0x20 DUP2 DUP4 SUB SUB DUP2 MSTORE SWAP1 PUSH1 0x40 MSTORE DUP1 MLOAD SWAP1 PUSH1 0x20 ADD KECCAK256 SWAP1 POP DUP1 PUSH1 0x0 MSTORE PUSH1 0x0 MLOAD SWAP2 POP POP SWAP2 SWAP1 POP JUMP JUMPDEST PUSH1 0x0 DUP2 PUSH1 0x1 PUSH1 0x2 PUSH1 0x40 MLOAD PUSH3 0x876 SWAP1 PUSH3 0xE8C JUMP JUMPDEST PUSH3 0x883 SWAP3 SWAP2 SWAP1 PUSH3 0x1623 JUMP JUMPDEST DUP2 SWAP1 PUSH1 0x40 MLOAD DUP1 SWAP2 SUB SWAP1 PUSH1 0x0 CREATE2 SWAP1 POP DUP1 ISZERO DUP1 ISZERO PUSH3 0x8A4 JUMPI RETURNDATASIZE PUSH1 0x0 DUP1 RETURNDATACOPY RETURNDATASIZE PUSH1 0x0 REVERT JUMPDEST POP SWAP1 POP SWAP2 SWAP1 POP JUMP JUMPDEST PUSH1 0x0 DUP1 DUP3 PUSH1 0x40 MLOAD PUSH1 0x20 ADD PUSH3 0x8C2 SWAP2 SWAP1 PUSH3 0x169F JUMP JUMPDEST PUSH1 0x40 MLOAD PUSH1 0x20 DUP2 DUP4 SUB SUB DUP2 MSTORE SWAP1 PUSH1 0x40 MSTORE DUP1 MLOAD SWAP1 PUSH1 0x20 ADD KECCAK256 SWAP1 POP PUSH1 0x0 PUSH1 0x40 MLOAD DUP1 PUSH1 0x20 ADD PUSH3 0x8EE SWAP1 PUSH3 0xE8C JUMP JUMPDEST PUSH1 0x20 DUP3 ADD DUP2 SUB DUP3 MSTORE PUSH1 0x1F NOT PUSH1 0x1F DUP3 ADD AND PUSH1 0x40 MSTORE POP PUSH1 0x1 PUSH1 0x2 PUSH1 0x40 MLOAD PUSH1 0x20 ADD PUSH3 0x919 SWAP3 SWAP2 SWAP1 PUSH3 0x1650 JUMP JUMPDEST PUSH1 0x40 MLOAD PUSH1 0x20 DUP2 DUP4 SUB SUB DUP2 MSTORE SWAP1 PUSH1 0x40 MSTORE PUSH1 0x40 MLOAD PUSH1 0x20 ADD PUSH3 0x93B SWAP3 SWAP2 SWAP1 PUSH3 0x1411 JUMP JUMPDEST PUSH1 0x40 MLOAD PUSH1 0x20 DUP2 DUP4 SUB SUB DUP2 MSTORE SWAP1 PUSH1 0x40 MSTORE SWAP1 POP DUP2 DUP2 MLOAD PUSH1 0x20 DUP4 ADD PUSH1 0x0 CREATE2 SWAP3 POP POP POP SWAP2 SWAP1 POP JUMP JUMPDEST PUSH1 0x0 DUP1 PUSH1 0x0 PUSH1 0x40 MLOAD DUP1 PUSH1 0x20 ADD PUSH3 0x976 SWAP1 PUSH3 0xE8C JUMP JUMPDEST PUSH1 0x20 DUP3 ADD DUP2 SUB DUP3 MSTORE PUSH1 0x1F NOT PUSH1 0x1F DUP3 ADD AND PUSH1 0x40 MSTORE POP SWAP1 POP PUSH1 0x0 PUSH1 0x1 PUSH1 0x2 PUSH1 0x40 MLOAD PUSH1 0x20 ADD PUSH3 0x9A5 SWAP3 SWAP2 SWAP1 PUSH3 0x1491 JUMP JUMPDEST PUSH1 0x40 MLOAD PUSH1 0x20 DUP2 DUP4 SUB SUB DUP2 MSTORE SWAP1 PUSH1 0x40 MSTORE SWAP1 POP DUP2 DUP2 PUSH1 0x40 MLOAD PUSH1 0x20 ADD PUSH3 0x9CB SWAP3 SWAP2 SWAP1 PUSH3 0x1411 JUMP JUMPDEST PUSH1 0x40 MLOAD PUSH1 0x20 DUP2 DUP4 SUB SUB DUP2 MSTORE SWAP1 PUSH1 0x40 MSTORE DUP1 MLOAD SWAP1 PUSH1 0x20 ADD KECCAK256 SWAP4 POP DUP2 PUSH1 0x40 MLOAD PUSH1 0x20 ADD PUSH3 0x9F6 SWAP2 SWAP1 PUSH3 0x13F8 JUMP JUMPDEST PUSH1 0x40 MLOAD PUSH1 0x20 DUP2 DUP4 SUB SUB DUP2 MSTORE SWAP1 PUSH1 0x40 MSTORE DUP2 PUSH1 0x40 MLOAD PUSH1 0x20 ADD PUSH3 0xA19 SWAP3 SWAP2 SWAP1 PUSH3 0x1411 JUMP JUMPDEST PUSH1 0x40 MLOAD PUSH1 0x20 DUP2 DUP4 SUB SUB DUP2 MSTORE SWAP1 PUSH1 0x40 MSTORE DUP1 MLOAD SWAP1 PUSH1 0x20 ADD KECCAK256 SWAP3 POP POP POP SWAP1 SWAP2 JUMP JUMPDEST PUSH1 0x0 PUSH1 0x40 MLOAD PUSH3 0xA47 SWAP1 PUSH3 0xEA7 JUMP JUMPDEST PUSH1 0x40 MLOAD DUP1 SWAP2 SUB SWAP1 PUSH1 0x0 CREATE DUP1 ISZERO DUP1 ISZERO PUSH3 0xA64 JUMPI RETURNDATASIZE PUSH1 0x0 DUP1 RETURNDATACOPY RETURNDATASIZE PUSH1 0x0 REVERT JUMPDEST POP SWAP1 POP PUSH1 0x0 PUSH1 0x1 SWAP1 POP JUMPDEST DUP3 DUP2 LT ISZERO PUSH3 0xB0A JUMPI PUSH1 0x0 PUSH3 0xA84 DUP4 PUSH3 0xDB4 JUMP JUMPDEST SWAP1 POP DUP1 PUSH20 0xFFFFFFFFFFFFFFFFFFFFFFFFFFFFFFFFFFFFFFFF AND PUSH4 0x59E2D4A7 CALLER PUSH1 0x40 MLOAD DUP3 PUSH4 0xFFFFFFFF AND PUSH1 0xE0 SHL DUP2 MSTORE PUSH1 0x4 ADD PUSH3 0xAC1 SWAP2 SWAP1 PUSH3 0x1517 JUMP JUMPDEST PUSH1 0x0 PUSH1 0x40 MLOAD DUP1 DUP4 SUB DUP2 PUSH1 0x0 DUP8 DUP1 EXTCODESIZE ISZERO DUP1 ISZERO PUSH3 0xADC JUMPI PUSH1 0x0 DUP1 REVERT JUMPDEST POP GAS CALL ISZERO DUP1 ISZERO PUSH3 0xAF1 JUMPI RETURNDATASIZE PUSH1 0x0 DUP1 RETURNDATACOPY RETURNDATASIZE PUSH1 0x0 REVERT JUMPDEST POP POP POP POP POP DUP1 PUSH3 0xB02 SWAP1 PUSH3 0x1885 JUMP JUMPDEST SWAP1 POP PUSH3 0xA6E JUMP JUMPDEST POP DUP1 PUSH20 0xFFFFFFFFFFFFFFFFFFFFFFFFFFFFFFFFFFFFFFFF AND PUSH4 0x59E2D4A7 CALLER PUSH1 0x40 MLOAD DUP3 PUSH4 0xFFFFFFFF AND PUSH1 0xE0 SHL DUP2 MSTORE PUSH1 0x4 ADD PUSH3 0xB46 SWAP2 SWAP1 PUSH3 0x1517 JUMP JUMPDEST PUSH1 0x0 PUSH1 0x40 MLOAD DUP1 DUP4 SUB DUP2 PUSH1 0x0 DUP8 DUP1 EXTCODESIZE ISZERO DUP1 ISZERO PUSH3 0xB61 JUMPI PUSH1 0x0 DUP1 REVERT JUMPDEST POP GAS CALL ISZERO DUP1 ISZERO PUSH3 0xB76 JUMPI RETURNDATASIZE PUSH1 0x0 DUP1 RETURNDATACOPY RETURNDATASIZE PUSH1 0x0 REVERT JUMPDEST POP POP POP POP POP POP JUMP JUMPDEST PUSH1 0x0 JUMPDEST DUP2 DUP2 LT ISZERO PUSH3 0xBF3 JUMPI CALLER PUSH1 0x40 MLOAD PUSH3 0xB99 SWAP1 PUSH3 0xEB5 JUMP JUMPDEST PUSH3 0xBA5 SWAP2 SWAP1 PUSH3 0x1517 JUMP JUMPDEST PUSH1 0x40 MLOAD DUP1 SWAP2 SUB SWAP1 PUSH1 0x0 CREATE DUP1 ISZERO DUP1 ISZERO PUSH3 0xBC2 JUMPI RETURNDATASIZE PUSH1 0x0 DUP1 RETURNDATACOPY RETURNDATASIZE PUSH1 0x0 REVERT JUMPDEST POP POP PUSH1 0x1 PUSH1 0x0 DUP1 DUP3 DUP3 SLOAD PUSH3 0xBD8 SWAP2 SWAP1 PUSH3 0x16F4 JUMP JUMPDEST SWAP3 POP POP DUP2 SWAP1 SSTORE POP DUP1 PUSH3 0xBEB SWAP1 PUSH3 0x1885 JUMP JUMPDEST SWAP1 POP PUSH3 0xB81 JUMP JUMPDEST POP POP JUMP JUMPDEST PUSH1 0x0 PUSH1 0x60 PUSH1 0x0 DUP4 EQ ISZERO PUSH3 0xC41 JUMPI PUSH1 0xD6 PUSH1 0xF8 SHL PUSH1 0x94 PUSH1 0xF8 SHL DUP6 PUSH1 0x80 PUSH1 0xF8 SHL PUSH1 0x40 MLOAD PUSH1 0x20 ADD PUSH3 0xC2A SWAP5 SWAP4 SWAP3 SWAP2 SWAP1 PUSH3 0x11A8 JUMP JUMPDEST PUSH1 0x40 MLOAD PUSH1 0x20 DUP2 DUP4 SUB SUB DUP2 MSTORE SWAP1 PUSH1 0x40 MSTORE SWAP1 POP PUSH3 0xD97 JUMP JUMPDEST PUSH1 0x7F DUP4 GT PUSH3 0xC82 JUMPI PUSH1 0xD6 PUSH1 0xF8 SHL PUSH1 0x94 PUSH1 0xF8 SHL DUP6 DUP6 PUSH1 0x40 MLOAD PUSH1 0x20 ADD PUSH3 0xC6B SWAP5 SWAP4 SWAP3 SWAP2 SWAP1 PUSH3 0x13A2 JUMP JUMPDEST PUSH1 0x40 MLOAD PUSH1 0x20 DUP2 DUP4 SUB SUB DUP2 MSTORE SWAP1 PUSH1 0x40 MSTORE SWAP1 POP PUSH3 0xD96 JUMP JUMPDEST PUSH1 0xFF DUP4 GT PUSH3 0xCC9 JUMPI PUSH1 0xD7 PUSH1 0xF8 SHL PUSH1 0x94 PUSH1 0xF8 SHL DUP6 PUSH1 0x81 PUSH1 0xF8 SHL DUP7 PUSH1 0x40 MLOAD PUSH1 0x20 ADD PUSH3 0xCB2 SWAP6 SWAP5 SWAP4 SWAP3 SWAP2 SWAP1 PUSH3 0x1339 JUMP JUMPDEST PUSH1 0x40 MLOAD PUSH1 0x20 DUP2 DUP4 SUB SUB DUP2 MSTORE SWAP1 PUSH1 0x40 MSTORE SWAP1 POP PUSH3 0xD95 JUMP JUMPDEST PUSH2 0xFFFF DUP4 GT PUSH3 0xD11 JUMPI PUSH1 0xD8 PUSH1 0xF8 SHL PUSH1 0x94 PUSH1 0xF8 SHL DUP6 PUSH1 0x82 PUSH1 0xF8 SHL DUP7 PUSH1 0x40 MLOAD PUSH1 0x20 ADD PUSH3 0xCFA SWAP6 SWAP5 SWAP4 SWAP3 SWAP2 SWAP1 PUSH3 0x11FE JUMP JUMPDEST PUSH1 0x40 MLOAD PUSH1 0x20 DUP2 DUP4 SUB SUB DUP2 MSTORE SWAP1 PUSH1 0x40 MSTORE SWAP1 POP PUSH3 0xD94 JUMP JUMPDEST PUSH3 0xFFFFFF DUP4 GT PUSH3 0xD5A JUMPI PUSH1 0xD9 PUSH1 0xF8 SHL PUSH1 0x94 PUSH1 0xF8 SHL DUP6 PUSH1 0x83 PUSH1 0xF8 SHL DUP7 PUSH1 0x40 MLOAD PUSH1 0x20 ADD PUSH3 0xD43 SWAP6 SWAP5 SWAP4 SWAP3 SWAP2 SWAP1 PUSH3 0x1267 JUMP JUMPDEST PUSH1 0x40 MLOAD PUSH1 0x20 DUP2 DUP4 SUB SUB DUP2 MSTORE SWAP1 PUSH1 0x40 MSTORE SWAP1 POP PUSH3 0xD93 JUMP JUMPDEST PUSH1 0xDA PUSH1 0xF8 SHL PUSH1 0x94 PUSH1 0xF8 SHL DUP6 PUSH1 0x84 PUSH1 0xF8 SHL DUP7 PUSH1 0x40 MLOAD PUSH1 0x20 ADD PUSH3 0xD81 SWAP6 SWAP5 SWAP4 SWAP3 SWAP2 SWAP1 PUSH3 0x12D0 JUMP JUMPDEST PUSH1 0x40 MLOAD PUSH1 0x20 DUP2 DUP4 SUB SUB DUP2 MSTORE SWAP1 PUSH1 0x40 MSTORE SWAP1 POP JUMPDEST JUMPDEST JUMPDEST JUMPDEST JUMPDEST PUSH1 0x0 DUP2 DUP1 MLOAD SWAP1 PUSH1 0x20 ADD KECCAK256 SWAP1 POP DUP1 PUSH1 0x0 MSTORE PUSH1 0x0 MLOAD SWAP3 POP POP POP SWAP3 SWAP2 POP POP JUMP JUMPDEST PUSH1 0x0 PUSH1 0x40 MLOAD PUSH32 0x3D602D80600A3D3981F3363D3D373D3D3D363D73000000000000000000000000 DUP2 MSTORE DUP3 PUSH1 0x60 SHL PUSH1 0x14 DUP3 ADD MSTORE PUSH32 0x5AF43D82803E903D91602B57FD5BF30000000000000000000000000000000000 PUSH1 0x28 DUP3 ADD MSTORE PUSH1 0x37 DUP2 PUSH1 0x0 CREATE SWAP2 POP POP PUSH1 0x0 PUSH20 0xFFFFFFFFFFFFFFFFFFFFFFFFFFFFFFFFFFFFFFFF AND DUP2 PUSH20 0xFFFFFFFFFFFFFFFFFFFFFFFFFFFFFFFFFFFFFFFF AND EQ ISZERO PUSH3 0xE87 JUMPI PUSH1 0x40 MLOAD PUSH32 0x8C379A000000000000000000000000000000000000000000000000000000000 DUP2 MSTORE PUSH1 0x4 ADD PUSH3 0xE7E SWAP1 PUSH3 0x167D JUMP JUMPDEST PUSH1 0x40 MLOAD DUP1 SWAP2 SUB SWAP1 REVERT JUMPDEST SWAP2 SWAP1 POP JUMP JUMPDEST PUSH1 0xE7 DUP1 PUSH3 0x1A1F DUP4 CODECOPY ADD SWAP1 JUMP JUMPDEST PUSH2 0x3CE DUP1 PUSH3 0x1B06 DUP4 CODECOPY ADD SWAP1 JUMP JUMPDEST PUSH2 0x42A DUP1 PUSH3 0x1ED4 DUP4 CODECOPY ADD SWAP1 JUMP JUMPDEST PUSH2 0x3BB DUP1 PUSH3 0x22FE DUP4 CODECOPY ADD SWAP1 JUMP JUMPDEST PUSH1 0x0 DUP2 CALLDATALOAD SWAP1 POP PUSH3 0xED4 DUP2 PUSH3 0x19EA JUMP JUMPDEST SWAP3 SWAP2 POP POP JUMP JUMPDEST PUSH1 0x0 DUP2 CALLDATALOAD SWAP1 POP PUSH3 0xEEB DUP2 PUSH3 0x1A04 JUMP JUMPDEST SWAP3 SWAP2 POP POP JUMP JUMPDEST PUSH1 0x0 PUSH1 0x20 DUP3 DUP5 SUB SLT ISZERO PUSH3 0xF04 JUMPI PUSH1 0x0 DUP1 REVERT JUMPDEST PUSH1 0x0 PUSH3 0xF14 DUP5 DUP3 DUP6 ADD PUSH3 0xEC3 JUMP JUMPDEST SWAP2 POP POP SWAP3 SWAP2 POP POP JUMP JUMPDEST PUSH1 0x0 PUSH1 0x20 DUP3 DUP5 SUB SLT ISZERO PUSH3 0xF30 JUMPI PUSH1 0x0 DUP1 REVERT JUMPDEST PUSH1 0x0 PUSH3 0xF40 DUP5 DUP3 DUP6 ADD PUSH3 0xEDA JUMP JUMPDEST SWAP2 POP POP SWAP3 SWAP2 POP POP JUMP JUMPDEST PUSH3 0xF54 DUP2 PUSH3 0x1751 JUMP JUMPDEST DUP3 MSTORE POP POP JUMP JUMPDEST PUSH3 0xF6F PUSH3 0xF69 DUP3 PUSH3 0x1751 JUMP JUMPDEST PUSH3 0x18D3 JUMP JUMPDEST DUP3 MSTORE POP POP JUMP JUMPDEST PUSH3 0xF8A PUSH3 0xF84 DUP3 PUSH3 0x1765 JUMP JUMPDEST PUSH3 0x18E7 JUMP JUMPDEST DUP3 MSTORE POP POP JUMP JUMPDEST PUSH3 0xF9B DUP2 PUSH3 0x1791 JUMP JUMPDEST DUP3 MSTORE POP POP JUMP JUMPDEST PUSH3 0xFB6 PUSH3 0xFB0 DUP3 PUSH3 0x1791 JUMP JUMPDEST PUSH3 0x18F1 JUMP JUMPDEST DUP3 MSTORE POP POP JUMP JUMPDEST PUSH1 0x0 PUSH3 0xFC9 DUP3 PUSH3 0x16BC JUMP JUMPDEST PUSH3 0xFD5 DUP2 DUP6 PUSH3 0x16C7 JUMP JUMPDEST SWAP4 POP PUSH3 0xFE7 DUP2 DUP6 PUSH1 0x20 DUP7 ADD PUSH3 0x184F JUMP JUMPDEST PUSH3 0xFF2 DUP2 PUSH3 0x1998 JUMP JUMPDEST DUP5 ADD SWAP2 POP POP SWAP3 SWAP2 POP POP JUMP JUMPDEST PUSH1 0x0 PUSH3 0x100A DUP3 PUSH3 0x16BC JUMP JUMPDEST PUSH3 0x1016 DUP2 DUP6 PUSH3 0x16D8 JUMP JUMPDEST SWAP4 POP PUSH3 0x1028 DUP2 DUP6 PUSH1 0x20 DUP7 ADD PUSH3 0x184F JUMP JUMPDEST DUP1 DUP5 ADD SWAP2 POP POP SWAP3 SWAP2 POP POP JUMP JUMPDEST PUSH3 0x103F DUP2 PUSH3 0x17FF JUMP JUMPDEST DUP3 MSTORE POP POP JUMP JUMPDEST PUSH3 0x1050 DUP2 PUSH3 0x1813 JUMP JUMPDEST DUP3 MSTORE POP POP JUMP JUMPDEST PUSH3 0x1061 DUP2 PUSH3 0x1827 JUMP JUMPDEST DUP3 MSTORE POP POP JUMP JUMPDEST PUSH3 0x1072 DUP2 PUSH3 0x183B JUMP JUMPDEST DUP3 MSTORE POP POP JUMP JUMPDEST PUSH1 0x0 PUSH3 0x1087 PUSH1 0x16 DUP4 PUSH3 0x16E3 JUMP JUMPDEST SWAP2 POP PUSH32 0x455243313136373A20637265617465206661696C656400000000000000000000 PUSH1 0x0 DUP4 ADD MSTORE PUSH1 0x20 DUP3 ADD SWAP1 POP SWAP2 SWAP1 POP JUMP JUMPDEST PUSH3 0x10CF PUSH3 0x10C9 DUP3 PUSH3 0x179B JUMP JUMPDEST PUSH3 0x18FB JUMP JUMPDEST DUP3 MSTORE POP POP JUMP JUMPDEST PUSH3 0x10EA PUSH3 0x10E4 DUP3 PUSH3 0x17C9 JUMP JUMPDEST PUSH3 0x1923 JUMP JUMPDEST DUP3 MSTORE POP POP JUMP JUMPDEST PUSH3 0x10FB DUP2 PUSH3 0x17D8 JUMP JUMPDEST DUP3 MSTORE POP POP JUMP JUMPDEST PUSH3 0x1116 PUSH3 0x1110 DUP3 PUSH3 0x17D8 JUMP JUMPDEST PUSH3 0x1937 JUMP JUMPDEST DUP3 MSTORE POP POP JUMP JUMPDEST PUSH3 0x1131 PUSH3 0x112B DUP3 PUSH3 0x17E2 JUMP JUMPDEST PUSH3 0x1941 JUMP JUMPDEST DUP3 MSTORE POP POP JUMP JUMPDEST PUSH3 0x114C PUSH3 0x1146 DUP3 PUSH3 0x17F2 JUMP JUMPDEST PUSH3 0x1955 JUMP JUMPDEST DUP3 MSTORE POP POP JUMP JUMPDEST PUSH1 0x0 PUSH3 0x1160 DUP3 DUP8 PUSH3 0xF75 JUMP JUMPDEST PUSH1 0x1 DUP3 ADD SWAP2 POP PUSH3 0x1172 DUP3 DUP7 PUSH3 0xF5A JUMP JUMPDEST PUSH1 0x14 DUP3 ADD SWAP2 POP PUSH3 0x1184 DUP3 DUP6 PUSH3 0xFA1 JUMP JUMPDEST PUSH1 0x20 DUP3 ADD SWAP2 POP PUSH3 0x1196 DUP3 DUP5 PUSH3 0xFA1 JUMP JUMPDEST PUSH1 0x20 DUP3 ADD SWAP2 POP DUP2 SWAP1 POP SWAP6 SWAP5 POP POP POP POP POP JUMP JUMPDEST PUSH1 0x0 PUSH3 0x11B6 DUP3 DUP8 PUSH3 0xF75 JUMP JUMPDEST PUSH1 0x1 DUP3 ADD SWAP2 POP PUSH3 0x11C8 DUP3 DUP7 PUSH3 0xF75 JUMP JUMPDEST PUSH1 0x1 DUP3 ADD SWAP2 POP PUSH3 0x11DA DUP3 DUP6 PUSH3 0xF5A JUMP JUMPDEST PUSH1 0x14 DUP3 ADD SWAP2 POP PUSH3 0x11EC DUP3 DUP5 PUSH3 0xF75 JUMP JUMPDEST PUSH1 0x1 DUP3 ADD SWAP2 POP DUP2 SWAP1 POP SWAP6 SWAP5 POP POP POP POP POP JUMP JUMPDEST PUSH1 0x0 PUSH3 0x120C DUP3 DUP9 PUSH3 0xF75 JUMP JUMPDEST PUSH1 0x1 DUP3 ADD SWAP2 POP PUSH3 0x121E DUP3 DUP8 PUSH3 0xF75 JUMP JUMPDEST PUSH1 0x1 DUP3 ADD SWAP2 POP PUSH3 0x1230 DUP3 DUP7 PUSH3 0xF5A JUMP JUMPDEST PUSH1 0x14 DUP3 ADD SWAP2 POP PUSH3 0x1242 DUP3 DUP6 PUSH3 0xF75 JUMP JUMPDEST PUSH1 0x1 DUP3 ADD SWAP2 POP PUSH3 0x1254 DUP3 DUP5 PUSH3 0x10BA JUMP JUMPDEST PUSH1 0x2 DUP3 ADD SWAP2 POP DUP2 SWAP1 POP SWAP7 SWAP6 POP POP POP POP POP POP JUMP JUMPDEST PUSH1 0x0 PUSH3 0x1275 DUP3 DUP9 PUSH3 0xF75 JUMP JUMPDEST PUSH1 0x1 DUP3 ADD SWAP2 POP PUSH3 0x1287 DUP3 DUP8 PUSH3 0xF75 JUMP JUMPDEST PUSH1 0x1 DUP3 ADD SWAP2 POP PUSH3 0x1299 DUP3 DUP7 PUSH3 0xF5A JUMP JUMPDEST PUSH1 0x14 DUP3 ADD SWAP2 POP PUSH3 0x12AB DUP3 DUP6 PUSH3 0xF75 JUMP JUMPDEST PUSH1 0x1 DUP3 ADD SWAP2 POP PUSH3 0x12BD DUP3 DUP5 PUSH3 0x10D5 JUMP JUMPDEST PUSH1 0x3 DUP3 ADD SWAP2 POP DUP2 SWAP1 POP SWAP7 SWAP6 POP POP POP POP POP POP JUMP JUMPDEST PUSH1 0x0 PUSH3 0x12DE DUP3 DUP9 PUSH3 0xF75 JUMP JUMPDEST PUSH1 0x1 DUP3 ADD SWAP2 POP PUSH3 0x12F0 DUP3 DUP8 PUSH3 0xF75 JUMP JUMPDEST PUSH1 0x1 DUP3 ADD SWAP2 POP PUSH3 0x1302 DUP3 DUP7 PUSH3 0xF5A JUMP JUMPDEST PUSH1 0x14 DUP3 ADD SWAP2 POP PUSH3 0x1314 DUP3 DUP6 PUSH3 0xF75 JUMP JUMPDEST PUSH1 0x1 DUP3 ADD SWAP2 POP PUSH3 0x1326 DUP3 DUP5 PUSH3 0x111C JUMP JUMPDEST PUSH1 0x4 DUP3 ADD SWAP2 POP DUP2 SWAP1 POP SWAP7 SWAP6 POP POP POP POP POP POP JUMP JUMPDEST PUSH1 0x0 PUSH3 0x1347 DUP3 DUP9 PUSH3 0xF75 JUMP JUMPDEST PUSH1 0x1 DUP3 ADD SWAP2 POP PUSH3 0x1359 DUP3 DUP8 PUSH3 0xF75 JUMP JUMPDEST PUSH1 0x1 DUP3 ADD SWAP2 POP PUSH3 0x136B DUP3 DUP7 PUSH3 0xF5A JUMP JUMPDEST PUSH1 0x14 DUP3 ADD SWAP2 POP PUSH3 0x137D DUP3 DUP6 PUSH3 0xF75 JUMP JUMPDEST PUSH1 0x1 DUP3 ADD SWAP2 POP PUSH3 0x138F DUP3 DUP5 PUSH3 0x1137 JUMP JUMPDEST PUSH1 0x1 DUP3 ADD SWAP2 POP DUP2 SWAP1 POP SWAP7 SWAP6 POP POP POP POP POP POP JUMP JUMPDEST PUSH1 0x0 PUSH3 0x13B0 DUP3 DUP8 PUSH3 0xF75 JUMP JUMPDEST PUSH1 0x1 DUP3 ADD SWAP2 POP PUSH3 0x13C2 DUP3 DUP7 PUSH3 0xF75 JUMP JUMPDEST PUSH1 0x1 DUP3 ADD SWAP2 POP PUSH3 0x13D4 DUP3 DUP6 PUSH3 0xF5A JUMP JUMPDEST PUSH1 0x14 DUP3 ADD SWAP2 POP PUSH3 0x13E6 DUP3 DUP5 PUSH3 0x1137 JUMP JUMPDEST PUSH1 0x1 DUP3 ADD SWAP2 POP DUP2 SWAP1 POP SWAP6 SWAP5 POP POP POP POP POP JUMP JUMPDEST PUSH1 0x0 PUSH3 0x1406 DUP3 DUP5 PUSH3 0xFFD JUMP JUMPDEST SWAP2 POP DUP2 SWAP1 POP SWAP3 SWAP2 POP POP JUMP JUMPDEST PUSH1 0x0 PUSH3 0x141F DUP3 DUP6 PUSH3 0xFFD JUMP JUMPDEST SWAP2 POP PUSH3 0x142D DUP3 DUP5 PUSH3 0xFFD JUMP JUMPDEST SWAP2 POP DUP2 SWAP1 POP SWAP4 SWAP3 POP POP POP JUMP JUMPDEST PUSH1 0x0 PUSH3 0x1447 DUP3 DUP7 PUSH3 0xFFD JUMP JUMPDEST SWAP2 POP PUSH3 0x1455 DUP3 DUP6 PUSH3 0xFFD JUMP JUMPDEST SWAP2 POP PUSH3 0x1463 DUP3 DUP5 PUSH3 0x1101 JUMP JUMPDEST PUSH1 0x20 DUP3 ADD SWAP2 POP DUP2 SWAP1 POP SWAP5 SWAP4 POP POP POP POP JUMP JUMPDEST PUSH1 0x0 PUSH3 0x1482 DUP3 DUP5 PUSH3 0x1101 JUMP JUMPDEST PUSH1 0x20 DUP3 ADD SWAP2 POP DUP2 SWAP1 POP SWAP3 SWAP2 POP POP JUMP JUMPDEST PUSH1 0x0 PUSH3 0x149F DUP3 DUP6 PUSH3 0x1101 JUMP JUMPDEST PUSH1 0x20 DUP3 ADD SWAP2 POP PUSH3 0x14B1 DUP3 DUP5 PUSH3 0x1101 JUMP JUMPDEST PUSH1 0x20 DUP3 ADD SWAP2 POP DUP2 SWAP1 POP SWAP4 SWAP3 POP POP POP JUMP JUMPDEST PUSH1 0x0 PUSH3 0x14CF DUP3 DUP8 PUSH3 0x1137 JUMP JUMPDEST PUSH1 0x1 DUP3 ADD SWAP2 POP PUSH3 0x14E1 DUP3 DUP7 PUSH3 0xF5A JUMP JUMPDEST PUSH1 0x14 DUP3 ADD SWAP2 POP PUSH3 0x14F3 DUP3 DUP6 PUSH3 0xFA1 JUMP JUMPDEST PUSH1 0x20 DUP3 ADD SWAP2 POP PUSH3 0x1505 DUP3 DUP5 PUSH3 0xFA1 JUMP JUMPDEST PUSH1 0x20 DUP3 ADD SWAP2 POP DUP2 SWAP1 POP SWAP6 SWAP5 POP POP POP POP POP JUMP JUMPDEST PUSH1 0x0 PUSH1 0x20 DUP3 ADD SWAP1 POP PUSH3 0x152E PUSH1 0x0 DUP4 ADD DUP5 PUSH3 0xF49 JUMP JUMPDEST SWAP3 SWAP2 POP POP JUMP JUMPDEST PUSH1 0x0 PUSH1 0x40 DUP3 ADD SWAP1 POP PUSH3 0x154B PUSH1 0x0 DUP4 ADD DUP6 PUSH3 0xF49 JUMP JUMPDEST PUSH3 0x155A PUSH1 0x20 DUP4 ADD DUP5 PUSH3 0xF49 JUMP JUMPDEST SWAP4 SWAP3 POP POP POP JUMP JUMPDEST PUSH1 0x0 PUSH1 0x20 DUP3 ADD SWAP1 POP PUSH3 0x1578 PUSH1 0x0 DUP4 ADD DUP5 PUSH3 0xF90 JUMP JUMPDEST SWAP3 SWAP2 POP POP JUMP JUMPDEST PUSH1 0x0 PUSH1 0x60 DUP3 ADD SWAP1 POP PUSH3 0x1595 PUSH1 0x0 DUP4 ADD DUP7 PUSH3 0xF90 JUMP JUMPDEST PUSH3 0x15A4 PUSH1 0x20 DUP4 ADD DUP6 PUSH3 0xF49 JUMP JUMPDEST PUSH3 0x15B3 PUSH1 0x40 DUP4 ADD DUP5 PUSH3 0xF49 JUMP JUMPDEST SWAP5 SWAP4 POP POP POP POP JUMP JUMPDEST PUSH1 0x0 PUSH1 0x40 DUP3 ADD SWAP1 POP PUSH3 0x15D2 PUSH1 0x0 DUP4 ADD DUP6 PUSH3 0xF90 JUMP JUMPDEST PUSH3 0x15E1 PUSH1 0x20 DUP4 ADD DUP5 PUSH3 0xF90 JUMP JUMPDEST SWAP4 SWAP3 POP POP POP JUMP JUMPDEST PUSH1 0x0 PUSH1 0x40 DUP3 ADD SWAP1 POP DUP2 DUP2 SUB PUSH1 0x0 DUP4 ADD MSTORE PUSH3 0x1604 DUP2 DUP6 PUSH3 0xFBC JUMP JUMPDEST SWAP1 POP DUP2 DUP2 SUB PUSH1 0x20 DUP4 ADD MSTORE PUSH3 0x161A DUP2 DUP5 PUSH3 0xFBC JUMP JUMPDEST SWAP1 POP SWAP4 SWAP3 POP POP POP JUMP JUMPDEST PUSH1 0x0 PUSH1 0x40 DUP3 ADD SWAP1 POP PUSH3 0x163A PUSH1 0x0 DUP4 ADD DUP6 PUSH3 0x1034 JUMP JUMPDEST PUSH3 0x1649 PUSH1 0x20 DUP4 ADD DUP5 PUSH3 0x1056 JUMP JUMPDEST SWAP4 SWAP3 POP POP POP JUMP JUMPDEST PUSH1 0x0 PUSH1 0x40 DUP3 ADD SWAP1 POP PUSH3 0x1667 PUSH1 0x0 DUP4 ADD DUP6 PUSH3 0x1045 JUMP JUMPDEST PUSH3 0x1676 PUSH1 0x20 DUP4 ADD DUP5 PUSH3 0x1067 JUMP JUMPDEST SWAP4 SWAP3 POP POP POP JUMP JUMPDEST PUSH1 0x0 PUSH1 0x20 DUP3 ADD SWAP1 POP DUP2 DUP2 SUB PUSH1 0x0 DUP4 ADD MSTORE PUSH3 0x1698 DUP2 PUSH3 0x1078 JUMP JUMPDEST SWAP1 POP SWAP2 SWAP1 POP JUMP JUMPDEST PUSH1 0x0 PUSH1 0x20 DUP3 ADD SWAP1 POP PUSH3 0x16B6 PUSH1 0x0 DUP4 ADD DUP5 PUSH3 0x10F0 JUMP JUMPDEST SWAP3 SWAP2 POP POP JUMP JUMPDEST PUSH1 0x0 DUP2 MLOAD SWAP1 POP SWAP2 SWAP1 POP JUMP JUMPDEST PUSH1 0x0 DUP3 DUP3 MSTORE PUSH1 0x20 DUP3 ADD SWAP1 POP SWAP3 SWAP2 POP POP JUMP JUMPDEST PUSH1 0x0 DUP2 SWAP1 POP SWAP3 SWAP2 POP POP JUMP JUMPDEST PUSH1 0x0 DUP3 DUP3 MSTORE PUSH1 0x20 DUP3 ADD SWAP1 POP SWAP3 SWAP2 POP POP JUMP JUMPDEST PUSH1 0x0 PUSH3 0x1701 DUP3 PUSH3 0x17D8 JUMP JUMPDEST SWAP2 POP PUSH3 0x170E DUP4 PUSH3 0x17D8 JUMP JUMPDEST SWAP3 POP DUP3 PUSH32 0xFFFFFFFFFFFFFFFFFFFFFFFFFFFFFFFFFFFFFFFFFFFFFFFFFFFFFFFFFFFFFFFF SUB DUP3 GT ISZERO PUSH3 0x1746 JUMPI PUSH3 0x1745 PUSH3 0x1969 JUMP JUMPDEST JUMPDEST DUP3 DUP3 ADD SWAP1 POP SWAP3 SWAP2 POP POP JUMP JUMPDEST PUSH1 0x0 PUSH3 0x175E DUP3 PUSH3 0x17A9 JUMP JUMPDEST SWAP1 POP SWAP2 SWAP1 POP JUMP JUMPDEST PUSH1 0x0 PUSH32 0xFF00000000000000000000000000000000000000000000000000000000000000 DUP3 AND SWAP1 POP SWAP2 SWAP1 POP JUMP JUMPDEST PUSH1 0x0 DUP2 SWAP1 POP SWAP2 SWAP1 POP JUMP JUMPDEST PUSH1 0x0 PUSH2 0xFFFF DUP3 AND SWAP1 POP SWAP2 SWAP1 POP JUMP JUMPDEST PUSH1 0x0 PUSH20 0xFFFFFFFFFFFFFFFFFFFFFFFFFFFFFFFFFFFFFFFF DUP3 AND SWAP1 POP SWAP2 SWAP1 POP JUMP JUMPDEST PUSH1 0x0 PUSH3 0xFFFFFF DUP3 AND SWAP1 POP SWAP2 SWAP1 POP JUMP JUMPDEST PUSH1 0x0 DUP2 SWAP1 POP SWAP2 SWAP1 POP JUMP JUMPDEST PUSH1 0x0 PUSH4 0xFFFFFFFF DUP3 AND SWAP1 POP SWAP2 SWAP1 POP JUMP JUMPDEST PUSH1 0x0 PUSH1 0xFF DUP3 AND SWAP1 POP SWAP2 SWAP1 POP JUMP JUMPDEST PUSH1 0x0 PUSH3 0x180C DUP3 PUSH3 0x17D8 JUMP JUMPDEST SWAP1 POP SWAP2 SWAP1 POP JUMP JUMPDEST PUSH1 0x0 PUSH3 0x1820 DUP3 PUSH3 0x17F2 JUMP JUMPDEST SWAP1 POP SWAP2 SWAP1 POP JUMP JUMPDEST PUSH1 0x0 PUSH3 0x1834 DUP3 PUSH3 0x17D8 JUMP JUMPDEST SWAP1 POP SWAP2 SWAP1 POP JUMP JUMPDEST PUSH1 0x0 PUSH3 0x1848 DUP3 PUSH3 0x17F2 JUMP JUMPDEST SWAP1 POP SWAP2 SWAP1 POP JUMP JUMPDEST PUSH1 0x0 JUMPDEST DUP4 DUP2 LT ISZERO PUSH3 0x186F JUMPI DUP1 DUP3 ADD MLOAD DUP2 DUP5 ADD MSTORE PUSH1 0x20 DUP2 ADD SWAP1 POP PUSH3 0x1852 JUMP JUMPDEST DUP4 DUP2 GT ISZERO PUSH3 0x187F JUMPI PUSH1 0x0 DUP5 DUP5 ADD MSTORE JUMPDEST POP POP POP POP JUMP JUMPDEST PUSH1 0x0 PUSH3 0x1892 DUP3 PUSH3 0x17D8 JUMP JUMPDEST SWAP2 POP PUSH32 0xFFFFFFFFFFFFFFFFFFFFFFFFFFFFFFFFFFFFFFFFFFFFFFFFFFFFFFFFFFFFFFFF DUP3 EQ ISZERO PUSH3 0x18C8 JUMPI PUSH3 0x18C7 PUSH3 0x1969 JUMP JUMPDEST JUMPDEST PUSH1 0x1 DUP3 ADD SWAP1 POP SWAP2 SWAP1 POP JUMP JUMPDEST PUSH1 0x0 PUSH3 0x18E0 DUP3 PUSH3 0x190F JUMP JUMPDEST SWAP1 POP SWAP2 SWAP1 POP JUMP JUMPDEST PUSH1 0x0 DUP2 SWAP1 POP SWAP2 SWAP1 POP JUMP JUMPDEST PUSH1 0x0 DUP2 SWAP1 POP SWAP2 SWAP1 POP JUMP JUMPDEST PUSH1 0x0 PUSH3 0x1908 DUP3 PUSH3 0x19C3 JUMP JUMPDEST SWAP1 POP SWAP2 SWAP1 POP JUMP JUMPDEST PUSH1 0x0 PUSH3 0x191C DUP3 PUSH3 0x19DD JUMP JUMPDEST SWAP1 POP SWAP2 SWAP1 POP JUMP JUMPDEST PUSH1 0x0 PUSH3 0x1930 DUP3 PUSH3 0x19B6 JUMP JUMPDEST SWAP1 POP SWAP2 SWAP1 POP JUMP JUMPDEST PUSH1 0x0 DUP2 SWAP1 POP SWAP2 SWAP1 POP JUMP JUMPDEST PUSH1 0x0 PUSH3 0x194E DUP3 PUSH3 0x19A9 JUMP JUMPDEST SWAP1 POP SWAP2 SWAP1 POP JUMP JUMPDEST PUSH1 0x0 PUSH3 0x1962 DUP3 PUSH3 0x19D0 JUMP JUMPDEST SWAP1 POP SWAP2 SWAP1 POP JUMP JUMPDEST PUSH32 0x4E487B7100000000000000000000000000000000000000000000000000000000 PUSH1 0x0 MSTORE PUSH1 0x11 PUSH1 0x4 MSTORE PUSH1 0x24 PUSH1 0x0 REVERT JUMPDEST PUSH1 0x0 PUSH1 0x1F NOT PUSH1 0x1F DUP4 ADD AND SWAP1 POP SWAP2 SWAP1 POP JUMP JUMPDEST PUSH1 0x0 DUP2 PUSH1 0xE0 SHL SWAP1 POP SWAP2 SWAP1 POP JUMP JUMPDEST PUSH1 0x0 DUP2 PUSH1 0xE8 SHL SWAP1 POP SWAP2 SWAP1 POP JUMP JUMPDEST PUSH1 0x0 DUP2 PUSH1 0xF0 SHL SWAP1 POP SWAP2 SWAP1 POP JUMP JUMPDEST PUSH1 0x0 DUP2 PUSH1 0xF8 SHL SWAP1 POP SWAP2 SWAP1 POP JUMP JUMPDEST PUSH1 0x0 DUP2 PUSH1 0x60 SHL SWAP1 POP SWAP2 SWAP1 POP JUMP JUMPDEST PUSH3 0x19F5 DUP2 PUSH3 0x1791 JUMP JUMPDEST DUP2 EQ PUSH3 0x1A01 JUMPI PUSH1 0x0 DUP1 REVERT JUMPDEST POP JUMP JUMPDEST PUSH3 0x1A0F DUP2 PUSH3 0x17D8 JUMP JUMPDEST DUP2 EQ PUSH3 0x1A1B JUMPI PUSH1 0x0 DUP1 REVERT JUMPDEST POP JUMP INVALID PUSH1 0x80 PUSH1 0x40 MSTORE CALLVALUE DUP1 ISZERO PUSH1 0xF JUMPI PUSH1 0x0 DUP1 REVERT JUMPDEST POP PUSH1 0x40 MLOAD PUSH1 0xE7 CODESIZE SUB DUP1 PUSH1 0xE7 DUP4 CODECOPY DUP2 DUP2 ADD PUSH1 0x40 MSTORE DUP2 ADD SWAP1 PUSH1 0x2D SWAP2 SWAP1 PUSH1 0x46 JUMP JUMPDEST POP POP PUSH1 0x9B JUMP JUMPDEST PUSH1 0x0 DUP2 MLOAD SWAP1 POP PUSH1 0x40 DUP2 PUSH1 0x87 JUMP JUMPDEST SWAP3 SWAP2 POP POP JUMP JUMPDEST PUSH1 0x0 DUP1 PUSH1 0x40 DUP4 DUP6 SUB SLT ISZERO PUSH1 0x58 JUMPI PUSH1 0x0 DUP1 REVERT JUMPDEST PUSH1 0x0 PUSH1 0x64 DUP6 DUP3 DUP7 ADD PUSH1 0x33 JUMP JUMPDEST SWAP3 POP POP PUSH1 0x20 PUSH1 0x73 DUP6 DUP3 DUP7 ADD PUSH1 0x33 JUMP JUMPDEST SWAP2 POP POP SWAP3 POP SWAP3 SWAP1 POP JUMP JUMPDEST PUSH1 0x0 DUP2 SWAP1 POP SWAP2 SWAP1 POP JUMP JUMPDEST PUSH1 0x8E DUP2 PUSH1 0x7D JUMP JUMPDEST DUP2 EQ PUSH1 0x98 JUMPI PUSH1 0x0 DUP1 REVERT JUMPDEST POP JUMP JUMPDEST PUSH1 0x3F DUP1 PUSH1 0xA8 PUSH1 0x0 CODECOPY PUSH1 0x0 RETURN INVALID PUSH1 0x80 PUSH1 0x40 MSTORE PUSH1 0x0 DUP1 REVERT INVALID LOG2 PUSH5 0x6970667358 0x22 SLT KECCAK256 0x2E PUSH20 0x14C31CD5716C26C13EB50B597A26C72580D7ABA 0xDF 0xF7 0xAB CALLDATASIZE CALLER 0xB9 CALL 0xF 0xE MSTORE8 PUSH5 0x736F6C6343 STOP ADDMOD STOP STOP CALLER PUSH1 0x80 PUSH1 0x40 MSTORE CALLVALUE DUP1 ISZERO PUSH2 0x10 JUMPI PUSH1 0x0 DUP1 REVERT JUMPDEST POP PUSH1 0x40 MLOAD PUSH2 0x3CE CODESIZE SUB DUP1 PUSH2 0x3CE DUP4 CODECOPY DUP2 DUP2 ADD PUSH1 0x40 MSTORE DUP2 ADD SWAP1 PUSH2 0x32 SWAP2 SWAP1 PUSH2 0x22B JUMP JUMPDEST PUSH1 0x0 PUSH20 0xD9145CCE52D386F254917E481EB44E9943F39138 SWAP1 POP DUP1 PUSH20 0xFFFFFFFFFFFFFFFFFFFFFFFFFFFFFFFFFFFFFFFF AND PUSH4 0x4E71D92D PUSH1 0x40 MLOAD DUP2 PUSH4 0xFFFFFFFF AND PUSH1 0xE0 SHL DUP2 MSTORE PUSH1 0x4 ADD PUSH1 0x0 PUSH1 0x40 MLOAD DUP1 DUP4 SUB DUP2 PUSH1 0x0 DUP8 DUP1 EXTCODESIZE ISZERO DUP1 ISZERO PUSH2 0x93 JUMPI PUSH1 0x0 DUP1 REVERT JUMPDEST POP GAS CALL ISZERO DUP1 ISZERO PUSH2 0xA7 JUMPI RETURNDATASIZE PUSH1 0x0 DUP1 RETURNDATACOPY RETURNDATASIZE PUSH1 0x0 REVERT JUMPDEST POP POP POP POP PUSH1 0x0 DUP2 PUSH20 0xFFFFFFFFFFFFFFFFFFFFFFFFFFFFFFFFFFFFFFFF AND PUSH4 0x70A08231 DUP6 PUSH1 0x40 MLOAD DUP3 PUSH4 0xFFFFFFFF AND PUSH1 0xE0 SHL DUP2 MSTORE PUSH1 0x4 ADD PUSH2 0xE6 SWAP2 SWAP1 PUSH2 0x2EE JUMP JUMPDEST PUSH1 0x20 PUSH1 0x40 MLOAD DUP1 DUP4 SUB DUP2 DUP7 DUP1 EXTCODESIZE ISZERO DUP1 ISZERO PUSH2 0xFE JUMPI PUSH1 0x0 DUP1 REVERT JUMPDEST POP GAS STATICCALL ISZERO DUP1 ISZERO PUSH2 0x112 JUMPI RETURNDATASIZE PUSH1 0x0 DUP1 RETURNDATACOPY RETURNDATASIZE PUSH1 0x0 REVERT JUMPDEST POP POP POP POP PUSH1 0x40 MLOAD RETURNDATASIZE PUSH1 0x1F NOT PUSH1 0x1F DUP3 ADD AND DUP3 ADD DUP1 PUSH1 0x40 MSTORE POP DUP2 ADD SWAP1 PUSH2 0x136 SWAP2 SWAP1 PUSH2 0x267 JUMP JUMPDEST SWAP1 POP PUSH1 0x0 DUP2 GT PUSH2 0x17B JUMPI PUSH1 0x40 MLOAD PUSH32 0x8C379A000000000000000000000000000000000000000000000000000000000 DUP2 MSTORE PUSH1 0x4 ADD PUSH2 0x172 SWAP1 PUSH2 0x332 JUMP JUMPDEST PUSH1 0x40 MLOAD DUP1 SWAP2 SUB SWAP1 REVERT JUMPDEST DUP2 PUSH20 0xFFFFFFFFFFFFFFFFFFFFFFFFFFFFFFFFFFFFFFFF AND PUSH4 0xA9059CBB DUP5 DUP4 PUSH1 0x40 MLOAD DUP4 PUSH4 0xFFFFFFFF AND PUSH1 0xE0 SHL DUP2 MSTORE PUSH1 0x4 ADD PUSH2 0x1B6 SWAP3 SWAP2 SWAP1 PUSH2 0x309 JUMP JUMPDEST PUSH1 0x0 PUSH1 0x40 MLOAD DUP1 DUP4 SUB DUP2 PUSH1 0x0 DUP8 DUP1 EXTCODESIZE ISZERO DUP1 ISZERO PUSH2 0x1D0 JUMPI PUSH1 0x0 DUP1 REVERT JUMPDEST POP GAS CALL ISZERO DUP1 ISZERO PUSH2 0x1E4 JUMPI RETURNDATASIZE PUSH1 0x0 DUP1 RETURNDATACOPY RETURNDATASIZE PUSH1 0x0 REVERT JUMPDEST POP POP POP POP CALLER PUSH20 0xFFFFFFFFFFFFFFFFFFFFFFFFFFFFFFFFFFFFFFFF AND SELFDESTRUCT JUMPDEST PUSH1 0x0 DUP2 MLOAD SWAP1 POP PUSH2 0x210 DUP2 PUSH2 0x39F JUMP JUMPDEST SWAP3 SWAP2 POP POP JUMP JUMPDEST PUSH1 0x0 DUP2 MLOAD SWAP1 POP PUSH2 0x225 DUP2 PUSH2 0x3B6 JUMP JUMPDEST SWAP3 SWAP2 POP POP JUMP JUMPDEST PUSH1 0x0 DUP1 PUSH1 0x40 DUP4 DUP6 SUB SLT ISZERO PUSH2 0x23E JUMPI PUSH1 0x0 DUP1 REVERT JUMPDEST PUSH1 0x0 PUSH2 0x24C DUP6 DUP3 DUP7 ADD PUSH2 0x201 JUMP JUMPDEST SWAP3 POP POP PUSH1 0x20 PUSH2 0x25D DUP6 DUP3 DUP7 ADD PUSH2 0x201 JUMP JUMPDEST SWAP2 POP POP SWAP3 POP SWAP3 SWAP1 POP JUMP JUMPDEST PUSH1 0x0 PUSH1 0x20 DUP3 DUP5 SUB SLT ISZERO PUSH2 0x279 JUMPI PUSH1 0x0 DUP1 REVERT JUMPDEST PUSH1 0x0 PUSH2 0x287 DUP5 DUP3 DUP6 ADD PUSH2 0x216 JUMP JUMPDEST SWAP2 POP POP SWAP3 SWAP2 POP POP JUMP JUMPDEST PUSH2 0x299 DUP2 PUSH2 0x363 JUMP JUMPDEST DUP3 MSTORE POP POP JUMP JUMPDEST PUSH1 0x0 PUSH2 0x2AC PUSH1 0x5 DUP4 PUSH2 0x352 JUMP JUMPDEST SWAP2 POP PUSH32 0x4F68206E6F000000000000000000000000000000000000000000000000000000 PUSH1 0x0 DUP4 ADD MSTORE PUSH1 0x20 DUP3 ADD SWAP1 POP SWAP2 SWAP1 POP JUMP JUMPDEST PUSH2 0x2E8 DUP2 PUSH2 0x395 JUMP JUMPDEST DUP3 MSTORE POP POP JUMP JUMPDEST PUSH1 0x0 PUSH1 0x20 DUP3 ADD SWAP1 POP PUSH2 0x303 PUSH1 0x0 DUP4 ADD DUP5 PUSH2 0x290 JUMP JUMPDEST SWAP3 SWAP2 POP POP JUMP JUMPDEST PUSH1 0x0 PUSH1 0x40 DUP3 ADD SWAP1 POP PUSH2 0x31E PUSH1 0x0 DUP4 ADD DUP6 PUSH2 0x290 JUMP JUMPDEST PUSH2 0x32B PUSH1 0x20 DUP4 ADD DUP5 PUSH2 0x2DF JUMP JUMPDEST SWAP4 SWAP3 POP POP POP JUMP JUMPDEST PUSH1 0x0 PUSH1 0x20 DUP3 ADD SWAP1 POP DUP2 DUP2 SUB PUSH1 0x0 DUP4 ADD MSTORE PUSH2 0x34B DUP2 PUSH2 0x29F JUMP JUMPDEST SWAP1 POP SWAP2 SWAP1 POP JUMP JUMPDEST PUSH1 0x0 DUP3 DUP3 MSTORE PUSH1 0x20 DUP3 ADD SWAP1 POP SWAP3 SWAP2 POP POP JUMP JUMPDEST PUSH1 0x0 PUSH2 0x36E DUP3 PUSH2 0x375 JUMP JUMPDEST SWAP1 POP SWAP2 SWAP1 POP JUMP JUMPDEST PUSH1 0x0 PUSH20 0xFFFFFFFFFFFFFFFFFFFFFFFFFFFFFFFFFFFFFFFF DUP3 AND SWAP1 POP SWAP2 SWAP1 POP JUMP JUMPDEST PUSH1 0x0 DUP2 SWAP1 POP SWAP2 SWAP1 POP JUMP JUMPDEST PUSH2 0x3A8 DUP2 PUSH2 0x363 JUMP JUMPDEST DUP2 EQ PUSH2 0x3B3 JUMPI PUSH1 0x0 DUP1 REVERT JUMPDEST POP JUMP JUMPDEST PUSH2 0x3BF DUP2 PUSH2 0x395 JUMP JUMPDEST DUP2 EQ PUSH2 0x3CA JUMPI PUSH1 0x0 DUP1 REVERT JUMPDEST POP JUMP INVALID PUSH1 0x80 PUSH1 0x40 MSTORE CALLVALUE DUP1 ISZERO PUSH2 0x10 JUMPI PUSH1 0x0 DUP1 REVERT JUMPDEST POP PUSH2 0x40A DUP1 PUSH2 0x20 PUSH1 0x0 CODECOPY PUSH1 0x0 RETURN INVALID PUSH1 0x80 PUSH1 0x40 MSTORE CALLVALUE DUP1 ISZERO PUSH2 0x10 JUMPI PUSH1 0x0 DUP1 REVERT JUMPDEST POP PUSH1 0x4 CALLDATASIZE LT PUSH2 0x2B JUMPI PUSH1 0x0 CALLDATALOAD PUSH1 0xE0 SHR DUP1 PUSH4 0x59E2D4A7 EQ PUSH2 0x30 JUMPI JUMPDEST PUSH1 0x0 DUP1 REVERT JUMPDEST PUSH2 0x4A PUSH1 0x4 DUP1 CALLDATASIZE SUB DUP2 ADD SWAP1 PUSH2 0x45 SWAP2 SWAP1 PUSH2 0x245 JUMP JUMPDEST PUSH2 0x4C JUMP JUMPDEST STOP JUMPDEST PUSH1 0x0 PUSH20 0xD9145CCE52D386F254917E481EB44E9943F39138 SWAP1 POP DUP1 PUSH20 0xFFFFFFFFFFFFFFFFFFFFFFFFFFFFFFFFFFFFFFFF AND PUSH4 0x4E71D92D PUSH1 0x40 MLOAD DUP2 PUSH4 0xFFFFFFFF AND PUSH1 0xE0 SHL DUP2 MSTORE PUSH1 0x4 ADD PUSH1 0x0 PUSH1 0x40 MLOAD DUP1 DUP4 SUB DUP2 PUSH1 0x0 DUP8 DUP1 EXTCODESIZE ISZERO DUP1 ISZERO PUSH2 0xAD JUMPI PUSH1 0x0 DUP1 REVERT JUMPDEST POP GAS CALL ISZERO DUP1 ISZERO PUSH2 0xC1 JUMPI RETURNDATASIZE PUSH1 0x0 DUP1 RETURNDATACOPY RETURNDATASIZE PUSH1 0x0 REVERT JUMPDEST POP POP POP POP PUSH1 0x0 DUP2 PUSH20 0xFFFFFFFFFFFFFFFFFFFFFFFFFFFFFFFFFFFFFFFF AND PUSH4 0x70A08231 ADDRESS PUSH1 0x40 MLOAD DUP3 PUSH4 0xFFFFFFFF AND PUSH1 0xE0 SHL DUP2 MSTORE PUSH1 0x4 ADD PUSH2 0x100 SWAP2 SWAP1 PUSH2 0x2F5 JUMP JUMPDEST PUSH1 0x20 PUSH1 0x40 MLOAD DUP1 DUP4 SUB DUP2 DUP7 DUP1 EXTCODESIZE ISZERO DUP1 ISZERO PUSH2 0x118 JUMPI PUSH1 0x0 DUP1 REVERT JUMPDEST POP GAS STATICCALL ISZERO DUP1 ISZERO PUSH2 0x12C JUMPI RETURNDATASIZE PUSH1 0x0 DUP1 RETURNDATACOPY RETURNDATASIZE PUSH1 0x0 REVERT JUMPDEST POP POP POP POP PUSH1 0x40 MLOAD RETURNDATASIZE PUSH1 0x1F NOT PUSH1 0x1F DUP3 ADD AND DUP3 ADD DUP1 PUSH1 0x40 MSTORE POP DUP2 ADD SWAP1 PUSH2 0x150 SWAP2 SWAP1 PUSH2 0x26E JUMP JUMPDEST SWAP1 POP PUSH1 0x0 DUP2 GT PUSH2 0x195 JUMPI PUSH1 0x40 MLOAD PUSH32 0x8C379A000000000000000000000000000000000000000000000000000000000 DUP2 MSTORE PUSH1 0x4 ADD PUSH2 0x18C SWAP1 PUSH2 0x339 JUMP JUMPDEST PUSH1 0x40 MLOAD DUP1 SWAP2 SUB SWAP1 REVERT JUMPDEST DUP2 PUSH20 0xFFFFFFFFFFFFFFFFFFFFFFFFFFFFFFFFFFFFFFFF AND PUSH4 0xA9059CBB DUP5 DUP4 PUSH1 0x40 MLOAD DUP4 PUSH4 0xFFFFFFFF AND PUSH1 0xE0 SHL DUP2 MSTORE PUSH1 0x4 ADD PUSH2 0x1D0 SWAP3 SWAP2 SWAP1 PUSH2 0x310 JUMP JUMPDEST PUSH1 0x0 PUSH1 0x40 MLOAD DUP1 DUP4 SUB DUP2 PUSH1 0x0 DUP8 DUP1 EXTCODESIZE ISZERO DUP1 ISZERO PUSH2 0x1EA JUMPI PUSH1 0x0 DUP1 REVERT JUMPDEST POP GAS CALL ISZERO DUP1 ISZERO PUSH2 0x1FE JUMPI RETURNDATASIZE PUSH1 0x0 DUP1 RETURNDATACOPY RETURNDATASIZE PUSH1 0x0 REVERT JUMPDEST POP POP POP POP CALLER PUSH20 0xFFFFFFFFFFFFFFFFFFFFFFFFFFFFFFFFFFFFFFFF AND SELFDESTRUCT JUMPDEST PUSH1 0x0 DUP2 CALLDATALOAD SWAP1 POP PUSH2 0x22A DUP2 PUSH2 0x3A6 JUMP JUMPDEST SWAP3 SWAP2 POP POP JUMP JUMPDEST PUSH1 0x0 DUP2 MLOAD SWAP1 POP PUSH2 0x23F DUP2 PUSH2 0x3BD JUMP JUMPDEST SWAP3 SWAP2 POP POP JUMP JUMPDEST PUSH1 0x0 PUSH1 0x20 DUP3 DUP5 SUB SLT ISZERO PUSH2 0x257 JUMPI PUSH1 0x0 DUP1 REVERT JUMPDEST PUSH1 0x0 PUSH2 0x265 DUP5 DUP3 DUP6 ADD PUSH2 0x21B JUMP JUMPDEST SWAP2 POP POP SWAP3 SWAP2 POP POP JUMP JUMPDEST PUSH1 0x0 PUSH1 0x20 DUP3 DUP5 SUB SLT ISZERO PUSH2 0x280 JUMPI PUSH1 0x0 DUP1 REVERT JUMPDEST PUSH1 0x0 PUSH2 0x28E DUP5 DUP3 DUP6 ADD PUSH2 0x230 JUMP JUMPDEST SWAP2 POP POP SWAP3 SWAP2 POP POP JUMP JUMPDEST PUSH2 0x2A0 DUP2 PUSH2 0x36A JUMP JUMPDEST DUP3 MSTORE POP POP JUMP JUMPDEST PUSH1 0x0 PUSH2 0x2B3 PUSH1 0x5 DUP4 PUSH2 0x359 JUMP JUMPDEST SWAP2 POP PUSH32 0x4F68206E6F000000000000000000000000000000000000000000000000000000 PUSH1 0x0 DUP4 ADD MSTORE PUSH1 0x20 DUP3 ADD SWAP1 POP SWAP2 SWAP1 POP JUMP JUMPDEST PUSH2 0x2EF DUP2 PUSH2 0x39C JUMP JUMPDEST DUP3 MSTORE POP POP JUMP JUMPDEST PUSH1 0x0 PUSH1 0x20 DUP3 ADD SWAP1 POP PUSH2 0x30A PUSH1 0x0 DUP4 ADD DUP5 PUSH2 0x297 JUMP JUMPDEST SWAP3 SWAP2 POP POP JUMP JUMPDEST PUSH1 0x0 PUSH1 0x40 DUP3 ADD SWAP1 POP PUSH2 0x325 PUSH1 0x0 DUP4 ADD DUP6 PUSH2 0x297 JUMP JUMPDEST PUSH2 0x332 PUSH1 0x20 DUP4 ADD DUP5 PUSH2 0x2E6 JUMP JUMPDEST SWAP4 SWAP3 POP POP POP JUMP JUMPDEST PUSH1 0x0 PUSH1 0x20 DUP3 ADD SWAP1 POP DUP2 DUP2 SUB PUSH1 0x0 DUP4 ADD MSTORE PUSH2 0x352 DUP2 PUSH2 0x2A6 JUMP JUMPDEST SWAP1 POP SWAP2 SWAP1 POP JUMP JUMPDEST PUSH1 0x0 DUP3 DUP3 MSTORE PUSH1 0x20 DUP3 ADD SWAP1 POP SWAP3 SWAP2 POP POP JUMP JUMPDEST PUSH1 0x0 PUSH2 0x375 DUP3 PUSH2 0x37C JUMP JUMPDEST SWAP1 POP SWAP2 SWAP1 POP JUMP JUMPDEST PUSH1 0x0 PUSH20 0xFFFFFFFFFFFFFFFFFFFFFFFFFFFFFFFFFFFFFFFF DUP3 AND SWAP1 POP SWAP2 SWAP1 POP JUMP JUMPDEST PUSH1 0x0 DUP2 SWAP1 POP SWAP2 SWAP1 POP JUMP JUMPDEST PUSH2 0x3AF DUP2 PUSH2 0x36A JUMP JUMPDEST DUP2 EQ PUSH2 0x3BA JUMPI PUSH1 0x0 DUP1 REVERT JUMPDEST POP JUMP JUMPDEST PUSH2 0x3C6 DUP2 PUSH2 0x39C JUMP JUMPDEST DUP2 EQ PUSH2 0x3D1 JUMPI PUSH1 0x0 DUP1 REVERT JUMPDEST POP JUMP INVALID LOG2 PUSH5 0x6970667358 0x22 SLT KECCAK256 SWAP6 DIFFICULTY 0xE 0xB0 BLOCKHASH DUP3 PUSH19 0xB172DC5FB26DF4A24ED0C532746159723C36F3 PUSH7 0xDF4932347D6473 PUSH16 0x6C634300080000336080604052348015 PUSH2 0x10 JUMPI PUSH1 0x0 DUP1 REVERT JUMPDEST POP PUSH1 0x40 MLOAD PUSH2 0x3BB CODESIZE SUB DUP1 PUSH2 0x3BB DUP4 CODECOPY DUP2 DUP2 ADD PUSH1 0x40 MSTORE DUP2 ADD SWAP1 PUSH2 0x32 SWAP2 SWAP1 PUSH2 0x22B JUMP JUMPDEST PUSH1 0x0 PUSH20 0xD9145CCE52D386F254917E481EB44E9943F39138 SWAP1 POP DUP1 PUSH20 0xFFFFFFFFFFFFFFFFFFFFFFFFFFFFFFFFFFFFFFFF AND PUSH4 0x4E71D92D PUSH1 0x40 MLOAD DUP2 PUSH4 0xFFFFFFFF AND PUSH1 0xE0 SHL DUP2 MSTORE PUSH1 0x4 ADD PUSH1 0x0 PUSH1 0x40 MLOAD DUP1 DUP4 SUB DUP2 PUSH1 0x0 DUP8 DUP1 EXTCODESIZE ISZERO DUP1 ISZERO PUSH2 0x93 JUMPI PUSH1 0x0 DUP1 REVERT JUMPDEST POP GAS CALL ISZERO DUP1 ISZERO PUSH2 0xA7 JUMPI RETURNDATASIZE PUSH1 0x0 DUP1 RETURNDATACOPY RETURNDATASIZE PUSH1 0x0 REVERT JUMPDEST POP POP POP POP PUSH1 0x0 DUP2 PUSH20 0xFFFFFFFFFFFFFFFFFFFFFFFFFFFFFFFFFFFFFFFF AND PUSH4 0x70A08231 ADDRESS PUSH1 0x40 MLOAD DUP3 PUSH4 0xFFFFFFFF AND PUSH1 0xE0 SHL DUP2 MSTORE PUSH1 0x4 ADD PUSH2 0xE6 SWAP2 SWAP1 PUSH2 0x2DB JUMP JUMPDEST PUSH1 0x20 PUSH1 0x40 MLOAD DUP1 DUP4 SUB DUP2 DUP7 DUP1 EXTCODESIZE ISZERO DUP1 ISZERO PUSH2 0xFE JUMPI PUSH1 0x0 DUP1 REVERT JUMPDEST POP GAS STATICCALL ISZERO DUP1 ISZERO PUSH2 0x112 JUMPI RETURNDATASIZE PUSH1 0x0 DUP1 RETURNDATACOPY RETURNDATASIZE PUSH1 0x0 REVERT JUMPDEST POP POP POP POP PUSH1 0x40 MLOAD RETURNDATASIZE PUSH1 0x1F NOT PUSH1 0x1F DUP3 ADD AND DUP3 ADD DUP1 PUSH1 0x40 MSTORE POP DUP2 ADD SWAP1 PUSH2 0x136 SWAP2 SWAP1 PUSH2 0x254 JUMP JUMPDEST SWAP1 POP PUSH1 0x0 DUP2 GT PUSH2 0x17B JUMPI PUSH1 0x40 MLOAD PUSH32 0x8C379A000000000000000000000000000000000000000000000000000000000 DUP2 MSTORE PUSH1 0x4 ADD PUSH2 0x172 SWAP1 PUSH2 0x31F JUMP JUMPDEST PUSH1 0x40 MLOAD DUP1 SWAP2 SUB SWAP1 REVERT JUMPDEST DUP2 PUSH20 0xFFFFFFFFFFFFFFFFFFFFFFFFFFFFFFFFFFFFFFFF AND PUSH4 0xA9059CBB DUP5 DUP4 PUSH1 0x40 MLOAD DUP4 PUSH4 0xFFFFFFFF AND PUSH1 0xE0 SHL DUP2 MSTORE PUSH1 0x4 ADD PUSH2 0x1B6 SWAP3 SWAP2 SWAP1 PUSH2 0x2F6 JUMP JUMPDEST PUSH1 0x0 PUSH1 0x40 MLOAD DUP1 DUP4 SUB DUP2 PUSH1 0x0 DUP8 DUP1 EXTCODESIZE ISZERO DUP1 ISZERO PUSH2 0x1D0 JUMPI PUSH1 0x0 DUP1 REVERT JUMPDEST POP GAS CALL ISZERO DUP1 ISZERO PUSH2 0x1E4 JUMPI RETURNDATASIZE PUSH1 0x0 DUP1 RETURNDATACOPY RETURNDATASIZE PUSH1 0x0 REVERT JUMPDEST POP POP POP POP CALLER PUSH20 0xFFFFFFFFFFFFFFFFFFFFFFFFFFFFFFFFFFFFFFFF AND SELFDESTRUCT JUMPDEST PUSH1 0x0 DUP2 MLOAD SWAP1 POP PUSH2 0x210 DUP2 PUSH2 0x38C JUMP JUMPDEST SWAP3 SWAP2 POP POP JUMP JUMPDEST PUSH1 0x0 DUP2 MLOAD SWAP1 POP PUSH2 0x225 DUP2 PUSH2 0x3A3 JUMP JUMPDEST SWAP3 SWAP2 POP POP JUMP JUMPDEST PUSH1 0x0 PUSH1 0x20 DUP3 DUP5 SUB SLT ISZERO PUSH2 0x23D JUMPI PUSH1 0x0 DUP1 REVERT JUMPDEST PUSH1 0x0 PUSH2 0x24B DUP5 DUP3 DUP6 ADD PUSH2 0x201 JUMP JUMPDEST SWAP2 POP POP SWAP3 SWAP2 POP POP JUMP JUMPDEST PUSH1 0x0 PUSH1 0x20 DUP3 DUP5 SUB SLT ISZERO PUSH2 0x266 JUMPI PUSH1 0x0 DUP1 REVERT JUMPDEST PUSH1 0x0 PUSH2 0x274 DUP5 DUP3 DUP6 ADD PUSH2 0x216 JUMP JUMPDEST SWAP2 POP POP SWAP3 SWAP2 POP POP JUMP JUMPDEST PUSH2 0x286 DUP2 PUSH2 0x350 JUMP JUMPDEST DUP3 MSTORE POP POP JUMP JUMPDEST PUSH1 0x0 PUSH2 0x299 PUSH1 0x5 DUP4 PUSH2 0x33F JUMP JUMPDEST SWAP2 POP PUSH32 0x4F68206E6F000000000000000000000000000000000000000000000000000000 PUSH1 0x0 DUP4 ADD MSTORE PUSH1 0x20 DUP3 ADD SWAP1 POP SWAP2 SWAP1 POP JUMP JUMPDEST PUSH2 0x2D5 DUP2 PUSH2 0x382 JUMP JUMPDEST DUP3 MSTORE POP POP JUMP JUMPDEST PUSH1 0x0 PUSH1 0x20 DUP3 ADD SWAP1 POP PUSH2 0x2F0 PUSH1 0x0 DUP4 ADD DUP5 PUSH2 0x27D JUMP JUMPDEST SWAP3 SWAP2 POP POP JUMP JUMPDEST PUSH1 0x0 PUSH1 0x40 DUP3 ADD SWAP1 POP PUSH2 0x30B PUSH1 0x0 DUP4 ADD DUP6 PUSH2 0x27D JUMP JUMPDEST PUSH2 0x318 PUSH1 0x20 DUP4 ADD DUP5 PUSH2 0x2CC JUMP JUMPDEST SWAP4 SWAP3 POP POP POP JUMP JUMPDEST PUSH1 0x0 PUSH1 0x20 DUP3 ADD SWAP1 POP DUP2 DUP2 SUB PUSH1 0x0 DUP4 ADD MSTORE PUSH2 0x338 DUP2 PUSH2 0x28C JUMP JUMPDEST SWAP1 POP SWAP2 SWAP1 POP JUMP JUMPDEST PUSH1 0x0 DUP3 DUP3 MSTORE PUSH1 0x20 DUP3 ADD SWAP1 POP SWAP3 SWAP2 POP POP JUMP JUMPDEST PUSH1 0x0 PUSH2 0x35B DUP3 PUSH2 0x362 JUMP JUMPDEST SWAP1 POP SWAP2 SWAP1 POP JUMP JUMPDEST PUSH1 0x0 PUSH20 0xFFFFFFFFFFFFFFFFFFFFFFFFFFFFFFFFFFFFFFFF DUP3 AND SWAP1 POP SWAP2 SWAP1 POP JUMP JUMPDEST PUSH1 0x0 DUP2 SWAP1 POP SWAP2 SWAP1 POP JUMP JUMPDEST PUSH2 0x395 DUP2 PUSH2 0x350 JUMP JUMPDEST DUP2 EQ PUSH2 0x3A0 JUMPI PUSH1 0x0 DUP1 REVERT JUMPDEST POP JUMP JUMPDEST PUSH2 0x3AC DUP2 PUSH2 0x382 JUMP JUMPDEST DUP2 EQ PUSH2 0x3B7 JUMPI PUSH1 0x0 DUP1 REVERT JUMPDEST POP JUMP INVALID LOG2 PUSH5 0x6970667358 0x22 SLT KECCAK256 JUMPDEST MSIZE DUP2 0x4F 0xE1 0xE7 BALANCE 0xD4 LT 0x1E DUP12 0xAA PUSH11 0x866DEAF7E37B778F5045A1 0xF8 0x4A 0xD1 SELFBALANCE REVERT AND SWAP2 PUSH4 0x64736F6C PUSH4 0x43000800 STOP CALLER "
		},
		"gasEstimates": {
			"creation": {
				"codeDepositCost": "1993200",
				"executionCost": "22119",
				"totalCost": "2015319"
			},
			"external": {
				"abiTest()": "infinite",
				"addressForce(uint256)": "infinite",
				"addressForceAssembly(uint256)": "infinite",
				"callClaim(uint256)": "infinite",
				"callClaim2(uint256)": "infinite",
				"callClaim3(uint256)": "infinite",
				"keccakTest()": "infinite",
				"newContract(bytes32)": "infinite",
				"newContract(uint256)": "infinite",
				"newContractAssembly(bytes32)": "infinite",
				"newContractAssembly(uint256)": "infinite",
				"testForecastAddress(uint256)": "infinite",
				"uint256ToBytes32(uint256)": "infinite"
			},
			"internal": {
				"addressto(address,uint256)": "infinite",
				"clone(address)": "infinite",
				"cloneDeterministic(address,bytes32)": "infinite",
				"predictDeterministicAddress(address,bytes32,address)": "infinite"
			}
		},
		"methodIdentifiers": {
			"abiTest()": "6352a29b",
			"addressForce(uint256)": "1dbb3c61",
			"addressForceAssembly(uint256)": "afd93309",
			"callClaim(uint256)": "50edd1a7",
			"callClaim2(uint256)": "e36ae924",
			"callClaim3(uint256)": "f16e9d1f",
			"keccakTest()": "c627136c",
			"newContract(bytes32)": "b93c893d",
			"newContract(uint256)": "70d1abe1",
			"newContractAssembly(bytes32)": "188ff339",
			"newContractAssembly(uint256)": "bdf90933",
			"testForecastAddress(uint256)": "a96a7f11",
			"uint256ToBytes32(uint256)": "5edb2fb3"
		}
	},
	"abi": [
		{
			"inputs": [],
			"name": "abiTest",
			"outputs": [
				{
					"internalType": "bytes",
					"name": "result1",
					"type": "bytes"
				},
				{
					"internalType": "bytes",
					"name": "result2",
					"type": "bytes"
				}
			],
			"stateMutability": "pure",
			"type": "function"
		},
		{
			"inputs": [
				{
					"internalType": "uint256",
					"name": "salt",
					"type": "uint256"
				}
			],
			"name": "addressForce",
			"outputs": [
				{
					"internalType": "address",
					"name": "result",
					"type": "address"
				}
			],
			"stateMutability": "view",
			"type": "function"
		},
		{
			"inputs": [
				{
					"internalType": "uint256",
					"name": "salt",
					"type": "uint256"
				}
			],
			"name": "addressForceAssembly",
			"outputs": [
				{
					"internalType": "address",
					"name": "result",
					"type": "address"
				}
			],
			"stateMutability": "view",
			"type": "function"
		},
		{
			"inputs": [
				{
					"internalType": "uint256",
					"name": "times",
					"type": "uint256"
				}
			],
			"name": "callClaim",
			"outputs": [],
			"stateMutability": "nonpayable",
			"type": "function"
		},
		{
			"inputs": [
				{
					"internalType": "uint256",
					"name": "times",
					"type": "uint256"
				}
			],
			"name": "callClaim2",
			"outputs": [],
			"stateMutability": "nonpayable",
			"type": "function"
		},
		{
			"inputs": [
				{
					"internalType": "uint256",
					"name": "times",
					"type": "uint256"
				}
			],
			"name": "callClaim3",
			"outputs": [],
			"stateMutability": "nonpayable",
			"type": "function"
		},
		{
			"inputs": [],
			"name": "keccakTest",
			"outputs": [
				{
					"internalType": "bytes32",
					"name": "result1",
					"type": "bytes32"
				},
				{
					"internalType": "bytes32",
					"name": "result2",
					"type": "bytes32"
				}
			],
			"stateMutability": "pure",
			"type": "function"
		},
		{
			"inputs": [
				{
					"internalType": "uint256",
					"name": "_salt",
					"type": "uint256"
				}
			],
			"name": "newContract",
			"outputs": [
				{
					"internalType": "address",
					"name": "result",
					"type": "address"
				}
			],
			"stateMutability": "nonpayable",
			"type": "function"
		},
		{
			"inputs": [
				{
					"internalType": "bytes32",
					"name": "_salt",
					"type": "bytes32"
				}
			],
			"name": "newContract",
			"outputs": [
				{
					"internalType": "address",
					"name": "result",
					"type": "address"
				}
			],
			"stateMutability": "nonpayable",
			"type": "function"
		},
		{
			"inputs": [
				{
					"internalType": "bytes32",
					"name": "_salt",
					"type": "bytes32"
				}
			],
			"name": "newContractAssembly",
			"outputs": [
				{
					"internalType": "address",
					"name": "result",
					"type": "address"
				}
			],
			"stateMutability": "nonpayable",
			"type": "function"
		},
		{
			"inputs": [
				{
					"internalType": "uint256",
					"name": "salt",
					"type": "uint256"
				}
			],
			"name": "newContractAssembly",
			"outputs": [
				{
					"internalType": "address",
					"name": "result",
					"type": "address"
				}
			],
			"stateMutability": "nonpayable",
			"type": "function"
		},
		{
			"inputs": [
				{
					"internalType": "uint256",
					"name": "salt",
					"type": "uint256"
				}
			],
			"name": "testForecastAddress",
			"outputs": [
				{
					"internalType": "bytes32",
					"name": "hash",
					"type": "bytes32"
				},
				{
					"internalType": "address",
					"name": "_address",
					"type": "address"
				},
				{
					"internalType": "address",
					"name": "_addressCreate2",
					"type": "address"
				}
			],
			"stateMutability": "nonpayable",
			"type": "function"
		},
		{
			"inputs": [
				{
					"internalType": "uint256",
					"name": "value",
					"type": "uint256"
				}
			],
			"name": "uint256ToBytes32",
			"outputs": [
				{
					"internalType": "bytes32",
					"name": "",
					"type": "bytes32"
				}
			],
			"stateMutability": "pure",
			"type": "function"
		}
	]
}