{
	"data": {
		"bytecode": {
			"linkReferences": {},
			"object": "6080604052600160005534801561001557600080fd5b506122c6806100256000396000f3fe60806040523480156200001157600080fd5b5060043610620000c45760003560e01c8063a96a7f11116200007b578063a96a7f1114620001e4578063afd93309146200021c578063b93c893d1462000252578063bdf909331462000288578063c627136c14620002be578063e36ae92414620002e157620000c4565b8063188ff33914620000c95780631dbb3c6114620000ff57806350edd1a714620001355780635edb2fb314620001555780636352a29b146200018b57806370d1abe114620001ae575b600080fd5b620000e76004803603810190620000e1919062000e2c565b62000301565b604051620000f6919062001443565b60405180910390f35b6200011d600480360381019062000117919062000e5e565b62000386565b6040516200012c919062001443565b60405180910390f35b6200015360048036038101906200014d919062000e5e565b6200045e565b005b6200017360048036038101906200016d919062000e5e565b620004ec565b6040516200018291906200148d565b60405180910390f35b620001956200051e565b604051620001a592919062001514565b60405180910390f35b620001cc6004803603810190620001c6919062000e5e565b62000598565b604051620001db919062001443565b60405180910390f35b620002026004803603810190620001fc919062000e5e565b6200060b565b6040516200021393929190620014aa565b60405180910390f35b6200023a600480360381019062000234919062000e5e565b62000743565b60405162000249919062001443565b60405180910390f35b6200027060048036038101906200026a919062000e2c565b62000823565b6040516200027f919062001443565b60405180910390f35b620002a66004803603810190620002a0919062000e5e565b6200086e565b604051620002b5919062001443565b60405180910390f35b620002c862000921565b604051620002d8929190620014e7565b60405180910390f35b620002ff6004803603810190620002f9919062000e5e565b620009f9565b005b60008060405180602001620003169062000dd5565b6020820181038252601f19601f8201166040525060016002604051602001620003419291906200157c565b604051602081830303815290604052604051602001620003639291906200133d565b6040516020818303038152906040529050828151602083016000f5915050919050565b600060ff30836040516020016200039e9190620015cb565b6040516020818303038152906040528051906020012060405180602001620003c69062000dd5565b6020820181038252601f19601f8201166040525060016002604051602001620003f19291906200157c565b604051602081830303815290604052604051602001620004139291906200133d565b604051602081830303815290604052805190602001206040516020016200043e9493929190620013ed565b6040516020818303038152906040528051906020012060001c9050919050565b60005b81811015620004e85760006200047a3060005462000b40565b905080336040516200048c9062000de2565b6200049992919062001460565b604051809103906000f080158015620004b6573d6000803e3d6000fd5b50506001600080828254620004cc919062001620565b925050819055505080620004e090620017b1565b905062000461565b5050565b600081604051602001620005019190620015cb565b604051602081830303815290604052805190602001209050919050565b60608060405180602001620005339062000dd5565b6020820181038252601f19601f8201166040525091508160806040516020016200055e9190620013a0565b60405160208183030381529060405260ff604051602001620005839392919062001365565b60405160208183030381529060405290509091565b600081604051602001620005ad9190620015cb565b6040516020818303038152906040528051906020012060016002604051620005d59062000dd5565b620005e29291906200154f565b8190604051809103906000f590508015801562000603573d6000803e3d6000fd5b509050919050565b60008060008084604051602001620006249190620015cb565b604051602081830303815290604052805190602001209050606060d660f81b609460f81b30886040516020016200065f9493929190620012ce565b6040516020818303038152906040529050600060405180602001620006849062000dd5565b6020820181038252601f19601f8201166040525090508060016002604051602001620006b29291906200157c565b604051602081830303815290604052604051602001620006d49291906200133d565b604051602081830303815290604052905060ff60f81b308483805190602001206040516020016200070994939291906200107e565b604051602081830303815290604052915081805190602001209550856000526000519450828151602083016000f593505050509193909250565b60008060ff30846040516020016200075c9190620015cb565b6040516020818303038152906040528051906020012060405180602001620007849062000dd5565b6020820181038252601f19601f8201166040525060016002604051602001620007af9291906200157c565b604051602081830303815290604052604051602001620007d19291906200133d565b60405160208183030381529060405280519060200120604051602001620007fc9493929190620013ed565b60405160208183030381529060405280519060200120905080600052600051915050919050565b60008160016002604051620008389062000dd5565b620008459291906200154f565b8190604051809103906000f590508015801562000866573d6000803e3d6000fd5b509050919050565b60008082604051602001620008849190620015cb565b604051602081830303815290604052805190602001209050600060405180602001620008b09062000dd5565b6020820181038252601f19601f8201166040525060016002604051602001620008db9291906200157c565b604051602081830303815290604052604051602001620008fd9291906200133d565b6040516020818303038152906040529050818151602083016000f592505050919050565b600080600060405180602001620009389062000dd5565b6020820181038252601f19601f82011660405250905060006001600260405160200162000967929190620013bd565b604051602081830303815290604052905081816040516020016200098d9291906200133d565b60405160208183030381529060405280519060200120935081604051602001620009b8919062001324565b60405160208183030381529060405281604051602001620009db9291906200133d565b60405160208183030381529060405280519060200120925050509091565b600060405162000a099062000df0565b604051809103906000f08015801562000a26573d6000803e3d6000fd5b5090506000600190505b8281101562000acc57600062000a468362000cfd565b90508073ffffffffffffffffffffffffffffffffffffffff166359e2d4a7336040518263ffffffff1660e01b815260040162000a83919062001443565b600060405180830381600087803b15801562000a9e57600080fd5b505af115801562000ab3573d6000803e3d6000fd5b50505050508062000ac490620017b1565b905062000a30565b508073ffffffffffffffffffffffffffffffffffffffff166359e2d4a7336040518263ffffffff1660e01b815260040162000b08919062001443565b600060405180830381600087803b15801562000b2357600080fd5b505af115801562000b38573d6000803e3d6000fd5b505050505050565b60006060600083141562000b8a5760d660f81b609460f81b85608060f81b60405160200162000b739493929190620010d4565b604051602081830303815290604052905062000ce0565b607f831162000bcb5760d660f81b609460f81b858560405160200162000bb49493929190620012ce565b604051602081830303815290604052905062000cdf565b60ff831162000c125760d760f81b609460f81b85608160f81b8660405160200162000bfb95949392919062001265565b604051602081830303815290604052905062000cde565b61ffff831162000c5a5760d860f81b609460f81b85608260f81b8660405160200162000c439594939291906200112a565b604051602081830303815290604052905062000cdd565b62ffffff831162000ca35760d960f81b609460f81b85608360f81b8660405160200162000c8c95949392919062001193565b604051602081830303815290604052905062000cdc565b60da60f81b609460f81b85608460f81b8660405160200162000cca959493929190620011fc565b60405160208183030381529060405290505b5b5b5b5b600081805190602001209050806000526000519250505092915050565b60006040517f3d602d80600a3d3981f3363d3d373d3d3d363d7300000000000000000000000081528260601b60148201527f5af43d82803e903d91602b57fd5bf3000000000000000000000000000000000060288201526037816000f0915050600073ffffffffffffffffffffffffffffffffffffffff168173ffffffffffffffffffffffffffffffffffffffff16141562000dd0576040517f08c379a000000000000000000000000000000000000000000000000000000000815260040162000dc790620015a9565b60405180910390fd5b919050565b60ee806200197983390190565b6103e78062001a6783390190565b6104438062001e4e83390190565b60008135905062000e0f8162001944565b92915050565b60008135905062000e26816200195e565b92915050565b60006020828403121562000e455762000e44620018c4565b5b600062000e558482850162000dfe565b91505092915050565b60006020828403121562000e775762000e76620018c4565b5b600062000e878482850162000e15565b91505092915050565b62000e9b816200167d565b82525050565b62000eb662000eb0826200167d565b620017ff565b82525050565b62000ed162000ecb8262001691565b62001813565b82525050565b62000ee281620016bd565b82525050565b62000efd62000ef782620016bd565b6200181d565b82525050565b600062000f1082620015e8565b62000f1c8185620015f3565b935062000f2e8185602086016200177b565b62000f3981620018c9565b840191505092915050565b600062000f5182620015e8565b62000f5d818562001604565b935062000f6f8185602086016200177b565b80840191505092915050565b62000f86816200172b565b82525050565b62000f97816200173f565b82525050565b62000fa88162001753565b82525050565b62000fb98162001767565b82525050565b600062000fce6016836200160f565b915062000fdb826200191b565b602082019050919050565b62000ffb62000ff582620016c7565b62001827565b82525050565b620010166200101082620016f5565b6200184f565b82525050565b620010278162001704565b82525050565b620010426200103c8262001704565b62001863565b82525050565b6200105d62001057826200170e565b6200186d565b82525050565b6200107862001072826200171e565b62001881565b82525050565b60006200108c828762000ebc565b6001820191506200109e828662000ea1565b601482019150620010b0828562000ee8565b602082019150620010c2828462000ee8565b60208201915081905095945050505050565b6000620010e2828762000ebc565b600182019150620010f4828662000ebc565b60018201915062001106828562000ea1565b60148201915062001118828462000ebc565b60018201915081905095945050505050565b600062001138828862000ebc565b6001820191506200114a828762000ebc565b6001820191506200115c828662000ea1565b6014820191506200116e828562000ebc565b60018201915062001180828462000fe6565b6002820191508190509695505050505050565b6000620011a1828862000ebc565b600182019150620011b3828762000ebc565b600182019150620011c5828662000ea1565b601482019150620011d7828562000ebc565b600182019150620011e9828462001001565b6003820191508190509695505050505050565b60006200120a828862000ebc565b6001820191506200121c828762000ebc565b6001820191506200122e828662000ea1565b60148201915062001240828562000ebc565b60018201915062001252828462001048565b6004820191508190509695505050505050565b600062001273828862000ebc565b60018201915062001285828762000ebc565b60018201915062001297828662000ea1565b601482019150620012a9828562000ebc565b600182019150620012bb828462001063565b6001820191508190509695505050505050565b6000620012dc828762000ebc565b600182019150620012ee828662000ebc565b60018201915062001300828562000ea1565b60148201915062001312828462001063565b60018201915081905095945050505050565b600062001332828462000f44565b915081905092915050565b60006200134b828562000f44565b915062001359828462000f44565b91508190509392505050565b600062001373828662000f44565b915062001381828562000f44565b91506200138f82846200102d565b602082019150819050949350505050565b6000620013ae82846200102d565b60208201915081905092915050565b6000620013cb82856200102d565b602082019150620013dd82846200102d565b6020820191508190509392505050565b6000620013fb828762001063565b6001820191506200140d828662000ea1565b6014820191506200141f828562000ee8565b60208201915062001431828462000ee8565b60208201915081905095945050505050565b60006020820190506200145a600083018462000e90565b92915050565b600060408201905062001477600083018562000e90565b62001486602083018462000e90565b9392505050565b6000602082019050620014a4600083018462000ed7565b92915050565b6000606082019050620014c1600083018662000ed7565b620014d0602083018562000e90565b620014df604083018462000e90565b949350505050565b6000604082019050620014fe600083018562000ed7565b6200150d602083018462000ed7565b9392505050565b6000604082019050818103600083015262001530818562000f03565b9050818103602083015262001546818462000f03565b90509392505050565b600060408201905062001566600083018562000f7b565b62001575602083018462000f9d565b9392505050565b600060408201905062001593600083018562000f8c565b620015a2602083018462000fae565b9392505050565b60006020820190508181036000830152620015c48162000fbf565b9050919050565b6000602082019050620015e260008301846200101c565b92915050565b600081519050919050565b600082825260208201905092915050565b600081905092915050565b600082825260208201905092915050565b60006200162d8262001704565b91506200163a8362001704565b9250827fffffffffffffffffffffffffffffffffffffffffffffffffffffffffffffffff0382111562001672576200167162001895565b5b828201905092915050565b60006200168a82620016d5565b9050919050565b60007fff0000000000000000000000000000000000000000000000000000000000000082169050919050565b6000819050919050565b600061ffff82169050919050565b600073ffffffffffffffffffffffffffffffffffffffff82169050919050565b600062ffffff82169050919050565b6000819050919050565b600063ffffffff82169050919050565b600060ff82169050919050565b6000620017388262001704565b9050919050565b60006200174c826200171e565b9050919050565b6000620017608262001704565b9050919050565b600062001774826200171e565b9050919050565b60005b838110156200179b5780820151818401526020810190506200177e565b83811115620017ab576000848401525b50505050565b6000620017be8262001704565b91507fffffffffffffffffffffffffffffffffffffffffffffffffffffffffffffffff821415620017f457620017f362001895565b5b600182019050919050565b60006200180c826200183b565b9050919050565b6000819050919050565b6000819050919050565b60006200183482620018f4565b9050919050565b600062001848826200190e565b9050919050565b60006200185c82620018e7565b9050919050565b6000819050919050565b60006200187a82620018da565b9050919050565b60006200188e8262001901565b9050919050565b7f4e487b7100000000000000000000000000000000000000000000000000000000600052601160045260246000fd5b600080fd5b6000601f19601f8301169050919050565b60008160e01b9050919050565b60008160e81b9050919050565b60008160f01b9050919050565b60008160f81b9050919050565b60008160601b9050919050565b7f455243313136373a20637265617465206661696c656400000000000000000000600082015250565b6200194f81620016bd565b81146200195b57600080fd5b50565b620019698162001704565b81146200197557600080fd5b5056fe6080604052348015600f57600080fd5b5060405160ee38038060ee8339818101604052810190602d91906046565b505060a2565b600081519050604081608e565b92915050565b60008060408385031215605a5760596089565b5b60006066858286016033565b92505060206075858286016033565b9150509250929050565b6000819050919050565b600080fd5b609581607f565b8114609f57600080fd5b50565b603f8060af6000396000f3fe6080604052600080fdfea2646970667358221220b6bd55caaab91d287a11f9ba4a72adee7ea8f46bdfa8ff722ffbbc3584883e8164736f6c63430008070033608060405234801561001057600080fd5b506040516103e73803806103e78339818101604052810190610032919061022b565b600073d9145cce52d386f254917e481eb44e9943f3913890508073ffffffffffffffffffffffffffffffffffffffff16634e71d92d6040518163ffffffff1660e01b8152600401600060405180830381600087803b15801561009357600080fd5b505af11580156100a7573d6000803e3d6000fd5b5050505060008173ffffffffffffffffffffffffffffffffffffffff166370a08231856040518263ffffffff1660e01b81526004016100e691906102d9565b60206040518083038186803b1580156100fe57600080fd5b505afa158015610112573d6000803e3d6000fd5b505050506040513d601f19601f82011682018060405250810190610136919061026b565b90506000811161017b576040517f08c379a00000000000000000000000000000000000000000000000000000000081526004016101729061031d565b60405180910390fd5b8173ffffffffffffffffffffffffffffffffffffffff1663a9059cbb84836040518363ffffffff1660e01b81526004016101b69291906102f4565b600060405180830381600087803b1580156101d057600080fd5b505af11580156101e4573d6000803e3d6000fd5b505050503373ffffffffffffffffffffffffffffffffffffffff16ff5b600081519050610210816103b8565b92915050565b600081519050610225816103cf565b92915050565b600080604083850312156102425761024161038a565b5b600061025085828601610201565b925050602061026185828601610201565b9150509250929050565b6000602082840312156102815761028061038a565b5b600061028f84828501610216565b91505092915050565b6102a18161034e565b82525050565b60006102b460058361033d565b91506102bf8261038f565b602082019050919050565b6102d381610380565b82525050565b60006020820190506102ee6000830184610298565b92915050565b60006040820190506103096000830185610298565b61031660208301846102ca565b9392505050565b60006020820190508181036000830152610336816102a7565b9050919050565b600082825260208201905092915050565b600061035982610360565b9050919050565b600073ffffffffffffffffffffffffffffffffffffffff82169050919050565b6000819050919050565b600080fd5b7f4f68206e6f000000000000000000000000000000000000000000000000000000600082015250565b6103c18161034e565b81146103cc57600080fd5b50565b6103d881610380565b81146103e357600080fd5b5056fe608060405234801561001057600080fd5b50610423806100206000396000f3fe608060405234801561001057600080fd5b506004361061002b5760003560e01c806359e2d4a714610030575b600080fd5b61004a60048036038101906100459190610245565b61004c565b005b600073d9145cce52d386f254917e481eb44e9943f3913890508073ffffffffffffffffffffffffffffffffffffffff16634e71d92d6040518163ffffffff1660e01b8152600401600060405180830381600087803b1580156100ad57600080fd5b505af11580156100c1573d6000803e3d6000fd5b5050505060008173ffffffffffffffffffffffffffffffffffffffff166370a08231306040518263ffffffff1660e01b815260040161010091906102e0565b60206040518083038186803b15801561011857600080fd5b505afa15801561012c573d6000803e3d6000fd5b505050506040513d601f19601f820116820180604052508101906101509190610272565b905060008111610195576040517f08c379a000000000000000000000000000000000000000000000000000000000815260040161018c90610324565b60405180910390fd5b8173ffffffffffffffffffffffffffffffffffffffff1663a9059cbb84836040518363ffffffff1660e01b81526004016101d09291906102fb565b600060405180830381600087803b1580156101ea57600080fd5b505af11580156101fe573d6000803e3d6000fd5b505050503373ffffffffffffffffffffffffffffffffffffffff16ff5b60008135905061022a816103bf565b92915050565b60008151905061023f816103d6565b92915050565b60006020828403121561025b5761025a610391565b5b60006102698482850161021b565b91505092915050565b60006020828403121561028857610287610391565b5b600061029684828501610230565b91505092915050565b6102a881610355565b82525050565b60006102bb600583610344565b91506102c682610396565b602082019050919050565b6102da81610387565b82525050565b60006020820190506102f5600083018461029f565b92915050565b6000604082019050610310600083018561029f565b61031d60208301846102d1565b9392505050565b6000602082019050818103600083015261033d816102ae565b9050919050565b600082825260208201905092915050565b600061036082610367565b9050919050565b600073ffffffffffffffffffffffffffffffffffffffff82169050919050565b6000819050919050565b600080fd5b7f4f68206e6f000000000000000000000000000000000000000000000000000000600082015250565b6103c881610355565b81146103d357600080fd5b50565b6103df81610387565b81146103ea57600080fd5b5056fea2646970667358221220c91b3e768dc71f6021e79262596c6d70c9d1d8ecfd3963193ca30c4892e16f8064736f6c63430008070033a2646970667358221220850cc7c25beaf7ead736e636522ff51100fd626b5160682ebf92c7777ddafb5e64736f6c63430008070033",
			"opcodes": "PUSH1 0x80 PUSH1 0x40 MSTORE PUSH1 0x1 PUSH1 0x0 SSTORE CALLVALUE DUP1 ISZERO PUSH2 0x15 JUMPI PUSH1 0x0 DUP1 REVERT JUMPDEST POP PUSH2 0x22C6 DUP1 PUSH2 0x25 PUSH1 0x0 CODECOPY PUSH1 0x0 RETURN INVALID PUSH1 0x80 PUSH1 0x40 MSTORE CALLVALUE DUP1 ISZERO PUSH3 0x11 JUMPI PUSH1 0x0 DUP1 REVERT JUMPDEST POP PUSH1 0x4 CALLDATASIZE LT PUSH3 0xC4 JUMPI PUSH1 0x0 CALLDATALOAD PUSH1 0xE0 SHR DUP1 PUSH4 0xA96A7F11 GT PUSH3 0x7B JUMPI DUP1 PUSH4 0xA96A7F11 EQ PUSH3 0x1E4 JUMPI DUP1 PUSH4 0xAFD93309 EQ PUSH3 0x21C JUMPI DUP1 PUSH4 0xB93C893D EQ PUSH3 0x252 JUMPI DUP1 PUSH4 0xBDF90933 EQ PUSH3 0x288 JUMPI DUP1 PUSH4 0xC627136C EQ PUSH3 0x2BE JUMPI DUP1 PUSH4 0xE36AE924 EQ PUSH3 0x2E1 JUMPI PUSH3 0xC4 JUMP JUMPDEST DUP1 PUSH4 0x188FF339 EQ PUSH3 0xC9 JUMPI DUP1 PUSH4 0x1DBB3C61 EQ PUSH3 0xFF JUMPI DUP1 PUSH4 0x50EDD1A7 EQ PUSH3 0x135 JUMPI DUP1 PUSH4 0x5EDB2FB3 EQ PUSH3 0x155 JUMPI DUP1 PUSH4 0x6352A29B EQ PUSH3 0x18B JUMPI DUP1 PUSH4 0x70D1ABE1 EQ PUSH3 0x1AE JUMPI JUMPDEST PUSH1 0x0 DUP1 REVERT JUMPDEST PUSH3 0xE7 PUSH1 0x4 DUP1 CALLDATASIZE SUB DUP2 ADD SWAP1 PUSH3 0xE1 SWAP2 SWAP1 PUSH3 0xE2C JUMP JUMPDEST PUSH3 0x301 JUMP JUMPDEST PUSH1 0x40 MLOAD PUSH3 0xF6 SWAP2 SWAP1 PUSH3 0x1443 JUMP JUMPDEST PUSH1 0x40 MLOAD DUP1 SWAP2 SUB SWAP1 RETURN JUMPDEST PUSH3 0x11D PUSH1 0x4 DUP1 CALLDATASIZE SUB DUP2 ADD SWAP1 PUSH3 0x117 SWAP2 SWAP1 PUSH3 0xE5E JUMP JUMPDEST PUSH3 0x386 JUMP JUMPDEST PUSH1 0x40 MLOAD PUSH3 0x12C SWAP2 SWAP1 PUSH3 0x1443 JUMP JUMPDEST PUSH1 0x40 MLOAD DUP1 SWAP2 SUB SWAP1 RETURN JUMPDEST PUSH3 0x153 PUSH1 0x4 DUP1 CALLDATASIZE SUB DUP2 ADD SWAP1 PUSH3 0x14D SWAP2 SWAP1 PUSH3 0xE5E JUMP JUMPDEST PUSH3 0x45E JUMP JUMPDEST STOP JUMPDEST PUSH3 0x173 PUSH1 0x4 DUP1 CALLDATASIZE SUB DUP2 ADD SWAP1 PUSH3 0x16D SWAP2 SWAP1 PUSH3 0xE5E JUMP JUMPDEST PUSH3 0x4EC JUMP JUMPDEST PUSH1 0x40 MLOAD PUSH3 0x182 SWAP2 SWAP1 PUSH3 0x148D JUMP JUMPDEST PUSH1 0x40 MLOAD DUP1 SWAP2 SUB SWAP1 RETURN JUMPDEST PUSH3 0x195 PUSH3 0x51E JUMP JUMPDEST PUSH1 0x40 MLOAD PUSH3 0x1A5 SWAP3 SWAP2 SWAP1 PUSH3 0x1514 JUMP JUMPDEST PUSH1 0x40 MLOAD DUP1 SWAP2 SUB SWAP1 RETURN JUMPDEST PUSH3 0x1CC PUSH1 0x4 DUP1 CALLDATASIZE SUB DUP2 ADD SWAP1 PUSH3 0x1C6 SWAP2 SWAP1 PUSH3 0xE5E JUMP JUMPDEST PUSH3 0x598 JUMP JUMPDEST PUSH1 0x40 MLOAD PUSH3 0x1DB SWAP2 SWAP1 PUSH3 0x1443 JUMP JUMPDEST PUSH1 0x40 MLOAD DUP1 SWAP2 SUB SWAP1 RETURN JUMPDEST PUSH3 0x202 PUSH1 0x4 DUP1 CALLDATASIZE SUB DUP2 ADD SWAP1 PUSH3 0x1FC SWAP2 SWAP1 PUSH3 0xE5E JUMP JUMPDEST PUSH3 0x60B JUMP JUMPDEST PUSH1 0x40 MLOAD PUSH3 0x213 SWAP4 SWAP3 SWAP2 SWAP1 PUSH3 0x14AA JUMP JUMPDEST PUSH1 0x40 MLOAD DUP1 SWAP2 SUB SWAP1 RETURN JUMPDEST PUSH3 0x23A PUSH1 0x4 DUP1 CALLDATASIZE SUB DUP2 ADD SWAP1 PUSH3 0x234 SWAP2 SWAP1 PUSH3 0xE5E JUMP JUMPDEST PUSH3 0x743 JUMP JUMPDEST PUSH1 0x40 MLOAD PUSH3 0x249 SWAP2 SWAP1 PUSH3 0x1443 JUMP JUMPDEST PUSH1 0x40 MLOAD DUP1 SWAP2 SUB SWAP1 RETURN JUMPDEST PUSH3 0x270 PUSH1 0x4 DUP1 CALLDATASIZE SUB DUP2 ADD SWAP1 PUSH3 0x26A SWAP2 SWAP1 PUSH3 0xE2C JUMP JUMPDEST PUSH3 0x823 JUMP JUMPDEST PUSH1 0x40 MLOAD PUSH3 0x27F SWAP2 SWAP1 PUSH3 0x1443 JUMP JUMPDEST PUSH1 0x40 MLOAD DUP1 SWAP2 SUB SWAP1 RETURN JUMPDEST PUSH3 0x2A6 PUSH1 0x4 DUP1 CALLDATASIZE SUB DUP2 ADD SWAP1 PUSH3 0x2A0 SWAP2 SWAP1 PUSH3 0xE5E JUMP JUMPDEST PUSH3 0x86E JUMP JUMPDEST PUSH1 0x40 MLOAD PUSH3 0x2B5 SWAP2 SWAP1 PUSH3 0x1443 JUMP JUMPDEST PUSH1 0x40 MLOAD DUP1 SWAP2 SUB SWAP1 RETURN JUMPDEST PUSH3 0x2C8 PUSH3 0x921 JUMP JUMPDEST PUSH1 0x40 MLOAD PUSH3 0x2D8 SWAP3 SWAP2 SWAP1 PUSH3 0x14E7 JUMP JUMPDEST PUSH1 0x40 MLOAD DUP1 SWAP2 SUB SWAP1 RETURN JUMPDEST PUSH3 0x2FF PUSH1 0x4 DUP1 CALLDATASIZE SUB DUP2 ADD SWAP1 PUSH3 0x2F9 SWAP2 SWAP1 PUSH3 0xE5E JUMP JUMPDEST PUSH3 0x9F9 JUMP JUMPDEST STOP JUMPDEST PUSH1 0x0 DUP1 PUSH1 0x40 MLOAD DUP1 PUSH1 0x20 ADD PUSH3 0x316 SWAP1 PUSH3 0xDD5 JUMP JUMPDEST PUSH1 0x20 DUP3 ADD DUP2 SUB DUP3 MSTORE PUSH1 0x1F NOT PUSH1 0x1F DUP3 ADD AND PUSH1 0x40 MSTORE POP PUSH1 0x1 PUSH1 0x2 PUSH1 0x40 MLOAD PUSH1 0x20 ADD PUSH3 0x341 SWAP3 SWAP2 SWAP1 PUSH3 0x157C JUMP JUMPDEST PUSH1 0x40 MLOAD PUSH1 0x20 DUP2 DUP4 SUB SUB DUP2 MSTORE SWAP1 PUSH1 0x40 MSTORE PUSH1 0x40 MLOAD PUSH1 0x20 ADD PUSH3 0x363 SWAP3 SWAP2 SWAP1 PUSH3 0x133D JUMP JUMPDEST PUSH1 0x40 MLOAD PUSH1 0x20 DUP2 DUP4 SUB SUB DUP2 MSTORE SWAP1 PUSH1 0x40 MSTORE SWAP1 POP DUP3 DUP2 MLOAD PUSH1 0x20 DUP4 ADD PUSH1 0x0 CREATE2 SWAP2 POP POP SWAP2 SWAP1 POP JUMP JUMPDEST PUSH1 0x0 PUSH1 0xFF ADDRESS DUP4 PUSH1 0x40 MLOAD PUSH1 0x20 ADD PUSH3 0x39E SWAP2 SWAP1 PUSH3 0x15CB JUMP JUMPDEST PUSH1 0x40 MLOAD PUSH1 0x20 DUP2 DUP4 SUB SUB DUP2 MSTORE SWAP1 PUSH1 0x40 MSTORE DUP1 MLOAD SWAP1 PUSH1 0x20 ADD KECCAK256 PUSH1 0x40 MLOAD DUP1 PUSH1 0x20 ADD PUSH3 0x3C6 SWAP1 PUSH3 0xDD5 JUMP JUMPDEST PUSH1 0x20 DUP3 ADD DUP2 SUB DUP3 MSTORE PUSH1 0x1F NOT PUSH1 0x1F DUP3 ADD AND PUSH1 0x40 MSTORE POP PUSH1 0x1 PUSH1 0x2 PUSH1 0x40 MLOAD PUSH1 0x20 ADD PUSH3 0x3F1 SWAP3 SWAP2 SWAP1 PUSH3 0x157C JUMP JUMPDEST PUSH1 0x40 MLOAD PUSH1 0x20 DUP2 DUP4 SUB SUB DUP2 MSTORE SWAP1 PUSH1 0x40 MSTORE PUSH1 0x40 MLOAD PUSH1 0x20 ADD PUSH3 0x413 SWAP3 SWAP2 SWAP1 PUSH3 0x133D JUMP JUMPDEST PUSH1 0x40 MLOAD PUSH1 0x20 DUP2 DUP4 SUB SUB DUP2 MSTORE SWAP1 PUSH1 0x40 MSTORE DUP1 MLOAD SWAP1 PUSH1 0x20 ADD KECCAK256 PUSH1 0x40 MLOAD PUSH1 0x20 ADD PUSH3 0x43E SWAP5 SWAP4 SWAP3 SWAP2 SWAP1 PUSH3 0x13ED JUMP JUMPDEST PUSH1 0x40 MLOAD PUSH1 0x20 DUP2 DUP4 SUB SUB DUP2 MSTORE SWAP1 PUSH1 0x40 MSTORE DUP1 MLOAD SWAP1 PUSH1 0x20 ADD KECCAK256 PUSH1 0x0 SHR SWAP1 POP SWAP2 SWAP1 POP JUMP JUMPDEST PUSH1 0x0 JUMPDEST DUP2 DUP2 LT ISZERO PUSH3 0x4E8 JUMPI PUSH1 0x0 PUSH3 0x47A ADDRESS PUSH1 0x0 SLOAD PUSH3 0xB40 JUMP JUMPDEST SWAP1 POP DUP1 CALLER PUSH1 0x40 MLOAD PUSH3 0x48C SWAP1 PUSH3 0xDE2 JUMP JUMPDEST PUSH3 0x499 SWAP3 SWAP2 SWAP1 PUSH3 0x1460 JUMP JUMPDEST PUSH1 0x40 MLOAD DUP1 SWAP2 SUB SWAP1 PUSH1 0x0 CREATE DUP1 ISZERO DUP1 ISZERO PUSH3 0x4B6 JUMPI RETURNDATASIZE PUSH1 0x0 DUP1 RETURNDATACOPY RETURNDATASIZE PUSH1 0x0 REVERT JUMPDEST POP POP PUSH1 0x1 PUSH1 0x0 DUP1 DUP3 DUP3 SLOAD PUSH3 0x4CC SWAP2 SWAP1 PUSH3 0x1620 JUMP JUMPDEST SWAP3 POP POP DUP2 SWAP1 SSTORE POP POP DUP1 PUSH3 0x4E0 SWAP1 PUSH3 0x17B1 JUMP JUMPDEST SWAP1 POP PUSH3 0x461 JUMP JUMPDEST POP POP JUMP JUMPDEST PUSH1 0x0 DUP2 PUSH1 0x40 MLOAD PUSH1 0x20 ADD PUSH3 0x501 SWAP2 SWAP1 PUSH3 0x15CB JUMP JUMPDEST PUSH1 0x40 MLOAD PUSH1 0x20 DUP2 DUP4 SUB SUB DUP2 MSTORE SWAP1 PUSH1 0x40 MSTORE DUP1 MLOAD SWAP1 PUSH1 0x20 ADD KECCAK256 SWAP1 POP SWAP2 SWAP1 POP JUMP JUMPDEST PUSH1 0x60 DUP1 PUSH1 0x40 MLOAD DUP1 PUSH1 0x20 ADD PUSH3 0x533 SWAP1 PUSH3 0xDD5 JUMP JUMPDEST PUSH1 0x20 DUP3 ADD DUP2 SUB DUP3 MSTORE PUSH1 0x1F NOT PUSH1 0x1F DUP3 ADD AND PUSH1 0x40 MSTORE POP SWAP2 POP DUP2 PUSH1 0x80 PUSH1 0x40 MLOAD PUSH1 0x20 ADD PUSH3 0x55E SWAP2 SWAP1 PUSH3 0x13A0 JUMP JUMPDEST PUSH1 0x40 MLOAD PUSH1 0x20 DUP2 DUP4 SUB SUB DUP2 MSTORE SWAP1 PUSH1 0x40 MSTORE PUSH1 0xFF PUSH1 0x40 MLOAD PUSH1 0x20 ADD PUSH3 0x583 SWAP4 SWAP3 SWAP2 SWAP1 PUSH3 0x1365 JUMP JUMPDEST PUSH1 0x40 MLOAD PUSH1 0x20 DUP2 DUP4 SUB SUB DUP2 MSTORE SWAP1 PUSH1 0x40 MSTORE SWAP1 POP SWAP1 SWAP2 JUMP JUMPDEST PUSH1 0x0 DUP2 PUSH1 0x40 MLOAD PUSH1 0x20 ADD PUSH3 0x5AD SWAP2 SWAP1 PUSH3 0x15CB JUMP JUMPDEST PUSH1 0x40 MLOAD PUSH1 0x20 DUP2 DUP4 SUB SUB DUP2 MSTORE SWAP1 PUSH1 0x40 MSTORE DUP1 MLOAD SWAP1 PUSH1 0x20 ADD KECCAK256 PUSH1 0x1 PUSH1 0x2 PUSH1 0x40 MLOAD PUSH3 0x5D5 SWAP1 PUSH3 0xDD5 JUMP JUMPDEST PUSH3 0x5E2 SWAP3 SWAP2 SWAP1 PUSH3 0x154F JUMP JUMPDEST DUP2 SWAP1 PUSH1 0x40 MLOAD DUP1 SWAP2 SUB SWAP1 PUSH1 0x0 CREATE2 SWAP1 POP DUP1 ISZERO DUP1 ISZERO PUSH3 0x603 JUMPI RETURNDATASIZE PUSH1 0x0 DUP1 RETURNDATACOPY RETURNDATASIZE PUSH1 0x0 REVERT JUMPDEST POP SWAP1 POP SWAP2 SWAP1 POP JUMP JUMPDEST PUSH1 0x0 DUP1 PUSH1 0x0 DUP1 DUP5 PUSH1 0x40 MLOAD PUSH1 0x20 ADD PUSH3 0x624 SWAP2 SWAP1 PUSH3 0x15CB JUMP JUMPDEST PUSH1 0x40 MLOAD PUSH1 0x20 DUP2 DUP4 SUB SUB DUP2 MSTORE SWAP1 PUSH1 0x40 MSTORE DUP1 MLOAD SWAP1 PUSH1 0x20 ADD KECCAK256 SWAP1 POP PUSH1 0x60 PUSH1 0xD6 PUSH1 0xF8 SHL PUSH1 0x94 PUSH1 0xF8 SHL ADDRESS DUP9 PUSH1 0x40 MLOAD PUSH1 0x20 ADD PUSH3 0x65F SWAP5 SWAP4 SWAP3 SWAP2 SWAP1 PUSH3 0x12CE JUMP JUMPDEST PUSH1 0x40 MLOAD PUSH1 0x20 DUP2 DUP4 SUB SUB DUP2 MSTORE SWAP1 PUSH1 0x40 MSTORE SWAP1 POP PUSH1 0x0 PUSH1 0x40 MLOAD DUP1 PUSH1 0x20 ADD PUSH3 0x684 SWAP1 PUSH3 0xDD5 JUMP JUMPDEST PUSH1 0x20 DUP3 ADD DUP2 SUB DUP3 MSTORE PUSH1 0x1F NOT PUSH1 0x1F DUP3 ADD AND PUSH1 0x40 MSTORE POP SWAP1 POP DUP1 PUSH1 0x1 PUSH1 0x2 PUSH1 0x40 MLOAD PUSH1 0x20 ADD PUSH3 0x6B2 SWAP3 SWAP2 SWAP1 PUSH3 0x157C JUMP JUMPDEST PUSH1 0x40 MLOAD PUSH1 0x20 DUP2 DUP4 SUB SUB DUP2 MSTORE SWAP1 PUSH1 0x40 MSTORE PUSH1 0x40 MLOAD PUSH1 0x20 ADD PUSH3 0x6D4 SWAP3 SWAP2 SWAP1 PUSH3 0x133D JUMP JUMPDEST PUSH1 0x40 MLOAD PUSH1 0x20 DUP2 DUP4 SUB SUB DUP2 MSTORE SWAP1 PUSH1 0x40 MSTORE SWAP1 POP PUSH1 0xFF PUSH1 0xF8 SHL ADDRESS DUP5 DUP4 DUP1 MLOAD SWAP1 PUSH1 0x20 ADD KECCAK256 PUSH1 0x40 MLOAD PUSH1 0x20 ADD PUSH3 0x709 SWAP5 SWAP4 SWAP3 SWAP2 SWAP1 PUSH3 0x107E JUMP JUMPDEST PUSH1 0x40 MLOAD PUSH1 0x20 DUP2 DUP4 SUB SUB DUP2 MSTORE SWAP1 PUSH1 0x40 MSTORE SWAP2 POP DUP2 DUP1 MLOAD SWAP1 PUSH1 0x20 ADD KECCAK256 SWAP6 POP DUP6 PUSH1 0x0 MSTORE PUSH1 0x0 MLOAD SWAP5 POP DUP3 DUP2 MLOAD PUSH1 0x20 DUP4 ADD PUSH1 0x0 CREATE2 SWAP4 POP POP POP POP SWAP2 SWAP4 SWAP1 SWAP3 POP JUMP JUMPDEST PUSH1 0x0 DUP1 PUSH1 0xFF ADDRESS DUP5 PUSH1 0x40 MLOAD PUSH1 0x20 ADD PUSH3 0x75C SWAP2 SWAP1 PUSH3 0x15CB JUMP JUMPDEST PUSH1 0x40 MLOAD PUSH1 0x20 DUP2 DUP4 SUB SUB DUP2 MSTORE SWAP1 PUSH1 0x40 MSTORE DUP1 MLOAD SWAP1 PUSH1 0x20 ADD KECCAK256 PUSH1 0x40 MLOAD DUP1 PUSH1 0x20 ADD PUSH3 0x784 SWAP1 PUSH3 0xDD5 JUMP JUMPDEST PUSH1 0x20 DUP3 ADD DUP2 SUB DUP3 MSTORE PUSH1 0x1F NOT PUSH1 0x1F DUP3 ADD AND PUSH1 0x40 MSTORE POP PUSH1 0x1 PUSH1 0x2 PUSH1 0x40 MLOAD PUSH1 0x20 ADD PUSH3 0x7AF SWAP3 SWAP2 SWAP1 PUSH3 0x157C JUMP JUMPDEST PUSH1 0x40 MLOAD PUSH1 0x20 DUP2 DUP4 SUB SUB DUP2 MSTORE SWAP1 PUSH1 0x40 MSTORE PUSH1 0x40 MLOAD PUSH1 0x20 ADD PUSH3 0x7D1 SWAP3 SWAP2 SWAP1 PUSH3 0x133D JUMP JUMPDEST PUSH1 0x40 MLOAD PUSH1 0x20 DUP2 DUP4 SUB SUB DUP2 MSTORE SWAP1 PUSH1 0x40 MSTORE DUP1 MLOAD SWAP1 PUSH1 0x20 ADD KECCAK256 PUSH1 0x40 MLOAD PUSH1 0x20 ADD PUSH3 0x7FC SWAP5 SWAP4 SWAP3 SWAP2 SWAP1 PUSH3 0x13ED JUMP JUMPDEST PUSH1 0x40 MLOAD PUSH1 0x20 DUP2 DUP4 SUB SUB DUP2 MSTORE SWAP1 PUSH1 0x40 MSTORE DUP1 MLOAD SWAP1 PUSH1 0x20 ADD KECCAK256 SWAP1 POP DUP1 PUSH1 0x0 MSTORE PUSH1 0x0 MLOAD SWAP2 POP POP SWAP2 SWAP1 POP JUMP JUMPDEST PUSH1 0x0 DUP2 PUSH1 0x1 PUSH1 0x2 PUSH1 0x40 MLOAD PUSH3 0x838 SWAP1 PUSH3 0xDD5 JUMP JUMPDEST PUSH3 0x845 SWAP3 SWAP2 SWAP1 PUSH3 0x154F JUMP JUMPDEST DUP2 SWAP1 PUSH1 0x40 MLOAD DUP1 SWAP2 SUB SWAP1 PUSH1 0x0 CREATE2 SWAP1 POP DUP1 ISZERO DUP1 ISZERO PUSH3 0x866 JUMPI RETURNDATASIZE PUSH1 0x0 DUP1 RETURNDATACOPY RETURNDATASIZE PUSH1 0x0 REVERT JUMPDEST POP SWAP1 POP SWAP2 SWAP1 POP JUMP JUMPDEST PUSH1 0x0 DUP1 DUP3 PUSH1 0x40 MLOAD PUSH1 0x20 ADD PUSH3 0x884 SWAP2 SWAP1 PUSH3 0x15CB JUMP JUMPDEST PUSH1 0x40 MLOAD PUSH1 0x20 DUP2 DUP4 SUB SUB DUP2 MSTORE SWAP1 PUSH1 0x40 MSTORE DUP1 MLOAD SWAP1 PUSH1 0x20 ADD KECCAK256 SWAP1 POP PUSH1 0x0 PUSH1 0x40 MLOAD DUP1 PUSH1 0x20 ADD PUSH3 0x8B0 SWAP1 PUSH3 0xDD5 JUMP JUMPDEST PUSH1 0x20 DUP3 ADD DUP2 SUB DUP3 MSTORE PUSH1 0x1F NOT PUSH1 0x1F DUP3 ADD AND PUSH1 0x40 MSTORE POP PUSH1 0x1 PUSH1 0x2 PUSH1 0x40 MLOAD PUSH1 0x20 ADD PUSH3 0x8DB SWAP3 SWAP2 SWAP1 PUSH3 0x157C JUMP JUMPDEST PUSH1 0x40 MLOAD PUSH1 0x20 DUP2 DUP4 SUB SUB DUP2 MSTORE SWAP1 PUSH1 0x40 MSTORE PUSH1 0x40 MLOAD PUSH1 0x20 ADD PUSH3 0x8FD SWAP3 SWAP2 SWAP1 PUSH3 0x133D JUMP JUMPDEST PUSH1 0x40 MLOAD PUSH1 0x20 DUP2 DUP4 SUB SUB DUP2 MSTORE SWAP1 PUSH1 0x40 MSTORE SWAP1 POP DUP2 DUP2 MLOAD PUSH1 0x20 DUP4 ADD PUSH1 0x0 CREATE2 SWAP3 POP POP POP SWAP2 SWAP1 POP JUMP JUMPDEST PUSH1 0x0 DUP1 PUSH1 0x0 PUSH1 0x40 MLOAD DUP1 PUSH1 0x20 ADD PUSH3 0x938 SWAP1 PUSH3 0xDD5 JUMP JUMPDEST PUSH1 0x20 DUP3 ADD DUP2 SUB DUP3 MSTORE PUSH1 0x1F NOT PUSH1 0x1F DUP3 ADD AND PUSH1 0x40 MSTORE POP SWAP1 POP PUSH1 0x0 PUSH1 0x1 PUSH1 0x2 PUSH1 0x40 MLOAD PUSH1 0x20 ADD PUSH3 0x967 SWAP3 SWAP2 SWAP1 PUSH3 0x13BD JUMP JUMPDEST PUSH1 0x40 MLOAD PUSH1 0x20 DUP2 DUP4 SUB SUB DUP2 MSTORE SWAP1 PUSH1 0x40 MSTORE SWAP1 POP DUP2 DUP2 PUSH1 0x40 MLOAD PUSH1 0x20 ADD PUSH3 0x98D SWAP3 SWAP2 SWAP1 PUSH3 0x133D JUMP JUMPDEST PUSH1 0x40 MLOAD PUSH1 0x20 DUP2 DUP4 SUB SUB DUP2 MSTORE SWAP1 PUSH1 0x40 MSTORE DUP1 MLOAD SWAP1 PUSH1 0x20 ADD KECCAK256 SWAP4 POP DUP2 PUSH1 0x40 MLOAD PUSH1 0x20 ADD PUSH3 0x9B8 SWAP2 SWAP1 PUSH3 0x1324 JUMP JUMPDEST PUSH1 0x40 MLOAD PUSH1 0x20 DUP2 DUP4 SUB SUB DUP2 MSTORE SWAP1 PUSH1 0x40 MSTORE DUP2 PUSH1 0x40 MLOAD PUSH1 0x20 ADD PUSH3 0x9DB SWAP3 SWAP2 SWAP1 PUSH3 0x133D JUMP JUMPDEST PUSH1 0x40 MLOAD PUSH1 0x20 DUP2 DUP4 SUB SUB DUP2 MSTORE SWAP1 PUSH1 0x40 MSTORE DUP1 MLOAD SWAP1 PUSH1 0x20 ADD KECCAK256 SWAP3 POP POP POP SWAP1 SWAP2 JUMP JUMPDEST PUSH1 0x0 PUSH1 0x40 MLOAD PUSH3 0xA09 SWAP1 PUSH3 0xDF0 JUMP JUMPDEST PUSH1 0x40 MLOAD DUP1 SWAP2 SUB SWAP1 PUSH1 0x0 CREATE DUP1 ISZERO DUP1 ISZERO PUSH3 0xA26 JUMPI RETURNDATASIZE PUSH1 0x0 DUP1 RETURNDATACOPY RETURNDATASIZE PUSH1 0x0 REVERT JUMPDEST POP SWAP1 POP PUSH1 0x0 PUSH1 0x1 SWAP1 POP JUMPDEST DUP3 DUP2 LT ISZERO PUSH3 0xACC JUMPI PUSH1 0x0 PUSH3 0xA46 DUP4 PUSH3 0xCFD JUMP JUMPDEST SWAP1 POP DUP1 PUSH20 0xFFFFFFFFFFFFFFFFFFFFFFFFFFFFFFFFFFFFFFFF AND PUSH4 0x59E2D4A7 CALLER PUSH1 0x40 MLOAD DUP3 PUSH4 0xFFFFFFFF AND PUSH1 0xE0 SHL DUP2 MSTORE PUSH1 0x4 ADD PUSH3 0xA83 SWAP2 SWAP1 PUSH3 0x1443 JUMP JUMPDEST PUSH1 0x0 PUSH1 0x40 MLOAD DUP1 DUP4 SUB DUP2 PUSH1 0x0 DUP8 DUP1 EXTCODESIZE ISZERO DUP1 ISZERO PUSH3 0xA9E JUMPI PUSH1 0x0 DUP1 REVERT JUMPDEST POP GAS CALL ISZERO DUP1 ISZERO PUSH3 0xAB3 JUMPI RETURNDATASIZE PUSH1 0x0 DUP1 RETURNDATACOPY RETURNDATASIZE PUSH1 0x0 REVERT JUMPDEST POP POP POP POP POP DUP1 PUSH3 0xAC4 SWAP1 PUSH3 0x17B1 JUMP JUMPDEST SWAP1 POP PUSH3 0xA30 JUMP JUMPDEST POP DUP1 PUSH20 0xFFFFFFFFFFFFFFFFFFFFFFFFFFFFFFFFFFFFFFFF AND PUSH4 0x59E2D4A7 CALLER PUSH1 0x40 MLOAD DUP3 PUSH4 0xFFFFFFFF AND PUSH1 0xE0 SHL DUP2 MSTORE PUSH1 0x4 ADD PUSH3 0xB08 SWAP2 SWAP1 PUSH3 0x1443 JUMP JUMPDEST PUSH1 0x0 PUSH1 0x40 MLOAD DUP1 DUP4 SUB DUP2 PUSH1 0x0 DUP8 DUP1 EXTCODESIZE ISZERO DUP1 ISZERO PUSH3 0xB23 JUMPI PUSH1 0x0 DUP1 REVERT JUMPDEST POP GAS CALL ISZERO DUP1 ISZERO PUSH3 0xB38 JUMPI RETURNDATASIZE PUSH1 0x0 DUP1 RETURNDATACOPY RETURNDATASIZE PUSH1 0x0 REVERT JUMPDEST POP POP POP POP POP POP JUMP JUMPDEST PUSH1 0x0 PUSH1 0x60 PUSH1 0x0 DUP4 EQ ISZERO PUSH3 0xB8A JUMPI PUSH1 0xD6 PUSH1 0xF8 SHL PUSH1 0x94 PUSH1 0xF8 SHL DUP6 PUSH1 0x80 PUSH1 0xF8 SHL PUSH1 0x40 MLOAD PUSH1 0x20 ADD PUSH3 0xB73 SWAP5 SWAP4 SWAP3 SWAP2 SWAP1 PUSH3 0x10D4 JUMP JUMPDEST PUSH1 0x40 MLOAD PUSH1 0x20 DUP2 DUP4 SUB SUB DUP2 MSTORE SWAP1 PUSH1 0x40 MSTORE SWAP1 POP PUSH3 0xCE0 JUMP JUMPDEST PUSH1 0x7F DUP4 GT PUSH3 0xBCB JUMPI PUSH1 0xD6 PUSH1 0xF8 SHL PUSH1 0x94 PUSH1 0xF8 SHL DUP6 DUP6 PUSH1 0x40 MLOAD PUSH1 0x20 ADD PUSH3 0xBB4 SWAP5 SWAP4 SWAP3 SWAP2 SWAP1 PUSH3 0x12CE JUMP JUMPDEST PUSH1 0x40 MLOAD PUSH1 0x20 DUP2 DUP4 SUB SUB DUP2 MSTORE SWAP1 PUSH1 0x40 MSTORE SWAP1 POP PUSH3 0xCDF JUMP JUMPDEST PUSH1 0xFF DUP4 GT PUSH3 0xC12 JUMPI PUSH1 0xD7 PUSH1 0xF8 SHL PUSH1 0x94 PUSH1 0xF8 SHL DUP6 PUSH1 0x81 PUSH1 0xF8 SHL DUP7 PUSH1 0x40 MLOAD PUSH1 0x20 ADD PUSH3 0xBFB SWAP6 SWAP5 SWAP4 SWAP3 SWAP2 SWAP1 PUSH3 0x1265 JUMP JUMPDEST PUSH1 0x40 MLOAD PUSH1 0x20 DUP2 DUP4 SUB SUB DUP2 MSTORE SWAP1 PUSH1 0x40 MSTORE SWAP1 POP PUSH3 0xCDE JUMP JUMPDEST PUSH2 0xFFFF DUP4 GT PUSH3 0xC5A JUMPI PUSH1 0xD8 PUSH1 0xF8 SHL PUSH1 0x94 PUSH1 0xF8 SHL DUP6 PUSH1 0x82 PUSH1 0xF8 SHL DUP7 PUSH1 0x40 MLOAD PUSH1 0x20 ADD PUSH3 0xC43 SWAP6 SWAP5 SWAP4 SWAP3 SWAP2 SWAP1 PUSH3 0x112A JUMP JUMPDEST PUSH1 0x40 MLOAD PUSH1 0x20 DUP2 DUP4 SUB SUB DUP2 MSTORE SWAP1 PUSH1 0x40 MSTORE SWAP1 POP PUSH3 0xCDD JUMP JUMPDEST PUSH3 0xFFFFFF DUP4 GT PUSH3 0xCA3 JUMPI PUSH1 0xD9 PUSH1 0xF8 SHL PUSH1 0x94 PUSH1 0xF8 SHL DUP6 PUSH1 0x83 PUSH1 0xF8 SHL DUP7 PUSH1 0x40 MLOAD PUSH1 0x20 ADD PUSH3 0xC8C SWAP6 SWAP5 SWAP4 SWAP3 SWAP2 SWAP1 PUSH3 0x1193 JUMP JUMPDEST PUSH1 0x40 MLOAD PUSH1 0x20 DUP2 DUP4 SUB SUB DUP2 MSTORE SWAP1 PUSH1 0x40 MSTORE SWAP1 POP PUSH3 0xCDC JUMP JUMPDEST PUSH1 0xDA PUSH1 0xF8 SHL PUSH1 0x94 PUSH1 0xF8 SHL DUP6 PUSH1 0x84 PUSH1 0xF8 SHL DUP7 PUSH1 0x40 MLOAD PUSH1 0x20 ADD PUSH3 0xCCA SWAP6 SWAP5 SWAP4 SWAP3 SWAP2 SWAP1 PUSH3 0x11FC JUMP JUMPDEST PUSH1 0x40 MLOAD PUSH1 0x20 DUP2 DUP4 SUB SUB DUP2 MSTORE SWAP1 PUSH1 0x40 MSTORE SWAP1 POP JUMPDEST JUMPDEST JUMPDEST JUMPDEST JUMPDEST PUSH1 0x0 DUP2 DUP1 MLOAD SWAP1 PUSH1 0x20 ADD KECCAK256 SWAP1 POP DUP1 PUSH1 0x0 MSTORE PUSH1 0x0 MLOAD SWAP3 POP POP POP SWAP3 SWAP2 POP POP JUMP JUMPDEST PUSH1 0x0 PUSH1 0x40 MLOAD PUSH32 0x3D602D80600A3D3981F3363D3D373D3D3D363D73000000000000000000000000 DUP2 MSTORE DUP3 PUSH1 0x60 SHL PUSH1 0x14 DUP3 ADD MSTORE PUSH32 0x5AF43D82803E903D91602B57FD5BF30000000000000000000000000000000000 PUSH1 0x28 DUP3 ADD MSTORE PUSH1 0x37 DUP2 PUSH1 0x0 CREATE SWAP2 POP POP PUSH1 0x0 PUSH20 0xFFFFFFFFFFFFFFFFFFFFFFFFFFFFFFFFFFFFFFFF AND DUP2 PUSH20 0xFFFFFFFFFFFFFFFFFFFFFFFFFFFFFFFFFFFFFFFF AND EQ ISZERO PUSH3 0xDD0 JUMPI PUSH1 0x40 MLOAD PUSH32 0x8C379A000000000000000000000000000000000000000000000000000000000 DUP2 MSTORE PUSH1 0x4 ADD PUSH3 0xDC7 SWAP1 PUSH3 0x15A9 JUMP JUMPDEST PUSH1 0x40 MLOAD DUP1 SWAP2 SUB SWAP1 REVERT JUMPDEST SWAP2 SWAP1 POP JUMP JUMPDEST PUSH1 0xEE DUP1 PUSH3 0x1979 DUP4 CODECOPY ADD SWAP1 JUMP JUMPDEST PUSH2 0x3E7 DUP1 PUSH3 0x1A67 DUP4 CODECOPY ADD SWAP1 JUMP JUMPDEST PUSH2 0x443 DUP1 PUSH3 0x1E4E DUP4 CODECOPY ADD SWAP1 JUMP JUMPDEST PUSH1 0x0 DUP2 CALLDATALOAD SWAP1 POP PUSH3 0xE0F DUP2 PUSH3 0x1944 JUMP JUMPDEST SWAP3 SWAP2 POP POP JUMP JUMPDEST PUSH1 0x0 DUP2 CALLDATALOAD SWAP1 POP PUSH3 0xE26 DUP2 PUSH3 0x195E JUMP JUMPDEST SWAP3 SWAP2 POP POP JUMP JUMPDEST PUSH1 0x0 PUSH1 0x20 DUP3 DUP5 SUB SLT ISZERO PUSH3 0xE45 JUMPI PUSH3 0xE44 PUSH3 0x18C4 JUMP JUMPDEST JUMPDEST PUSH1 0x0 PUSH3 0xE55 DUP5 DUP3 DUP6 ADD PUSH3 0xDFE JUMP JUMPDEST SWAP2 POP POP SWAP3 SWAP2 POP POP JUMP JUMPDEST PUSH1 0x0 PUSH1 0x20 DUP3 DUP5 SUB SLT ISZERO PUSH3 0xE77 JUMPI PUSH3 0xE76 PUSH3 0x18C4 JUMP JUMPDEST JUMPDEST PUSH1 0x0 PUSH3 0xE87 DUP5 DUP3 DUP6 ADD PUSH3 0xE15 JUMP JUMPDEST SWAP2 POP POP SWAP3 SWAP2 POP POP JUMP JUMPDEST PUSH3 0xE9B DUP2 PUSH3 0x167D JUMP JUMPDEST DUP3 MSTORE POP POP JUMP JUMPDEST PUSH3 0xEB6 PUSH3 0xEB0 DUP3 PUSH3 0x167D JUMP JUMPDEST PUSH3 0x17FF JUMP JUMPDEST DUP3 MSTORE POP POP JUMP JUMPDEST PUSH3 0xED1 PUSH3 0xECB DUP3 PUSH3 0x1691 JUMP JUMPDEST PUSH3 0x1813 JUMP JUMPDEST DUP3 MSTORE POP POP JUMP JUMPDEST PUSH3 0xEE2 DUP2 PUSH3 0x16BD JUMP JUMPDEST DUP3 MSTORE POP POP JUMP JUMPDEST PUSH3 0xEFD PUSH3 0xEF7 DUP3 PUSH3 0x16BD JUMP JUMPDEST PUSH3 0x181D JUMP JUMPDEST DUP3 MSTORE POP POP JUMP JUMPDEST PUSH1 0x0 PUSH3 0xF10 DUP3 PUSH3 0x15E8 JUMP JUMPDEST PUSH3 0xF1C DUP2 DUP6 PUSH3 0x15F3 JUMP JUMPDEST SWAP4 POP PUSH3 0xF2E DUP2 DUP6 PUSH1 0x20 DUP7 ADD PUSH3 0x177B JUMP JUMPDEST PUSH3 0xF39 DUP2 PUSH3 0x18C9 JUMP JUMPDEST DUP5 ADD SWAP2 POP POP SWAP3 SWAP2 POP POP JUMP JUMPDEST PUSH1 0x0 PUSH3 0xF51 DUP3 PUSH3 0x15E8 JUMP JUMPDEST PUSH3 0xF5D DUP2 DUP6 PUSH3 0x1604 JUMP JUMPDEST SWAP4 POP PUSH3 0xF6F DUP2 DUP6 PUSH1 0x20 DUP7 ADD PUSH3 0x177B JUMP JUMPDEST DUP1 DUP5 ADD SWAP2 POP POP SWAP3 SWAP2 POP POP JUMP JUMPDEST PUSH3 0xF86 DUP2 PUSH3 0x172B JUMP JUMPDEST DUP3 MSTORE POP POP JUMP JUMPDEST PUSH3 0xF97 DUP2 PUSH3 0x173F JUMP JUMPDEST DUP3 MSTORE POP POP JUMP JUMPDEST PUSH3 0xFA8 DUP2 PUSH3 0x1753 JUMP JUMPDEST DUP3 MSTORE POP POP JUMP JUMPDEST PUSH3 0xFB9 DUP2 PUSH3 0x1767 JUMP JUMPDEST DUP3 MSTORE POP POP JUMP JUMPDEST PUSH1 0x0 PUSH3 0xFCE PUSH1 0x16 DUP4 PUSH3 0x160F JUMP JUMPDEST SWAP2 POP PUSH3 0xFDB DUP3 PUSH3 0x191B JUMP JUMPDEST PUSH1 0x20 DUP3 ADD SWAP1 POP SWAP2 SWAP1 POP JUMP JUMPDEST PUSH3 0xFFB PUSH3 0xFF5 DUP3 PUSH3 0x16C7 JUMP JUMPDEST PUSH3 0x1827 JUMP JUMPDEST DUP3 MSTORE POP POP JUMP JUMPDEST PUSH3 0x1016 PUSH3 0x1010 DUP3 PUSH3 0x16F5 JUMP JUMPDEST PUSH3 0x184F JUMP JUMPDEST DUP3 MSTORE POP POP JUMP JUMPDEST PUSH3 0x1027 DUP2 PUSH3 0x1704 JUMP JUMPDEST DUP3 MSTORE POP POP JUMP JUMPDEST PUSH3 0x1042 PUSH3 0x103C DUP3 PUSH3 0x1704 JUMP JUMPDEST PUSH3 0x1863 JUMP JUMPDEST DUP3 MSTORE POP POP JUMP JUMPDEST PUSH3 0x105D PUSH3 0x1057 DUP3 PUSH3 0x170E JUMP JUMPDEST PUSH3 0x186D JUMP JUMPDEST DUP3 MSTORE POP POP JUMP JUMPDEST PUSH3 0x1078 PUSH3 0x1072 DUP3 PUSH3 0x171E JUMP JUMPDEST PUSH3 0x1881 JUMP JUMPDEST DUP3 MSTORE POP POP JUMP JUMPDEST PUSH1 0x0 PUSH3 0x108C DUP3 DUP8 PUSH3 0xEBC JUMP JUMPDEST PUSH1 0x1 DUP3 ADD SWAP2 POP PUSH3 0x109E DUP3 DUP7 PUSH3 0xEA1 JUMP JUMPDEST PUSH1 0x14 DUP3 ADD SWAP2 POP PUSH3 0x10B0 DUP3 DUP6 PUSH3 0xEE8 JUMP JUMPDEST PUSH1 0x20 DUP3 ADD SWAP2 POP PUSH3 0x10C2 DUP3 DUP5 PUSH3 0xEE8 JUMP JUMPDEST PUSH1 0x20 DUP3 ADD SWAP2 POP DUP2 SWAP1 POP SWAP6 SWAP5 POP POP POP POP POP JUMP JUMPDEST PUSH1 0x0 PUSH3 0x10E2 DUP3 DUP8 PUSH3 0xEBC JUMP JUMPDEST PUSH1 0x1 DUP3 ADD SWAP2 POP PUSH3 0x10F4 DUP3 DUP7 PUSH3 0xEBC JUMP JUMPDEST PUSH1 0x1 DUP3 ADD SWAP2 POP PUSH3 0x1106 DUP3 DUP6 PUSH3 0xEA1 JUMP JUMPDEST PUSH1 0x14 DUP3 ADD SWAP2 POP PUSH3 0x1118 DUP3 DUP5 PUSH3 0xEBC JUMP JUMPDEST PUSH1 0x1 DUP3 ADD SWAP2 POP DUP2 SWAP1 POP SWAP6 SWAP5 POP POP POP POP POP JUMP JUMPDEST PUSH1 0x0 PUSH3 0x1138 DUP3 DUP9 PUSH3 0xEBC JUMP JUMPDEST PUSH1 0x1 DUP3 ADD SWAP2 POP PUSH3 0x114A DUP3 DUP8 PUSH3 0xEBC JUMP JUMPDEST PUSH1 0x1 DUP3 ADD SWAP2 POP PUSH3 0x115C DUP3 DUP7 PUSH3 0xEA1 JUMP JUMPDEST PUSH1 0x14 DUP3 ADD SWAP2 POP PUSH3 0x116E DUP3 DUP6 PUSH3 0xEBC JUMP JUMPDEST PUSH1 0x1 DUP3 ADD SWAP2 POP PUSH3 0x1180 DUP3 DUP5 PUSH3 0xFE6 JUMP JUMPDEST PUSH1 0x2 DUP3 ADD SWAP2 POP DUP2 SWAP1 POP SWAP7 SWAP6 POP POP POP POP POP POP JUMP JUMPDEST PUSH1 0x0 PUSH3 0x11A1 DUP3 DUP9 PUSH3 0xEBC JUMP JUMPDEST PUSH1 0x1 DUP3 ADD SWAP2 POP PUSH3 0x11B3 DUP3 DUP8 PUSH3 0xEBC JUMP JUMPDEST PUSH1 0x1 DUP3 ADD SWAP2 POP PUSH3 0x11C5 DUP3 DUP7 PUSH3 0xEA1 JUMP JUMPDEST PUSH1 0x14 DUP3 ADD SWAP2 POP PUSH3 0x11D7 DUP3 DUP6 PUSH3 0xEBC JUMP JUMPDEST PUSH1 0x1 DUP3 ADD SWAP2 POP PUSH3 0x11E9 DUP3 DUP5 PUSH3 0x1001 JUMP JUMPDEST PUSH1 0x3 DUP3 ADD SWAP2 POP DUP2 SWAP1 POP SWAP7 SWAP6 POP POP POP POP POP POP JUMP JUMPDEST PUSH1 0x0 PUSH3 0x120A DUP3 DUP9 PUSH3 0xEBC JUMP JUMPDEST PUSH1 0x1 DUP3 ADD SWAP2 POP PUSH3 0x121C DUP3 DUP8 PUSH3 0xEBC JUMP JUMPDEST PUSH1 0x1 DUP3 ADD SWAP2 POP PUSH3 0x122E DUP3 DUP7 PUSH3 0xEA1 JUMP JUMPDEST PUSH1 0x14 DUP3 ADD SWAP2 POP PUSH3 0x1240 DUP3 DUP6 PUSH3 0xEBC JUMP JUMPDEST PUSH1 0x1 DUP3 ADD SWAP2 POP PUSH3 0x1252 DUP3 DUP5 PUSH3 0x1048 JUMP JUMPDEST PUSH1 0x4 DUP3 ADD SWAP2 POP DUP2 SWAP1 POP SWAP7 SWAP6 POP POP POP POP POP POP JUMP JUMPDEST PUSH1 0x0 PUSH3 0x1273 DUP3 DUP9 PUSH3 0xEBC JUMP JUMPDEST PUSH1 0x1 DUP3 ADD SWAP2 POP PUSH3 0x1285 DUP3 DUP8 PUSH3 0xEBC JUMP JUMPDEST PUSH1 0x1 DUP3 ADD SWAP2 POP PUSH3 0x1297 DUP3 DUP7 PUSH3 0xEA1 JUMP JUMPDEST PUSH1 0x14 DUP3 ADD SWAP2 POP PUSH3 0x12A9 DUP3 DUP6 PUSH3 0xEBC JUMP JUMPDEST PUSH1 0x1 DUP3 ADD SWAP2 POP PUSH3 0x12BB DUP3 DUP5 PUSH3 0x1063 JUMP JUMPDEST PUSH1 0x1 DUP3 ADD SWAP2 POP DUP2 SWAP1 POP SWAP7 SWAP6 POP POP POP POP POP POP JUMP JUMPDEST PUSH1 0x0 PUSH3 0x12DC DUP3 DUP8 PUSH3 0xEBC JUMP JUMPDEST PUSH1 0x1 DUP3 ADD SWAP2 POP PUSH3 0x12EE DUP3 DUP7 PUSH3 0xEBC JUMP JUMPDEST PUSH1 0x1 DUP3 ADD SWAP2 POP PUSH3 0x1300 DUP3 DUP6 PUSH3 0xEA1 JUMP JUMPDEST PUSH1 0x14 DUP3 ADD SWAP2 POP PUSH3 0x1312 DUP3 DUP5 PUSH3 0x1063 JUMP JUMPDEST PUSH1 0x1 DUP3 ADD SWAP2 POP DUP2 SWAP1 POP SWAP6 SWAP5 POP POP POP POP POP JUMP JUMPDEST PUSH1 0x0 PUSH3 0x1332 DUP3 DUP5 PUSH3 0xF44 JUMP JUMPDEST SWAP2 POP DUP2 SWAP1 POP SWAP3 SWAP2 POP POP JUMP JUMPDEST PUSH1 0x0 PUSH3 0x134B DUP3 DUP6 PUSH3 0xF44 JUMP JUMPDEST SWAP2 POP PUSH3 0x1359 DUP3 DUP5 PUSH3 0xF44 JUMP JUMPDEST SWAP2 POP DUP2 SWAP1 POP SWAP4 SWAP3 POP POP POP JUMP JUMPDEST PUSH1 0x0 PUSH3 0x1373 DUP3 DUP7 PUSH3 0xF44 JUMP JUMPDEST SWAP2 POP PUSH3 0x1381 DUP3 DUP6 PUSH3 0xF44 JUMP JUMPDEST SWAP2 POP PUSH3 0x138F DUP3 DUP5 PUSH3 0x102D JUMP JUMPDEST PUSH1 0x20 DUP3 ADD SWAP2 POP DUP2 SWAP1 POP SWAP5 SWAP4 POP POP POP POP JUMP JUMPDEST PUSH1 0x0 PUSH3 0x13AE DUP3 DUP5 PUSH3 0x102D JUMP JUMPDEST PUSH1 0x20 DUP3 ADD SWAP2 POP DUP2 SWAP1 POP SWAP3 SWAP2 POP POP JUMP JUMPDEST PUSH1 0x0 PUSH3 0x13CB DUP3 DUP6 PUSH3 0x102D JUMP JUMPDEST PUSH1 0x20 DUP3 ADD SWAP2 POP PUSH3 0x13DD DUP3 DUP5 PUSH3 0x102D JUMP JUMPDEST PUSH1 0x20 DUP3 ADD SWAP2 POP DUP2 SWAP1 POP SWAP4 SWAP3 POP POP POP JUMP JUMPDEST PUSH1 0x0 PUSH3 0x13FB DUP3 DUP8 PUSH3 0x1063 JUMP JUMPDEST PUSH1 0x1 DUP3 ADD SWAP2 POP PUSH3 0x140D DUP3 DUP7 PUSH3 0xEA1 JUMP JUMPDEST PUSH1 0x14 DUP3 ADD SWAP2 POP PUSH3 0x141F DUP3 DUP6 PUSH3 0xEE8 JUMP JUMPDEST PUSH1 0x20 DUP3 ADD SWAP2 POP PUSH3 0x1431 DUP3 DUP5 PUSH3 0xEE8 JUMP JUMPDEST PUSH1 0x20 DUP3 ADD SWAP2 POP DUP2 SWAP1 POP SWAP6 SWAP5 POP POP POP POP POP JUMP JUMPDEST PUSH1 0x0 PUSH1 0x20 DUP3 ADD SWAP1 POP PUSH3 0x145A PUSH1 0x0 DUP4 ADD DUP5 PUSH3 0xE90 JUMP JUMPDEST SWAP3 SWAP2 POP POP JUMP JUMPDEST PUSH1 0x0 PUSH1 0x40 DUP3 ADD SWAP1 POP PUSH3 0x1477 PUSH1 0x0 DUP4 ADD DUP6 PUSH3 0xE90 JUMP JUMPDEST PUSH3 0x1486 PUSH1 0x20 DUP4 ADD DUP5 PUSH3 0xE90 JUMP JUMPDEST SWAP4 SWAP3 POP POP POP JUMP JUMPDEST PUSH1 0x0 PUSH1 0x20 DUP3 ADD SWAP1 POP PUSH3 0x14A4 PUSH1 0x0 DUP4 ADD DUP5 PUSH3 0xED7 JUMP JUMPDEST SWAP3 SWAP2 POP POP JUMP JUMPDEST PUSH1 0x0 PUSH1 0x60 DUP3 ADD SWAP1 POP PUSH3 0x14C1 PUSH1 0x0 DUP4 ADD DUP7 PUSH3 0xED7 JUMP JUMPDEST PUSH3 0x14D0 PUSH1 0x20 DUP4 ADD DUP6 PUSH3 0xE90 JUMP JUMPDEST PUSH3 0x14DF PUSH1 0x40 DUP4 ADD DUP5 PUSH3 0xE90 JUMP JUMPDEST SWAP5 SWAP4 POP POP POP POP JUMP JUMPDEST PUSH1 0x0 PUSH1 0x40 DUP3 ADD SWAP1 POP PUSH3 0x14FE PUSH1 0x0 DUP4 ADD DUP6 PUSH3 0xED7 JUMP JUMPDEST PUSH3 0x150D PUSH1 0x20 DUP4 ADD DUP5 PUSH3 0xED7 JUMP JUMPDEST SWAP4 SWAP3 POP POP POP JUMP JUMPDEST PUSH1 0x0 PUSH1 0x40 DUP3 ADD SWAP1 POP DUP2 DUP2 SUB PUSH1 0x0 DUP4 ADD MSTORE PUSH3 0x1530 DUP2 DUP6 PUSH3 0xF03 JUMP JUMPDEST SWAP1 POP DUP2 DUP2 SUB PUSH1 0x20 DUP4 ADD MSTORE PUSH3 0x1546 DUP2 DUP5 PUSH3 0xF03 JUMP JUMPDEST SWAP1 POP SWAP4 SWAP3 POP POP POP JUMP JUMPDEST PUSH1 0x0 PUSH1 0x40 DUP3 ADD SWAP1 POP PUSH3 0x1566 PUSH1 0x0 DUP4 ADD DUP6 PUSH3 0xF7B JUMP JUMPDEST PUSH3 0x1575 PUSH1 0x20 DUP4 ADD DUP5 PUSH3 0xF9D JUMP JUMPDEST SWAP4 SWAP3 POP POP POP JUMP JUMPDEST PUSH1 0x0 PUSH1 0x40 DUP3 ADD SWAP1 POP PUSH3 0x1593 PUSH1 0x0 DUP4 ADD DUP6 PUSH3 0xF8C JUMP JUMPDEST PUSH3 0x15A2 PUSH1 0x20 DUP4 ADD DUP5 PUSH3 0xFAE JUMP JUMPDEST SWAP4 SWAP3 POP POP POP JUMP JUMPDEST PUSH1 0x0 PUSH1 0x20 DUP3 ADD SWAP1 POP DUP2 DUP2 SUB PUSH1 0x0 DUP4 ADD MSTORE PUSH3 0x15C4 DUP2 PUSH3 0xFBF JUMP JUMPDEST SWAP1 POP SWAP2 SWAP1 POP JUMP JUMPDEST PUSH1 0x0 PUSH1 0x20 DUP3 ADD SWAP1 POP PUSH3 0x15E2 PUSH1 0x0 DUP4 ADD DUP5 PUSH3 0x101C JUMP JUMPDEST SWAP3 SWAP2 POP POP JUMP JUMPDEST PUSH1 0x0 DUP2 MLOAD SWAP1 POP SWAP2 SWAP1 POP JUMP JUMPDEST PUSH1 0x0 DUP3 DUP3 MSTORE PUSH1 0x20 DUP3 ADD SWAP1 POP SWAP3 SWAP2 POP POP JUMP JUMPDEST PUSH1 0x0 DUP2 SWAP1 POP SWAP3 SWAP2 POP POP JUMP JUMPDEST PUSH1 0x0 DUP3 DUP3 MSTORE PUSH1 0x20 DUP3 ADD SWAP1 POP SWAP3 SWAP2 POP POP JUMP JUMPDEST PUSH1 0x0 PUSH3 0x162D DUP3 PUSH3 0x1704 JUMP JUMPDEST SWAP2 POP PUSH3 0x163A DUP4 PUSH3 0x1704 JUMP JUMPDEST SWAP3 POP DUP3 PUSH32 0xFFFFFFFFFFFFFFFFFFFFFFFFFFFFFFFFFFFFFFFFFFFFFFFFFFFFFFFFFFFFFFFF SUB DUP3 GT ISZERO PUSH3 0x1672 JUMPI PUSH3 0x1671 PUSH3 0x1895 JUMP JUMPDEST JUMPDEST DUP3 DUP3 ADD SWAP1 POP SWAP3 SWAP2 POP POP JUMP JUMPDEST PUSH1 0x0 PUSH3 0x168A DUP3 PUSH3 0x16D5 JUMP JUMPDEST SWAP1 POP SWAP2 SWAP1 POP JUMP JUMPDEST PUSH1 0x0 PUSH32 0xFF00000000000000000000000000000000000000000000000000000000000000 DUP3 AND SWAP1 POP SWAP2 SWAP1 POP JUMP JUMPDEST PUSH1 0x0 DUP2 SWAP1 POP SWAP2 SWAP1 POP JUMP JUMPDEST PUSH1 0x0 PUSH2 0xFFFF DUP3 AND SWAP1 POP SWAP2 SWAP1 POP JUMP JUMPDEST PUSH1 0x0 PUSH20 0xFFFFFFFFFFFFFFFFFFFFFFFFFFFFFFFFFFFFFFFF DUP3 AND SWAP1 POP SWAP2 SWAP1 POP JUMP JUMPDEST PUSH1 0x0 PUSH3 0xFFFFFF DUP3 AND SWAP1 POP SWAP2 SWAP1 POP JUMP JUMPDEST PUSH1 0x0 DUP2 SWAP1 POP SWAP2 SWAP1 POP JUMP JUMPDEST PUSH1 0x0 PUSH4 0xFFFFFFFF DUP3 AND SWAP1 POP SWAP2 SWAP1 POP JUMP JUMPDEST PUSH1 0x0 PUSH1 0xFF DUP3 AND SWAP1 POP SWAP2 SWAP1 POP JUMP JUMPDEST PUSH1 0x0 PUSH3 0x1738 DUP3 PUSH3 0x1704 JUMP JUMPDEST SWAP1 POP SWAP2 SWAP1 POP JUMP JUMPDEST PUSH1 0x0 PUSH3 0x174C DUP3 PUSH3 0x171E JUMP JUMPDEST SWAP1 POP SWAP2 SWAP1 POP JUMP JUMPDEST PUSH1 0x0 PUSH3 0x1760 DUP3 PUSH3 0x1704 JUMP JUMPDEST SWAP1 POP SWAP2 SWAP1 POP JUMP JUMPDEST PUSH1 0x0 PUSH3 0x1774 DUP3 PUSH3 0x171E JUMP JUMPDEST SWAP1 POP SWAP2 SWAP1 POP JUMP JUMPDEST PUSH1 0x0 JUMPDEST DUP4 DUP2 LT ISZERO PUSH3 0x179B JUMPI DUP1 DUP3 ADD MLOAD DUP2 DUP5 ADD MSTORE PUSH1 0x20 DUP2 ADD SWAP1 POP PUSH3 0x177E JUMP JUMPDEST DUP4 DUP2 GT ISZERO PUSH3 0x17AB JUMPI PUSH1 0x0 DUP5 DUP5 ADD MSTORE JUMPDEST POP POP POP POP JUMP JUMPDEST PUSH1 0x0 PUSH3 0x17BE DUP3 PUSH3 0x1704 JUMP JUMPDEST SWAP2 POP PUSH32 0xFFFFFFFFFFFFFFFFFFFFFFFFFFFFFFFFFFFFFFFFFFFFFFFFFFFFFFFFFFFFFFFF DUP3 EQ ISZERO PUSH3 0x17F4 JUMPI PUSH3 0x17F3 PUSH3 0x1895 JUMP JUMPDEST JUMPDEST PUSH1 0x1 DUP3 ADD SWAP1 POP SWAP2 SWAP1 POP JUMP JUMPDEST PUSH1 0x0 PUSH3 0x180C DUP3 PUSH3 0x183B JUMP JUMPDEST SWAP1 POP SWAP2 SWAP1 POP JUMP JUMPDEST PUSH1 0x0 DUP2 SWAP1 POP SWAP2 SWAP1 POP JUMP JUMPDEST PUSH1 0x0 DUP2 SWAP1 POP SWAP2 SWAP1 POP JUMP JUMPDEST PUSH1 0x0 PUSH3 0x1834 DUP3 PUSH3 0x18F4 JUMP JUMPDEST SWAP1 POP SWAP2 SWAP1 POP JUMP JUMPDEST PUSH1 0x0 PUSH3 0x1848 DUP3 PUSH3 0x190E JUMP JUMPDEST SWAP1 POP SWAP2 SWAP1 POP JUMP JUMPDEST PUSH1 0x0 PUSH3 0x185C DUP3 PUSH3 0x18E7 JUMP JUMPDEST SWAP1 POP SWAP2 SWAP1 POP JUMP JUMPDEST PUSH1 0x0 DUP2 SWAP1 POP SWAP2 SWAP1 POP JUMP JUMPDEST PUSH1 0x0 PUSH3 0x187A DUP3 PUSH3 0x18DA JUMP JUMPDEST SWAP1 POP SWAP2 SWAP1 POP JUMP JUMPDEST PUSH1 0x0 PUSH3 0x188E DUP3 PUSH3 0x1901 JUMP JUMPDEST SWAP1 POP SWAP2 SWAP1 POP JUMP JUMPDEST PUSH32 0x4E487B7100000000000000000000000000000000000000000000000000000000 PUSH1 0x0 MSTORE PUSH1 0x11 PUSH1 0x4 MSTORE PUSH1 0x24 PUSH1 0x0 REVERT JUMPDEST PUSH1 0x0 DUP1 REVERT JUMPDEST PUSH1 0x0 PUSH1 0x1F NOT PUSH1 0x1F DUP4 ADD AND SWAP1 POP SWAP2 SWAP1 POP JUMP JUMPDEST PUSH1 0x0 DUP2 PUSH1 0xE0 SHL SWAP1 POP SWAP2 SWAP1 POP JUMP JUMPDEST PUSH1 0x0 DUP2 PUSH1 0xE8 SHL SWAP1 POP SWAP2 SWAP1 POP JUMP JUMPDEST PUSH1 0x0 DUP2 PUSH1 0xF0 SHL SWAP1 POP SWAP2 SWAP1 POP JUMP JUMPDEST PUSH1 0x0 DUP2 PUSH1 0xF8 SHL SWAP1 POP SWAP2 SWAP1 POP JUMP JUMPDEST PUSH1 0x0 DUP2 PUSH1 0x60 SHL SWAP1 POP SWAP2 SWAP1 POP JUMP JUMPDEST PUSH32 0x455243313136373A20637265617465206661696C656400000000000000000000 PUSH1 0x0 DUP3 ADD MSTORE POP JUMP JUMPDEST PUSH3 0x194F DUP2 PUSH3 0x16BD JUMP JUMPDEST DUP2 EQ PUSH3 0x195B JUMPI PUSH1 0x0 DUP1 REVERT JUMPDEST POP JUMP JUMPDEST PUSH3 0x1969 DUP2 PUSH3 0x1704 JUMP JUMPDEST DUP2 EQ PUSH3 0x1975 JUMPI PUSH1 0x0 DUP1 REVERT JUMPDEST POP JUMP INVALID PUSH1 0x80 PUSH1 0x40 MSTORE CALLVALUE DUP1 ISZERO PUSH1 0xF JUMPI PUSH1 0x0 DUP1 REVERT JUMPDEST POP PUSH1 0x40 MLOAD PUSH1 0xEE CODESIZE SUB DUP1 PUSH1 0xEE DUP4 CODECOPY DUP2 DUP2 ADD PUSH1 0x40 MSTORE DUP2 ADD SWAP1 PUSH1 0x2D SWAP2 SWAP1 PUSH1 0x46 JUMP JUMPDEST POP POP PUSH1 0xA2 JUMP JUMPDEST PUSH1 0x0 DUP2 MLOAD SWAP1 POP PUSH1 0x40 DUP2 PUSH1 0x8E JUMP JUMPDEST SWAP3 SWAP2 POP POP JUMP JUMPDEST PUSH1 0x0 DUP1 PUSH1 0x40 DUP4 DUP6 SUB SLT ISZERO PUSH1 0x5A JUMPI PUSH1 0x59 PUSH1 0x89 JUMP JUMPDEST JUMPDEST PUSH1 0x0 PUSH1 0x66 DUP6 DUP3 DUP7 ADD PUSH1 0x33 JUMP JUMPDEST SWAP3 POP POP PUSH1 0x20 PUSH1 0x75 DUP6 DUP3 DUP7 ADD PUSH1 0x33 JUMP JUMPDEST SWAP2 POP POP SWAP3 POP SWAP3 SWAP1 POP JUMP JUMPDEST PUSH1 0x0 DUP2 SWAP1 POP SWAP2 SWAP1 POP JUMP JUMPDEST PUSH1 0x0 DUP1 REVERT JUMPDEST PUSH1 0x95 DUP2 PUSH1 0x7F JUMP JUMPDEST DUP2 EQ PUSH1 0x9F JUMPI PUSH1 0x0 DUP1 REVERT JUMPDEST POP JUMP JUMPDEST PUSH1 0x3F DUP1 PUSH1 0xAF PUSH1 0x0 CODECOPY PUSH1 0x0 RETURN INVALID PUSH1 0x80 PUSH1 0x40 MSTORE PUSH1 0x0 DUP1 REVERT INVALID LOG2 PUSH5 0x6970667358 0x22 SLT KECCAK256 0xB6 0xBD SSTORE 0xCA 0xAA 0xB9 SAR 0x28 PUSH27 0x11F9BA4A72ADEE7EA8F46BDFA8FF722FFBBC3584883E8164736F6C PUSH4 0x43000807 STOP CALLER PUSH1 0x80 PUSH1 0x40 MSTORE CALLVALUE DUP1 ISZERO PUSH2 0x10 JUMPI PUSH1 0x0 DUP1 REVERT JUMPDEST POP PUSH1 0x40 MLOAD PUSH2 0x3E7 CODESIZE SUB DUP1 PUSH2 0x3E7 DUP4 CODECOPY DUP2 DUP2 ADD PUSH1 0x40 MSTORE DUP2 ADD SWAP1 PUSH2 0x32 SWAP2 SWAP1 PUSH2 0x22B JUMP JUMPDEST PUSH1 0x0 PUSH20 0xD9145CCE52D386F254917E481EB44E9943F39138 SWAP1 POP DUP1 PUSH20 0xFFFFFFFFFFFFFFFFFFFFFFFFFFFFFFFFFFFFFFFF AND PUSH4 0x4E71D92D PUSH1 0x40 MLOAD DUP2 PUSH4 0xFFFFFFFF AND PUSH1 0xE0 SHL DUP2 MSTORE PUSH1 0x4 ADD PUSH1 0x0 PUSH1 0x40 MLOAD DUP1 DUP4 SUB DUP2 PUSH1 0x0 DUP8 DUP1 EXTCODESIZE ISZERO DUP1 ISZERO PUSH2 0x93 JUMPI PUSH1 0x0 DUP1 REVERT JUMPDEST POP GAS CALL ISZERO DUP1 ISZERO PUSH2 0xA7 JUMPI RETURNDATASIZE PUSH1 0x0 DUP1 RETURNDATACOPY RETURNDATASIZE PUSH1 0x0 REVERT JUMPDEST POP POP POP POP PUSH1 0x0 DUP2 PUSH20 0xFFFFFFFFFFFFFFFFFFFFFFFFFFFFFFFFFFFFFFFF AND PUSH4 0x70A08231 DUP6 PUSH1 0x40 MLOAD DUP3 PUSH4 0xFFFFFFFF AND PUSH1 0xE0 SHL DUP2 MSTORE PUSH1 0x4 ADD PUSH2 0xE6 SWAP2 SWAP1 PUSH2 0x2D9 JUMP JUMPDEST PUSH1 0x20 PUSH1 0x40 MLOAD DUP1 DUP4 SUB DUP2 DUP7 DUP1 EXTCODESIZE ISZERO DUP1 ISZERO PUSH2 0xFE JUMPI PUSH1 0x0 DUP1 REVERT JUMPDEST POP GAS STATICCALL ISZERO DUP1 ISZERO PUSH2 0x112 JUMPI RETURNDATASIZE PUSH1 0x0 DUP1 RETURNDATACOPY RETURNDATASIZE PUSH1 0x0 REVERT JUMPDEST POP POP POP POP PUSH1 0x40 MLOAD RETURNDATASIZE PUSH1 0x1F NOT PUSH1 0x1F DUP3 ADD AND DUP3 ADD DUP1 PUSH1 0x40 MSTORE POP DUP2 ADD SWAP1 PUSH2 0x136 SWAP2 SWAP1 PUSH2 0x26B JUMP JUMPDEST SWAP1 POP PUSH1 0x0 DUP2 GT PUSH2 0x17B JUMPI PUSH1 0x40 MLOAD PUSH32 0x8C379A000000000000000000000000000000000000000000000000000000000 DUP2 MSTORE PUSH1 0x4 ADD PUSH2 0x172 SWAP1 PUSH2 0x31D JUMP JUMPDEST PUSH1 0x40 MLOAD DUP1 SWAP2 SUB SWAP1 REVERT JUMPDEST DUP2 PUSH20 0xFFFFFFFFFFFFFFFFFFFFFFFFFFFFFFFFFFFFFFFF AND PUSH4 0xA9059CBB DUP5 DUP4 PUSH1 0x40 MLOAD DUP4 PUSH4 0xFFFFFFFF AND PUSH1 0xE0 SHL DUP2 MSTORE PUSH1 0x4 ADD PUSH2 0x1B6 SWAP3 SWAP2 SWAP1 PUSH2 0x2F4 JUMP JUMPDEST PUSH1 0x0 PUSH1 0x40 MLOAD DUP1 DUP4 SUB DUP2 PUSH1 0x0 DUP8 DUP1 EXTCODESIZE ISZERO DUP1 ISZERO PUSH2 0x1D0 JUMPI PUSH1 0x0 DUP1 REVERT JUMPDEST POP GAS CALL ISZERO DUP1 ISZERO PUSH2 0x1E4 JUMPI RETURNDATASIZE PUSH1 0x0 DUP1 RETURNDATACOPY RETURNDATASIZE PUSH1 0x0 REVERT JUMPDEST POP POP POP POP CALLER PUSH20 0xFFFFFFFFFFFFFFFFFFFFFFFFFFFFFFFFFFFFFFFF AND SELFDESTRUCT JUMPDEST PUSH1 0x0 DUP2 MLOAD SWAP1 POP PUSH2 0x210 DUP2 PUSH2 0x3B8 JUMP JUMPDEST SWAP3 SWAP2 POP POP JUMP JUMPDEST PUSH1 0x0 DUP2 MLOAD SWAP1 POP PUSH2 0x225 DUP2 PUSH2 0x3CF JUMP JUMPDEST SWAP3 SWAP2 POP POP JUMP JUMPDEST PUSH1 0x0 DUP1 PUSH1 0x40 DUP4 DUP6 SUB SLT ISZERO PUSH2 0x242 JUMPI PUSH2 0x241 PUSH2 0x38A JUMP JUMPDEST JUMPDEST PUSH1 0x0 PUSH2 0x250 DUP6 DUP3 DUP7 ADD PUSH2 0x201 JUMP JUMPDEST SWAP3 POP POP PUSH1 0x20 PUSH2 0x261 DUP6 DUP3 DUP7 ADD PUSH2 0x201 JUMP JUMPDEST SWAP2 POP POP SWAP3 POP SWAP3 SWAP1 POP JUMP JUMPDEST PUSH1 0x0 PUSH1 0x20 DUP3 DUP5 SUB SLT ISZERO PUSH2 0x281 JUMPI PUSH2 0x280 PUSH2 0x38A JUMP JUMPDEST JUMPDEST PUSH1 0x0 PUSH2 0x28F DUP5 DUP3 DUP6 ADD PUSH2 0x216 JUMP JUMPDEST SWAP2 POP POP SWAP3 SWAP2 POP POP JUMP JUMPDEST PUSH2 0x2A1 DUP2 PUSH2 0x34E JUMP JUMPDEST DUP3 MSTORE POP POP JUMP JUMPDEST PUSH1 0x0 PUSH2 0x2B4 PUSH1 0x5 DUP4 PUSH2 0x33D JUMP JUMPDEST SWAP2 POP PUSH2 0x2BF DUP3 PUSH2 0x38F JUMP JUMPDEST PUSH1 0x20 DUP3 ADD SWAP1 POP SWAP2 SWAP1 POP JUMP JUMPDEST PUSH2 0x2D3 DUP2 PUSH2 0x380 JUMP JUMPDEST DUP3 MSTORE POP POP JUMP JUMPDEST PUSH1 0x0 PUSH1 0x20 DUP3 ADD SWAP1 POP PUSH2 0x2EE PUSH1 0x0 DUP4 ADD DUP5 PUSH2 0x298 JUMP JUMPDEST SWAP3 SWAP2 POP POP JUMP JUMPDEST PUSH1 0x0 PUSH1 0x40 DUP3 ADD SWAP1 POP PUSH2 0x309 PUSH1 0x0 DUP4 ADD DUP6 PUSH2 0x298 JUMP JUMPDEST PUSH2 0x316 PUSH1 0x20 DUP4 ADD DUP5 PUSH2 0x2CA JUMP JUMPDEST SWAP4 SWAP3 POP POP POP JUMP JUMPDEST PUSH1 0x0 PUSH1 0x20 DUP3 ADD SWAP1 POP DUP2 DUP2 SUB PUSH1 0x0 DUP4 ADD MSTORE PUSH2 0x336 DUP2 PUSH2 0x2A7 JUMP JUMPDEST SWAP1 POP SWAP2 SWAP1 POP JUMP JUMPDEST PUSH1 0x0 DUP3 DUP3 MSTORE PUSH1 0x20 DUP3 ADD SWAP1 POP SWAP3 SWAP2 POP POP JUMP JUMPDEST PUSH1 0x0 PUSH2 0x359 DUP3 PUSH2 0x360 JUMP JUMPDEST SWAP1 POP SWAP2 SWAP1 POP JUMP JUMPDEST PUSH1 0x0 PUSH20 0xFFFFFFFFFFFFFFFFFFFFFFFFFFFFFFFFFFFFFFFF DUP3 AND SWAP1 POP SWAP2 SWAP1 POP JUMP JUMPDEST PUSH1 0x0 DUP2 SWAP1 POP SWAP2 SWAP1 POP JUMP JUMPDEST PUSH1 0x0 DUP1 REVERT JUMPDEST PUSH32 0x4F68206E6F000000000000000000000000000000000000000000000000000000 PUSH1 0x0 DUP3 ADD MSTORE POP JUMP JUMPDEST PUSH2 0x3C1 DUP2 PUSH2 0x34E JUMP JUMPDEST DUP2 EQ PUSH2 0x3CC JUMPI PUSH1 0x0 DUP1 REVERT JUMPDEST POP JUMP JUMPDEST PUSH2 0x3D8 DUP2 PUSH2 0x380 JUMP JUMPDEST DUP2 EQ PUSH2 0x3E3 JUMPI PUSH1 0x0 DUP1 REVERT JUMPDEST POP JUMP INVALID PUSH1 0x80 PUSH1 0x40 MSTORE CALLVALUE DUP1 ISZERO PUSH2 0x10 JUMPI PUSH1 0x0 DUP1 REVERT JUMPDEST POP PUSH2 0x423 DUP1 PUSH2 0x20 PUSH1 0x0 CODECOPY PUSH1 0x0 RETURN INVALID PUSH1 0x80 PUSH1 0x40 MSTORE CALLVALUE DUP1 ISZERO PUSH2 0x10 JUMPI PUSH1 0x0 DUP1 REVERT JUMPDEST POP PUSH1 0x4 CALLDATASIZE LT PUSH2 0x2B JUMPI PUSH1 0x0 CALLDATALOAD PUSH1 0xE0 SHR DUP1 PUSH4 0x59E2D4A7 EQ PUSH2 0x30 JUMPI JUMPDEST PUSH1 0x0 DUP1 REVERT JUMPDEST PUSH2 0x4A PUSH1 0x4 DUP1 CALLDATASIZE SUB DUP2 ADD SWAP1 PUSH2 0x45 SWAP2 SWAP1 PUSH2 0x245 JUMP JUMPDEST PUSH2 0x4C JUMP JUMPDEST STOP JUMPDEST PUSH1 0x0 PUSH20 0xD9145CCE52D386F254917E481EB44E9943F39138 SWAP1 POP DUP1 PUSH20 0xFFFFFFFFFFFFFFFFFFFFFFFFFFFFFFFFFFFFFFFF AND PUSH4 0x4E71D92D PUSH1 0x40 MLOAD DUP2 PUSH4 0xFFFFFFFF AND PUSH1 0xE0 SHL DUP2 MSTORE PUSH1 0x4 ADD PUSH1 0x0 PUSH1 0x40 MLOAD DUP1 DUP4 SUB DUP2 PUSH1 0x0 DUP8 DUP1 EXTCODESIZE ISZERO DUP1 ISZERO PUSH2 0xAD JUMPI PUSH1 0x0 DUP1 REVERT JUMPDEST POP GAS CALL ISZERO DUP1 ISZERO PUSH2 0xC1 JUMPI RETURNDATASIZE PUSH1 0x0 DUP1 RETURNDATACOPY RETURNDATASIZE PUSH1 0x0 REVERT JUMPDEST POP POP POP POP PUSH1 0x0 DUP2 PUSH20 0xFFFFFFFFFFFFFFFFFFFFFFFFFFFFFFFFFFFFFFFF AND PUSH4 0x70A08231 ADDRESS PUSH1 0x40 MLOAD DUP3 PUSH4 0xFFFFFFFF AND PUSH1 0xE0 SHL DUP2 MSTORE PUSH1 0x4 ADD PUSH2 0x100 SWAP2 SWAP1 PUSH2 0x2E0 JUMP JUMPDEST PUSH1 0x20 PUSH1 0x40 MLOAD DUP1 DUP4 SUB DUP2 DUP7 DUP1 EXTCODESIZE ISZERO DUP1 ISZERO PUSH2 0x118 JUMPI PUSH1 0x0 DUP1 REVERT JUMPDEST POP GAS STATICCALL ISZERO DUP1 ISZERO PUSH2 0x12C JUMPI RETURNDATASIZE PUSH1 0x0 DUP1 RETURNDATACOPY RETURNDATASIZE PUSH1 0x0 REVERT JUMPDEST POP POP POP POP PUSH1 0x40 MLOAD RETURNDATASIZE PUSH1 0x1F NOT PUSH1 0x1F DUP3 ADD AND DUP3 ADD DUP1 PUSH1 0x40 MSTORE POP DUP2 ADD SWAP1 PUSH2 0x150 SWAP2 SWAP1 PUSH2 0x272 JUMP JUMPDEST SWAP1 POP PUSH1 0x0 DUP2 GT PUSH2 0x195 JUMPI PUSH1 0x40 MLOAD PUSH32 0x8C379A000000000000000000000000000000000000000000000000000000000 DUP2 MSTORE PUSH1 0x4 ADD PUSH2 0x18C SWAP1 PUSH2 0x324 JUMP JUMPDEST PUSH1 0x40 MLOAD DUP1 SWAP2 SUB SWAP1 REVERT JUMPDEST DUP2 PUSH20 0xFFFFFFFFFFFFFFFFFFFFFFFFFFFFFFFFFFFFFFFF AND PUSH4 0xA9059CBB DUP5 DUP4 PUSH1 0x40 MLOAD DUP4 PUSH4 0xFFFFFFFF AND PUSH1 0xE0 SHL DUP2 MSTORE PUSH1 0x4 ADD PUSH2 0x1D0 SWAP3 SWAP2 SWAP1 PUSH2 0x2FB JUMP JUMPDEST PUSH1 0x0 PUSH1 0x40 MLOAD DUP1 DUP4 SUB DUP2 PUSH1 0x0 DUP8 DUP1 EXTCODESIZE ISZERO DUP1 ISZERO PUSH2 0x1EA JUMPI PUSH1 0x0 DUP1 REVERT JUMPDEST POP GAS CALL ISZERO DUP1 ISZERO PUSH2 0x1FE JUMPI RETURNDATASIZE PUSH1 0x0 DUP1 RETURNDATACOPY RETURNDATASIZE PUSH1 0x0 REVERT JUMPDEST POP POP POP POP CALLER PUSH20 0xFFFFFFFFFFFFFFFFFFFFFFFFFFFFFFFFFFFFFFFF AND SELFDESTRUCT JUMPDEST PUSH1 0x0 DUP2 CALLDATALOAD SWAP1 POP PUSH2 0x22A DUP2 PUSH2 0x3BF JUMP JUMPDEST SWAP3 SWAP2 POP POP JUMP JUMPDEST PUSH1 0x0 DUP2 MLOAD SWAP1 POP PUSH2 0x23F DUP2 PUSH2 0x3D6 JUMP JUMPDEST SWAP3 SWAP2 POP POP JUMP JUMPDEST PUSH1 0x0 PUSH1 0x20 DUP3 DUP5 SUB SLT ISZERO PUSH2 0x25B JUMPI PUSH2 0x25A PUSH2 0x391 JUMP JUMPDEST JUMPDEST PUSH1 0x0 PUSH2 0x269 DUP5 DUP3 DUP6 ADD PUSH2 0x21B JUMP JUMPDEST SWAP2 POP POP SWAP3 SWAP2 POP POP JUMP JUMPDEST PUSH1 0x0 PUSH1 0x20 DUP3 DUP5 SUB SLT ISZERO PUSH2 0x288 JUMPI PUSH2 0x287 PUSH2 0x391 JUMP JUMPDEST JUMPDEST PUSH1 0x0 PUSH2 0x296 DUP5 DUP3 DUP6 ADD PUSH2 0x230 JUMP JUMPDEST SWAP2 POP POP SWAP3 SWAP2 POP POP JUMP JUMPDEST PUSH2 0x2A8 DUP2 PUSH2 0x355 JUMP JUMPDEST DUP3 MSTORE POP POP JUMP JUMPDEST PUSH1 0x0 PUSH2 0x2BB PUSH1 0x5 DUP4 PUSH2 0x344 JUMP JUMPDEST SWAP2 POP PUSH2 0x2C6 DUP3 PUSH2 0x396 JUMP JUMPDEST PUSH1 0x20 DUP3 ADD SWAP1 POP SWAP2 SWAP1 POP JUMP JUMPDEST PUSH2 0x2DA DUP2 PUSH2 0x387 JUMP JUMPDEST DUP3 MSTORE POP POP JUMP JUMPDEST PUSH1 0x0 PUSH1 0x20 DUP3 ADD SWAP1 POP PUSH2 0x2F5 PUSH1 0x0 DUP4 ADD DUP5 PUSH2 0x29F JUMP JUMPDEST SWAP3 SWAP2 POP POP JUMP JUMPDEST PUSH1 0x0 PUSH1 0x40 DUP3 ADD SWAP1 POP PUSH2 0x310 PUSH1 0x0 DUP4 ADD DUP6 PUSH2 0x29F JUMP JUMPDEST PUSH2 0x31D PUSH1 0x20 DUP4 ADD DUP5 PUSH2 0x2D1 JUMP JUMPDEST SWAP4 SWAP3 POP POP POP JUMP JUMPDEST PUSH1 0x0 PUSH1 0x20 DUP3 ADD SWAP1 POP DUP2 DUP2 SUB PUSH1 0x0 DUP4 ADD MSTORE PUSH2 0x33D DUP2 PUSH2 0x2AE JUMP JUMPDEST SWAP1 POP SWAP2 SWAP1 POP JUMP JUMPDEST PUSH1 0x0 DUP3 DUP3 MSTORE PUSH1 0x20 DUP3 ADD SWAP1 POP SWAP3 SWAP2 POP POP JUMP JUMPDEST PUSH1 0x0 PUSH2 0x360 DUP3 PUSH2 0x367 JUMP JUMPDEST SWAP1 POP SWAP2 SWAP1 POP JUMP JUMPDEST PUSH1 0x0 PUSH20 0xFFFFFFFFFFFFFFFFFFFFFFFFFFFFFFFFFFFFFFFF DUP3 AND SWAP1 POP SWAP2 SWAP1 POP JUMP JUMPDEST PUSH1 0x0 DUP2 SWAP1 POP SWAP2 SWAP1 POP JUMP JUMPDEST PUSH1 0x0 DUP1 REVERT JUMPDEST PUSH32 0x4F68206E6F000000000000000000000000000000000000000000000000000000 PUSH1 0x0 DUP3 ADD MSTORE POP JUMP JUMPDEST PUSH2 0x3C8 DUP2 PUSH2 0x355 JUMP JUMPDEST DUP2 EQ PUSH2 0x3D3 JUMPI PUSH1 0x0 DUP1 REVERT JUMPDEST POP JUMP JUMPDEST PUSH2 0x3DF DUP2 PUSH2 0x387 JUMP JUMPDEST DUP2 EQ PUSH2 0x3EA JUMPI PUSH1 0x0 DUP1 REVERT JUMPDEST POP JUMP INVALID LOG2 PUSH5 0x6970667358 0x22 SLT KECCAK256 0xC9 SHL RETURNDATACOPY PUSH23 0x8DC71F6021E79262596C6D70C9D1D8ECFD3963193CA30C BASEFEE SWAP3 0xE1 PUSH16 0x8064736F6C63430008070033A2646970 PUSH7 0x7358221220850C 0xC7 0xC2 JUMPDEST 0xEA 0xF7 0xEA 0xD7 CALLDATASIZE 0xE6 CALLDATASIZE MSTORE 0x2F CREATE2 GT STOP REVERT PUSH3 0x6B5160 PUSH9 0x2EBF92C7777DDAFB5E PUSH5 0x736F6C6343 STOP ADDMOD SMOD STOP CALLER "
		},
		"gasEstimates": {
			"creation": {
				"codeDepositCost": "1780400",
				"executionCost": "23983",
				"totalCost": "1804383"
			},
			"external": {
				"abiTest()": "infinite",
				"addressForce(uint256)": "infinite",
				"addressForceAssembly(uint256)": "infinite",
				"callClaim(uint256)": "infinite",
				"callClaim2(uint256)": "infinite",
				"keccakTest()": "infinite",
				"newContract(bytes32)": "infinite",
				"newContract(uint256)": "infinite",
				"newContractAssembly(bytes32)": "infinite",
				"newContractAssembly(uint256)": "infinite",
				"testForecastAddress(uint256)": "infinite",
				"uint256ToBytes32(uint256)": "infinite"
			},
			"internal": {
				"addressto(address,uint256)": "infinite",
				"clone(address)": "infinite",
				"cloneDeterministic(address,bytes32)": "infinite",
				"predictDeterministicAddress(address,bytes32,address)": "infinite"
			}
		},
		"methodIdentifiers": {
			"abiTest()": "6352a29b",
			"addressForce(uint256)": "1dbb3c61",
			"addressForceAssembly(uint256)": "afd93309",
			"callClaim(uint256)": "50edd1a7",
			"callClaim2(uint256)": "e36ae924",
			"keccakTest()": "c627136c",
			"newContract(bytes32)": "b93c893d",
			"newContract(uint256)": "70d1abe1",
			"newContractAssembly(bytes32)": "188ff339",
			"newContractAssembly(uint256)": "bdf90933",
			"testForecastAddress(uint256)": "a96a7f11",
			"uint256ToBytes32(uint256)": "5edb2fb3"
		}
	},
	"abi": [
		{
			"inputs": [],
			"name": "abiTest",
			"outputs": [
				{
					"internalType": "bytes",
					"name": "result1",
					"type": "bytes"
				},
				{
					"internalType": "bytes",
					"name": "result2",
					"type": "bytes"
				}
			],
			"stateMutability": "pure",
			"type": "function"
		},
		{
			"inputs": [
				{
					"internalType": "uint256",
					"name": "salt",
					"type": "uint256"
				}
			],
			"name": "addressForce",
			"outputs": [
				{
					"internalType": "address",
					"name": "result",
					"type": "address"
				}
			],
			"stateMutability": "view",
			"type": "function"
		},
		{
			"inputs": [
				{
					"internalType": "uint256",
					"name": "salt",
					"type": "uint256"
				}
			],
			"name": "addressForceAssembly",
			"outputs": [
				{
					"internalType": "address",
					"name": "result",
					"type": "address"
				}
			],
			"stateMutability": "view",
			"type": "function"
		},
		{
			"inputs": [
				{
					"internalType": "uint256",
					"name": "times",
					"type": "uint256"
				}
			],
			"name": "callClaim",
			"outputs": [],
			"stateMutability": "nonpayable",
			"type": "function"
		},
		{
			"inputs": [
				{
					"internalType": "uint256",
					"name": "times",
					"type": "uint256"
				}
			],
			"name": "callClaim2",
			"outputs": [],
			"stateMutability": "nonpayable",
			"type": "function"
		},
		{
			"inputs": [],
			"name": "keccakTest",
			"outputs": [
				{
					"internalType": "bytes32",
					"name": "result1",
					"type": "bytes32"
				},
				{
					"internalType": "bytes32",
					"name": "result2",
					"type": "bytes32"
				}
			],
			"stateMutability": "pure",
			"type": "function"
		},
		{
			"inputs": [
				{
					"internalType": "uint256",
					"name": "_salt",
					"type": "uint256"
				}
			],
			"name": "newContract",
			"outputs": [
				{
					"internalType": "address",
					"name": "result",
					"type": "address"
				}
			],
			"stateMutability": "nonpayable",
			"type": "function"
		},
		{
			"inputs": [
				{
					"internalType": "bytes32",
					"name": "_salt",
					"type": "bytes32"
				}
			],
			"name": "newContract",
			"outputs": [
				{
					"internalType": "address",
					"name": "result",
					"type": "address"
				}
			],
			"stateMutability": "nonpayable",
			"type": "function"
		},
		{
			"inputs": [
				{
					"internalType": "bytes32",
					"name": "_salt",
					"type": "bytes32"
				}
			],
			"name": "newContractAssembly",
			"outputs": [
				{
					"internalType": "address",
					"name": "result",
					"type": "address"
				}
			],
			"stateMutability": "nonpayable",
			"type": "function"
		},
		{
			"inputs": [
				{
					"internalType": "uint256",
					"name": "salt",
					"type": "uint256"
				}
			],
			"name": "newContractAssembly",
			"outputs": [
				{
					"internalType": "address",
					"name": "result",
					"type": "address"
				}
			],
			"stateMutability": "nonpayable",
			"type": "function"
		},
		{
			"inputs": [
				{
					"internalType": "uint256",
					"name": "salt",
					"type": "uint256"
				}
			],
			"name": "testForecastAddress",
			"outputs": [
				{
					"internalType": "bytes32",
					"name": "hash",
					"type": "bytes32"
				},
				{
					"internalType": "address",
					"name": "_address",
					"type": "address"
				},
				{
					"internalType": "address",
					"name": "_addressCreate2",
					"type": "address"
				}
			],
			"stateMutability": "nonpayable",
			"type": "function"
		},
		{
			"inputs": [
				{
					"internalType": "uint256",
					"name": "value",
					"type": "uint256"
				}
			],
			"name": "uint256ToBytes32",
			"outputs": [
				{
					"internalType": "bytes32",
					"name": "",
					"type": "bytes32"
				}
			],
			"stateMutability": "pure",
			"type": "function"
		}
	]
}