{
  "address": "0x82ca5FCd9eF2D6cEEb49a057bb11c3E091560979",
  "abi": [
    {
      "inputs": [],
      "stateMutability": "nonpayable",
      "type": "constructor"
    },
    {
      "anonymous": false,
      "inputs": [
        {
          "indexed": true,
          "internalType": "address",
          "name": "owner",
          "type": "address"
        },
        {
          "indexed": true,
          "internalType": "address",
          "name": "spender",
          "type": "address"
        },
        {
          "indexed": false,
          "internalType": "uint256",
          "name": "value",
          "type": "uint256"
        }
      ],
      "name": "Approval",
      "type": "event"
    },
    {
      "anonymous": false,
      "inputs": [
        {
          "indexed": true,
          "internalType": "address",
          "name": "previousPendingOwner",
          "type": "address"
        },
        {
          "indexed": true,
          "internalType": "address",
          "name": "newPendingOwner",
          "type": "address"
        }
      ],
      "name": "ChangePendingOwner",
      "type": "event"
    },
    {
      "anonymous": false,
      "inputs": [
        {
          "indexed": true,
          "internalType": "address",
          "name": "delegator",
          "type": "address"
        },
        {
          "indexed": true,
          "internalType": "address",
          "name": "fromDelegate",
          "type": "address"
        },
        {
          "indexed": true,
          "internalType": "address",
          "name": "toDelegate",
          "type": "address"
        }
      ],
      "name": "DelegateChanged",
      "type": "event"
    },
    {
      "anonymous": false,
      "inputs": [
        {
          "indexed": true,
          "internalType": "address",
          "name": "delegate",
          "type": "address"
        },
        {
          "indexed": false,
          "internalType": "uint256",
          "name": "previousBalance",
          "type": "uint256"
        },
        {
          "indexed": false,
          "internalType": "uint256",
          "name": "newBalance",
          "type": "uint256"
        }
      ],
      "name": "DelegateVotesChanged",
      "type": "event"
    },
    {
      "anonymous": false,
      "inputs": [
        {
          "indexed": true,
          "internalType": "address",
          "name": "minter",
          "type": "address"
        },
        {
          "indexed": false,
          "internalType": "uint256",
          "name": "maxAmount",
          "type": "uint256"
        }
      ],
      "name": "MinterChanged",
      "type": "event"
    },
    {
      "anonymous": false,
      "inputs": [
        {
          "indexed": true,
          "internalType": "address",
          "name": "previousOwner",
          "type": "address"
        },
        {
          "indexed": true,
          "internalType": "address",
          "name": "newOwner",
          "type": "address"
        }
      ],
      "name": "OwnershipTransferred",
      "type": "event"
    },
    {
      "anonymous": false,
      "inputs": [
        {
          "indexed": true,
          "internalType": "address",
          "name": "from",
          "type": "address"
        },
        {
          "indexed": true,
          "internalType": "address",
          "name": "to",
          "type": "address"
        },
        {
          "indexed": false,
          "internalType": "uint256",
          "name": "value",
          "type": "uint256"
        }
      ],
      "name": "Transfer",
      "type": "event"
    },
    {
      "inputs": [],
      "name": "DELEGATION_TYPEHASH",
      "outputs": [
        {
          "internalType": "bytes32",
          "name": "",
          "type": "bytes32"
        }
      ],
      "stateMutability": "view",
      "type": "function"
    },
    {
      "inputs": [],
      "name": "DOMAIN_TYPEHASH",
      "outputs": [
        {
          "internalType": "bytes32",
          "name": "",
          "type": "bytes32"
        }
      ],
      "stateMutability": "view",
      "type": "function"
    },
    {
      "inputs": [],
      "name": "MAX_SUPPLY",
      "outputs": [
        {
          "internalType": "uint256",
          "name": "",
          "type": "uint256"
        }
      ],
      "stateMutability": "view",
      "type": "function"
    },
    {
      "inputs": [],
      "name": "acceptOwner",
      "outputs": [],
      "stateMutability": "nonpayable",
      "type": "function"
    },
    {
      "inputs": [
        {
          "internalType": "address",
          "name": "_minter",
          "type": "address"
        },
        {
          "internalType": "uint256",
          "name": "_maxAmount",
          "type": "uint256"
        }
      ],
      "name": "addMinter",
      "outputs": [],
      "stateMutability": "nonpayable",
      "type": "function"
    },
    {
      "inputs": [
        {
          "internalType": "address",
          "name": "owner",
          "type": "address"
        },
        {
          "internalType": "address",
          "name": "spender",
          "type": "address"
        }
      ],
      "name": "allowance",
      "outputs": [
        {
          "internalType": "uint256",
          "name": "",
          "type": "uint256"
        }
      ],
      "stateMutability": "view",
      "type": "function"
    },
    {
      "inputs": [
        {
          "internalType": "address",
          "name": "spender",
          "type": "address"
        },
        {
          "internalType": "uint256",
          "name": "amount",
          "type": "uint256"
        }
      ],
      "name": "approve",
      "outputs": [
        {
          "internalType": "bool",
          "name": "",
          "type": "bool"
        }
      ],
      "stateMutability": "nonpayable",
      "type": "function"
    },
    {
      "inputs": [
        {
          "internalType": "address",
          "name": "account",
          "type": "address"
        }
      ],
      "name": "balanceOf",
      "outputs": [
        {
          "internalType": "uint256",
          "name": "",
          "type": "uint256"
        }
      ],
      "stateMutability": "view",
      "type": "function"
    },
    {
      "inputs": [],
      "name": "cap",
      "outputs": [
        {
          "internalType": "uint256",
          "name": "",
          "type": "uint256"
        }
      ],
      "stateMutability": "view",
      "type": "function"
    },
    {
      "inputs": [
        {
          "internalType": "address",
          "name": "",
          "type": "address"
        },
        {
          "internalType": "uint32",
          "name": "",
          "type": "uint32"
        }
      ],
      "name": "checkpoints",
      "outputs": [
        {
          "internalType": "uint32",
          "name": "fromBlock",
          "type": "uint32"
        },
        {
          "internalType": "uint256",
          "name": "votes",
          "type": "uint256"
        }
      ],
      "stateMutability": "view",
      "type": "function"
    },
    {
      "inputs": [],
      "name": "decimals",
      "outputs": [
        {
          "internalType": "uint8",
          "name": "",
          "type": "uint8"
        }
      ],
      "stateMutability": "view",
      "type": "function"
    },
    {
      "inputs": [
        {
          "internalType": "address",
          "name": "spender",
          "type": "address"
        },
        {
          "internalType": "uint256",
          "name": "subtractedValue",
          "type": "uint256"
        }
      ],
      "name": "decreaseAllowance",
      "outputs": [
        {
          "internalType": "bool",
          "name": "",
          "type": "bool"
        }
      ],
      "stateMutability": "nonpayable",
      "type": "function"
    },
    {
      "inputs": [
        {
          "internalType": "address",
          "name": "_minter",
          "type": "address"
        }
      ],
      "name": "delMinter",
      "outputs": [],
      "stateMutability": "nonpayable",
      "type": "function"
    },
    {
      "inputs": [
        {
          "internalType": "address",
          "name": "delegatee",
          "type": "address"
        }
      ],
      "name": "delegate",
      "outputs": [],
      "stateMutability": "nonpayable",
      "type": "function"
    },
    {
      "inputs": [
        {
          "internalType": "address",
          "name": "delegatee",
          "type": "address"
        },
        {
          "internalType": "uint256",
          "name": "nonce",
          "type": "uint256"
        },
        {
          "internalType": "uint256",
          "name": "expiry",
          "type": "uint256"
        },
        {
          "internalType": "uint8",
          "name": "v",
          "type": "uint8"
        },
        {
          "internalType": "bytes32",
          "name": "r",
          "type": "bytes32"
        },
        {
          "internalType": "bytes32",
          "name": "s",
          "type": "bytes32"
        }
      ],
      "name": "delegateBySig",
      "outputs": [],
      "stateMutability": "nonpayable",
      "type": "function"
    },
    {
      "inputs": [
        {
          "internalType": "address",
          "name": "delegator",
          "type": "address"
        }
      ],
      "name": "delegates",
      "outputs": [
        {
          "internalType": "address",
          "name": "",
          "type": "address"
        }
      ],
      "stateMutability": "view",
      "type": "function"
    },
    {
      "inputs": [
        {
          "internalType": "address",
          "name": "account",
          "type": "address"
        }
      ],
      "name": "getCurrentVotes",
      "outputs": [
        {
          "internalType": "uint256",
          "name": "",
          "type": "uint256"
        }
      ],
      "stateMutability": "view",
      "type": "function"
    },
    {
      "inputs": [
        {
          "internalType": "address",
          "name": "account",
          "type": "address"
        },
        {
          "internalType": "uint256",
          "name": "blockNumber",
          "type": "uint256"
        }
      ],
      "name": "getPriorVotes",
      "outputs": [
        {
          "internalType": "uint256",
          "name": "",
          "type": "uint256"
        }
      ],
      "stateMutability": "view",
      "type": "function"
    },
    {
      "inputs": [
        {
          "internalType": "address",
          "name": "spender",
          "type": "address"
        },
        {
          "internalType": "uint256",
          "name": "addedValue",
          "type": "uint256"
        }
      ],
      "name": "increaseAllowance",
      "outputs": [
        {
          "internalType": "bool",
          "name": "",
          "type": "bool"
        }
      ],
      "stateMutability": "nonpayable",
      "type": "function"
    },
    {
      "inputs": [
        {
          "internalType": "address",
          "name": "to",
          "type": "address"
        },
        {
          "internalType": "uint256",
          "name": "amount",
          "type": "uint256"
        }
      ],
      "name": "mint",
      "outputs": [
        {
          "internalType": "uint256",
          "name": "",
          "type": "uint256"
        }
      ],
      "stateMutability": "nonpayable",
      "type": "function"
    },
    {
      "inputs": [
        {
          "internalType": "address",
          "name": "",
          "type": "address"
        }
      ],
      "name": "minters",
      "outputs": [
        {
          "internalType": "uint256",
          "name": "",
          "type": "uint256"
        }
      ],
      "stateMutability": "view",
      "type": "function"
    },
    {
      "inputs": [],
      "name": "name",
      "outputs": [
        {
          "internalType": "string",
          "name": "",
          "type": "string"
        }
      ],
      "stateMutability": "view",
      "type": "function"
    },
    {
      "inputs": [
        {
          "internalType": "address",
          "name": "",
          "type": "address"
        }
      ],
      "name": "nonces",
      "outputs": [
        {
          "internalType": "uint256",
          "name": "",
          "type": "uint256"
        }
      ],
      "stateMutability": "view",
      "type": "function"
    },
    {
      "inputs": [
        {
          "internalType": "address",
          "name": "",
          "type": "address"
        }
      ],
      "name": "numCheckpoints",
      "outputs": [
        {
          "internalType": "uint32",
          "name": "",
          "type": "uint32"
        }
      ],
      "stateMutability": "view",
      "type": "function"
    },
    {
      "inputs": [],
      "name": "owner",
      "outputs": [
        {
          "internalType": "address",
          "name": "",
          "type": "address"
        }
      ],
      "stateMutability": "view",
      "type": "function"
    },
    {
      "inputs": [],
      "name": "pendingOwner",
      "outputs": [
        {
          "internalType": "address",
          "name": "",
          "type": "address"
        }
      ],
      "stateMutability": "view",
      "type": "function"
    },
    {
      "inputs": [],
      "name": "renounceOwnership",
      "outputs": [],
      "stateMutability": "nonpayable",
      "type": "function"
    },
    {
      "inputs": [
        {
          "internalType": "address",
          "name": "pendingOwner_",
          "type": "address"
        }
      ],
      "name": "setPendingOwner",
      "outputs": [],
      "stateMutability": "nonpayable",
      "type": "function"
    },
    {
      "inputs": [],
      "name": "symbol",
      "outputs": [
        {
          "internalType": "string",
          "name": "",
          "type": "string"
        }
      ],
      "stateMutability": "view",
      "type": "function"
    },
    {
      "inputs": [],
      "name": "totalSupply",
      "outputs": [
        {
          "internalType": "uint256",
          "name": "",
          "type": "uint256"
        }
      ],
      "stateMutability": "view",
      "type": "function"
    },
    {
      "inputs": [
        {
          "internalType": "address",
          "name": "recipient",
          "type": "address"
        },
        {
          "internalType": "uint256",
          "name": "amount",
          "type": "uint256"
        }
      ],
      "name": "transfer",
      "outputs": [
        {
          "internalType": "bool",
          "name": "",
          "type": "bool"
        }
      ],
      "stateMutability": "nonpayable",
      "type": "function"
    },
    {
      "inputs": [
        {
          "internalType": "address",
          "name": "sender",
          "type": "address"
        },
        {
          "internalType": "address",
          "name": "recipient",
          "type": "address"
        },
        {
          "internalType": "uint256",
          "name": "amount",
          "type": "uint256"
        }
      ],
      "name": "transferFrom",
      "outputs": [
        {
          "internalType": "bool",
          "name": "",
          "type": "bool"
        }
      ],
      "stateMutability": "nonpayable",
      "type": "function"
    }
  ],
  "transactionHash": "0x0e7a0616706ea660f0546b202217b2569143b8790ea109ce47c6ab5bdcd38131",
  "args": [],
  "solcInputHash": "a48360f4c85458219f0e0ba11a25c0c2",
  "bytecode": "0x60806040523480156200001157600080fd5b506040805180820182526004808252634b494b4960e01b60208084018281528551808701909652928552840152815133936a52b7d2dcc80cd2e4000000939290916200006091600391620002e0565b50805162000076906004906020840190620002e0565b50506005805460ff191660121790555080620000d9576040805162461bcd60e51b815260206004820152601560248201527f45524332304361707065643a2063617020697320300000000000000000000000604482015290519081900360640190fd5b6006556001600160a01b038116620000f857620000f562000156565b90505b600780546001600160a01b0319166001600160a01b0383169081179091556040516000907f8be0079c531659141344cd1fd0a4f28419497f9722a3daafe3b4186f6b6457e0908290a35062000150336000196200015a565b6200038c565b3390565b6200016462000156565b6001600160a01b031662000177620002d1565b6001600160a01b031614620001d3576040805162461bcd60e51b815260206004820181905260248201527f4f776e61626c653a2063616c6c6572206973206e6f7420746865206f776e6572604482015290519081900360640190fd5b6001600160a01b03821662000220576040805162461bcd60e51b815260206004820152600e60248201526d34b63632b3b0b61036b4b73a32b960911b604482015290519081900360640190fd5b6001600160a01b038216600090815260096020526040902054156200027d576040805162461bcd60e51b815260206004820152600e60248201526d30b63932b0b23c9036b4b73a32b960911b604482015290519081900360640190fd5b6001600160a01b038216600081815260096020908152604091829020849055815184815291517fd75fd184f209746726e627e2bd2ed917eeb5f5b35120d7e89e4df569e6bb16879281900390910190a25050565b6007546001600160a01b031690565b828054600181600116156101000203166002900490600052602060002090601f01602090048101928262000318576000855562000363565b82601f106200033357805160ff191683800117855562000363565b8280016001018555821562000363579182015b828111156200036357825182559160200191906001019062000346565b506200037192915062000375565b5090565b5b8082111562000371576000815560010162000376565b612142806200039c6000396000f3fe608060405234801561001057600080fd5b50600436106101f05760003560e01c8063761248b41161010f578063c3cda520116100a2578063e7a324dc11610071578063e7a324dc1461063c578063ebbc496514610644578063f1127ed81461064c578063f46eccc41461069e576101f0565b8063c3cda52014610599578063c42069ec146105e0578063dd62ed3e14610606578063e30c397814610634576101f0565b806395d89b41116100de57806395d89b4114610513578063a457c2d71461051b578063a9059cbb14610547578063b4b5ea5714610573576101f0565b8063761248b41461048d578063782d6fe1146104b95780637ecebe00146104e55780638da5cb5b1461050b576101f0565b8063355274ea116101875780635c19a95c116101565780635c19a95c146103fa5780636fcfff451461042057806370a082311461045f578063715018a614610485576101f0565b8063355274ea14610358578063395093511461036057806340c10f191461038c578063587cde1e146103b8576101f0565b806323338b88116101c357806323338b88146102d457806323b872dd146102fc578063313ce5671461033257806332cb6b0c14610350576101f0565b806306fdde03146101f5578063095ea7b31461027257806318160ddd146102b257806320606b70146102cc575b600080fd5b6101fd6106c4565b6040805160208082528351818301528351919283929083019185019080838360005b8381101561023757818101518382015260200161021f565b50505050905090810190601f1680156102645780820380516001836020036101000a031916815260200191505b509250505060405180910390f35b61029e6004803603604081101561028857600080fd5b506001600160a01b03813516906020013561075a565b604080519115158252519081900360200190f35b6102ba610778565b60408051918252519081900360200190f35b6102ba61077e565b6102fa600480360360208110156102ea57600080fd5b50356001600160a01b03166107a2565b005b61029e6004803603606081101561031257600080fd5b506001600160a01b038135811691602081013590911690604001356108f8565b61033a61097f565b6040805160ff9092168252519081900360200190f35b6102ba610988565b6102ba610997565b61029e6004803603604081101561037657600080fd5b506001600160a01b03813516906020013561099d565b6102ba600480360360408110156103a257600080fd5b506001600160a01b0381351690602001356109eb565b6103de600480360360208110156103ce57600080fd5b50356001600160a01b0316610ad1565b604080516001600160a01b039092168252519081900360200190f35b6102fa6004803603602081101561041057600080fd5b50356001600160a01b0316610aef565b6104466004803603602081101561043657600080fd5b50356001600160a01b0316610afc565b6040805163ffffffff9092168252519081900360200190f35b6102ba6004803603602081101561047557600080fd5b50356001600160a01b0316610b14565b6102fa610b2f565b6102fa600480360360408110156104a357600080fd5b506001600160a01b038135169060200135610bab565b6102ba600480360360408110156104cf57600080fd5b506001600160a01b038135169060200135610d09565b6102ba600480360360208110156104fb57600080fd5b50356001600160a01b0316610f0c565b6103de610f1e565b6101fd610f2d565b61029e6004803603604081101561053157600080fd5b506001600160a01b038135169060200135610f8e565b61029e6004803603604081101561055d57600080fd5b506001600160a01b038135169060200135610ff6565b6102ba6004803603602081101561058957600080fd5b50356001600160a01b031661100a565b6102fa600480360360c08110156105af57600080fd5b506001600160a01b038135169060208101359060408101359060ff6060820135169060808101359060a0013561106e565b6102fa600480360360208110156105f657600080fd5b50356001600160a01b03166112e1565b6102ba6004803603604081101561061c57600080fd5b506001600160a01b03813581169160200135166113e4565b6103de61140f565b6102ba61141e565b6102fa611442565b61067e6004803603604081101561066257600080fd5b5080356001600160a01b0316906020013563ffffffff1661153e565b6040805163ffffffff909316835260208301919091528051918290030190f35b6102ba600480360360208110156106b457600080fd5b50356001600160a01b031661156b565b60038054604080516020601f60026000196101006001881615020190951694909404938401819004810282018101909252828152606093909290918301828280156107505780601f1061072557610100808354040283529160200191610750565b820191906000526020600020905b81548152906001019060200180831161073357829003601f168201915b5050505050905090565b600061076e61076761157d565b8484611581565b5060015b92915050565b60025490565b7f8cad95687ba82c2ce50e74f7b754645e5117c3a5bec8151c0726d5857980a86681565b6107aa61157d565b6001600160a01b03166107bb610f1e565b6001600160a01b031614610804576040805162461bcd60e51b81526020600482018190526024820152600080516020611fe6833981519152604482015290519081900360640190fd5b6001600160a01b038116610850576040805162461bcd60e51b815260206004820152600e60248201526d34b63632b3b0b61036b4b73a32b960911b604482015290519081900360640190fd5b6001600160a01b0381166000908152600960205260409020546108a7576040805162461bcd60e51b815260206004820152600a6024820152693737ba1036b4b73a32b960b11b604482015290519081900360640190fd5b6001600160a01b03811660008181526009602090815260408083208390558051928352517fd75fd184f209746726e627e2bd2ed917eeb5f5b35120d7e89e4df569e6bb16879281900390910190a250565b600061090584848461166d565b6109758461091161157d565b61097085604051806060016040528060288152602001611fbe602891396001600160a01b038a1660009081526001602052604081209061094f61157d565b6001600160a01b0316815260208101919091526040016000205491906117c8565b611581565b5060019392505050565b60055460ff1690565b6a52b7d2dcc80cd2e400000081565b60065490565b600061076e6109aa61157d565b8461097085600160006109bb61157d565b6001600160a01b03908116825260208083019390935260409182016000908120918c16815292529020549061185f565b336000908152600960205260408120548290811115610a3b5760405162461bcd60e51b81526004018080602001828103825260228152602001806120066022913960400191505060405180910390fd5b610a58610a46610778565b6a52b7d2dcc80cd2e4000000906118b9565b831115610a685760009150610aca565b33600090815260096020526040902054831115610a92573360009081526009602052604090205492505b33600090815260096020526040902054610aac90846118b9565b33600090815260096020526040902055610ac68484611916565b8291505b5092915050565b6001600160a01b039081166000908152600a60205260409020541690565b610af93382611a06565b50565b600c6020526000908152604090205463ffffffff1681565b6001600160a01b031660009081526020819052604090205490565b610b3761157d565b6001600160a01b0316610b48610f1e565b6001600160a01b031614610b91576040805162461bcd60e51b81526020600482018190526024820152600080516020611fe6833981519152604482015290519081900360640190fd5b610ba1610b9c610f1e565b6107a2565b610ba9611a9b565b565b610bb361157d565b6001600160a01b0316610bc4610f1e565b6001600160a01b031614610c0d576040805162461bcd60e51b81526020600482018190526024820152600080516020611fe6833981519152604482015290519081900360640190fd5b6001600160a01b038216610c59576040805162461bcd60e51b815260206004820152600e60248201526d34b63632b3b0b61036b4b73a32b960911b604482015290519081900360640190fd5b6001600160a01b03821660009081526009602052604090205415610cb5576040805162461bcd60e51b815260206004820152600e60248201526d30b63932b0b23c9036b4b73a32b960911b604482015290519081900360640190fd5b6001600160a01b038216600081815260096020908152604091829020849055815184815291517fd75fd184f209746726e627e2bd2ed917eeb5f5b35120d7e89e4df569e6bb16879281900390910190a25050565b6000438210610d495760405162461bcd60e51b81526004018080602001828103825260278152602001806120286027913960400191505060405180910390fd5b6001600160a01b0383166000908152600c602052604090205463ffffffff1680610d77576000915050610772565b6001600160a01b0384166000908152600b6020908152604080832063ffffffff600019860181168552925290912054168310610de6576001600160a01b0384166000908152600b602090815260408083206000199490940163ffffffff16835292905220600101549050610772565b6001600160a01b0384166000908152600b6020908152604080832083805290915290205463ffffffff16831015610e21576000915050610772565b600060001982015b8163ffffffff168163ffffffff161115610ed5576000600263ffffffff848403166001600160a01b0389166000908152600b6020908152604080832094909304860363ffffffff8181168452948252918390208351808501909452805490941680845260019094015490830152925090871415610eb0576020015194506107729350505050565b805163ffffffff16871115610ec757819350610ece565b6001820392505b5050610e29565b506001600160a01b0385166000908152600b6020908152604080832063ffffffff9094168352929052206001015491505092915050565b600d6020526000908152604090205481565b6007546001600160a01b031690565b60048054604080516020601f60026000196101006001881615020190951694909404938401819004810282018101909252828152606093909290918301828280156107505780601f1061072557610100808354040283529160200191610750565b600061076e610f9b61157d565b84610970856040518060600160405280602581526020016120e86025913960016000610fc561157d565b6001600160a01b03908116825260208083019390935260409182016000908120918d168152925290205491906117c8565b600061076e61100361157d565b848461166d565b6001600160a01b0381166000908152600c602052604081205463ffffffff1680611035576000611067565b6001600160a01b0383166000908152600b6020908152604080832063ffffffff60001986011684529091529020600101545b9392505050565b60007f8cad95687ba82c2ce50e74f7b754645e5117c3a5bec8151c0726d5857980a8666110996106c4565b805190602001206110a8611ba0565b60408051602080820195909552808201939093526060830191909152306080808401919091528151808403909101815260a0830182528051908401207fe48329057bfd03d55e49b547132e39cffd9c1820ad7b9d4c5307691425d15adf60c08401526001600160a01b038b1660e084015261010083018a90526101208084018a9052825180850390910181526101408401835280519085012061190160f01b6101608501526101628401829052610182808501829052835180860390910181526101a285018085528151918701919091206000918290526101c2860180865281905260ff8b166101e287015261020286018a90526102228601899052935192965090949293909260019261024280840193601f198301929081900390910190855afa1580156111db573d6000803e3d6000fd5b5050604051601f1901519150506001600160a01b03811661122d5760405162461bcd60e51b8152600401808060200182810382526026815260200180611ef66026913960400191505060405180910390fd5b6001600160a01b0381166000908152600d60205260409020805460018101909155891461128b5760405162461bcd60e51b8152600401808060200182810382526022815260200180611eb16022913960400191505060405180910390fd5b874211156112ca5760405162461bcd60e51b8152600401808060200182810382526026815260200180611f3e6026913960400191505060405180910390fd5b6112d4818b611a06565b505050505b505050505050565b6112e961157d565b6001600160a01b03166112fa610f1e565b6001600160a01b031614611343576040805162461bcd60e51b81526020600482018190526024820152600080516020611fe6833981519152604482015290519081900360640190fd5b6001600160a01b0381166113885760405162461bcd60e51b81526004018080602001828103825260298152602001806120bf6029913960400191505060405180910390fd5b6008546040516001600160a01b038084169216907f4465959e7ec1f32e3ebd831ac2459ad6ef4b1d54a83f108a7068e69e62f0702f90600090a3600880546001600160a01b0319166001600160a01b0392909216919091179055565b6001600160a01b03918216600090815260016020908152604080832093909416825291909152205490565b6008546001600160a01b031690565b7fe48329057bfd03d55e49b547132e39cffd9c1820ad7b9d4c5307691425d15adf81565b61144a61157d565b6001600160a01b031661145b61140f565b6001600160a01b0316146114a05760405162461bcd60e51b81526004018080602001828103825260278152602001806120746027913960400191505060405180910390fd5b6008546007546040516001600160a01b0392831692909116907f8be0079c531659141344cd1fd0a4f28419497f9722a3daafe3b4186f6b6457e090600090a3600854600780546001600160a01b0319166001600160a01b039092169182179055604051600091907f4465959e7ec1f32e3ebd831ac2459ad6ef4b1d54a83f108a7068e69e62f0702f908390a3600880546001600160a01b0319169055565b600b6020908152600092835260408084209091529082529020805460019091015463ffffffff9091169082565b60096020526000908152604090205481565b3390565b6001600160a01b0383166115c65760405162461bcd60e51b815260040180806020018281038252602481526020018061209b6024913960400191505060405180910390fd5b6001600160a01b03821661160b5760405162461bcd60e51b8152600401808060200182810382526022815260200180611f1c6022913960400191505060405180910390fd5b6001600160a01b03808416600081815260016020908152604080832094871680845294825291829020859055815185815291517f8c5be1e5ebec7d5bd14f71427d1e84f3dd0314c0f7b2291e5b200ac8c7c3b9259281900390910190a3505050565b6001600160a01b0383166116b25760405162461bcd60e51b815260040180806020018281038252602581526020018061204f6025913960400191505060405180910390fd5b6001600160a01b0382166116f75760405162461bcd60e51b8152600401808060200182810382526023815260200180611ed36023913960400191505060405180910390fd5b611702838383611ba4565b61173f81604051806060016040528060268152602001611f64602691396001600160a01b03861660009081526020819052604090205491906117c8565b6001600160a01b03808516600090815260208190526040808220939093559084168152205461176e908261185f565b6001600160a01b038084166000818152602081815260409182902094909455805185815290519193928716927fddf252ad1be2c89b69c2b068fc378daa952ba7f163c4a11628f55a4df523b3ef92918290030190a3505050565b600081848411156118575760405162461bcd60e51b81526004018080602001828103825283818151815260200191508051906020019080838360005b8381101561181c578181015183820152602001611804565b50505050905090810190601f1680156118495780820380516001836020036101000a031916815260200191505b509250505060405180910390fd5b505050900390565b600082820183811015611067576040805162461bcd60e51b815260206004820152601b60248201527f536166654d6174683a206164646974696f6e206f766572666c6f770000000000604482015290519081900360640190fd5b600082821115611910576040805162461bcd60e51b815260206004820152601e60248201527f536166654d6174683a207375627472616374696f6e206f766572666c6f770000604482015290519081900360640190fd5b50900390565b6001600160a01b038216611971576040805162461bcd60e51b815260206004820152601f60248201527f45524332303a206d696e7420746f20746865207a65726f206164647265737300604482015290519081900360640190fd5b61197d60008383611ba4565b60025461198a908261185f565b6002556001600160a01b0382166000908152602081905260409020546119b0908261185f565b6001600160a01b0383166000818152602081815260408083209490945583518581529351929391927fddf252ad1be2c89b69c2b068fc378daa952ba7f163c4a11628f55a4df523b3ef9281900390910190a35050565b6001600160a01b038083166000908152600a602052604081205490911690611a2d84610b14565b6001600160a01b038581166000818152600a602052604080822080546001600160a01b031916898616908117909155905194955093928616927f3134e8a2e6d97e929a7e54011ea5485d7d196dd5f0ba4d4ef95803e8e3fc257f9190a4611a95828483611bb4565b50505050565b611aa361157d565b6001600160a01b0316611ab4610f1e565b6001600160a01b031614611afd576040805162461bcd60e51b81526020600482018190526024820152600080516020611fe6833981519152604482015290519081900360640190fd5b6007546040516000916001600160a01b0316907f8be0079c531659141344cd1fd0a4f28419497f9722a3daafe3b4186f6b6457e0908390a3600780546001600160a01b03191690556008546001600160a01b031615610ba9576008546040516000916001600160a01b0316907f4465959e7ec1f32e3ebd831ac2459ad6ef4b1d54a83f108a7068e69e62f0702f908390a3600880546001600160a01b0319169055565b4690565b611baf838383611bb4565b505050565b816001600160a01b0316836001600160a01b031614158015611bd65750600081115b15611baf576001600160a01b03831615611c68576001600160a01b0383166000908152600c602052604081205463ffffffff169081611c16576000611c48565b6001600160a01b0385166000908152600b6020908152604080832063ffffffff60001987011684529091529020600101545b90506000611c5682856118b9565b9050611c6486848484611ced565b5050505b6001600160a01b03821615611baf576001600160a01b0382166000908152600c602052604081205463ffffffff169081611ca3576000611cd5565b6001600160a01b0384166000908152600b6020908152604080832063ffffffff60001987011684529091529020600101545b90506000611ce3828561185f565b90506112d9858484845b6000611d1143604051806060016040528060348152602001611f8a60349139611e52565b905060008463ffffffff16118015611d5a57506001600160a01b0385166000908152600b6020908152604080832063ffffffff6000198901811685529252909120548282169116145b15611d97576001600160a01b0385166000908152600b6020908152604080832063ffffffff60001989011684529091529020600101829055611e08565b60408051808201825263ffffffff808416825260208083018681526001600160a01b038a166000818152600b84528681208b8616825284528681209551865490861663ffffffff199182161787559251600196870155908152600c9092529390208054928801909116919092161790555b604080518481526020810184905281516001600160a01b038816927fdec2bacdd2f05b59de34da9b523dff8be42e5e38e818c82fdb0bae774387a724928290030190a25050505050565b6000816401000000008410611ea85760405162461bcd60e51b815260206004820181815283516024840152835190928392604490910191908501908083836000831561181c578181015183820152602001611804565b50919291505056fe4b494b493a3a64656c656761746542795369673a20696e76616c6964206e6f6e636545524332303a207472616e7366657220746f20746865207a65726f20616464726573734b494b493a3a64656c656761746542795369673a20696e76616c6964207369676e617475726545524332303a20617070726f766520746f20746865207a65726f20616464726573734b494b493a3a64656c656761746542795369673a207369676e6174757265206578706972656445524332303a207472616e7366657220616d6f756e7420657863656564732062616c616e63654b494b493a3a5f7772697465436865636b706f696e743a20626c6f636b206e756d6265722065786365656473203332206269747345524332303a207472616e7366657220616d6f756e74206578636565647320616c6c6f77616e63654f776e61626c653a2063616c6c6572206973206e6f7420746865206f776e657263616c6c6572206973206e6f74206d696e746572206f72206e6f7420656e6f7567684b494b493a3a6765745072696f72566f7465733a206e6f74207965742064657465726d696e656445524332303a207472616e736665722066726f6d20746865207a65726f20616464726573734f776e61626c653a2063616c6c6572206973206e6f74207468652070656e64696e674f776e657245524332303a20617070726f76652066726f6d20746865207a65726f20616464726573734f776e61626c653a2070656e64696e674f776e657220697320746865207a65726f206164647265737345524332303a2064656372656173656420616c6c6f77616e63652062656c6f77207a65726fa26469706673582212205da50f8926c64910cd79db1a4767f581d0f5aa8d02aa7ed2afe97e75854bbd9964736f6c63430007060033",
  "devdoc": {
    "kind": "dev",
    "methods": {
      "allowance(address,address)": {
        "details": "See {IERC20-allowance}."
      },
      "approve(address,uint256)": {
        "details": "See {IERC20-approve}. Requirements: - `spender` cannot be the zero address."
      },
      "balanceOf(address)": {
        "details": "See {IERC20-balanceOf}."
      },
      "cap()": {
        "details": "Returns the cap on the token's total supply."
      },
      "decimals()": {
        "details": "Returns the number of decimals used to get its user representation. For example, if `decimals` equals `2`, a balance of `505` tokens should be displayed to a user as `5,05` (`505 / 10 ** 2`). Tokens usually opt for a value of 18, imitating the relationship between Ether and Wei. This is the value {ERC20} uses, unless {_setupDecimals} is called. NOTE: This information is only used for _display_ purposes: it in no way affects any of the arithmetic of the contract, including {IERC20-balanceOf} and {IERC20-transfer}."
      },
      "decreaseAllowance(address,uint256)": {
        "details": "Atomically decreases the allowance granted to `spender` by the caller. This is an alternative to {approve} that can be used as a mitigation for problems described in {IERC20-approve}. Emits an {Approval} event indicating the updated allowance. Requirements: - `spender` cannot be the zero address. - `spender` must have allowance for the caller of at least `subtractedValue`."
      },
      "increaseAllowance(address,uint256)": {
        "details": "Atomically increases the allowance granted to `spender` by the caller. This is an alternative to {approve} that can be used as a mitigation for problems described in {IERC20-approve}. Emits an {Approval} event indicating the updated allowance. Requirements: - `spender` cannot be the zero address."
      },
      "name()": {
        "details": "Returns the name of the token."
      },
      "symbol()": {
        "details": "Returns the symbol of the token, usually a shorter version of the name."
      },
      "totalSupply()": {
        "details": "See {IERC20-totalSupply}."
      },
      "transfer(address,uint256)": {
        "details": "See {IERC20-transfer}. Requirements: - `recipient` cannot be the zero address. - the caller must have a balance of at least `amount`."
      },
      "transferFrom(address,address,uint256)": {
        "details": "See {IERC20-transferFrom}. Emits an {Approval} event indicating the updated allowance. This is not required by the EIP. See the note at the beginning of {ERC20}. Requirements: - `sender` and `recipient` cannot be the zero address. - `sender` must have a balance of at least `amount`. - the caller must have allowance for ``sender``'s tokens of at least `amount`."
      }
    },
    "version": 1
  },
  "userdoc": {
    "kind": "user",
    "methods": {},
    "version": 1
  },
  "storageLayout": {
    "storage": [
      {
        "astId": 1582,
        "contract": "contracts/token/KIKIToken.sol:KIKIToken",
        "label": "_balances",
        "offset": 0,
        "slot": "0",
        "type": "t_mapping(t_address,t_uint256)"
      },
      {
        "astId": 1588,
        "contract": "contracts/token/KIKIToken.sol:KIKIToken",
        "label": "_allowances",
        "offset": 0,
        "slot": "1",
        "type": "t_mapping(t_address,t_mapping(t_address,t_uint256))"
      },
      {
        "astId": 1590,
        "contract": "contracts/token/KIKIToken.sol:KIKIToken",
        "label": "_totalSupply",
        "offset": 0,
        "slot": "2",
        "type": "t_uint256"
      },
      {
        "astId": 1592,
        "contract": "contracts/token/KIKIToken.sol:KIKIToken",
        "label": "_name",
        "offset": 0,
        "slot": "3",
        "type": "t_string_storage"
      },
      {
        "astId": 1594,
        "contract": "contracts/token/KIKIToken.sol:KIKIToken",
        "label": "_symbol",
        "offset": 0,
        "slot": "4",
        "type": "t_string_storage"
      },
      {
        "astId": 1596,
        "contract": "contracts/token/KIKIToken.sol:KIKIToken",
        "label": "_decimals",
        "offset": 0,
        "slot": "5",
        "type": "t_uint8"
      },
      {
        "astId": 2079,
        "contract": "contracts/token/KIKIToken.sol:KIKIToken",
        "label": "_cap",
        "offset": 0,
        "slot": "6",
        "type": "t_uint256"
      },
      {
        "astId": 3297,
        "contract": "contracts/token/KIKIToken.sol:KIKIToken",
        "label": "_owner",
        "offset": 0,
        "slot": "7",
        "type": "t_address"
      },
      {
        "astId": 3299,
        "contract": "contracts/token/KIKIToken.sol:KIKIToken",
        "label": "_pendingOwner",
        "offset": 0,
        "slot": "8",
        "type": "t_address"
      },
      {
        "astId": 10640,
        "contract": "contracts/token/KIKIToken.sol:KIKIToken",
        "label": "minters",
        "offset": 0,
        "slot": "9",
        "type": "t_mapping(t_address,t_uint256)"
      },
      {
        "astId": 10859,
        "contract": "contracts/token/KIKIToken.sol:KIKIToken",
        "label": "_delegates",
        "offset": 0,
        "slot": "10",
        "type": "t_mapping(t_address,t_address)"
      },
      {
        "astId": 10865,
        "contract": "contracts/token/KIKIToken.sol:KIKIToken",
        "label": "checkpoints",
        "offset": 0,
        "slot": "11",
        "type": "t_mapping(t_address,t_mapping(t_uint32,t_struct(Checkpoint)10855_storage))"
      },
      {
        "astId": 10869,
        "contract": "contracts/token/KIKIToken.sol:KIKIToken",
        "label": "numCheckpoints",
        "offset": 0,
        "slot": "12",
        "type": "t_mapping(t_address,t_uint32)"
      },
      {
        "astId": 10883,
        "contract": "contracts/token/KIKIToken.sol:KIKIToken",
        "label": "nonces",
        "offset": 0,
        "slot": "13",
        "type": "t_mapping(t_address,t_uint256)"
      }
    ],
    "types": {
      "t_address": {
        "encoding": "inplace",
        "label": "address",
        "numberOfBytes": "20"
      },
      "t_mapping(t_address,t_address)": {
        "encoding": "mapping",
        "key": "t_address",
        "label": "mapping(address => address)",
        "numberOfBytes": "32",
        "value": "t_address"
      },
      "t_mapping(t_address,t_mapping(t_address,t_uint256))": {
        "encoding": "mapping",
        "key": "t_address",
        "label": "mapping(address => mapping(address => uint256))",
        "numberOfBytes": "32",
        "value": "t_mapping(t_address,t_uint256)"
      },
      "t_mapping(t_address,t_mapping(t_uint32,t_struct(Checkpoint)10855_storage))": {
        "encoding": "mapping",
        "key": "t_address",
        "label": "mapping(address => mapping(uint32 => struct KIKIToken.Checkpoint))",
        "numberOfBytes": "32",
        "value": "t_mapping(t_uint32,t_struct(Checkpoint)10855_storage)"
      },
      "t_mapping(t_address,t_uint256)": {
        "encoding": "mapping",
        "key": "t_address",
        "label": "mapping(address => uint256)",
        "numberOfBytes": "32",
        "value": "t_uint256"
      },
      "t_mapping(t_address,t_uint32)": {
        "encoding": "mapping",
        "key": "t_address",
        "label": "mapping(address => uint32)",
        "numberOfBytes": "32",
        "value": "t_uint32"
      },
      "t_mapping(t_uint32,t_struct(Checkpoint)10855_storage)": {
        "encoding": "mapping",
        "key": "t_uint32",
        "label": "mapping(uint32 => struct KIKIToken.Checkpoint)",
        "numberOfBytes": "32",
        "value": "t_struct(Checkpoint)10855_storage"
      },
      "t_string_storage": {
        "encoding": "bytes",
        "label": "string",
        "numberOfBytes": "32"
      },
      "t_struct(Checkpoint)10855_storage": {
        "encoding": "inplace",
        "label": "struct KIKIToken.Checkpoint",
        "members": [
          {
            "astId": 10852,
            "contract": "contracts/token/KIKIToken.sol:KIKIToken",
            "label": "fromBlock",
            "offset": 0,
            "slot": "0",
            "type": "t_uint32"
          },
          {
            "astId": 10854,
            "contract": "contracts/token/KIKIToken.sol:KIKIToken",
            "label": "votes",
            "offset": 0,
            "slot": "1",
            "type": "t_uint256"
          }
        ],
        "numberOfBytes": "64"
      },
      "t_uint256": {
        "encoding": "inplace",
        "label": "uint256",
        "numberOfBytes": "32"
      },
      "t_uint32": {
        "encoding": "inplace",
        "label": "uint32",
        "numberOfBytes": "4"
      },
      "t_uint8": {
        "encoding": "inplace",
        "label": "uint8",
        "numberOfBytes": "1"
      }
    }
  }
}