{
  "address": "0x65b64CF7F3f3f89472a2421BdCdB5A0754B654dB",
  "abi": [
    {
      "inputs": [
        {
          "internalType": "contract IERC20Mintable",
          "name": "_rewardToken",
          "type": "address"
        },
        {
          "internalType": "uint256",
          "name": "_rewardPerBlock",
          "type": "uint256"
        },
        {
          "internalType": "uint256",
          "name": "_startBlock",
          "type": "uint256"
        }
      ],
      "stateMutability": "nonpayable",
      "type": "constructor"
    },
    {
      "anonymous": false,
      "inputs": [
        {
          "indexed": true,
          "internalType": "address",
          "name": "previousPendingOwner",
          "type": "address"
        },
        {
          "indexed": true,
          "internalType": "address",
          "name": "newPendingOwner",
          "type": "address"
        }
      ],
      "name": "ChangePendingOwner",
      "type": "event"
    },
    {
      "anonymous": false,
      "inputs": [
        {
          "indexed": true,
          "internalType": "address",
          "name": "user",
          "type": "address"
        },
        {
          "indexed": true,
          "internalType": "uint256",
          "name": "pid",
          "type": "uint256"
        },
        {
          "indexed": false,
          "internalType": "uint256",
          "name": "amount",
          "type": "uint256"
        }
      ],
      "name": "Deposit",
      "type": "event"
    },
    {
      "anonymous": false,
      "inputs": [
        {
          "indexed": true,
          "internalType": "address",
          "name": "user",
          "type": "address"
        },
        {
          "indexed": true,
          "internalType": "uint256",
          "name": "pid",
          "type": "uint256"
        },
        {
          "indexed": false,
          "internalType": "uint256",
          "name": "amount",
          "type": "uint256"
        }
      ],
      "name": "EmergencyWithdraw",
      "type": "event"
    },
    {
      "anonymous": false,
      "inputs": [
        {
          "indexed": false,
          "internalType": "uint256",
          "name": "oldMultiplier",
          "type": "uint256"
        },
        {
          "indexed": false,
          "internalType": "uint256",
          "name": "newMultiplier",
          "type": "uint256"
        }
      ],
      "name": "NewMultiplier",
      "type": "event"
    },
    {
      "anonymous": false,
      "inputs": [
        {
          "indexed": false,
          "internalType": "uint256",
          "name": "pid",
          "type": "uint256"
        },
        {
          "indexed": false,
          "internalType": "address",
          "name": "lpToken",
          "type": "address"
        },
        {
          "indexed": false,
          "internalType": "uint256",
          "name": "allocPoint",
          "type": "uint256"
        },
        {
          "indexed": false,
          "internalType": "uint256",
          "name": "totalPoint",
          "type": "uint256"
        }
      ],
      "name": "NewPool",
      "type": "event"
    },
    {
      "anonymous": false,
      "inputs": [
        {
          "indexed": false,
          "internalType": "uint256",
          "name": "oldReward",
          "type": "uint256"
        },
        {
          "indexed": false,
          "internalType": "uint256",
          "name": "newReward",
          "type": "uint256"
        }
      ],
      "name": "NewRewardPerBlock",
      "type": "event"
    },
    {
      "anonymous": false,
      "inputs": [
        {
          "indexed": true,
          "internalType": "address",
          "name": "previousOwner",
          "type": "address"
        },
        {
          "indexed": true,
          "internalType": "address",
          "name": "newOwner",
          "type": "address"
        }
      ],
      "name": "OwnershipTransferred",
      "type": "event"
    },
    {
      "anonymous": false,
      "inputs": [
        {
          "indexed": true,
          "internalType": "address",
          "name": "user",
          "type": "address"
        },
        {
          "indexed": true,
          "internalType": "uint256",
          "name": "pid",
          "type": "uint256"
        },
        {
          "indexed": false,
          "internalType": "uint256",
          "name": "amount",
          "type": "uint256"
        }
      ],
      "name": "Withdraw",
      "type": "event"
    },
    {
      "inputs": [],
      "name": "BONUS_MULTIPLIER",
      "outputs": [
        {
          "internalType": "uint256",
          "name": "",
          "type": "uint256"
        }
      ],
      "stateMutability": "view",
      "type": "function"
    },
    {
      "inputs": [],
      "name": "acceptOwner",
      "outputs": [],
      "stateMutability": "nonpayable",
      "type": "function"
    },
    {
      "inputs": [
        {
          "internalType": "uint256",
          "name": "_allocPoint",
          "type": "uint256"
        },
        {
          "internalType": "contract IERC20",
          "name": "_lpToken",
          "type": "address"
        },
        {
          "internalType": "bool",
          "name": "_withUpdate",
          "type": "bool"
        }
      ],
      "name": "add",
      "outputs": [],
      "stateMutability": "nonpayable",
      "type": "function"
    },
    {
      "inputs": [
        {
          "internalType": "uint256",
          "name": "_pid",
          "type": "uint256"
        },
        {
          "internalType": "uint256",
          "name": "_amount",
          "type": "uint256"
        }
      ],
      "name": "deposit",
      "outputs": [],
      "stateMutability": "nonpayable",
      "type": "function"
    },
    {
      "inputs": [
        {
          "internalType": "uint256",
          "name": "_pid",
          "type": "uint256"
        }
      ],
      "name": "emergencyWithdraw",
      "outputs": [],
      "stateMutability": "nonpayable",
      "type": "function"
    },
    {
      "inputs": [
        {
          "internalType": "address",
          "name": "",
          "type": "address"
        }
      ],
      "name": "existsLP",
      "outputs": [
        {
          "internalType": "bool",
          "name": "",
          "type": "bool"
        }
      ],
      "stateMutability": "view",
      "type": "function"
    },
    {
      "inputs": [
        {
          "internalType": "uint256",
          "name": "_from",
          "type": "uint256"
        },
        {
          "internalType": "uint256",
          "name": "_to",
          "type": "uint256"
        }
      ],
      "name": "getMultiplier",
      "outputs": [
        {
          "internalType": "uint256",
          "name": "",
          "type": "uint256"
        }
      ],
      "stateMutability": "view",
      "type": "function"
    },
    {
      "inputs": [],
      "name": "massUpdatePools",
      "outputs": [],
      "stateMutability": "nonpayable",
      "type": "function"
    },
    {
      "inputs": [],
      "name": "owner",
      "outputs": [
        {
          "internalType": "address",
          "name": "",
          "type": "address"
        }
      ],
      "stateMutability": "view",
      "type": "function"
    },
    {
      "inputs": [
        {
          "internalType": "uint256",
          "name": "_pid",
          "type": "uint256"
        },
        {
          "internalType": "address",
          "name": "_user",
          "type": "address"
        }
      ],
      "name": "pending",
      "outputs": [
        {
          "internalType": "uint256",
          "name": "",
          "type": "uint256"
        }
      ],
      "stateMutability": "view",
      "type": "function"
    },
    {
      "inputs": [],
      "name": "pendingOwner",
      "outputs": [
        {
          "internalType": "address",
          "name": "",
          "type": "address"
        }
      ],
      "stateMutability": "view",
      "type": "function"
    },
    {
      "inputs": [
        {
          "internalType": "address",
          "name": "",
          "type": "address"
        }
      ],
      "name": "pidOfLP",
      "outputs": [
        {
          "internalType": "uint256",
          "name": "",
          "type": "uint256"
        }
      ],
      "stateMutability": "view",
      "type": "function"
    },
    {
      "inputs": [
        {
          "internalType": "uint256",
          "name": "",
          "type": "uint256"
        }
      ],
      "name": "poolInfo",
      "outputs": [
        {
          "internalType": "contract IERC20",
          "name": "lpToken",
          "type": "address"
        },
        {
          "internalType": "uint256",
          "name": "allocPoint",
          "type": "uint256"
        },
        {
          "internalType": "uint256",
          "name": "lastRewardBlock",
          "type": "uint256"
        },
        {
          "internalType": "uint256",
          "name": "accPerShare",
          "type": "uint256"
        }
      ],
      "stateMutability": "view",
      "type": "function"
    },
    {
      "inputs": [],
      "name": "poolLength",
      "outputs": [
        {
          "internalType": "uint256",
          "name": "",
          "type": "uint256"
        }
      ],
      "stateMutability": "view",
      "type": "function"
    },
    {
      "inputs": [],
      "name": "renounceOwnership",
      "outputs": [],
      "stateMutability": "nonpayable",
      "type": "function"
    },
    {
      "inputs": [],
      "name": "rewardPerBlock",
      "outputs": [
        {
          "internalType": "uint256",
          "name": "",
          "type": "uint256"
        }
      ],
      "stateMutability": "view",
      "type": "function"
    },
    {
      "inputs": [],
      "name": "rewardToken",
      "outputs": [
        {
          "internalType": "contract IERC20Mintable",
          "name": "",
          "type": "address"
        }
      ],
      "stateMutability": "view",
      "type": "function"
    },
    {
      "inputs": [
        {
          "internalType": "uint256",
          "name": "_pid",
          "type": "uint256"
        },
        {
          "internalType": "uint256",
          "name": "_allocPoint",
          "type": "uint256"
        },
        {
          "internalType": "bool",
          "name": "_withUpdate",
          "type": "bool"
        }
      ],
      "name": "set",
      "outputs": [],
      "stateMutability": "nonpayable",
      "type": "function"
    },
    {
      "inputs": [
        {
          "internalType": "address",
          "name": "pendingOwner_",
          "type": "address"
        }
      ],
      "name": "setPendingOwner",
      "outputs": [],
      "stateMutability": "nonpayable",
      "type": "function"
    },
    {
      "inputs": [],
      "name": "startBlock",
      "outputs": [
        {
          "internalType": "uint256",
          "name": "",
          "type": "uint256"
        }
      ],
      "stateMutability": "view",
      "type": "function"
    },
    {
      "inputs": [],
      "name": "totalAllocPoint",
      "outputs": [
        {
          "internalType": "uint256",
          "name": "",
          "type": "uint256"
        }
      ],
      "stateMutability": "view",
      "type": "function"
    },
    {
      "inputs": [
        {
          "internalType": "uint256",
          "name": "multiplierNumber",
          "type": "uint256"
        },
        {
          "internalType": "bool",
          "name": "withUpdate",
          "type": "bool"
        }
      ],
      "name": "updateMultiplier",
      "outputs": [],
      "stateMutability": "nonpayable",
      "type": "function"
    },
    {
      "inputs": [
        {
          "internalType": "uint256",
          "name": "_pid",
          "type": "uint256"
        }
      ],
      "name": "updatePool",
      "outputs": [],
      "stateMutability": "nonpayable",
      "type": "function"
    },
    {
      "inputs": [
        {
          "internalType": "uint256",
          "name": "_rewardPerBlock",
          "type": "uint256"
        },
        {
          "internalType": "bool",
          "name": "_withUpdate",
          "type": "bool"
        }
      ],
      "name": "updateRewardPerBlock",
      "outputs": [],
      "stateMutability": "nonpayable",
      "type": "function"
    },
    {
      "inputs": [
        {
          "internalType": "uint256",
          "name": "",
          "type": "uint256"
        },
        {
          "internalType": "address",
          "name": "",
          "type": "address"
        }
      ],
      "name": "userInfo",
      "outputs": [
        {
          "internalType": "uint256",
          "name": "amount",
          "type": "uint256"
        },
        {
          "internalType": "uint256",
          "name": "rewardDebt",
          "type": "uint256"
        }
      ],
      "stateMutability": "view",
      "type": "function"
    },
    {
      "inputs": [
        {
          "internalType": "uint256",
          "name": "_pid",
          "type": "uint256"
        },
        {
          "internalType": "uint256",
          "name": "_amount",
          "type": "uint256"
        }
      ],
      "name": "withdraw",
      "outputs": [],
      "stateMutability": "nonpayable",
      "type": "function"
    }
  ],
  "transactionHash": "0x2432c9d9ab06bdaae5f0726b6f5202f53d114de82843ea307fe3e90915953b22",
  "args": [
    "0x82ca5FCd9eF2D6cEEb49a057bb11c3E091560979",
    "0",
    14035085
  ],
  "solcInputHash": "b816599d5050323d6b3fafe71505a8f2",
  "bytecode": "0x60806040526000600a5534801561001557600080fd5b5060405162001f5c38038062001f5c8339818101604052606081101561003a57600080fd5b5080516020820151604090920151909190338061005c57610059610136565b90505b600080546001600160a01b0319166001600160a01b03831690811782556040519091907f8be0079c531659141344cd1fd0a4f28419497f9722a3daafe3b4186f6b6457e0908290a35060016002556001600160a01b038316610105576040805162461bcd60e51b815260206004820152601360248201527f696c6c6567616c20726577617264546f6b656e00000000000000000000000000604482015290519081900360640190fd5b600380546001600160a01b0319166001600160a01b039490941693909317909255600455600b55600160055561013a565b3390565b611e12806200014a6000396000f3fe608060405234801561001057600080fd5b506004361061018e5760003560e01c80638ae39cac116100de578063bf65476811610097578063e30c397811610071578063e30c397814610467578063e4c75c271461046f578063ebbc49651461049b578063f7c618c1146104a35761018e565b8063bf654768146103f9578063c42069ec1461041e578063e2bbb158146104445761018e565b80638ae39cac1461031a5780638da5cb5b146103225780638dbb1e3a1461034657806393f1a40b14610369578063ae485c1b146103ae578063be4218ee146103d35761018e565b806351eb05a61161014b578063630b5ba111610125578063630b5ba1146102d757806364482f79146102df578063715018a61461030a5780638aa28550146103125761018e565b806351eb05a6146102635780635312ea8e14610280578063610b0a5f1461029d5761018e565b8063081e3eda146101935780631526fe27146101ad57806317caf6f1146101fa5780631eaaa04514610202578063441a3e701461023857806348cd4cb11461025b575b600080fd5b61019b6104ab565b60408051918252519081900360200190f35b6101ca600480360360208110156101c357600080fd5b50356104b1565b604080516001600160a01b0390951685526020850193909352838301919091526060830152519081900360800190f35b61019b6104f5565b6102366004803603606081101561021857600080fd5b508035906001600160a01b03602082013516906040013515156104fb565b005b6102366004803603604081101561024e57600080fd5b50803590602001356107b7565b61019b6109c5565b6102366004803603602081101561027957600080fd5b50356109cb565b6102366004803603602081101561029657600080fd5b5035610bcd565b6102c3600480360360208110156102b357600080fd5b50356001600160a01b0316610d18565b604080519115158252519081900360200190f35b610236610d2d565b610236600480360360608110156102f557600080fd5b50803590602081013590604001351515610d4c565b610236610ef6565b61019b610ffc565b61019b611002565b61032a611008565b604080516001600160a01b039092168252519081900360200190f35b61019b6004803603604081101561035c57600080fd5b5080359060200135611017565b6103956004803603604081101561037f57600080fd5b50803590602001356001600160a01b0316611034565b6040805192835260208301919091528051918290030190f35b610236600480360360408110156103c457600080fd5b50803590602001351515611058565b61019b600480360360208110156103e957600080fd5b50356001600160a01b031661110b565b6102366004803603604081101561040f57600080fd5b5080359060200135151561111d565b6102366004803603602081101561043457600080fd5b50356001600160a01b03166111d0565b6102366004803603604081101561045a57600080fd5b50803590602001356112d3565b61032a611494565b61019b6004803603604081101561048557600080fd5b50803590602001356001600160a01b03166114a3565b610236611656565b61032a61174f565b60065490565b600681815481106104c157600080fd5b600091825260209091206004909102018054600182015460028301546003909301546001600160a01b039092169350919084565b600a5481565b61050361175e565b6001600160a01b0316610514611008565b6001600160a01b03161461055d576040805162461bcd60e51b81526020600482018190526024820152600080516020611d43833981519152604482015290519081900360640190fd5b6003546001600160a01b03838116911614156105b5576040805162461bcd60e51b815260206004820152601260248201527118d85b881b9bdd08185919081c995dd85c9960721b604482015290519081900360640190fd5b6001600160a01b03821660009081526008602052604090205460ff1615610616576040805162461bcd60e51b815260206004820152601060248201526f1b1c08185b1c9958591e48195e1a5cdd60821b604482015290519081900360640190fd5b801561062457610624610d2d565b6000600b54431161063757600b54610639565b435b600a549091506106499085611762565b600a908155600680546001600160a01b03868116600081815260076020908152604080832095909555600881528482208054600160ff1990911681179091558551608080820188528582528184018e81528289018c815260608085018881528c549687018d55978c905293517ff652222313e28459528d920b65115c16c04f3efc82aaedc97be59f3f377c0d3f600490960295860180546001600160a01b03191691909a1617909855517ff652222313e28459528d920b65115c16c04f3efc82aaedc97be59f3f377c0d4084015595517ff652222313e28459528d920b65115c16c04f3efc82aaedc97be59f3f377c0d4183015592517ff652222313e28459528d920b65115c16c04f3efc82aaedc97be59f3f377c0d429091015594549554845160001997909701875294860191909152848301899052840192909252517fd194e96f60e9745052f77b89a5ee23392770de5846609447847ddcc5868cf55b9281900390910190a150505050565b60028054141561080e576040805162461bcd60e51b815260206004820152601f60248201527f5265656e7472616e637947756172643a207265656e7472616e742063616c6c00604482015290519081900360640190fd5b6002805560065482908110610860576040805162461bcd60e51b8152602060048201526013602482015272141bdbdb08191bd95cc81b9bdd08195e1a5cdd606a1b604482015290519081900360640190fd5b60006006848154811061086f57fe5b6000918252602080832087845260098252604080852033865290925292208054600490920290920192508411156108e2576040805162461bcd60e51b81526020600482015260126024820152711dda5d1a191c985dce881b9bdd0819dbdbd960721b604482015290519081900360640190fd5b6108eb856109cb565b6000610925826001015461091f64e8d4a51000610919876003015487600001546117bc90919063ffffffff16565b90611815565b9061187c565b905080156109375761093733826118d9565b8415610961578154610949908661187c565b82558254610961906001600160a01b0316338761197a565b6003830154825461097c9164e8d4a5100091610919916117bc565b6001830155604080518681529051879133917ff279e6a1f5e320cca91135676d9cb6e44ca8a08c0b88342bcdb1144f6511b5689181900360200190a35050600160025550505050565b600b5481565b60065481908110610a19576040805162461bcd60e51b8152602060048201526013602482015272141bdbdb08191bd95cc81b9bdd08195e1a5cdd606a1b604482015290519081900360640190fd5b600060068381548110610a2857fe5b9060005260206000209060040201905080600201544311610a495750610bc9565b8054604080516370a0823160e01b815230600482015290516000926001600160a01b0316916370a08231916024808301926020929190829003018186803b158015610a9357600080fd5b505afa158015610aa7573d6000803e3d6000fd5b505050506040513d6020811015610abd57600080fd5b5051905080610ad3575043600290910155610bc9565b6000610ae3836002015443611017565b90506000610b10600a546109198660010154610b0a600454876117bc90919063ffffffff16565b906117bc565b600354604080516340c10f1960e01b81523060048201526024810184905290519293506001600160a01b03909116916340c10f19916044808201926020929091908290030181600087803b158015610b6757600080fd5b505af1158015610b7b573d6000803e3d6000fd5b505050506040513d6020811015610b9157600080fd5b50519050610bb6610bab846109198464e8d4a510006117bc565b600386015490611762565b6003850155505043600290920191909155505b5050565b600280541415610c24576040805162461bcd60e51b815260206004820152601f60248201527f5265656e7472616e637947756172643a207265656e7472616e742063616c6c00604482015290519081900360640190fd5b6002805560065481908110610c76576040805162461bcd60e51b8152602060048201526013602482015272141bdbdb08191bd95cc81b9bdd08195e1a5cdd606a1b604482015290519081900360640190fd5b600060068381548110610c8557fe5b600091825260208083208684526009825260408085203380875293528420805485825560018201959095556004909302018054909450919291610cd5916001600160a01b0391909116908361197a565b604080518281529051869133917fbb757047c2b5f3974fe26b7c10f732e7bce710b0952a71082702781e62ae05959181900360200190a350506001600255505050565b60086020526000908152604090205460ff1681565b60065460005b81811015610bc957610d44816109cb565b600101610d33565b610d5461175e565b6001600160a01b0316610d65611008565b6001600160a01b031614610dae576040805162461bcd60e51b81526020600482018190526024820152600080516020611d43833981519152604482015290519081900360640190fd5b60065483908110610dfc576040805162461bcd60e51b8152602060048201526013602482015272141bdbdb08191bd95cc81b9bdd08195e1a5cdd606a1b604482015290519081900360640190fd5b8115610e0a57610e0a610d2d565b600060068581548110610e1957fe5b90600052602060002090600402016001015490508360068681548110610e3b57fe5b906000526020600020906004020160010181905550838114610e7a57610e7684610e7083600a5461187c90919063ffffffff16565b90611762565b600a555b7fd194e96f60e9745052f77b89a5ee23392770de5846609447847ddcc5868cf55b8560068781548110610ea957fe5b600091825260209182902060049091020154600a54604080519485526001600160a01b03909216928401929092528281018890526060830191909152519081900360800190a15050505050565b610efe61175e565b6001600160a01b0316610f0f611008565b6001600160a01b031614610f58576040805162461bcd60e51b81526020600482018190526024820152600080516020611d43833981519152604482015290519081900360640190fd5b600080546040516001600160a01b03909116907f8be0079c531659141344cd1fd0a4f28419497f9722a3daafe3b4186f6b6457e0908390a3600080546001600160a01b03191690556001546001600160a01b031615610ffa576001546040516000916001600160a01b0316907f4465959e7ec1f32e3ebd831ac2459ad6ef4b1d54a83f108a7068e69e62f0702f908390a3600180546001600160a01b03191690555b565b60055481565b60045481565b6000546001600160a01b031690565b60055460009061102b90610b0a848661187c565b90505b92915050565b60096020908152600092835260408084209091529082529020805460019091015482565b61106061175e565b6001600160a01b0316611071611008565b6001600160a01b0316146110ba576040805162461bcd60e51b81526020600482018190526024820152600080516020611d43833981519152604482015290519081900360640190fd5b80156110c8576110c8610d2d565b600454604080519182526020820184905280517f3b7a406bf2b66d0f83f6b1cf4c39edf1269cad80712b94cd80a44d13f61f13579281900390910190a150600455565b60076020526000908152604090205481565b61112561175e565b6001600160a01b0316611136611008565b6001600160a01b03161461117f576040805162461bcd60e51b81526020600482018190526024820152600080516020611d43833981519152604482015290519081900360640190fd5b801561118d5761118d610d2d565b600554604080519182526020820184905280517fbb69b052a57be2126300a5702ad98a79ab8ac71f0d3f61df1fde7e4c681433439281900390910190a150600555565b6111d861175e565b6001600160a01b03166111e9611008565b6001600160a01b031614611232576040805162461bcd60e51b81526020600482018190526024820152600080516020611d43833981519152604482015290519081900360640190fd5b6001600160a01b0381166112775760405162461bcd60e51b8152600401808060200182810382526029815260200180611db46029913960400191505060405180910390fd5b6001546040516001600160a01b038084169216907f4465959e7ec1f32e3ebd831ac2459ad6ef4b1d54a83f108a7068e69e62f0702f90600090a3600180546001600160a01b0319166001600160a01b0392909216919091179055565b60028054141561132a576040805162461bcd60e51b815260206004820152601f60248201527f5265656e7472616e637947756172643a207265656e7472616e742063616c6c00604482015290519081900360640190fd5b600280556006548290811061137c576040805162461bcd60e51b8152602060048201526013602482015272141bdbdb08191bd95cc81b9bdd08195e1a5cdd606a1b604482015290519081900360640190fd5b60006006848154811061138b57fe5b600091825260208083208784526009825260408085203386529092529220600490910290910191506113bc856109cb565b8054156114055760006113f1826001015461091f64e8d4a51000610919876003015487600001546117bc90919063ffffffff16565b905080156114035761140333826118d9565b505b8315611431578154611422906001600160a01b03163330876119cc565b805461142e9085611762565b81555b6003820154815461144c9164e8d4a5100091610919916117bc565b6001820155604080518581529051869133917f90890809c654f11d6e72a28fa60149770a0d11ec6c92319d6ceb2bb0a4ea1a159181900360200190a350506001600255505050565b6001546001600160a01b031690565b600654600090839081106114f4576040805162461bcd60e51b8152602060048201526013602482015272141bdbdb08191bd95cc81b9bdd08195e1a5cdd606a1b604482015290519081900360640190fd5b60006006858154811061150357fe5b600091825260208083208884526009825260408085206001600160a01b038a8116875290845281862060049586029093016003810154815484516370a0823160e01b81523098810198909852935191985093969395939492909116926370a08231926024808301939192829003018186803b15801561158157600080fd5b505afa158015611595573d6000803e3d6000fd5b505050506040513d60208110156115ab57600080fd5b50516002850154909150431180156115c257508015155b156116225760006115d7856002015443611017565b905060006115fe600a546109198860010154610b0a600454876117bc90919063ffffffff16565b905061161d611616846109198464e8d4a510006117bc565b8590611762565b935050505b61164a836001015461091f64e8d4a510006109198688600001546117bc90919063ffffffff16565b98975050505050505050565b61165e61175e565b6001600160a01b031661166f611494565b6001600160a01b0316146116b45760405162461bcd60e51b8152600401808060200182810382526027815260200180611d636027913960400191505060405180910390fd5b600154600080546040516001600160a01b0393841693909116917f8be0079c531659141344cd1fd0a4f28419497f9722a3daafe3b4186f6b6457e091a3600154600080546001600160a01b0319166001600160a01b0390921691821781556040519091907f4465959e7ec1f32e3ebd831ac2459ad6ef4b1d54a83f108a7068e69e62f0702f908390a3600180546001600160a01b0319169055565b6003546001600160a01b031681565b3390565b60008282018381101561102b576040805162461bcd60e51b815260206004820152601b60248201527f536166654d6174683a206164646974696f6e206f766572666c6f770000000000604482015290519081900360640190fd5b6000826117cb5750600061102e565b828202828482816117d857fe5b041461102b5760405162461bcd60e51b8152600401808060200182810382526021815260200180611d226021913960400191505060405180910390fd5b600080821161186b576040805162461bcd60e51b815260206004820152601a60248201527f536166654d6174683a206469766973696f6e206279207a65726f000000000000604482015290519081900360640190fd5b81838161187457fe5b049392505050565b6000828211156118d3576040805162461bcd60e51b815260206004820152601e60248201527f536166654d6174683a207375627472616374696f6e206f766572666c6f770000604482015290519081900360640190fd5b50900390565b600354604080516370a0823160e01b815230600482015290516000926001600160a01b0316916370a08231916024808301926020929190829003018186803b15801561192457600080fd5b505afa158015611938573d6000803e3d6000fd5b505050506040513d602081101561194e57600080fd5b505190508181101561195e578091505b600354611975906001600160a01b0316848461197a565b505050565b604080516001600160a01b038416602482015260448082018490528251808303909101815260649091019091526020810180516001600160e01b031663a9059cbb60e01b179052611975908490611a2c565b604080516001600160a01b0380861660248301528416604482015260648082018490528251808303909101815260849091019091526020810180516001600160e01b03166323b872dd60e01b179052611a26908590611a2c565b50505050565b6000611a81826040518060400160405280602081526020017f5361666545524332303a206c6f772d6c6576656c2063616c6c206661696c6564815250856001600160a01b0316611add9092919063ffffffff16565b80519091501561197557808060200190516020811015611aa057600080fd5b50516119755760405162461bcd60e51b815260040180806020018281038252602a815260200180611d8a602a913960400191505060405180910390fd5b6060611aec8484600085611af6565b90505b9392505050565b606082471015611b375760405162461bcd60e51b8152600401808060200182810382526026815260200180611cfc6026913960400191505060405180910390fd5b611b4085611c51565b611b91576040805162461bcd60e51b815260206004820152601d60248201527f416464726573733a2063616c6c20746f206e6f6e2d636f6e7472616374000000604482015290519081900360640190fd5b600080866001600160a01b031685876040518082805190602001908083835b60208310611bcf5780518252601f199092019160209182019101611bb0565b6001836020036101000a03801982511681845116808217855250505050505090500191505060006040518083038185875af1925050503d8060008114611c31576040519150601f19603f3d011682016040523d82523d6000602084013e611c36565b606091505b5091509150611c46828286611c57565b979650505050505050565b3b151590565b60608315611c66575081611aef565b825115611c765782518084602001fd5b8160405162461bcd60e51b81526004018080602001828103825283818151815260200191508051906020019080838360005b83811015611cc0578181015183820152602001611ca8565b50505050905090810190601f168015611ced5780820380516001836020036101000a031916815260200191505b509250505060405180910390fdfe416464726573733a20696e73756666696369656e742062616c616e636520666f722063616c6c536166654d6174683a206d756c7469706c69636174696f6e206f766572666c6f774f776e61626c653a2063616c6c6572206973206e6f7420746865206f776e65724f776e61626c653a2063616c6c6572206973206e6f74207468652070656e64696e674f776e65725361666545524332303a204552433230206f7065726174696f6e20646964206e6f7420737563636565644f776e61626c653a2070656e64696e674f776e657220697320746865207a65726f2061646472657373a26469706673582212203886023ae77d0b04d283b62b50ff7398f90319ebeb04ab083da7a7f7186fad5364736f6c63430007060033",
  "devdoc": {
    "kind": "dev",
    "methods": {},
    "version": 1
  },
  "userdoc": {
    "kind": "user",
    "methods": {},
    "version": 1
  },
  "storageLayout": {
    "storage": [
      {
        "astId": 3297,
        "contract": "contracts/farm/MasterChef.sol:MasterChef",
        "label": "_owner",
        "offset": 0,
        "slot": "0",
        "type": "t_address"
      },
      {
        "astId": 3299,
        "contract": "contracts/farm/MasterChef.sol:MasterChef",
        "label": "_pendingOwner",
        "offset": 0,
        "slot": "1",
        "type": "t_address"
      },
      {
        "astId": 3260,
        "contract": "contracts/farm/MasterChef.sol:MasterChef",
        "label": "_status",
        "offset": 0,
        "slot": "2",
        "type": "t_uint256"
      },
      {
        "astId": 3559,
        "contract": "contracts/farm/MasterChef.sol:MasterChef",
        "label": "rewardToken",
        "offset": 0,
        "slot": "3",
        "type": "t_contract(IERC20Mintable)4513"
      },
      {
        "astId": 3561,
        "contract": "contracts/farm/MasterChef.sol:MasterChef",
        "label": "rewardPerBlock",
        "offset": 0,
        "slot": "4",
        "type": "t_uint256"
      },
      {
        "astId": 3563,
        "contract": "contracts/farm/MasterChef.sol:MasterChef",
        "label": "BONUS_MULTIPLIER",
        "offset": 0,
        "slot": "5",
        "type": "t_uint256"
      },
      {
        "astId": 3566,
        "contract": "contracts/farm/MasterChef.sol:MasterChef",
        "label": "poolInfo",
        "offset": 0,
        "slot": "6",
        "type": "t_array(t_struct(PoolInfo)3557_storage)dyn_storage"
      },
      {
        "astId": 3570,
        "contract": "contracts/farm/MasterChef.sol:MasterChef",
        "label": "pidOfLP",
        "offset": 0,
        "slot": "7",
        "type": "t_mapping(t_address,t_uint256)"
      },
      {
        "astId": 3574,
        "contract": "contracts/farm/MasterChef.sol:MasterChef",
        "label": "existsLP",
        "offset": 0,
        "slot": "8",
        "type": "t_mapping(t_address,t_bool)"
      },
      {
        "astId": 3580,
        "contract": "contracts/farm/MasterChef.sol:MasterChef",
        "label": "userInfo",
        "offset": 0,
        "slot": "9",
        "type": "t_mapping(t_uint256,t_mapping(t_address,t_struct(UserInfo)3548_storage))"
      },
      {
        "astId": 3583,
        "contract": "contracts/farm/MasterChef.sol:MasterChef",
        "label": "totalAllocPoint",
        "offset": 0,
        "slot": "10",
        "type": "t_uint256"
      },
      {
        "astId": 3585,
        "contract": "contracts/farm/MasterChef.sol:MasterChef",
        "label": "startBlock",
        "offset": 0,
        "slot": "11",
        "type": "t_uint256"
      }
    ],
    "types": {
      "t_address": {
        "encoding": "inplace",
        "label": "address",
        "numberOfBytes": "20"
      },
      "t_array(t_struct(PoolInfo)3557_storage)dyn_storage": {
        "base": "t_struct(PoolInfo)3557_storage",
        "encoding": "dynamic_array",
        "label": "struct MasterChef.PoolInfo[]",
        "numberOfBytes": "32"
      },
      "t_bool": {
        "encoding": "inplace",
        "label": "bool",
        "numberOfBytes": "1"
      },
      "t_contract(IERC20)2225": {
        "encoding": "inplace",
        "label": "contract IERC20",
        "numberOfBytes": "20"
      },
      "t_contract(IERC20Mintable)4513": {
        "encoding": "inplace",
        "label": "contract IERC20Mintable",
        "numberOfBytes": "20"
      },
      "t_mapping(t_address,t_bool)": {
        "encoding": "mapping",
        "key": "t_address",
        "label": "mapping(address => bool)",
        "numberOfBytes": "32",
        "value": "t_bool"
      },
      "t_mapping(t_address,t_struct(UserInfo)3548_storage)": {
        "encoding": "mapping",
        "key": "t_address",
        "label": "mapping(address => struct MasterChef.UserInfo)",
        "numberOfBytes": "32",
        "value": "t_struct(UserInfo)3548_storage"
      },
      "t_mapping(t_address,t_uint256)": {
        "encoding": "mapping",
        "key": "t_address",
        "label": "mapping(address => uint256)",
        "numberOfBytes": "32",
        "value": "t_uint256"
      },
      "t_mapping(t_uint256,t_mapping(t_address,t_struct(UserInfo)3548_storage))": {
        "encoding": "mapping",
        "key": "t_uint256",
        "label": "mapping(uint256 => mapping(address => struct MasterChef.UserInfo))",
        "numberOfBytes": "32",
        "value": "t_mapping(t_address,t_struct(UserInfo)3548_storage)"
      },
      "t_struct(PoolInfo)3557_storage": {
        "encoding": "inplace",
        "label": "struct MasterChef.PoolInfo",
        "members": [
          {
            "astId": 3550,
            "contract": "contracts/farm/MasterChef.sol:MasterChef",
            "label": "lpToken",
            "offset": 0,
            "slot": "0",
            "type": "t_contract(IERC20)2225"
          },
          {
            "astId": 3552,
            "contract": "contracts/farm/MasterChef.sol:MasterChef",
            "label": "allocPoint",
            "offset": 0,
            "slot": "1",
            "type": "t_uint256"
          },
          {
            "astId": 3554,
            "contract": "contracts/farm/MasterChef.sol:MasterChef",
            "label": "lastRewardBlock",
            "offset": 0,
            "slot": "2",
            "type": "t_uint256"
          },
          {
            "astId": 3556,
            "contract": "contracts/farm/MasterChef.sol:MasterChef",
            "label": "accPerShare",
            "offset": 0,
            "slot": "3",
            "type": "t_uint256"
          }
        ],
        "numberOfBytes": "128"
      },
      "t_struct(UserInfo)3548_storage": {
        "encoding": "inplace",
        "label": "struct MasterChef.UserInfo",
        "members": [
          {
            "astId": 3545,
            "contract": "contracts/farm/MasterChef.sol:MasterChef",
            "label": "amount",
            "offset": 0,
            "slot": "0",
            "type": "t_uint256"
          },
          {
            "astId": 3547,
            "contract": "contracts/farm/MasterChef.sol:MasterChef",
            "label": "rewardDebt",
            "offset": 0,
            "slot": "1",
            "type": "t_uint256"
          }
        ],
        "numberOfBytes": "64"
      },
      "t_uint256": {
        "encoding": "inplace",
        "label": "uint256",
        "numberOfBytes": "32"
      }
    }
  }
}