{
	"data": {
		"bytecode": {
			"linkReferences": {},
			"object": "608060405234801561001057600080fd5b50611037806100206000396000f3fe608060405234801561001057600080fd5b50600436106100625760003560e01c806343308bf6146100675780634dbf6c5a1461009757806376182baf146100c75780639e30b1e8146100f7578063e0ab077214610127578063f612e29914610159575b600080fd5b610081600480360381019061007c91906109e9565b610189565b60405161008e9190610ce2565b60405180910390f35b6100b160048036038101906100ac919061097c565b6101c9565b6040516100be9190610d5f565b60405180910390f35b6100e160048036038101906100dc91906109bc565b6101ee565b6040516100ee9190610d04565b60405180910390f35b610111600480360381019061010c91906109bc565b610215565b60405161011e9190610d04565b60405180910390f35b610141600480360381019061013c9190610a3c565b61023c565b60405161015093929190610dcd565b60405180910390f35b610173600480360381019061016e91906109e9565b610663565b6040516101809190610ce2565b60405180910390f35b60606101c073fb72aadb17a855d27a68b565ee0a84cb30a387e47319a0870a66b305be9917c0f14811c970de18e6fc8686866106a3565b90509392505050565b6000602052816000526040600020602052806000526040600020600091509150505481565b600061020e73fb72aadb17a855d27a68b565ee0a84cb30a387e4836107f5565b9050919050565b60006102357319a0870a66b305be9917c0f14811c970de18e6fc836107f5565b9050919050565b6000806000876000807319a0870a66b305be9917c0f14811c970de18e6fc73ffffffffffffffffffffffffffffffffffffffff1673ffffffffffffffffffffffffffffffffffffffff16815260200190815260200160002060003373ffffffffffffffffffffffffffffffffffffffff1673ffffffffffffffffffffffffffffffffffffffff168152602001908152602001600020541015610313576040517f08c379a000000000000000000000000000000000000000000000000000000000815260040161030a90610d3f565b60405180910390fd5b8660008073fb72aadb17a855d27a68b565ee0a84cb30a387e473ffffffffffffffffffffffffffffffffffffffff1673ffffffffffffffffffffffffffffffffffffffff16815260200190815260200160002060003373ffffffffffffffffffffffffffffffffffffffff1673ffffffffffffffffffffffffffffffffffffffff1681526020019081526020016000205410156103e5576040517f08c379a00000000000000000000000000000000000000000000000000000000081526004016103dc90610d1f565b60405180910390fd5b876000807319a0870a66b305be9917c0f14811c970de18e6fc73ffffffffffffffffffffffffffffffffffffffff1673ffffffffffffffffffffffffffffffffffffffff16815260200190815260200160002060003373ffffffffffffffffffffffffffffffffffffffff1673ffffffffffffffffffffffffffffffffffffffff16815260200190815260200160002060008282546104849190610ed1565b925050819055508660008073fb72aadb17a855d27a68b565ee0a84cb30a387e473ffffffffffffffffffffffffffffffffffffffff1673ffffffffffffffffffffffffffffffffffffffff16815260200190815260200160002060003373ffffffffffffffffffffffffffffffffffffffff1673ffffffffffffffffffffffffffffffffffffffff168152602001908152602001600020600082825461052a9190610ed1565b925050819055506000610e10426105419190610e7b565b905060007319a0870a66b305be9917c0f14811c970de18e6fc73fb72aadb17a855d27a68b565ee0a84cb30a387e48b8b8b8b8b8860405160240161058c989796959493929190610c64565b6040516020818303038152906040527fdd83139f000000000000000000000000000000000000000000000000000000007bffffffffffffffffffffffffffffffffffffffffffffffffffffffff19166020820180517bffffffffffffffffffffffffffffffffffffffffffffffffffffffff838183161783525050505090506000808251602084016000737874d94b8f9e2a28fccece404666c984f33a82b85af13d6000803e806000811461064f57600051965060205195506040519450610654565b3d6000fd5b50505050955095509592505050565b606061069a7319a0870a66b305be9917c0f14811c970de18e6fc73fb72aadb17a855d27a68b565ee0a84cb30a387e48686866106a3565b90509392505050565b60606000610e10426106b59190610e7b565b90506000858560405180604001604052808b73ffffffffffffffffffffffffffffffffffffffff1673ffffffffffffffffffffffffffffffffffffffff1681526020018a73ffffffffffffffffffffffffffffffffffffffff1673ffffffffffffffffffffffffffffffffffffffff16815250868560405160240161073e959493929190610d7a565b6040516020818303038152906040527f5d8fd92d000000000000000000000000000000000000000000000000000000007bffffffffffffffffffffffffffffffffffffffffffffffffffffffff19166020820180517bffffffffffffffffffffffffffffffffffffffffffffffffffffffff83818316178352505050509050600080825160208401737874d94b8f9e2a28fccece404666c984f33a82b85af43d6000803e80600081146107f0573d6000f35b3d6000fd5b60008033308460405160240161080d93929190610c2d565b6040516020818303038152906040527f23b872dd000000000000000000000000000000000000000000000000000000007bffffffffffffffffffffffffffffffffffffffffffffffffffffffff19166020820180517bffffffffffffffffffffffffffffffffffffffffffffffffffffffff838183161783525050505090506000808251602084016000885af13d6000803e80600081146108b25760005193506108b7565b3d6000fd5b5050826000808673ffffffffffffffffffffffffffffffffffffffff1673ffffffffffffffffffffffffffffffffffffffff16815260200190815260200160002060003373ffffffffffffffffffffffffffffffffffffffff1673ffffffffffffffffffffffffffffffffffffffff16815260200190815260200160002060008282546109449190610e7b565b925050819055505092915050565b60008135905061096181610fd3565b92915050565b60008135905061097681610fea565b92915050565b6000806040838503121561099357610992610f7c565b5b60006109a185828601610952565b92505060206109b285828601610952565b9150509250929050565b6000602082840312156109d2576109d1610f7c565b5b60006109e084828501610967565b91505092915050565b600080600060608486031215610a0257610a01610f7c565b5b6000610a1086828701610967565b9350506020610a2186828701610967565b9250506040610a3286828701610952565b9150509250925092565b600080600080600060a08688031215610a5857610a57610f7c565b5b6000610a6688828901610967565b9550506020610a7788828901610967565b9450506040610a8888828901610967565b9350506060610a9988828901610967565b9250506080610aaa88828901610952565b9150509295509295909350565b6000610ac38383610ae7565b60208301905092915050565b6000610adb8383610c0f565b60208301905092915050565b610af081610f05565b82525050565b610aff81610f05565b82525050565b610b0e81610e1e565b610b188184610e4e565b9250610b2382610e04565b8060005b83811015610b54578151610b3b8782610ab7565b9650610b4683610e34565b925050600181019050610b27565b505050505050565b6000610b6782610e29565b610b718185610e59565b9350610b7c83610e0e565b8060005b83811015610bad578151610b948882610acf565b9750610b9f83610e41565b925050600181019050610b80565b5085935050505092915050565b610bc381610f17565b82525050565b6000610bd6602083610e6a565b9150610be182610f81565b602082019050919050565b6000610bf9602083610e6a565b9150610c0482610faa565b602082019050919050565b610c1881610f43565b82525050565b610c2781610f43565b82525050565b6000606082019050610c426000830186610af6565b610c4f6020830185610af6565b610c5c6040830184610c1e565b949350505050565b600061010082019050610c7a600083018b610af6565b610c87602083018a610af6565b610c946040830189610c1e565b610ca16060830188610c1e565b610cae6080830187610c1e565b610cbb60a0830186610c1e565b610cc860c0830185610af6565b610cd560e0830184610c1e565b9998505050505050505050565b60006020820190508181036000830152610cfc8184610b5c565b905092915050565b6000602082019050610d196000830184610bba565b92915050565b60006020820190508181036000830152610d3881610bc9565b9050919050565b60006020820190508181036000830152610d5881610bec565b9050919050565b6000602082019050610d746000830184610c1e565b92915050565b600060c082019050610d8f6000830188610c1e565b610d9c6020830187610c1e565b610da96040830186610b05565b610db66080830185610af6565b610dc360a0830184610c1e565b9695505050505050565b6000606082019050610de26000830186610c1e565b610def6020830185610c1e565b610dfc6040830184610c1e565b949350505050565b6000819050919050565b6000819050602082019050919050565b600060029050919050565b600081519050919050565b6000602082019050919050565b6000602082019050919050565b600081905092915050565b600082825260208201905092915050565b600082825260208201905092915050565b6000610e8682610f43565b9150610e9183610f43565b9250827fffffffffffffffffffffffffffffffffffffffffffffffffffffffffffffffff03821115610ec657610ec5610f4d565b5b828201905092915050565b6000610edc82610f43565b9150610ee783610f43565b925082821015610efa57610ef9610f4d565b5b828203905092915050565b6000610f1082610f23565b9050919050565b60008115159050919050565b600073ffffffffffffffffffffffffffffffffffffffff82169050919050565b6000819050919050565b7f4e487b7100000000000000000000000000000000000000000000000000000000600052601160045260246000fd5b600080fd5b7f556e69737761704d61726b65743a206e6f7420656e6f75676820746f6b656e42600082015250565b7f556e69737761704d61726b65743a206e6f7420656e6f75676820746f6b656e41600082015250565b610fdc81610f05565b8114610fe757600080fd5b50565b610ff381610f43565b8114610ffe57600080fd5b5056fea2646970667358221220430da65cee17d9a94896d8b9dcc898efe527b8638f78e2b9fa0b4b31dd2563f064736f6c63430008070033",
			"opcodes": "PUSH1 0x80 PUSH1 0x40 MSTORE CALLVALUE DUP1 ISZERO PUSH2 0x10 JUMPI PUSH1 0x0 DUP1 REVERT JUMPDEST POP PUSH2 0x1037 DUP1 PUSH2 0x20 PUSH1 0x0 CODECOPY PUSH1 0x0 RETURN INVALID PUSH1 0x80 PUSH1 0x40 MSTORE CALLVALUE DUP1 ISZERO PUSH2 0x10 JUMPI PUSH1 0x0 DUP1 REVERT JUMPDEST POP PUSH1 0x4 CALLDATASIZE LT PUSH2 0x62 JUMPI PUSH1 0x0 CALLDATALOAD PUSH1 0xE0 SHR DUP1 PUSH4 0x43308BF6 EQ PUSH2 0x67 JUMPI DUP1 PUSH4 0x4DBF6C5A EQ PUSH2 0x97 JUMPI DUP1 PUSH4 0x76182BAF EQ PUSH2 0xC7 JUMPI DUP1 PUSH4 0x9E30B1E8 EQ PUSH2 0xF7 JUMPI DUP1 PUSH4 0xE0AB0772 EQ PUSH2 0x127 JUMPI DUP1 PUSH4 0xF612E299 EQ PUSH2 0x159 JUMPI JUMPDEST PUSH1 0x0 DUP1 REVERT JUMPDEST PUSH2 0x81 PUSH1 0x4 DUP1 CALLDATASIZE SUB DUP2 ADD SWAP1 PUSH2 0x7C SWAP2 SWAP1 PUSH2 0x9E9 JUMP JUMPDEST PUSH2 0x189 JUMP JUMPDEST PUSH1 0x40 MLOAD PUSH2 0x8E SWAP2 SWAP1 PUSH2 0xCE2 JUMP JUMPDEST PUSH1 0x40 MLOAD DUP1 SWAP2 SUB SWAP1 RETURN JUMPDEST PUSH2 0xB1 PUSH1 0x4 DUP1 CALLDATASIZE SUB DUP2 ADD SWAP1 PUSH2 0xAC SWAP2 SWAP1 PUSH2 0x97C JUMP JUMPDEST PUSH2 0x1C9 JUMP JUMPDEST PUSH1 0x40 MLOAD PUSH2 0xBE SWAP2 SWAP1 PUSH2 0xD5F JUMP JUMPDEST PUSH1 0x40 MLOAD DUP1 SWAP2 SUB SWAP1 RETURN JUMPDEST PUSH2 0xE1 PUSH1 0x4 DUP1 CALLDATASIZE SUB DUP2 ADD SWAP1 PUSH2 0xDC SWAP2 SWAP1 PUSH2 0x9BC JUMP JUMPDEST PUSH2 0x1EE JUMP JUMPDEST PUSH1 0x40 MLOAD PUSH2 0xEE SWAP2 SWAP1 PUSH2 0xD04 JUMP JUMPDEST PUSH1 0x40 MLOAD DUP1 SWAP2 SUB SWAP1 RETURN JUMPDEST PUSH2 0x111 PUSH1 0x4 DUP1 CALLDATASIZE SUB DUP2 ADD SWAP1 PUSH2 0x10C SWAP2 SWAP1 PUSH2 0x9BC JUMP JUMPDEST PUSH2 0x215 JUMP JUMPDEST PUSH1 0x40 MLOAD PUSH2 0x11E SWAP2 SWAP1 PUSH2 0xD04 JUMP JUMPDEST PUSH1 0x40 MLOAD DUP1 SWAP2 SUB SWAP1 RETURN JUMPDEST PUSH2 0x141 PUSH1 0x4 DUP1 CALLDATASIZE SUB DUP2 ADD SWAP1 PUSH2 0x13C SWAP2 SWAP1 PUSH2 0xA3C JUMP JUMPDEST PUSH2 0x23C JUMP JUMPDEST PUSH1 0x40 MLOAD PUSH2 0x150 SWAP4 SWAP3 SWAP2 SWAP1 PUSH2 0xDCD JUMP JUMPDEST PUSH1 0x40 MLOAD DUP1 SWAP2 SUB SWAP1 RETURN JUMPDEST PUSH2 0x173 PUSH1 0x4 DUP1 CALLDATASIZE SUB DUP2 ADD SWAP1 PUSH2 0x16E SWAP2 SWAP1 PUSH2 0x9E9 JUMP JUMPDEST PUSH2 0x663 JUMP JUMPDEST PUSH1 0x40 MLOAD PUSH2 0x180 SWAP2 SWAP1 PUSH2 0xCE2 JUMP JUMPDEST PUSH1 0x40 MLOAD DUP1 SWAP2 SUB SWAP1 RETURN JUMPDEST PUSH1 0x60 PUSH2 0x1C0 PUSH20 0xFB72AADB17A855D27A68B565EE0A84CB30A387E4 PUSH20 0x19A0870A66B305BE9917C0F14811C970DE18E6FC DUP7 DUP7 DUP7 PUSH2 0x6A3 JUMP JUMPDEST SWAP1 POP SWAP4 SWAP3 POP POP POP JUMP JUMPDEST PUSH1 0x0 PUSH1 0x20 MSTORE DUP2 PUSH1 0x0 MSTORE PUSH1 0x40 PUSH1 0x0 KECCAK256 PUSH1 0x20 MSTORE DUP1 PUSH1 0x0 MSTORE PUSH1 0x40 PUSH1 0x0 KECCAK256 PUSH1 0x0 SWAP2 POP SWAP2 POP POP SLOAD DUP2 JUMP JUMPDEST PUSH1 0x0 PUSH2 0x20E PUSH20 0xFB72AADB17A855D27A68B565EE0A84CB30A387E4 DUP4 PUSH2 0x7F5 JUMP JUMPDEST SWAP1 POP SWAP2 SWAP1 POP JUMP JUMPDEST PUSH1 0x0 PUSH2 0x235 PUSH20 0x19A0870A66B305BE9917C0F14811C970DE18E6FC DUP4 PUSH2 0x7F5 JUMP JUMPDEST SWAP1 POP SWAP2 SWAP1 POP JUMP JUMPDEST PUSH1 0x0 DUP1 PUSH1 0x0 DUP8 PUSH1 0x0 DUP1 PUSH20 0x19A0870A66B305BE9917C0F14811C970DE18E6FC PUSH20 0xFFFFFFFFFFFFFFFFFFFFFFFFFFFFFFFFFFFFFFFF AND PUSH20 0xFFFFFFFFFFFFFFFFFFFFFFFFFFFFFFFFFFFFFFFF AND DUP2 MSTORE PUSH1 0x20 ADD SWAP1 DUP2 MSTORE PUSH1 0x20 ADD PUSH1 0x0 KECCAK256 PUSH1 0x0 CALLER PUSH20 0xFFFFFFFFFFFFFFFFFFFFFFFFFFFFFFFFFFFFFFFF AND PUSH20 0xFFFFFFFFFFFFFFFFFFFFFFFFFFFFFFFFFFFFFFFF AND DUP2 MSTORE PUSH1 0x20 ADD SWAP1 DUP2 MSTORE PUSH1 0x20 ADD PUSH1 0x0 KECCAK256 SLOAD LT ISZERO PUSH2 0x313 JUMPI PUSH1 0x40 MLOAD PUSH32 0x8C379A000000000000000000000000000000000000000000000000000000000 DUP2 MSTORE PUSH1 0x4 ADD PUSH2 0x30A SWAP1 PUSH2 0xD3F JUMP JUMPDEST PUSH1 0x40 MLOAD DUP1 SWAP2 SUB SWAP1 REVERT JUMPDEST DUP7 PUSH1 0x0 DUP1 PUSH20 0xFB72AADB17A855D27A68B565EE0A84CB30A387E4 PUSH20 0xFFFFFFFFFFFFFFFFFFFFFFFFFFFFFFFFFFFFFFFF AND PUSH20 0xFFFFFFFFFFFFFFFFFFFFFFFFFFFFFFFFFFFFFFFF AND DUP2 MSTORE PUSH1 0x20 ADD SWAP1 DUP2 MSTORE PUSH1 0x20 ADD PUSH1 0x0 KECCAK256 PUSH1 0x0 CALLER PUSH20 0xFFFFFFFFFFFFFFFFFFFFFFFFFFFFFFFFFFFFFFFF AND PUSH20 0xFFFFFFFFFFFFFFFFFFFFFFFFFFFFFFFFFFFFFFFF AND DUP2 MSTORE PUSH1 0x20 ADD SWAP1 DUP2 MSTORE PUSH1 0x20 ADD PUSH1 0x0 KECCAK256 SLOAD LT ISZERO PUSH2 0x3E5 JUMPI PUSH1 0x40 MLOAD PUSH32 0x8C379A000000000000000000000000000000000000000000000000000000000 DUP2 MSTORE PUSH1 0x4 ADD PUSH2 0x3DC SWAP1 PUSH2 0xD1F JUMP JUMPDEST PUSH1 0x40 MLOAD DUP1 SWAP2 SUB SWAP1 REVERT JUMPDEST DUP8 PUSH1 0x0 DUP1 PUSH20 0x19A0870A66B305BE9917C0F14811C970DE18E6FC PUSH20 0xFFFFFFFFFFFFFFFFFFFFFFFFFFFFFFFFFFFFFFFF AND PUSH20 0xFFFFFFFFFFFFFFFFFFFFFFFFFFFFFFFFFFFFFFFF AND DUP2 MSTORE PUSH1 0x20 ADD SWAP1 DUP2 MSTORE PUSH1 0x20 ADD PUSH1 0x0 KECCAK256 PUSH1 0x0 CALLER PUSH20 0xFFFFFFFFFFFFFFFFFFFFFFFFFFFFFFFFFFFFFFFF AND PUSH20 0xFFFFFFFFFFFFFFFFFFFFFFFFFFFFFFFFFFFFFFFF AND DUP2 MSTORE PUSH1 0x20 ADD SWAP1 DUP2 MSTORE PUSH1 0x20 ADD PUSH1 0x0 KECCAK256 PUSH1 0x0 DUP3 DUP3 SLOAD PUSH2 0x484 SWAP2 SWAP1 PUSH2 0xED1 JUMP JUMPDEST SWAP3 POP POP DUP2 SWAP1 SSTORE POP DUP7 PUSH1 0x0 DUP1 PUSH20 0xFB72AADB17A855D27A68B565EE0A84CB30A387E4 PUSH20 0xFFFFFFFFFFFFFFFFFFFFFFFFFFFFFFFFFFFFFFFF AND PUSH20 0xFFFFFFFFFFFFFFFFFFFFFFFFFFFFFFFFFFFFFFFF AND DUP2 MSTORE PUSH1 0x20 ADD SWAP1 DUP2 MSTORE PUSH1 0x20 ADD PUSH1 0x0 KECCAK256 PUSH1 0x0 CALLER PUSH20 0xFFFFFFFFFFFFFFFFFFFFFFFFFFFFFFFFFFFFFFFF AND PUSH20 0xFFFFFFFFFFFFFFFFFFFFFFFFFFFFFFFFFFFFFFFF AND DUP2 MSTORE PUSH1 0x20 ADD SWAP1 DUP2 MSTORE PUSH1 0x20 ADD PUSH1 0x0 KECCAK256 PUSH1 0x0 DUP3 DUP3 SLOAD PUSH2 0x52A SWAP2 SWAP1 PUSH2 0xED1 JUMP JUMPDEST SWAP3 POP POP DUP2 SWAP1 SSTORE POP PUSH1 0x0 PUSH2 0xE10 TIMESTAMP PUSH2 0x541 SWAP2 SWAP1 PUSH2 0xE7B JUMP JUMPDEST SWAP1 POP PUSH1 0x0 PUSH20 0x19A0870A66B305BE9917C0F14811C970DE18E6FC PUSH20 0xFB72AADB17A855D27A68B565EE0A84CB30A387E4 DUP12 DUP12 DUP12 DUP12 DUP12 DUP9 PUSH1 0x40 MLOAD PUSH1 0x24 ADD PUSH2 0x58C SWAP9 SWAP8 SWAP7 SWAP6 SWAP5 SWAP4 SWAP3 SWAP2 SWAP1 PUSH2 0xC64 JUMP JUMPDEST PUSH1 0x40 MLOAD PUSH1 0x20 DUP2 DUP4 SUB SUB DUP2 MSTORE SWAP1 PUSH1 0x40 MSTORE PUSH32 0xDD83139F00000000000000000000000000000000000000000000000000000000 PUSH28 0xFFFFFFFFFFFFFFFFFFFFFFFFFFFFFFFFFFFFFFFFFFFFFFFFFFFFFFFF NOT AND PUSH1 0x20 DUP3 ADD DUP1 MLOAD PUSH28 0xFFFFFFFFFFFFFFFFFFFFFFFFFFFFFFFFFFFFFFFFFFFFFFFFFFFFFFFF DUP4 DUP2 DUP4 AND OR DUP4 MSTORE POP POP POP POP SWAP1 POP PUSH1 0x0 DUP1 DUP3 MLOAD PUSH1 0x20 DUP5 ADD PUSH1 0x0 PUSH20 0x7874D94B8F9E2A28FCCECE404666C984F33A82B8 GAS CALL RETURNDATASIZE PUSH1 0x0 DUP1 RETURNDATACOPY DUP1 PUSH1 0x0 DUP2 EQ PUSH2 0x64F JUMPI PUSH1 0x0 MLOAD SWAP7 POP PUSH1 0x20 MLOAD SWAP6 POP PUSH1 0x40 MLOAD SWAP5 POP PUSH2 0x654 JUMP JUMPDEST RETURNDATASIZE PUSH1 0x0 REVERT JUMPDEST POP POP POP POP SWAP6 POP SWAP6 POP SWAP6 SWAP3 POP POP POP JUMP JUMPDEST PUSH1 0x60 PUSH2 0x69A PUSH20 0x19A0870A66B305BE9917C0F14811C970DE18E6FC PUSH20 0xFB72AADB17A855D27A68B565EE0A84CB30A387E4 DUP7 DUP7 DUP7 PUSH2 0x6A3 JUMP JUMPDEST SWAP1 POP SWAP4 SWAP3 POP POP POP JUMP JUMPDEST PUSH1 0x60 PUSH1 0x0 PUSH2 0xE10 TIMESTAMP PUSH2 0x6B5 SWAP2 SWAP1 PUSH2 0xE7B JUMP JUMPDEST SWAP1 POP PUSH1 0x0 DUP6 DUP6 PUSH1 0x40 MLOAD DUP1 PUSH1 0x40 ADD PUSH1 0x40 MSTORE DUP1 DUP12 PUSH20 0xFFFFFFFFFFFFFFFFFFFFFFFFFFFFFFFFFFFFFFFF AND PUSH20 0xFFFFFFFFFFFFFFFFFFFFFFFFFFFFFFFFFFFFFFFF AND DUP2 MSTORE PUSH1 0x20 ADD DUP11 PUSH20 0xFFFFFFFFFFFFFFFFFFFFFFFFFFFFFFFFFFFFFFFF AND PUSH20 0xFFFFFFFFFFFFFFFFFFFFFFFFFFFFFFFFFFFFFFFF AND DUP2 MSTORE POP DUP7 DUP6 PUSH1 0x40 MLOAD PUSH1 0x24 ADD PUSH2 0x73E SWAP6 SWAP5 SWAP4 SWAP3 SWAP2 SWAP1 PUSH2 0xD7A JUMP JUMPDEST PUSH1 0x40 MLOAD PUSH1 0x20 DUP2 DUP4 SUB SUB DUP2 MSTORE SWAP1 PUSH1 0x40 MSTORE PUSH32 0x5D8FD92D00000000000000000000000000000000000000000000000000000000 PUSH28 0xFFFFFFFFFFFFFFFFFFFFFFFFFFFFFFFFFFFFFFFFFFFFFFFFFFFFFFFF NOT AND PUSH1 0x20 DUP3 ADD DUP1 MLOAD PUSH28 0xFFFFFFFFFFFFFFFFFFFFFFFFFFFFFFFFFFFFFFFFFFFFFFFFFFFFFFFF DUP4 DUP2 DUP4 AND OR DUP4 MSTORE POP POP POP POP SWAP1 POP PUSH1 0x0 DUP1 DUP3 MLOAD PUSH1 0x20 DUP5 ADD PUSH20 0x7874D94B8F9E2A28FCCECE404666C984F33A82B8 GAS DELEGATECALL RETURNDATASIZE PUSH1 0x0 DUP1 RETURNDATACOPY DUP1 PUSH1 0x0 DUP2 EQ PUSH2 0x7F0 JUMPI RETURNDATASIZE PUSH1 0x0 RETURN JUMPDEST RETURNDATASIZE PUSH1 0x0 REVERT JUMPDEST PUSH1 0x0 DUP1 CALLER ADDRESS DUP5 PUSH1 0x40 MLOAD PUSH1 0x24 ADD PUSH2 0x80D SWAP4 SWAP3 SWAP2 SWAP1 PUSH2 0xC2D JUMP JUMPDEST PUSH1 0x40 MLOAD PUSH1 0x20 DUP2 DUP4 SUB SUB DUP2 MSTORE SWAP1 PUSH1 0x40 MSTORE PUSH32 0x23B872DD00000000000000000000000000000000000000000000000000000000 PUSH28 0xFFFFFFFFFFFFFFFFFFFFFFFFFFFFFFFFFFFFFFFFFFFFFFFFFFFFFFFF NOT AND PUSH1 0x20 DUP3 ADD DUP1 MLOAD PUSH28 0xFFFFFFFFFFFFFFFFFFFFFFFFFFFFFFFFFFFFFFFFFFFFFFFFFFFFFFFF DUP4 DUP2 DUP4 AND OR DUP4 MSTORE POP POP POP POP SWAP1 POP PUSH1 0x0 DUP1 DUP3 MLOAD PUSH1 0x20 DUP5 ADD PUSH1 0x0 DUP9 GAS CALL RETURNDATASIZE PUSH1 0x0 DUP1 RETURNDATACOPY DUP1 PUSH1 0x0 DUP2 EQ PUSH2 0x8B2 JUMPI PUSH1 0x0 MLOAD SWAP4 POP PUSH2 0x8B7 JUMP JUMPDEST RETURNDATASIZE PUSH1 0x0 REVERT JUMPDEST POP POP DUP3 PUSH1 0x0 DUP1 DUP7 PUSH20 0xFFFFFFFFFFFFFFFFFFFFFFFFFFFFFFFFFFFFFFFF AND PUSH20 0xFFFFFFFFFFFFFFFFFFFFFFFFFFFFFFFFFFFFFFFF AND DUP2 MSTORE PUSH1 0x20 ADD SWAP1 DUP2 MSTORE PUSH1 0x20 ADD PUSH1 0x0 KECCAK256 PUSH1 0x0 CALLER PUSH20 0xFFFFFFFFFFFFFFFFFFFFFFFFFFFFFFFFFFFFFFFF AND PUSH20 0xFFFFFFFFFFFFFFFFFFFFFFFFFFFFFFFFFFFFFFFF AND DUP2 MSTORE PUSH1 0x20 ADD SWAP1 DUP2 MSTORE PUSH1 0x20 ADD PUSH1 0x0 KECCAK256 PUSH1 0x0 DUP3 DUP3 SLOAD PUSH2 0x944 SWAP2 SWAP1 PUSH2 0xE7B JUMP JUMPDEST SWAP3 POP POP DUP2 SWAP1 SSTORE POP POP SWAP3 SWAP2 POP POP JUMP JUMPDEST PUSH1 0x0 DUP2 CALLDATALOAD SWAP1 POP PUSH2 0x961 DUP2 PUSH2 0xFD3 JUMP JUMPDEST SWAP3 SWAP2 POP POP JUMP JUMPDEST PUSH1 0x0 DUP2 CALLDATALOAD SWAP1 POP PUSH2 0x976 DUP2 PUSH2 0xFEA JUMP JUMPDEST SWAP3 SWAP2 POP POP JUMP JUMPDEST PUSH1 0x0 DUP1 PUSH1 0x40 DUP4 DUP6 SUB SLT ISZERO PUSH2 0x993 JUMPI PUSH2 0x992 PUSH2 0xF7C JUMP JUMPDEST JUMPDEST PUSH1 0x0 PUSH2 0x9A1 DUP6 DUP3 DUP7 ADD PUSH2 0x952 JUMP JUMPDEST SWAP3 POP POP PUSH1 0x20 PUSH2 0x9B2 DUP6 DUP3 DUP7 ADD PUSH2 0x952 JUMP JUMPDEST SWAP2 POP POP SWAP3 POP SWAP3 SWAP1 POP JUMP JUMPDEST PUSH1 0x0 PUSH1 0x20 DUP3 DUP5 SUB SLT ISZERO PUSH2 0x9D2 JUMPI PUSH2 0x9D1 PUSH2 0xF7C JUMP JUMPDEST JUMPDEST PUSH1 0x0 PUSH2 0x9E0 DUP5 DUP3 DUP6 ADD PUSH2 0x967 JUMP JUMPDEST SWAP2 POP POP SWAP3 SWAP2 POP POP JUMP JUMPDEST PUSH1 0x0 DUP1 PUSH1 0x0 PUSH1 0x60 DUP5 DUP7 SUB SLT ISZERO PUSH2 0xA02 JUMPI PUSH2 0xA01 PUSH2 0xF7C JUMP JUMPDEST JUMPDEST PUSH1 0x0 PUSH2 0xA10 DUP7 DUP3 DUP8 ADD PUSH2 0x967 JUMP JUMPDEST SWAP4 POP POP PUSH1 0x20 PUSH2 0xA21 DUP7 DUP3 DUP8 ADD PUSH2 0x967 JUMP JUMPDEST SWAP3 POP POP PUSH1 0x40 PUSH2 0xA32 DUP7 DUP3 DUP8 ADD PUSH2 0x952 JUMP JUMPDEST SWAP2 POP POP SWAP3 POP SWAP3 POP SWAP3 JUMP JUMPDEST PUSH1 0x0 DUP1 PUSH1 0x0 DUP1 PUSH1 0x0 PUSH1 0xA0 DUP7 DUP9 SUB SLT ISZERO PUSH2 0xA58 JUMPI PUSH2 0xA57 PUSH2 0xF7C JUMP JUMPDEST JUMPDEST PUSH1 0x0 PUSH2 0xA66 DUP9 DUP3 DUP10 ADD PUSH2 0x967 JUMP JUMPDEST SWAP6 POP POP PUSH1 0x20 PUSH2 0xA77 DUP9 DUP3 DUP10 ADD PUSH2 0x967 JUMP JUMPDEST SWAP5 POP POP PUSH1 0x40 PUSH2 0xA88 DUP9 DUP3 DUP10 ADD PUSH2 0x967 JUMP JUMPDEST SWAP4 POP POP PUSH1 0x60 PUSH2 0xA99 DUP9 DUP3 DUP10 ADD PUSH2 0x967 JUMP JUMPDEST SWAP3 POP POP PUSH1 0x80 PUSH2 0xAAA DUP9 DUP3 DUP10 ADD PUSH2 0x952 JUMP JUMPDEST SWAP2 POP POP SWAP3 SWAP6 POP SWAP3 SWAP6 SWAP1 SWAP4 POP JUMP JUMPDEST PUSH1 0x0 PUSH2 0xAC3 DUP4 DUP4 PUSH2 0xAE7 JUMP JUMPDEST PUSH1 0x20 DUP4 ADD SWAP1 POP SWAP3 SWAP2 POP POP JUMP JUMPDEST PUSH1 0x0 PUSH2 0xADB DUP4 DUP4 PUSH2 0xC0F JUMP JUMPDEST PUSH1 0x20 DUP4 ADD SWAP1 POP SWAP3 SWAP2 POP POP JUMP JUMPDEST PUSH2 0xAF0 DUP2 PUSH2 0xF05 JUMP JUMPDEST DUP3 MSTORE POP POP JUMP JUMPDEST PUSH2 0xAFF DUP2 PUSH2 0xF05 JUMP JUMPDEST DUP3 MSTORE POP POP JUMP JUMPDEST PUSH2 0xB0E DUP2 PUSH2 0xE1E JUMP JUMPDEST PUSH2 0xB18 DUP2 DUP5 PUSH2 0xE4E JUMP JUMPDEST SWAP3 POP PUSH2 0xB23 DUP3 PUSH2 0xE04 JUMP JUMPDEST DUP1 PUSH1 0x0 JUMPDEST DUP4 DUP2 LT ISZERO PUSH2 0xB54 JUMPI DUP2 MLOAD PUSH2 0xB3B DUP8 DUP3 PUSH2 0xAB7 JUMP JUMPDEST SWAP7 POP PUSH2 0xB46 DUP4 PUSH2 0xE34 JUMP JUMPDEST SWAP3 POP POP PUSH1 0x1 DUP2 ADD SWAP1 POP PUSH2 0xB27 JUMP JUMPDEST POP POP POP POP POP POP JUMP JUMPDEST PUSH1 0x0 PUSH2 0xB67 DUP3 PUSH2 0xE29 JUMP JUMPDEST PUSH2 0xB71 DUP2 DUP6 PUSH2 0xE59 JUMP JUMPDEST SWAP4 POP PUSH2 0xB7C DUP4 PUSH2 0xE0E JUMP JUMPDEST DUP1 PUSH1 0x0 JUMPDEST DUP4 DUP2 LT ISZERO PUSH2 0xBAD JUMPI DUP2 MLOAD PUSH2 0xB94 DUP9 DUP3 PUSH2 0xACF JUMP JUMPDEST SWAP8 POP PUSH2 0xB9F DUP4 PUSH2 0xE41 JUMP JUMPDEST SWAP3 POP POP PUSH1 0x1 DUP2 ADD SWAP1 POP PUSH2 0xB80 JUMP JUMPDEST POP DUP6 SWAP4 POP POP POP POP SWAP3 SWAP2 POP POP JUMP JUMPDEST PUSH2 0xBC3 DUP2 PUSH2 0xF17 JUMP JUMPDEST DUP3 MSTORE POP POP JUMP JUMPDEST PUSH1 0x0 PUSH2 0xBD6 PUSH1 0x20 DUP4 PUSH2 0xE6A JUMP JUMPDEST SWAP2 POP PUSH2 0xBE1 DUP3 PUSH2 0xF81 JUMP JUMPDEST PUSH1 0x20 DUP3 ADD SWAP1 POP SWAP2 SWAP1 POP JUMP JUMPDEST PUSH1 0x0 PUSH2 0xBF9 PUSH1 0x20 DUP4 PUSH2 0xE6A JUMP JUMPDEST SWAP2 POP PUSH2 0xC04 DUP3 PUSH2 0xFAA JUMP JUMPDEST PUSH1 0x20 DUP3 ADD SWAP1 POP SWAP2 SWAP1 POP JUMP JUMPDEST PUSH2 0xC18 DUP2 PUSH2 0xF43 JUMP JUMPDEST DUP3 MSTORE POP POP JUMP JUMPDEST PUSH2 0xC27 DUP2 PUSH2 0xF43 JUMP JUMPDEST DUP3 MSTORE POP POP JUMP JUMPDEST PUSH1 0x0 PUSH1 0x60 DUP3 ADD SWAP1 POP PUSH2 0xC42 PUSH1 0x0 DUP4 ADD DUP7 PUSH2 0xAF6 JUMP JUMPDEST PUSH2 0xC4F PUSH1 0x20 DUP4 ADD DUP6 PUSH2 0xAF6 JUMP JUMPDEST PUSH2 0xC5C PUSH1 0x40 DUP4 ADD DUP5 PUSH2 0xC1E JUMP JUMPDEST SWAP5 SWAP4 POP POP POP POP JUMP JUMPDEST PUSH1 0x0 PUSH2 0x100 DUP3 ADD SWAP1 POP PUSH2 0xC7A PUSH1 0x0 DUP4 ADD DUP12 PUSH2 0xAF6 JUMP JUMPDEST PUSH2 0xC87 PUSH1 0x20 DUP4 ADD DUP11 PUSH2 0xAF6 JUMP JUMPDEST PUSH2 0xC94 PUSH1 0x40 DUP4 ADD DUP10 PUSH2 0xC1E JUMP JUMPDEST PUSH2 0xCA1 PUSH1 0x60 DUP4 ADD DUP9 PUSH2 0xC1E JUMP JUMPDEST PUSH2 0xCAE PUSH1 0x80 DUP4 ADD DUP8 PUSH2 0xC1E JUMP JUMPDEST PUSH2 0xCBB PUSH1 0xA0 DUP4 ADD DUP7 PUSH2 0xC1E JUMP JUMPDEST PUSH2 0xCC8 PUSH1 0xC0 DUP4 ADD DUP6 PUSH2 0xAF6 JUMP JUMPDEST PUSH2 0xCD5 PUSH1 0xE0 DUP4 ADD DUP5 PUSH2 0xC1E JUMP JUMPDEST SWAP10 SWAP9 POP POP POP POP POP POP POP POP POP JUMP JUMPDEST PUSH1 0x0 PUSH1 0x20 DUP3 ADD SWAP1 POP DUP2 DUP2 SUB PUSH1 0x0 DUP4 ADD MSTORE PUSH2 0xCFC DUP2 DUP5 PUSH2 0xB5C JUMP JUMPDEST SWAP1 POP SWAP3 SWAP2 POP POP JUMP JUMPDEST PUSH1 0x0 PUSH1 0x20 DUP3 ADD SWAP1 POP PUSH2 0xD19 PUSH1 0x0 DUP4 ADD DUP5 PUSH2 0xBBA JUMP JUMPDEST SWAP3 SWAP2 POP POP JUMP JUMPDEST PUSH1 0x0 PUSH1 0x20 DUP3 ADD SWAP1 POP DUP2 DUP2 SUB PUSH1 0x0 DUP4 ADD MSTORE PUSH2 0xD38 DUP2 PUSH2 0xBC9 JUMP JUMPDEST SWAP1 POP SWAP2 SWAP1 POP JUMP JUMPDEST PUSH1 0x0 PUSH1 0x20 DUP3 ADD SWAP1 POP DUP2 DUP2 SUB PUSH1 0x0 DUP4 ADD MSTORE PUSH2 0xD58 DUP2 PUSH2 0xBEC JUMP JUMPDEST SWAP1 POP SWAP2 SWAP1 POP JUMP JUMPDEST PUSH1 0x0 PUSH1 0x20 DUP3 ADD SWAP1 POP PUSH2 0xD74 PUSH1 0x0 DUP4 ADD DUP5 PUSH2 0xC1E JUMP JUMPDEST SWAP3 SWAP2 POP POP JUMP JUMPDEST PUSH1 0x0 PUSH1 0xC0 DUP3 ADD SWAP1 POP PUSH2 0xD8F PUSH1 0x0 DUP4 ADD DUP9 PUSH2 0xC1E JUMP JUMPDEST PUSH2 0xD9C PUSH1 0x20 DUP4 ADD DUP8 PUSH2 0xC1E JUMP JUMPDEST PUSH2 0xDA9 PUSH1 0x40 DUP4 ADD DUP7 PUSH2 0xB05 JUMP JUMPDEST PUSH2 0xDB6 PUSH1 0x80 DUP4 ADD DUP6 PUSH2 0xAF6 JUMP JUMPDEST PUSH2 0xDC3 PUSH1 0xA0 DUP4 ADD DUP5 PUSH2 0xC1E JUMP JUMPDEST SWAP7 SWAP6 POP POP POP POP POP POP JUMP JUMPDEST PUSH1 0x0 PUSH1 0x60 DUP3 ADD SWAP1 POP PUSH2 0xDE2 PUSH1 0x0 DUP4 ADD DUP7 PUSH2 0xC1E JUMP JUMPDEST PUSH2 0xDEF PUSH1 0x20 DUP4 ADD DUP6 PUSH2 0xC1E JUMP JUMPDEST PUSH2 0xDFC PUSH1 0x40 DUP4 ADD DUP5 PUSH2 0xC1E JUMP JUMPDEST SWAP5 SWAP4 POP POP POP POP JUMP JUMPDEST PUSH1 0x0 DUP2 SWAP1 POP SWAP2 SWAP1 POP JUMP JUMPDEST PUSH1 0x0 DUP2 SWAP1 POP PUSH1 0x20 DUP3 ADD SWAP1 POP SWAP2 SWAP1 POP JUMP JUMPDEST PUSH1 0x0 PUSH1 0x2 SWAP1 POP SWAP2 SWAP1 POP JUMP JUMPDEST PUSH1 0x0 DUP2 MLOAD SWAP1 POP SWAP2 SWAP1 POP JUMP JUMPDEST PUSH1 0x0 PUSH1 0x20 DUP3 ADD SWAP1 POP SWAP2 SWAP1 POP JUMP JUMPDEST PUSH1 0x0 PUSH1 0x20 DUP3 ADD SWAP1 POP SWAP2 SWAP1 POP JUMP JUMPDEST PUSH1 0x0 DUP2 SWAP1 POP SWAP3 SWAP2 POP POP JUMP JUMPDEST PUSH1 0x0 DUP3 DUP3 MSTORE PUSH1 0x20 DUP3 ADD SWAP1 POP SWAP3 SWAP2 POP POP JUMP JUMPDEST PUSH1 0x0 DUP3 DUP3 MSTORE PUSH1 0x20 DUP3 ADD SWAP1 POP SWAP3 SWAP2 POP POP JUMP JUMPDEST PUSH1 0x0 PUSH2 0xE86 DUP3 PUSH2 0xF43 JUMP JUMPDEST SWAP2 POP PUSH2 0xE91 DUP4 PUSH2 0xF43 JUMP JUMPDEST SWAP3 POP DUP3 PUSH32 0xFFFFFFFFFFFFFFFFFFFFFFFFFFFFFFFFFFFFFFFFFFFFFFFFFFFFFFFFFFFFFFFF SUB DUP3 GT ISZERO PUSH2 0xEC6 JUMPI PUSH2 0xEC5 PUSH2 0xF4D JUMP JUMPDEST JUMPDEST DUP3 DUP3 ADD SWAP1 POP SWAP3 SWAP2 POP POP JUMP JUMPDEST PUSH1 0x0 PUSH2 0xEDC DUP3 PUSH2 0xF43 JUMP JUMPDEST SWAP2 POP PUSH2 0xEE7 DUP4 PUSH2 0xF43 JUMP JUMPDEST SWAP3 POP DUP3 DUP3 LT ISZERO PUSH2 0xEFA JUMPI PUSH2 0xEF9 PUSH2 0xF4D JUMP JUMPDEST JUMPDEST DUP3 DUP3 SUB SWAP1 POP SWAP3 SWAP2 POP POP JUMP JUMPDEST PUSH1 0x0 PUSH2 0xF10 DUP3 PUSH2 0xF23 JUMP JUMPDEST SWAP1 POP SWAP2 SWAP1 POP JUMP JUMPDEST PUSH1 0x0 DUP2 ISZERO ISZERO SWAP1 POP SWAP2 SWAP1 POP JUMP JUMPDEST PUSH1 0x0 PUSH20 0xFFFFFFFFFFFFFFFFFFFFFFFFFFFFFFFFFFFFFFFF DUP3 AND SWAP1 POP SWAP2 SWAP1 POP JUMP JUMPDEST PUSH1 0x0 DUP2 SWAP1 POP SWAP2 SWAP1 POP JUMP JUMPDEST PUSH32 0x4E487B7100000000000000000000000000000000000000000000000000000000 PUSH1 0x0 MSTORE PUSH1 0x11 PUSH1 0x4 MSTORE PUSH1 0x24 PUSH1 0x0 REVERT JUMPDEST PUSH1 0x0 DUP1 REVERT JUMPDEST PUSH32 0x556E69737761704D61726B65743A206E6F7420656E6F75676820746F6B656E42 PUSH1 0x0 DUP3 ADD MSTORE POP JUMP JUMPDEST PUSH32 0x556E69737761704D61726B65743A206E6F7420656E6F75676820746F6B656E41 PUSH1 0x0 DUP3 ADD MSTORE POP JUMP JUMPDEST PUSH2 0xFDC DUP2 PUSH2 0xF05 JUMP JUMPDEST DUP2 EQ PUSH2 0xFE7 JUMPI PUSH1 0x0 DUP1 REVERT JUMPDEST POP JUMP JUMPDEST PUSH2 0xFF3 DUP2 PUSH2 0xF43 JUMP JUMPDEST DUP2 EQ PUSH2 0xFFE JUMPI PUSH1 0x0 DUP1 REVERT JUMPDEST POP JUMP INVALID LOG2 PUSH5 0x6970667358 0x22 SLT KECCAK256 NUMBER 0xD 0xA6 0x5C 0xEE OR 0xD9 0xA9 BASEFEE SWAP7 0xD8 0xB9 0xDC 0xC8 SWAP9 0xEF 0xE5 0x27 0xB8 PUSH4 0x8F78E2B9 STATICCALL SIGNEXTEND 0x4B BALANCE 0xDD 0x25 PUSH4 0xF064736F PUSH13 0x63430008070033000000000000 "
		},
		"gasEstimates": {
			"creation": {
				"codeDepositCost": "830200",
				"executionCost": "864",
				"totalCost": "831064"
			},
			"external": {
				"addLiquidity(uint256,uint256,uint256,uint256,address)": "infinite",
				"buyTokenA(uint256,uint256,address)": "infinite",
				"buyTokenB(uint256,uint256,address)": "infinite",
				"depositTokenA(uint256)": "infinite",
				"depositTokenB(uint256)": "infinite",
				"tokenBalances(address,address)": "infinite"
			},
			"internal": {
				"buyToken(address,address,uint256,uint256,address)": "infinite",
				"depositToken(address,uint256)": "infinite"
			}
		},
		"methodIdentifiers": {
			"addLiquidity(uint256,uint256,uint256,uint256,address)": "e0ab0772",
			"buyTokenA(uint256,uint256,address)": "43308bf6",
			"buyTokenB(uint256,uint256,address)": "f612e299",
			"depositTokenA(uint256)": "9e30b1e8",
			"depositTokenB(uint256)": "76182baf",
			"tokenBalances(address,address)": "4dbf6c5a"
		}
	},
	"abi": [
		{
			"inputs": [
				{
					"internalType": "uint256",
					"name": "amountADesired",
					"type": "uint256"
				},
				{
					"internalType": "uint256",
					"name": "amountBDesired",
					"type": "uint256"
				},
				{
					"internalType": "uint256",
					"name": "amountAMin",
					"type": "uint256"
				},
				{
					"internalType": "uint256",
					"name": "amountBMin",
					"type": "uint256"
				},
				{
					"internalType": "address",
					"name": "to",
					"type": "address"
				}
			],
			"name": "addLiquidity",
			"outputs": [
				{
					"internalType": "uint256",
					"name": "amountA",
					"type": "uint256"
				},
				{
					"internalType": "uint256",
					"name": "amountB",
					"type": "uint256"
				},
				{
					"internalType": "uint256",
					"name": "liquidity",
					"type": "uint256"
				}
			],
			"stateMutability": "nonpayable",
			"type": "function"
		},
		{
			"inputs": [
				{
					"internalType": "uint256",
					"name": "amountIn",
					"type": "uint256"
				},
				{
					"internalType": "uint256",
					"name": "amountOutMin",
					"type": "uint256"
				},
				{
					"internalType": "address",
					"name": "to",
					"type": "address"
				}
			],
			"name": "buyTokenA",
			"outputs": [
				{
					"internalType": "uint256[]",
					"name": "amounts",
					"type": "uint256[]"
				}
			],
			"stateMutability": "nonpayable",
			"type": "function"
		},
		{
			"inputs": [
				{
					"internalType": "uint256",
					"name": "amountIn",
					"type": "uint256"
				},
				{
					"internalType": "uint256",
					"name": "amountOutMin",
					"type": "uint256"
				},
				{
					"internalType": "address",
					"name": "to",
					"type": "address"
				}
			],
			"name": "buyTokenB",
			"outputs": [
				{
					"internalType": "uint256[]",
					"name": "amounts",
					"type": "uint256[]"
				}
			],
			"stateMutability": "nonpayable",
			"type": "function"
		},
		{
			"inputs": [
				{
					"internalType": "uint256",
					"name": "amount",
					"type": "uint256"
				}
			],
			"name": "depositTokenA",
			"outputs": [
				{
					"internalType": "bool",
					"name": "",
					"type": "bool"
				}
			],
			"stateMutability": "nonpayable",
			"type": "function"
		},
		{
			"inputs": [
				{
					"internalType": "uint256",
					"name": "amount",
					"type": "uint256"
				}
			],
			"name": "depositTokenB",
			"outputs": [
				{
					"internalType": "bool",
					"name": "result",
					"type": "bool"
				}
			],
			"stateMutability": "nonpayable",
			"type": "function"
		},
		{
			"inputs": [
				{
					"internalType": "address",
					"name": "",
					"type": "address"
				},
				{
					"internalType": "address",
					"name": "",
					"type": "address"
				}
			],
			"name": "tokenBalances",
			"outputs": [
				{
					"internalType": "uint256",
					"name": "",
					"type": "uint256"
				}
			],
			"stateMutability": "view",
			"type": "function"
		}
	]
}