{
	"data": {
		"bytecode": {
			"linkReferences": {},
			"object": "608060405234801561001057600080fd5b506110d2806100206000396000f3fe608060405234801561001057600080fd5b50600436106100415760003560e01c806343308bf614610046578063e0ab077214610076578063f612e299146100a8575b600080fd5b610060600480360381019061005b91906108ad565b6100d8565b60405161006d9190610db7565b60405180910390f35b610090600480360381019061008b91906108fc565b610118565b60405161009f93929190610ef3565b60405180910390f35b6100c260048036038101906100bd91906108ad565b6103c3565b6040516100cf9190610db7565b60405180910390f35b606061010f731d142a62e2e98474093545d4a3a0f7db9503b8bd7386ca07c6d491ad7a535c26c5e35442f3e26e8497868686610403565b90509392505050565b600080600061013b7386ca07c6d491ad7a535c26c5e35442f3e26e8497896106db565b61017a576040517f08c379a000000000000000000000000000000000000000000000000000000000815260040161017190610e79565b60405180910390fd5b610198731d142a62e2e98474093545d4a3a0f7db9503b8bd886106db565b6101d7576040517f08c379a00000000000000000000000000000000000000000000000000000000081526004016101ce90610dd9565b60405180910390fd5b6101f57386ca07c6d491ad7a535c26c5e35442f3e26e8497896107a6565b610234576040517f08c379a000000000000000000000000000000000000000000000000000000000815260040161022b90610e19565b60405180910390fd5b610252731d142a62e2e98474093545d4a3a0f7db9503b8bd886107a6565b610291576040517f08c379a000000000000000000000000000000000000000000000000000000000815260040161028890610e59565b60405180910390fd5b6000610e10426102a19190610fad565b905060007386ca07c6d491ad7a535c26c5e35442f3e26e8497731d142a62e2e98474093545d4a3a0f7db9503b8bd8b8b8b8b8b886040516024016102ec989796959493929190610d10565b6040516020818303038152906040527fe8e33700000000000000000000000000000000000000000000000000000000007bffffffffffffffffffffffffffffffffffffffffffffffffffffffff19166020820180517bffffffffffffffffffffffffffffffffffffffffffffffffffffffff838183161783525050505090506000808251602084016000738059b0ae35c113137694ba15b2c3585ae77bb8e95af13d6000803e80600081146103af576000519650602051955060405194506103b4565b3d6000fd5b50505050955095509592505050565b60606103fa7386ca07c6d491ad7a535c26c5e35442f3e26e8497731d142a62e2e98474093545d4a3a0f7db9503b8bd868686610403565b90509392505050565b606061040f86856106db565b61044e576040517f08c379a000000000000000000000000000000000000000000000000000000000815260040161044590610e39565b60405180910390fd5b61045886856107a6565b610497576040517f08c379a000000000000000000000000000000000000000000000000000000000815260040161048e90610df9565b60405180910390fd5b6000610e10426104a79190610fad565b90506000600267ffffffffffffffff8111156104ec577f4e487b7100000000000000000000000000000000000000000000000000000000600052604160045260246000fd5b60405190808252806020026020018201604052801561051a5781602001602082028036833780820191505090505b5090508781600081518110610558577f4e487b7100000000000000000000000000000000000000000000000000000000600052603260045260246000fd5b602002602001019073ffffffffffffffffffffffffffffffffffffffff16908173ffffffffffffffffffffffffffffffffffffffff168152505086816001815181106105cd577f4e487b7100000000000000000000000000000000000000000000000000000000600052603260045260246000fd5b602002602001019073ffffffffffffffffffffffffffffffffffffffff16908173ffffffffffffffffffffffffffffffffffffffff168152505060008686838786604051602401610622959493929190610e99565b6040516020818303038152906040527f38ed1739000000000000000000000000000000000000000000000000000000007bffffffffffffffffffffffffffffffffffffffffffffffffffffffff19166020820180517bffffffffffffffffffffffffffffffffffffffffffffffffffffffff838183161783525050505090506000808251602084016000738059b0ae35c113137694ba15b2c3585ae77bb8e95af13d6000803e80600081146106d6573d6000f35b3d6000fd5b6000803330846040516024016106f393929190610cd9565b6040516020818303038152906040527f23b872dd000000000000000000000000000000000000000000000000000000007bffffffffffffffffffffffffffffffffffffffffffffffffffffffff19166020820180517bffffffffffffffffffffffffffffffffffffffffffffffffffffffff838183161783525050505090506000808251602084016000885af13d6000803e806000811461079857600051935061079d565b3d6000fd5b50505092915050565b600080738059b0ae35c113137694ba15b2c3585ae77bb8e9836040516024016107d0929190610d8e565b6040516020818303038152906040527f095ea7b3000000000000000000000000000000000000000000000000000000007bffffffffffffffffffffffffffffffffffffffffffffffffffffffff19166020820180517bffffffffffffffffffffffffffffffffffffffffffffffffffffffff838183161783525050505090506000808251602084016000885af13d6000803e806000811461087557600051935061087a565b3d6000fd5b50505092915050565b6000813590506108928161106e565b92915050565b6000813590506108a781611085565b92915050565b6000806000606084860312156108c257600080fd5b60006108d086828701610898565b93505060206108e186828701610898565b92505060406108f286828701610883565b9150509250925092565b600080600080600060a0868803121561091457600080fd5b600061092288828901610898565b955050602061093388828901610898565b945050604061094488828901610898565b935050606061095588828901610898565b925050608061096688828901610883565b9150509295509295909350565b600061097f83836109a3565b60208301905092915050565b60006109978383610cbb565b60208301905092915050565b6109ac81611003565b82525050565b6109bb81611003565b82525050565b60006109cc82610f4a565b6109d68185610f7a565b93506109e183610f2a565b8060005b83811015610a125781516109f98882610973565b9750610a0483610f60565b9250506001810190506109e5565b5085935050505092915050565b6000610a2a82610f55565b610a348185610f8b565b9350610a3f83610f3a565b8060005b83811015610a70578151610a57888261098b565b9750610a6283610f6d565b925050600181019050610a43565b5085935050505092915050565b6000610a8a602483610f9c565b91507f556e69737761704d61726b65743a206465706f73697420746f6b656e4220666160008301527f696c6564000000000000000000000000000000000000000000000000000000006020830152604082019050919050565b6000610af0602783610f9c565b91507f556e69737761704d61726b65743a20617070726f766520746f20726f7574657260008301527f206661696c6564000000000000000000000000000000000000000000000000006020830152604082019050919050565b6000610b56602f83610f9c565b91507f556e69737761704d61726b65743a20746f6b656e204120617070726f7665207460008301527f6f20726f75746572206661696c656400000000000000000000000000000000006020830152604082019050919050565b6000610bbc601d83610f9c565b91507f556e69737761704d61726b65743a206465706f736974206661696c65640000006000830152602082019050919050565b6000610bfc602f83610f9c565b91507f556e69737761704d61726b65743a20746f6b656e204220617070726f7665207460008301527f6f20726f75746572206661696c656400000000000000000000000000000000006020830152604082019050919050565b6000610c62602483610f9c565b91507f556e69737761704d61726b65743a206465706f73697420746f6b656e4120666160008301527f696c6564000000000000000000000000000000000000000000000000000000006020830152604082019050919050565b610cc481611035565b82525050565b610cd381611035565b82525050565b6000606082019050610cee60008301866109b2565b610cfb60208301856109b2565b610d086040830184610cca565b949350505050565b600061010082019050610d26600083018b6109b2565b610d33602083018a6109b2565b610d406040830189610cca565b610d4d6060830188610cca565b610d5a6080830187610cca565b610d6760a0830186610cca565b610d7460c08301856109b2565b610d8160e0830184610cca565b9998505050505050505050565b6000604082019050610da360008301856109b2565b610db06020830184610cca565b9392505050565b60006020820190508181036000830152610dd18184610a1f565b905092915050565b60006020820190508181036000830152610df281610a7d565b9050919050565b60006020820190508181036000830152610e1281610ae3565b9050919050565b60006020820190508181036000830152610e3281610b49565b9050919050565b60006020820190508181036000830152610e5281610baf565b9050919050565b60006020820190508181036000830152610e7281610bef565b9050919050565b60006020820190508181036000830152610e9281610c55565b9050919050565b600060a082019050610eae6000830188610cca565b610ebb6020830187610cca565b8181036040830152610ecd81866109c1565b9050610edc60608301856109b2565b610ee96080830184610cca565b9695505050505050565b6000606082019050610f086000830186610cca565b610f156020830185610cca565b610f226040830184610cca565b949350505050565b6000819050602082019050919050565b6000819050602082019050919050565b600081519050919050565b600081519050919050565b6000602082019050919050565b6000602082019050919050565b600082825260208201905092915050565b600082825260208201905092915050565b600082825260208201905092915050565b6000610fb882611035565b9150610fc383611035565b9250827fffffffffffffffffffffffffffffffffffffffffffffffffffffffffffffffff03821115610ff857610ff761103f565b5b828201905092915050565b600061100e82611015565b9050919050565b600073ffffffffffffffffffffffffffffffffffffffff82169050919050565b6000819050919050565b7f4e487b7100000000000000000000000000000000000000000000000000000000600052601160045260246000fd5b61107781611003565b811461108257600080fd5b50565b61108e81611035565b811461109957600080fd5b5056fea26469706673582212205272a0798fb1b5ede0d87d8efc6efc718678a81d55593f38b2d2f0b40008493564736f6c63430008000033",
			"opcodes": "PUSH1 0x80 PUSH1 0x40 MSTORE CALLVALUE DUP1 ISZERO PUSH2 0x10 JUMPI PUSH1 0x0 DUP1 REVERT JUMPDEST POP PUSH2 0x10D2 DUP1 PUSH2 0x20 PUSH1 0x0 CODECOPY PUSH1 0x0 RETURN INVALID PUSH1 0x80 PUSH1 0x40 MSTORE CALLVALUE DUP1 ISZERO PUSH2 0x10 JUMPI PUSH1 0x0 DUP1 REVERT JUMPDEST POP PUSH1 0x4 CALLDATASIZE LT PUSH2 0x41 JUMPI PUSH1 0x0 CALLDATALOAD PUSH1 0xE0 SHR DUP1 PUSH4 0x43308BF6 EQ PUSH2 0x46 JUMPI DUP1 PUSH4 0xE0AB0772 EQ PUSH2 0x76 JUMPI DUP1 PUSH4 0xF612E299 EQ PUSH2 0xA8 JUMPI JUMPDEST PUSH1 0x0 DUP1 REVERT JUMPDEST PUSH2 0x60 PUSH1 0x4 DUP1 CALLDATASIZE SUB DUP2 ADD SWAP1 PUSH2 0x5B SWAP2 SWAP1 PUSH2 0x8AD JUMP JUMPDEST PUSH2 0xD8 JUMP JUMPDEST PUSH1 0x40 MLOAD PUSH2 0x6D SWAP2 SWAP1 PUSH2 0xDB7 JUMP JUMPDEST PUSH1 0x40 MLOAD DUP1 SWAP2 SUB SWAP1 RETURN JUMPDEST PUSH2 0x90 PUSH1 0x4 DUP1 CALLDATASIZE SUB DUP2 ADD SWAP1 PUSH2 0x8B SWAP2 SWAP1 PUSH2 0x8FC JUMP JUMPDEST PUSH2 0x118 JUMP JUMPDEST PUSH1 0x40 MLOAD PUSH2 0x9F SWAP4 SWAP3 SWAP2 SWAP1 PUSH2 0xEF3 JUMP JUMPDEST PUSH1 0x40 MLOAD DUP1 SWAP2 SUB SWAP1 RETURN JUMPDEST PUSH2 0xC2 PUSH1 0x4 DUP1 CALLDATASIZE SUB DUP2 ADD SWAP1 PUSH2 0xBD SWAP2 SWAP1 PUSH2 0x8AD JUMP JUMPDEST PUSH2 0x3C3 JUMP JUMPDEST PUSH1 0x40 MLOAD PUSH2 0xCF SWAP2 SWAP1 PUSH2 0xDB7 JUMP JUMPDEST PUSH1 0x40 MLOAD DUP1 SWAP2 SUB SWAP1 RETURN JUMPDEST PUSH1 0x60 PUSH2 0x10F PUSH20 0x1D142A62E2E98474093545D4A3A0F7DB9503B8BD PUSH20 0x86CA07C6D491AD7A535C26C5E35442F3E26E8497 DUP7 DUP7 DUP7 PUSH2 0x403 JUMP JUMPDEST SWAP1 POP SWAP4 SWAP3 POP POP POP JUMP JUMPDEST PUSH1 0x0 DUP1 PUSH1 0x0 PUSH2 0x13B PUSH20 0x86CA07C6D491AD7A535C26C5E35442F3E26E8497 DUP10 PUSH2 0x6DB JUMP JUMPDEST PUSH2 0x17A JUMPI PUSH1 0x40 MLOAD PUSH32 0x8C379A000000000000000000000000000000000000000000000000000000000 DUP2 MSTORE PUSH1 0x4 ADD PUSH2 0x171 SWAP1 PUSH2 0xE79 JUMP JUMPDEST PUSH1 0x40 MLOAD DUP1 SWAP2 SUB SWAP1 REVERT JUMPDEST PUSH2 0x198 PUSH20 0x1D142A62E2E98474093545D4A3A0F7DB9503B8BD DUP9 PUSH2 0x6DB JUMP JUMPDEST PUSH2 0x1D7 JUMPI PUSH1 0x40 MLOAD PUSH32 0x8C379A000000000000000000000000000000000000000000000000000000000 DUP2 MSTORE PUSH1 0x4 ADD PUSH2 0x1CE SWAP1 PUSH2 0xDD9 JUMP JUMPDEST PUSH1 0x40 MLOAD DUP1 SWAP2 SUB SWAP1 REVERT JUMPDEST PUSH2 0x1F5 PUSH20 0x86CA07C6D491AD7A535C26C5E35442F3E26E8497 DUP10 PUSH2 0x7A6 JUMP JUMPDEST PUSH2 0x234 JUMPI PUSH1 0x40 MLOAD PUSH32 0x8C379A000000000000000000000000000000000000000000000000000000000 DUP2 MSTORE PUSH1 0x4 ADD PUSH2 0x22B SWAP1 PUSH2 0xE19 JUMP JUMPDEST PUSH1 0x40 MLOAD DUP1 SWAP2 SUB SWAP1 REVERT JUMPDEST PUSH2 0x252 PUSH20 0x1D142A62E2E98474093545D4A3A0F7DB9503B8BD DUP9 PUSH2 0x7A6 JUMP JUMPDEST PUSH2 0x291 JUMPI PUSH1 0x40 MLOAD PUSH32 0x8C379A000000000000000000000000000000000000000000000000000000000 DUP2 MSTORE PUSH1 0x4 ADD PUSH2 0x288 SWAP1 PUSH2 0xE59 JUMP JUMPDEST PUSH1 0x40 MLOAD DUP1 SWAP2 SUB SWAP1 REVERT JUMPDEST PUSH1 0x0 PUSH2 0xE10 TIMESTAMP PUSH2 0x2A1 SWAP2 SWAP1 PUSH2 0xFAD JUMP JUMPDEST SWAP1 POP PUSH1 0x0 PUSH20 0x86CA07C6D491AD7A535C26C5E35442F3E26E8497 PUSH20 0x1D142A62E2E98474093545D4A3A0F7DB9503B8BD DUP12 DUP12 DUP12 DUP12 DUP12 DUP9 PUSH1 0x40 MLOAD PUSH1 0x24 ADD PUSH2 0x2EC SWAP9 SWAP8 SWAP7 SWAP6 SWAP5 SWAP4 SWAP3 SWAP2 SWAP1 PUSH2 0xD10 JUMP JUMPDEST PUSH1 0x40 MLOAD PUSH1 0x20 DUP2 DUP4 SUB SUB DUP2 MSTORE SWAP1 PUSH1 0x40 MSTORE PUSH32 0xE8E3370000000000000000000000000000000000000000000000000000000000 PUSH28 0xFFFFFFFFFFFFFFFFFFFFFFFFFFFFFFFFFFFFFFFFFFFFFFFFFFFFFFFF NOT AND PUSH1 0x20 DUP3 ADD DUP1 MLOAD PUSH28 0xFFFFFFFFFFFFFFFFFFFFFFFFFFFFFFFFFFFFFFFFFFFFFFFFFFFFFFFF DUP4 DUP2 DUP4 AND OR DUP4 MSTORE POP POP POP POP SWAP1 POP PUSH1 0x0 DUP1 DUP3 MLOAD PUSH1 0x20 DUP5 ADD PUSH1 0x0 PUSH20 0x8059B0AE35C113137694BA15B2C3585AE77BB8E9 GAS CALL RETURNDATASIZE PUSH1 0x0 DUP1 RETURNDATACOPY DUP1 PUSH1 0x0 DUP2 EQ PUSH2 0x3AF JUMPI PUSH1 0x0 MLOAD SWAP7 POP PUSH1 0x20 MLOAD SWAP6 POP PUSH1 0x40 MLOAD SWAP5 POP PUSH2 0x3B4 JUMP JUMPDEST RETURNDATASIZE PUSH1 0x0 REVERT JUMPDEST POP POP POP POP SWAP6 POP SWAP6 POP SWAP6 SWAP3 POP POP POP JUMP JUMPDEST PUSH1 0x60 PUSH2 0x3FA PUSH20 0x86CA07C6D491AD7A535C26C5E35442F3E26E8497 PUSH20 0x1D142A62E2E98474093545D4A3A0F7DB9503B8BD DUP7 DUP7 DUP7 PUSH2 0x403 JUMP JUMPDEST SWAP1 POP SWAP4 SWAP3 POP POP POP JUMP JUMPDEST PUSH1 0x60 PUSH2 0x40F DUP7 DUP6 PUSH2 0x6DB JUMP JUMPDEST PUSH2 0x44E JUMPI PUSH1 0x40 MLOAD PUSH32 0x8C379A000000000000000000000000000000000000000000000000000000000 DUP2 MSTORE PUSH1 0x4 ADD PUSH2 0x445 SWAP1 PUSH2 0xE39 JUMP JUMPDEST PUSH1 0x40 MLOAD DUP1 SWAP2 SUB SWAP1 REVERT JUMPDEST PUSH2 0x458 DUP7 DUP6 PUSH2 0x7A6 JUMP JUMPDEST PUSH2 0x497 JUMPI PUSH1 0x40 MLOAD PUSH32 0x8C379A000000000000000000000000000000000000000000000000000000000 DUP2 MSTORE PUSH1 0x4 ADD PUSH2 0x48E SWAP1 PUSH2 0xDF9 JUMP JUMPDEST PUSH1 0x40 MLOAD DUP1 SWAP2 SUB SWAP1 REVERT JUMPDEST PUSH1 0x0 PUSH2 0xE10 TIMESTAMP PUSH2 0x4A7 SWAP2 SWAP1 PUSH2 0xFAD JUMP JUMPDEST SWAP1 POP PUSH1 0x0 PUSH1 0x2 PUSH8 0xFFFFFFFFFFFFFFFF DUP2 GT ISZERO PUSH2 0x4EC JUMPI PUSH32 0x4E487B7100000000000000000000000000000000000000000000000000000000 PUSH1 0x0 MSTORE PUSH1 0x41 PUSH1 0x4 MSTORE PUSH1 0x24 PUSH1 0x0 REVERT JUMPDEST PUSH1 0x40 MLOAD SWAP1 DUP1 DUP3 MSTORE DUP1 PUSH1 0x20 MUL PUSH1 0x20 ADD DUP3 ADD PUSH1 0x40 MSTORE DUP1 ISZERO PUSH2 0x51A JUMPI DUP2 PUSH1 0x20 ADD PUSH1 0x20 DUP3 MUL DUP1 CALLDATASIZE DUP4 CALLDATACOPY DUP1 DUP3 ADD SWAP2 POP POP SWAP1 POP JUMPDEST POP SWAP1 POP DUP8 DUP2 PUSH1 0x0 DUP2 MLOAD DUP2 LT PUSH2 0x558 JUMPI PUSH32 0x4E487B7100000000000000000000000000000000000000000000000000000000 PUSH1 0x0 MSTORE PUSH1 0x32 PUSH1 0x4 MSTORE PUSH1 0x24 PUSH1 0x0 REVERT JUMPDEST PUSH1 0x20 MUL PUSH1 0x20 ADD ADD SWAP1 PUSH20 0xFFFFFFFFFFFFFFFFFFFFFFFFFFFFFFFFFFFFFFFF AND SWAP1 DUP2 PUSH20 0xFFFFFFFFFFFFFFFFFFFFFFFFFFFFFFFFFFFFFFFF AND DUP2 MSTORE POP POP DUP7 DUP2 PUSH1 0x1 DUP2 MLOAD DUP2 LT PUSH2 0x5CD JUMPI PUSH32 0x4E487B7100000000000000000000000000000000000000000000000000000000 PUSH1 0x0 MSTORE PUSH1 0x32 PUSH1 0x4 MSTORE PUSH1 0x24 PUSH1 0x0 REVERT JUMPDEST PUSH1 0x20 MUL PUSH1 0x20 ADD ADD SWAP1 PUSH20 0xFFFFFFFFFFFFFFFFFFFFFFFFFFFFFFFFFFFFFFFF AND SWAP1 DUP2 PUSH20 0xFFFFFFFFFFFFFFFFFFFFFFFFFFFFFFFFFFFFFFFF AND DUP2 MSTORE POP POP PUSH1 0x0 DUP7 DUP7 DUP4 DUP8 DUP7 PUSH1 0x40 MLOAD PUSH1 0x24 ADD PUSH2 0x622 SWAP6 SWAP5 SWAP4 SWAP3 SWAP2 SWAP1 PUSH2 0xE99 JUMP JUMPDEST PUSH1 0x40 MLOAD PUSH1 0x20 DUP2 DUP4 SUB SUB DUP2 MSTORE SWAP1 PUSH1 0x40 MSTORE PUSH32 0x38ED173900000000000000000000000000000000000000000000000000000000 PUSH28 0xFFFFFFFFFFFFFFFFFFFFFFFFFFFFFFFFFFFFFFFFFFFFFFFFFFFFFFFF NOT AND PUSH1 0x20 DUP3 ADD DUP1 MLOAD PUSH28 0xFFFFFFFFFFFFFFFFFFFFFFFFFFFFFFFFFFFFFFFFFFFFFFFFFFFFFFFF DUP4 DUP2 DUP4 AND OR DUP4 MSTORE POP POP POP POP SWAP1 POP PUSH1 0x0 DUP1 DUP3 MLOAD PUSH1 0x20 DUP5 ADD PUSH1 0x0 PUSH20 0x8059B0AE35C113137694BA15B2C3585AE77BB8E9 GAS CALL RETURNDATASIZE PUSH1 0x0 DUP1 RETURNDATACOPY DUP1 PUSH1 0x0 DUP2 EQ PUSH2 0x6D6 JUMPI RETURNDATASIZE PUSH1 0x0 RETURN JUMPDEST RETURNDATASIZE PUSH1 0x0 REVERT JUMPDEST PUSH1 0x0 DUP1 CALLER ADDRESS DUP5 PUSH1 0x40 MLOAD PUSH1 0x24 ADD PUSH2 0x6F3 SWAP4 SWAP3 SWAP2 SWAP1 PUSH2 0xCD9 JUMP JUMPDEST PUSH1 0x40 MLOAD PUSH1 0x20 DUP2 DUP4 SUB SUB DUP2 MSTORE SWAP1 PUSH1 0x40 MSTORE PUSH32 0x23B872DD00000000000000000000000000000000000000000000000000000000 PUSH28 0xFFFFFFFFFFFFFFFFFFFFFFFFFFFFFFFFFFFFFFFFFFFFFFFFFFFFFFFF NOT AND PUSH1 0x20 DUP3 ADD DUP1 MLOAD PUSH28 0xFFFFFFFFFFFFFFFFFFFFFFFFFFFFFFFFFFFFFFFFFFFFFFFFFFFFFFFF DUP4 DUP2 DUP4 AND OR DUP4 MSTORE POP POP POP POP SWAP1 POP PUSH1 0x0 DUP1 DUP3 MLOAD PUSH1 0x20 DUP5 ADD PUSH1 0x0 DUP9 GAS CALL RETURNDATASIZE PUSH1 0x0 DUP1 RETURNDATACOPY DUP1 PUSH1 0x0 DUP2 EQ PUSH2 0x798 JUMPI PUSH1 0x0 MLOAD SWAP4 POP PUSH2 0x79D JUMP JUMPDEST RETURNDATASIZE PUSH1 0x0 REVERT JUMPDEST POP POP POP SWAP3 SWAP2 POP POP JUMP JUMPDEST PUSH1 0x0 DUP1 PUSH20 0x8059B0AE35C113137694BA15B2C3585AE77BB8E9 DUP4 PUSH1 0x40 MLOAD PUSH1 0x24 ADD PUSH2 0x7D0 SWAP3 SWAP2 SWAP1 PUSH2 0xD8E JUMP JUMPDEST PUSH1 0x40 MLOAD PUSH1 0x20 DUP2 DUP4 SUB SUB DUP2 MSTORE SWAP1 PUSH1 0x40 MSTORE PUSH32 0x95EA7B300000000000000000000000000000000000000000000000000000000 PUSH28 0xFFFFFFFFFFFFFFFFFFFFFFFFFFFFFFFFFFFFFFFFFFFFFFFFFFFFFFFF NOT AND PUSH1 0x20 DUP3 ADD DUP1 MLOAD PUSH28 0xFFFFFFFFFFFFFFFFFFFFFFFFFFFFFFFFFFFFFFFFFFFFFFFFFFFFFFFF DUP4 DUP2 DUP4 AND OR DUP4 MSTORE POP POP POP POP SWAP1 POP PUSH1 0x0 DUP1 DUP3 MLOAD PUSH1 0x20 DUP5 ADD PUSH1 0x0 DUP9 GAS CALL RETURNDATASIZE PUSH1 0x0 DUP1 RETURNDATACOPY DUP1 PUSH1 0x0 DUP2 EQ PUSH2 0x875 JUMPI PUSH1 0x0 MLOAD SWAP4 POP PUSH2 0x87A JUMP JUMPDEST RETURNDATASIZE PUSH1 0x0 REVERT JUMPDEST POP POP POP SWAP3 SWAP2 POP POP JUMP JUMPDEST PUSH1 0x0 DUP2 CALLDATALOAD SWAP1 POP PUSH2 0x892 DUP2 PUSH2 0x106E JUMP JUMPDEST SWAP3 SWAP2 POP POP JUMP JUMPDEST PUSH1 0x0 DUP2 CALLDATALOAD SWAP1 POP PUSH2 0x8A7 DUP2 PUSH2 0x1085 JUMP JUMPDEST SWAP3 SWAP2 POP POP JUMP JUMPDEST PUSH1 0x0 DUP1 PUSH1 0x0 PUSH1 0x60 DUP5 DUP7 SUB SLT ISZERO PUSH2 0x8C2 JUMPI PUSH1 0x0 DUP1 REVERT JUMPDEST PUSH1 0x0 PUSH2 0x8D0 DUP7 DUP3 DUP8 ADD PUSH2 0x898 JUMP JUMPDEST SWAP4 POP POP PUSH1 0x20 PUSH2 0x8E1 DUP7 DUP3 DUP8 ADD PUSH2 0x898 JUMP JUMPDEST SWAP3 POP POP PUSH1 0x40 PUSH2 0x8F2 DUP7 DUP3 DUP8 ADD PUSH2 0x883 JUMP JUMPDEST SWAP2 POP POP SWAP3 POP SWAP3 POP SWAP3 JUMP JUMPDEST PUSH1 0x0 DUP1 PUSH1 0x0 DUP1 PUSH1 0x0 PUSH1 0xA0 DUP7 DUP9 SUB SLT ISZERO PUSH2 0x914 JUMPI PUSH1 0x0 DUP1 REVERT JUMPDEST PUSH1 0x0 PUSH2 0x922 DUP9 DUP3 DUP10 ADD PUSH2 0x898 JUMP JUMPDEST SWAP6 POP POP PUSH1 0x20 PUSH2 0x933 DUP9 DUP3 DUP10 ADD PUSH2 0x898 JUMP JUMPDEST SWAP5 POP POP PUSH1 0x40 PUSH2 0x944 DUP9 DUP3 DUP10 ADD PUSH2 0x898 JUMP JUMPDEST SWAP4 POP POP PUSH1 0x60 PUSH2 0x955 DUP9 DUP3 DUP10 ADD PUSH2 0x898 JUMP JUMPDEST SWAP3 POP POP PUSH1 0x80 PUSH2 0x966 DUP9 DUP3 DUP10 ADD PUSH2 0x883 JUMP JUMPDEST SWAP2 POP POP SWAP3 SWAP6 POP SWAP3 SWAP6 SWAP1 SWAP4 POP JUMP JUMPDEST PUSH1 0x0 PUSH2 0x97F DUP4 DUP4 PUSH2 0x9A3 JUMP JUMPDEST PUSH1 0x20 DUP4 ADD SWAP1 POP SWAP3 SWAP2 POP POP JUMP JUMPDEST PUSH1 0x0 PUSH2 0x997 DUP4 DUP4 PUSH2 0xCBB JUMP JUMPDEST PUSH1 0x20 DUP4 ADD SWAP1 POP SWAP3 SWAP2 POP POP JUMP JUMPDEST PUSH2 0x9AC DUP2 PUSH2 0x1003 JUMP JUMPDEST DUP3 MSTORE POP POP JUMP JUMPDEST PUSH2 0x9BB DUP2 PUSH2 0x1003 JUMP JUMPDEST DUP3 MSTORE POP POP JUMP JUMPDEST PUSH1 0x0 PUSH2 0x9CC DUP3 PUSH2 0xF4A JUMP JUMPDEST PUSH2 0x9D6 DUP2 DUP6 PUSH2 0xF7A JUMP JUMPDEST SWAP4 POP PUSH2 0x9E1 DUP4 PUSH2 0xF2A JUMP JUMPDEST DUP1 PUSH1 0x0 JUMPDEST DUP4 DUP2 LT ISZERO PUSH2 0xA12 JUMPI DUP2 MLOAD PUSH2 0x9F9 DUP9 DUP3 PUSH2 0x973 JUMP JUMPDEST SWAP8 POP PUSH2 0xA04 DUP4 PUSH2 0xF60 JUMP JUMPDEST SWAP3 POP POP PUSH1 0x1 DUP2 ADD SWAP1 POP PUSH2 0x9E5 JUMP JUMPDEST POP DUP6 SWAP4 POP POP POP POP SWAP3 SWAP2 POP POP JUMP JUMPDEST PUSH1 0x0 PUSH2 0xA2A DUP3 PUSH2 0xF55 JUMP JUMPDEST PUSH2 0xA34 DUP2 DUP6 PUSH2 0xF8B JUMP JUMPDEST SWAP4 POP PUSH2 0xA3F DUP4 PUSH2 0xF3A JUMP JUMPDEST DUP1 PUSH1 0x0 JUMPDEST DUP4 DUP2 LT ISZERO PUSH2 0xA70 JUMPI DUP2 MLOAD PUSH2 0xA57 DUP9 DUP3 PUSH2 0x98B JUMP JUMPDEST SWAP8 POP PUSH2 0xA62 DUP4 PUSH2 0xF6D JUMP JUMPDEST SWAP3 POP POP PUSH1 0x1 DUP2 ADD SWAP1 POP PUSH2 0xA43 JUMP JUMPDEST POP DUP6 SWAP4 POP POP POP POP SWAP3 SWAP2 POP POP JUMP JUMPDEST PUSH1 0x0 PUSH2 0xA8A PUSH1 0x24 DUP4 PUSH2 0xF9C JUMP JUMPDEST SWAP2 POP PUSH32 0x556E69737761704D61726B65743A206465706F73697420746F6B656E42206661 PUSH1 0x0 DUP4 ADD MSTORE PUSH32 0x696C656400000000000000000000000000000000000000000000000000000000 PUSH1 0x20 DUP4 ADD MSTORE PUSH1 0x40 DUP3 ADD SWAP1 POP SWAP2 SWAP1 POP JUMP JUMPDEST PUSH1 0x0 PUSH2 0xAF0 PUSH1 0x27 DUP4 PUSH2 0xF9C JUMP JUMPDEST SWAP2 POP PUSH32 0x556E69737761704D61726B65743A20617070726F766520746F20726F75746572 PUSH1 0x0 DUP4 ADD MSTORE PUSH32 0x206661696C656400000000000000000000000000000000000000000000000000 PUSH1 0x20 DUP4 ADD MSTORE PUSH1 0x40 DUP3 ADD SWAP1 POP SWAP2 SWAP1 POP JUMP JUMPDEST PUSH1 0x0 PUSH2 0xB56 PUSH1 0x2F DUP4 PUSH2 0xF9C JUMP JUMPDEST SWAP2 POP PUSH32 0x556E69737761704D61726B65743A20746F6B656E204120617070726F76652074 PUSH1 0x0 DUP4 ADD MSTORE PUSH32 0x6F20726F75746572206661696C65640000000000000000000000000000000000 PUSH1 0x20 DUP4 ADD MSTORE PUSH1 0x40 DUP3 ADD SWAP1 POP SWAP2 SWAP1 POP JUMP JUMPDEST PUSH1 0x0 PUSH2 0xBBC PUSH1 0x1D DUP4 PUSH2 0xF9C JUMP JUMPDEST SWAP2 POP PUSH32 0x556E69737761704D61726B65743A206465706F736974206661696C6564000000 PUSH1 0x0 DUP4 ADD MSTORE PUSH1 0x20 DUP3 ADD SWAP1 POP SWAP2 SWAP1 POP JUMP JUMPDEST PUSH1 0x0 PUSH2 0xBFC PUSH1 0x2F DUP4 PUSH2 0xF9C JUMP JUMPDEST SWAP2 POP PUSH32 0x556E69737761704D61726B65743A20746F6B656E204220617070726F76652074 PUSH1 0x0 DUP4 ADD MSTORE PUSH32 0x6F20726F75746572206661696C65640000000000000000000000000000000000 PUSH1 0x20 DUP4 ADD MSTORE PUSH1 0x40 DUP3 ADD SWAP1 POP SWAP2 SWAP1 POP JUMP JUMPDEST PUSH1 0x0 PUSH2 0xC62 PUSH1 0x24 DUP4 PUSH2 0xF9C JUMP JUMPDEST SWAP2 POP PUSH32 0x556E69737761704D61726B65743A206465706F73697420746F6B656E41206661 PUSH1 0x0 DUP4 ADD MSTORE PUSH32 0x696C656400000000000000000000000000000000000000000000000000000000 PUSH1 0x20 DUP4 ADD MSTORE PUSH1 0x40 DUP3 ADD SWAP1 POP SWAP2 SWAP1 POP JUMP JUMPDEST PUSH2 0xCC4 DUP2 PUSH2 0x1035 JUMP JUMPDEST DUP3 MSTORE POP POP JUMP JUMPDEST PUSH2 0xCD3 DUP2 PUSH2 0x1035 JUMP JUMPDEST DUP3 MSTORE POP POP JUMP JUMPDEST PUSH1 0x0 PUSH1 0x60 DUP3 ADD SWAP1 POP PUSH2 0xCEE PUSH1 0x0 DUP4 ADD DUP7 PUSH2 0x9B2 JUMP JUMPDEST PUSH2 0xCFB PUSH1 0x20 DUP4 ADD DUP6 PUSH2 0x9B2 JUMP JUMPDEST PUSH2 0xD08 PUSH1 0x40 DUP4 ADD DUP5 PUSH2 0xCCA JUMP JUMPDEST SWAP5 SWAP4 POP POP POP POP JUMP JUMPDEST PUSH1 0x0 PUSH2 0x100 DUP3 ADD SWAP1 POP PUSH2 0xD26 PUSH1 0x0 DUP4 ADD DUP12 PUSH2 0x9B2 JUMP JUMPDEST PUSH2 0xD33 PUSH1 0x20 DUP4 ADD DUP11 PUSH2 0x9B2 JUMP JUMPDEST PUSH2 0xD40 PUSH1 0x40 DUP4 ADD DUP10 PUSH2 0xCCA JUMP JUMPDEST PUSH2 0xD4D PUSH1 0x60 DUP4 ADD DUP9 PUSH2 0xCCA JUMP JUMPDEST PUSH2 0xD5A PUSH1 0x80 DUP4 ADD DUP8 PUSH2 0xCCA JUMP JUMPDEST PUSH2 0xD67 PUSH1 0xA0 DUP4 ADD DUP7 PUSH2 0xCCA JUMP JUMPDEST PUSH2 0xD74 PUSH1 0xC0 DUP4 ADD DUP6 PUSH2 0x9B2 JUMP JUMPDEST PUSH2 0xD81 PUSH1 0xE0 DUP4 ADD DUP5 PUSH2 0xCCA JUMP JUMPDEST SWAP10 SWAP9 POP POP POP POP POP POP POP POP POP JUMP JUMPDEST PUSH1 0x0 PUSH1 0x40 DUP3 ADD SWAP1 POP PUSH2 0xDA3 PUSH1 0x0 DUP4 ADD DUP6 PUSH2 0x9B2 JUMP JUMPDEST PUSH2 0xDB0 PUSH1 0x20 DUP4 ADD DUP5 PUSH2 0xCCA JUMP JUMPDEST SWAP4 SWAP3 POP POP POP JUMP JUMPDEST PUSH1 0x0 PUSH1 0x20 DUP3 ADD SWAP1 POP DUP2 DUP2 SUB PUSH1 0x0 DUP4 ADD MSTORE PUSH2 0xDD1 DUP2 DUP5 PUSH2 0xA1F JUMP JUMPDEST SWAP1 POP SWAP3 SWAP2 POP POP JUMP JUMPDEST PUSH1 0x0 PUSH1 0x20 DUP3 ADD SWAP1 POP DUP2 DUP2 SUB PUSH1 0x0 DUP4 ADD MSTORE PUSH2 0xDF2 DUP2 PUSH2 0xA7D JUMP JUMPDEST SWAP1 POP SWAP2 SWAP1 POP JUMP JUMPDEST PUSH1 0x0 PUSH1 0x20 DUP3 ADD SWAP1 POP DUP2 DUP2 SUB PUSH1 0x0 DUP4 ADD MSTORE PUSH2 0xE12 DUP2 PUSH2 0xAE3 JUMP JUMPDEST SWAP1 POP SWAP2 SWAP1 POP JUMP JUMPDEST PUSH1 0x0 PUSH1 0x20 DUP3 ADD SWAP1 POP DUP2 DUP2 SUB PUSH1 0x0 DUP4 ADD MSTORE PUSH2 0xE32 DUP2 PUSH2 0xB49 JUMP JUMPDEST SWAP1 POP SWAP2 SWAP1 POP JUMP JUMPDEST PUSH1 0x0 PUSH1 0x20 DUP3 ADD SWAP1 POP DUP2 DUP2 SUB PUSH1 0x0 DUP4 ADD MSTORE PUSH2 0xE52 DUP2 PUSH2 0xBAF JUMP JUMPDEST SWAP1 POP SWAP2 SWAP1 POP JUMP JUMPDEST PUSH1 0x0 PUSH1 0x20 DUP3 ADD SWAP1 POP DUP2 DUP2 SUB PUSH1 0x0 DUP4 ADD MSTORE PUSH2 0xE72 DUP2 PUSH2 0xBEF JUMP JUMPDEST SWAP1 POP SWAP2 SWAP1 POP JUMP JUMPDEST PUSH1 0x0 PUSH1 0x20 DUP3 ADD SWAP1 POP DUP2 DUP2 SUB PUSH1 0x0 DUP4 ADD MSTORE PUSH2 0xE92 DUP2 PUSH2 0xC55 JUMP JUMPDEST SWAP1 POP SWAP2 SWAP1 POP JUMP JUMPDEST PUSH1 0x0 PUSH1 0xA0 DUP3 ADD SWAP1 POP PUSH2 0xEAE PUSH1 0x0 DUP4 ADD DUP9 PUSH2 0xCCA JUMP JUMPDEST PUSH2 0xEBB PUSH1 0x20 DUP4 ADD DUP8 PUSH2 0xCCA JUMP JUMPDEST DUP2 DUP2 SUB PUSH1 0x40 DUP4 ADD MSTORE PUSH2 0xECD DUP2 DUP7 PUSH2 0x9C1 JUMP JUMPDEST SWAP1 POP PUSH2 0xEDC PUSH1 0x60 DUP4 ADD DUP6 PUSH2 0x9B2 JUMP JUMPDEST PUSH2 0xEE9 PUSH1 0x80 DUP4 ADD DUP5 PUSH2 0xCCA JUMP JUMPDEST SWAP7 SWAP6 POP POP POP POP POP POP JUMP JUMPDEST PUSH1 0x0 PUSH1 0x60 DUP3 ADD SWAP1 POP PUSH2 0xF08 PUSH1 0x0 DUP4 ADD DUP7 PUSH2 0xCCA JUMP JUMPDEST PUSH2 0xF15 PUSH1 0x20 DUP4 ADD DUP6 PUSH2 0xCCA JUMP JUMPDEST PUSH2 0xF22 PUSH1 0x40 DUP4 ADD DUP5 PUSH2 0xCCA JUMP JUMPDEST SWAP5 SWAP4 POP POP POP POP JUMP JUMPDEST PUSH1 0x0 DUP2 SWAP1 POP PUSH1 0x20 DUP3 ADD SWAP1 POP SWAP2 SWAP1 POP JUMP JUMPDEST PUSH1 0x0 DUP2 SWAP1 POP PUSH1 0x20 DUP3 ADD SWAP1 POP SWAP2 SWAP1 POP JUMP JUMPDEST PUSH1 0x0 DUP2 MLOAD SWAP1 POP SWAP2 SWAP1 POP JUMP JUMPDEST PUSH1 0x0 DUP2 MLOAD SWAP1 POP SWAP2 SWAP1 POP JUMP JUMPDEST PUSH1 0x0 PUSH1 0x20 DUP3 ADD SWAP1 POP SWAP2 SWAP1 POP JUMP JUMPDEST PUSH1 0x0 PUSH1 0x20 DUP3 ADD SWAP1 POP SWAP2 SWAP1 POP JUMP JUMPDEST PUSH1 0x0 DUP3 DUP3 MSTORE PUSH1 0x20 DUP3 ADD SWAP1 POP SWAP3 SWAP2 POP POP JUMP JUMPDEST PUSH1 0x0 DUP3 DUP3 MSTORE PUSH1 0x20 DUP3 ADD SWAP1 POP SWAP3 SWAP2 POP POP JUMP JUMPDEST PUSH1 0x0 DUP3 DUP3 MSTORE PUSH1 0x20 DUP3 ADD SWAP1 POP SWAP3 SWAP2 POP POP JUMP JUMPDEST PUSH1 0x0 PUSH2 0xFB8 DUP3 PUSH2 0x1035 JUMP JUMPDEST SWAP2 POP PUSH2 0xFC3 DUP4 PUSH2 0x1035 JUMP JUMPDEST SWAP3 POP DUP3 PUSH32 0xFFFFFFFFFFFFFFFFFFFFFFFFFFFFFFFFFFFFFFFFFFFFFFFFFFFFFFFFFFFFFFFF SUB DUP3 GT ISZERO PUSH2 0xFF8 JUMPI PUSH2 0xFF7 PUSH2 0x103F JUMP JUMPDEST JUMPDEST DUP3 DUP3 ADD SWAP1 POP SWAP3 SWAP2 POP POP JUMP JUMPDEST PUSH1 0x0 PUSH2 0x100E DUP3 PUSH2 0x1015 JUMP JUMPDEST SWAP1 POP SWAP2 SWAP1 POP JUMP JUMPDEST PUSH1 0x0 PUSH20 0xFFFFFFFFFFFFFFFFFFFFFFFFFFFFFFFFFFFFFFFF DUP3 AND SWAP1 POP SWAP2 SWAP1 POP JUMP JUMPDEST PUSH1 0x0 DUP2 SWAP1 POP SWAP2 SWAP1 POP JUMP JUMPDEST PUSH32 0x4E487B7100000000000000000000000000000000000000000000000000000000 PUSH1 0x0 MSTORE PUSH1 0x11 PUSH1 0x4 MSTORE PUSH1 0x24 PUSH1 0x0 REVERT JUMPDEST PUSH2 0x1077 DUP2 PUSH2 0x1003 JUMP JUMPDEST DUP2 EQ PUSH2 0x1082 JUMPI PUSH1 0x0 DUP1 REVERT JUMPDEST POP JUMP JUMPDEST PUSH2 0x108E DUP2 PUSH2 0x1035 JUMP JUMPDEST DUP2 EQ PUSH2 0x1099 JUMPI PUSH1 0x0 DUP1 REVERT JUMPDEST POP JUMP INVALID LOG2 PUSH5 0x6970667358 0x22 SLT KECCAK256 MSTORE PUSH19 0xA0798FB1B5EDE0D87D8EFC6EFC718678A81D55 MSIZE EXTCODEHASH CODESIZE 0xB2 0xD2 CREATE 0xB4 STOP ADDMOD 0x49 CALLDATALOAD PUSH5 0x736F6C6343 STOP ADDMOD STOP STOP CALLER "
		},
		"gasEstimates": {
			"creation": {
				"codeDepositCost": "861200",
				"executionCost": "896",
				"totalCost": "862096"
			},
			"external": {
				"addLiquidity(uint256,uint256,uint256,uint256,address)": "infinite",
				"buyTokenA(uint256,uint256,address)": "infinite",
				"buyTokenB(uint256,uint256,address)": "infinite"
			},
			"internal": {
				"approveToRouter(address,uint256)": "infinite",
				"buyToken(address,address,uint256,uint256,address)": "infinite",
				"depositToken(address,uint256)": "infinite"
			}
		},
		"methodIdentifiers": {
			"addLiquidity(uint256,uint256,uint256,uint256,address)": "e0ab0772",
			"buyTokenA(uint256,uint256,address)": "43308bf6",
			"buyTokenB(uint256,uint256,address)": "f612e299"
		}
	},
	"abi": [
		{
			"inputs": [
				{
					"internalType": "uint256",
					"name": "amountADesired",
					"type": "uint256"
				},
				{
					"internalType": "uint256",
					"name": "amountBDesired",
					"type": "uint256"
				},
				{
					"internalType": "uint256",
					"name": "amountAMin",
					"type": "uint256"
				},
				{
					"internalType": "uint256",
					"name": "amountBMin",
					"type": "uint256"
				},
				{
					"internalType": "address",
					"name": "to",
					"type": "address"
				}
			],
			"name": "addLiquidity",
			"outputs": [
				{
					"internalType": "uint256",
					"name": "amountA",
					"type": "uint256"
				},
				{
					"internalType": "uint256",
					"name": "amountB",
					"type": "uint256"
				},
				{
					"internalType": "uint256",
					"name": "liquidity",
					"type": "uint256"
				}
			],
			"stateMutability": "nonpayable",
			"type": "function"
		},
		{
			"inputs": [
				{
					"internalType": "uint256",
					"name": "amountIn",
					"type": "uint256"
				},
				{
					"internalType": "uint256",
					"name": "amountOutMin",
					"type": "uint256"
				},
				{
					"internalType": "address",
					"name": "to",
					"type": "address"
				}
			],
			"name": "buyTokenA",
			"outputs": [
				{
					"internalType": "uint256[]",
					"name": "amounts",
					"type": "uint256[]"
				}
			],
			"stateMutability": "nonpayable",
			"type": "function"
		},
		{
			"inputs": [
				{
					"internalType": "uint256",
					"name": "amountIn",
					"type": "uint256"
				},
				{
					"internalType": "uint256",
					"name": "amountOutMin",
					"type": "uint256"
				},
				{
					"internalType": "address",
					"name": "to",
					"type": "address"
				}
			],
			"name": "buyTokenB",
			"outputs": [
				{
					"internalType": "uint256[]",
					"name": "amounts",
					"type": "uint256[]"
				}
			],
			"stateMutability": "nonpayable",
			"type": "function"
		}
	]
}