{
	"data": {
		"bytecode": {
			"linkReferences": {},
			"object": "608060405234801561001057600080fd5b50611509806100206000396000f3fe608060405234801561001057600080fd5b506004361061007d5760003560e01c80639c0e0d331161005b5780639c0e0d33146101125780639e30b1e814610142578063e0ab077214610172578063f612e299146101a45761007d565b806343308bf6146100825780634dbf6c5a146100b257806376182baf146100e2575b600080fd5b61009c60048036038101906100979190610d31565b6101d4565b6040516100a99190611198565b60405180910390f35b6100cc60048036038101906100c79190610c90565b610214565b6040516100d99190611275565b60405180910390f35b6100fc60048036038101906100f79190610d08565b610239565b60405161010991906111ba565b60405180910390f35b61012c60048036038101906101279190610ccc565b610260565b60405161013991906111ba565b60405180910390f35b61015c60048036038101906101579190610d08565b61033d565b60405161016991906111ba565b60405180910390f35b61018c60048036038101906101879190610d80565b610364565b60405161019b939291906112ea565b60405180910390f35b6101be60048036038101906101b99190610d31565b610845565b6040516101cb9190611198565b60405180910390f35b606061020b737ef2e0048f5baede046f6bf797943daf4ed8cb4773d7acd2a9fd159e69bb102a1ca21c9a3e3a5f771b868686610885565b90509392505050565b6000602052816000526040600020602052806000526040600020600091509150505481565b6000610259737ef2e0048f5baede046f6bf797943daf4ed8cb4783610ac9565b9050919050565b60008073ec29164d68c4992cedd1d386118a47143fdcf1428360405160240161028a92919061116f565b6040516020818303038152906040527f095ea7b3000000000000000000000000000000000000000000000000000000007bffffffffffffffffffffffffffffffffffffffffffffffffffffffff19166020820180517bffffffffffffffffffffffffffffffffffffffffffffffffffffffff838183161783525050505090506000808251602084016000885af13d6000803e806000811461032f576000519350610334565b3d6000fd5b50505092915050565b600061035d73d7acd2a9fd159e69bb102a1ca21c9a3e3a5f771b83610ac9565b9050919050565b60008060008760008073d7acd2a9fd159e69bb102a1ca21c9a3e3a5f771b73ffffffffffffffffffffffffffffffffffffffff1673ffffffffffffffffffffffffffffffffffffffff16815260200190815260200160002060003373ffffffffffffffffffffffffffffffffffffffff1673ffffffffffffffffffffffffffffffffffffffff16815260200190815260200160002054101561043b576040517f08c379a000000000000000000000000000000000000000000000000000000000815260040161043290611255565b60405180910390fd5b86600080737ef2e0048f5baede046f6bf797943daf4ed8cb4773ffffffffffffffffffffffffffffffffffffffff1673ffffffffffffffffffffffffffffffffffffffff16815260200190815260200160002060003373ffffffffffffffffffffffffffffffffffffffff1673ffffffffffffffffffffffffffffffffffffffff16815260200190815260200160002054101561050d576040517f08c379a0000000000000000000000000000000000000000000000000000000008152600401610504906111d5565b60405180910390fd5b8760008073d7acd2a9fd159e69bb102a1ca21c9a3e3a5f771b73ffffffffffffffffffffffffffffffffffffffff1673ffffffffffffffffffffffffffffffffffffffff16815260200190815260200160002060003373ffffffffffffffffffffffffffffffffffffffff1673ffffffffffffffffffffffffffffffffffffffff16815260200190815260200160002060008282546105ac91906113fa565b9250508190555086600080737ef2e0048f5baede046f6bf797943daf4ed8cb4773ffffffffffffffffffffffffffffffffffffffff1673ffffffffffffffffffffffffffffffffffffffff16815260200190815260200160002060003373ffffffffffffffffffffffffffffffffffffffff1673ffffffffffffffffffffffffffffffffffffffff168152602001908152602001600020600082825461065291906113fa565b9250508190555061067773d7acd2a9fd159e69bb102a1ca21c9a3e3a5f771b89610260565b6106b6576040517f08c379a00000000000000000000000000000000000000000000000000000000081526004016106ad906111f5565b60405180910390fd5b6106d4737ef2e0048f5baede046f6bf797943daf4ed8cb4788610260565b610713576040517f08c379a000000000000000000000000000000000000000000000000000000000815260040161070a90611235565b60405180910390fd5b6000610e104261072391906113a4565b9050600073d7acd2a9fd159e69bb102a1ca21c9a3e3a5f771b737ef2e0048f5baede046f6bf797943daf4ed8cb478b8b8b8b8b8860405160240161076e9897969594939291906110f1565b6040516020818303038152906040527fe8e33700000000000000000000000000000000000000000000000000000000007bffffffffffffffffffffffffffffffffffffffffffffffffffffffff19166020820180517bffffffffffffffffffffffffffffffffffffffffffffffffffffffff83818316178352505050509050600080825160208401600073ec29164d68c4992cedd1d386118a47143fdcf1425af13d6000803e806000811461083157600051965060205195506040519450610836565b3d6000fd5b50505050955095509592505050565b606061087c73d7acd2a9fd159e69bb102a1ca21c9a3e3a5f771b737ef2e0048f5baede046f6bf797943daf4ed8cb47868686610885565b90509392505050565b60606000610e104261089791906113a4565b90506000600267ffffffffffffffff8111156108dc577f4e487b7100000000000000000000000000000000000000000000000000000000600052604160045260246000fd5b60405190808252806020026020018201604052801561090a5781602001602082028036833780820191505090505b5090508781600081518110610948577f4e487b7100000000000000000000000000000000000000000000000000000000600052603260045260246000fd5b602002602001019073ffffffffffffffffffffffffffffffffffffffff16908173ffffffffffffffffffffffffffffffffffffffff168152505086816001815181106109bd577f4e487b7100000000000000000000000000000000000000000000000000000000600052603260045260246000fd5b602002602001019073ffffffffffffffffffffffffffffffffffffffff16908173ffffffffffffffffffffffffffffffffffffffff168152505060008686838786604051602401610a12959493929190611290565b6040516020818303038152906040527f38ed1739000000000000000000000000000000000000000000000000000000007bffffffffffffffffffffffffffffffffffffffffffffffffffffffff19166020820180517bffffffffffffffffffffffffffffffffffffffffffffffffffffffff8381831617835250505050905060008082516020840173ec29164d68c4992cedd1d386118a47143fdcf1425af43d6000803e8060008114610ac4573d6000f35b3d6000fd5b600080333084604051602401610ae1939291906110ba565b6040516020818303038152906040527f23b872dd000000000000000000000000000000000000000000000000000000007bffffffffffffffffffffffffffffffffffffffffffffffffffffffff19166020820180517bffffffffffffffffffffffffffffffffffffffffffffffffffffffff838183161783525050505090506000808251602084016000885af13d6000803e8060008114610b86576000519350610b8b565b3d6000fd5b505081610bcd576040517f08c379a0000000000000000000000000000000000000000000000000000000008152600401610bc490611215565b60405180910390fd5b826000808673ffffffffffffffffffffffffffffffffffffffff1673ffffffffffffffffffffffffffffffffffffffff16815260200190815260200160002060003373ffffffffffffffffffffffffffffffffffffffff1673ffffffffffffffffffffffffffffffffffffffff1681526020019081526020016000206000828254610c5891906113a4565b925050819055505092915050565b600081359050610c75816114a5565b92915050565b600081359050610c8a816114bc565b92915050565b60008060408385031215610ca357600080fd5b6000610cb185828601610c66565b9250506020610cc285828601610c66565b9150509250929050565b60008060408385031215610cdf57600080fd5b6000610ced85828601610c66565b9250506020610cfe85828601610c7b565b9150509250929050565b600060208284031215610d1a57600080fd5b6000610d2884828501610c7b565b91505092915050565b600080600060608486031215610d4657600080fd5b6000610d5486828701610c7b565b9350506020610d6586828701610c7b565b9250506040610d7686828701610c66565b9150509250925092565b600080600080600060a08688031215610d9857600080fd5b6000610da688828901610c7b565b9550506020610db788828901610c7b565b9450506040610dc888828901610c7b565b9350506060610dd988828901610c7b565b9250506080610dea88828901610c66565b9150509295509295909350565b6000610e038383610e27565b60208301905092915050565b6000610e1b838361109c565b60208301905092915050565b610e308161142e565b82525050565b610e3f8161142e565b82525050565b6000610e5082611341565b610e5a8185611371565b9350610e6583611321565b8060005b83811015610e96578151610e7d8882610df7565b9750610e8883611357565b925050600181019050610e69565b5085935050505092915050565b6000610eae8261134c565b610eb88185611382565b9350610ec383611331565b8060005b83811015610ef4578151610edb8882610e0f565b9750610ee683611364565b925050600181019050610ec7565b5085935050505092915050565b610f0a81611440565b82525050565b6000610f1d602083611393565b91507f556e69737761704d61726b65743a206e6f7420656e6f75676820746f6b656e426000830152602082019050919050565b6000610f5d602f83611393565b91507f556e69737761704d61726b65743a20746f6b656e204120617070726f7665207460008301527f6f20726f75746572206661696c656400000000000000000000000000000000006020830152604082019050919050565b6000610fc3601e83611393565b91507f556e69737761704d61726b65743a207472616e73666572206661696c656400006000830152602082019050919050565b6000611003602f83611393565b91507f556e69737761704d61726b65743a20746f6b656e204220617070726f7665207460008301527f6f20726f75746572206661696c656400000000000000000000000000000000006020830152604082019050919050565b6000611069602083611393565b91507f556e69737761704d61726b65743a206e6f7420656e6f75676820746f6b656e416000830152602082019050919050565b6110a58161146c565b82525050565b6110b48161146c565b82525050565b60006060820190506110cf6000830186610e36565b6110dc6020830185610e36565b6110e960408301846110ab565b949350505050565b600061010082019050611107600083018b610e36565b611114602083018a610e36565b61112160408301896110ab565b61112e60608301886110ab565b61113b60808301876110ab565b61114860a08301866110ab565b61115560c0830185610e36565b61116260e08301846110ab565b9998505050505050505050565b60006040820190506111846000830185610e36565b61119160208301846110ab565b9392505050565b600060208201905081810360008301526111b28184610ea3565b905092915050565b60006020820190506111cf6000830184610f01565b92915050565b600060208201905081810360008301526111ee81610f10565b9050919050565b6000602082019050818103600083015261120e81610f50565b9050919050565b6000602082019050818103600083015261122e81610fb6565b9050919050565b6000602082019050818103600083015261124e81610ff6565b9050919050565b6000602082019050818103600083015261126e8161105c565b9050919050565b600060208201905061128a60008301846110ab565b92915050565b600060a0820190506112a560008301886110ab565b6112b260208301876110ab565b81810360408301526112c48186610e45565b90506112d36060830185610e36565b6112e060808301846110ab565b9695505050505050565b60006060820190506112ff60008301866110ab565b61130c60208301856110ab565b61131960408301846110ab565b949350505050565b6000819050602082019050919050565b6000819050602082019050919050565b600081519050919050565b600081519050919050565b6000602082019050919050565b6000602082019050919050565b600082825260208201905092915050565b600082825260208201905092915050565b600082825260208201905092915050565b60006113af8261146c565b91506113ba8361146c565b9250827fffffffffffffffffffffffffffffffffffffffffffffffffffffffffffffffff038211156113ef576113ee611476565b5b828201905092915050565b60006114058261146c565b91506114108361146c565b92508282101561142357611422611476565b5b828203905092915050565b60006114398261144c565b9050919050565b60008115159050919050565b600073ffffffffffffffffffffffffffffffffffffffff82169050919050565b6000819050919050565b7f4e487b7100000000000000000000000000000000000000000000000000000000600052601160045260246000fd5b6114ae8161142e565b81146114b957600080fd5b50565b6114c58161146c565b81146114d057600080fd5b5056fea26469706673582212202c6fa2217a22b16f7fd27ecaaec1745f644cfa4022aaacc496ee3aa9e9d4a63f64736f6c63430008000033",
			"opcodes": "PUSH1 0x80 PUSH1 0x40 MSTORE CALLVALUE DUP1 ISZERO PUSH2 0x10 JUMPI PUSH1 0x0 DUP1 REVERT JUMPDEST POP PUSH2 0x1509 DUP1 PUSH2 0x20 PUSH1 0x0 CODECOPY PUSH1 0x0 RETURN INVALID PUSH1 0x80 PUSH1 0x40 MSTORE CALLVALUE DUP1 ISZERO PUSH2 0x10 JUMPI PUSH1 0x0 DUP1 REVERT JUMPDEST POP PUSH1 0x4 CALLDATASIZE LT PUSH2 0x7D JUMPI PUSH1 0x0 CALLDATALOAD PUSH1 0xE0 SHR DUP1 PUSH4 0x9C0E0D33 GT PUSH2 0x5B JUMPI DUP1 PUSH4 0x9C0E0D33 EQ PUSH2 0x112 JUMPI DUP1 PUSH4 0x9E30B1E8 EQ PUSH2 0x142 JUMPI DUP1 PUSH4 0xE0AB0772 EQ PUSH2 0x172 JUMPI DUP1 PUSH4 0xF612E299 EQ PUSH2 0x1A4 JUMPI PUSH2 0x7D JUMP JUMPDEST DUP1 PUSH4 0x43308BF6 EQ PUSH2 0x82 JUMPI DUP1 PUSH4 0x4DBF6C5A EQ PUSH2 0xB2 JUMPI DUP1 PUSH4 0x76182BAF EQ PUSH2 0xE2 JUMPI JUMPDEST PUSH1 0x0 DUP1 REVERT JUMPDEST PUSH2 0x9C PUSH1 0x4 DUP1 CALLDATASIZE SUB DUP2 ADD SWAP1 PUSH2 0x97 SWAP2 SWAP1 PUSH2 0xD31 JUMP JUMPDEST PUSH2 0x1D4 JUMP JUMPDEST PUSH1 0x40 MLOAD PUSH2 0xA9 SWAP2 SWAP1 PUSH2 0x1198 JUMP JUMPDEST PUSH1 0x40 MLOAD DUP1 SWAP2 SUB SWAP1 RETURN JUMPDEST PUSH2 0xCC PUSH1 0x4 DUP1 CALLDATASIZE SUB DUP2 ADD SWAP1 PUSH2 0xC7 SWAP2 SWAP1 PUSH2 0xC90 JUMP JUMPDEST PUSH2 0x214 JUMP JUMPDEST PUSH1 0x40 MLOAD PUSH2 0xD9 SWAP2 SWAP1 PUSH2 0x1275 JUMP JUMPDEST PUSH1 0x40 MLOAD DUP1 SWAP2 SUB SWAP1 RETURN JUMPDEST PUSH2 0xFC PUSH1 0x4 DUP1 CALLDATASIZE SUB DUP2 ADD SWAP1 PUSH2 0xF7 SWAP2 SWAP1 PUSH2 0xD08 JUMP JUMPDEST PUSH2 0x239 JUMP JUMPDEST PUSH1 0x40 MLOAD PUSH2 0x109 SWAP2 SWAP1 PUSH2 0x11BA JUMP JUMPDEST PUSH1 0x40 MLOAD DUP1 SWAP2 SUB SWAP1 RETURN JUMPDEST PUSH2 0x12C PUSH1 0x4 DUP1 CALLDATASIZE SUB DUP2 ADD SWAP1 PUSH2 0x127 SWAP2 SWAP1 PUSH2 0xCCC JUMP JUMPDEST PUSH2 0x260 JUMP JUMPDEST PUSH1 0x40 MLOAD PUSH2 0x139 SWAP2 SWAP1 PUSH2 0x11BA JUMP JUMPDEST PUSH1 0x40 MLOAD DUP1 SWAP2 SUB SWAP1 RETURN JUMPDEST PUSH2 0x15C PUSH1 0x4 DUP1 CALLDATASIZE SUB DUP2 ADD SWAP1 PUSH2 0x157 SWAP2 SWAP1 PUSH2 0xD08 JUMP JUMPDEST PUSH2 0x33D JUMP JUMPDEST PUSH1 0x40 MLOAD PUSH2 0x169 SWAP2 SWAP1 PUSH2 0x11BA JUMP JUMPDEST PUSH1 0x40 MLOAD DUP1 SWAP2 SUB SWAP1 RETURN JUMPDEST PUSH2 0x18C PUSH1 0x4 DUP1 CALLDATASIZE SUB DUP2 ADD SWAP1 PUSH2 0x187 SWAP2 SWAP1 PUSH2 0xD80 JUMP JUMPDEST PUSH2 0x364 JUMP JUMPDEST PUSH1 0x40 MLOAD PUSH2 0x19B SWAP4 SWAP3 SWAP2 SWAP1 PUSH2 0x12EA JUMP JUMPDEST PUSH1 0x40 MLOAD DUP1 SWAP2 SUB SWAP1 RETURN JUMPDEST PUSH2 0x1BE PUSH1 0x4 DUP1 CALLDATASIZE SUB DUP2 ADD SWAP1 PUSH2 0x1B9 SWAP2 SWAP1 PUSH2 0xD31 JUMP JUMPDEST PUSH2 0x845 JUMP JUMPDEST PUSH1 0x40 MLOAD PUSH2 0x1CB SWAP2 SWAP1 PUSH2 0x1198 JUMP JUMPDEST PUSH1 0x40 MLOAD DUP1 SWAP2 SUB SWAP1 RETURN JUMPDEST PUSH1 0x60 PUSH2 0x20B PUSH20 0x7EF2E0048F5BAEDE046F6BF797943DAF4ED8CB47 PUSH20 0xD7ACD2A9FD159E69BB102A1CA21C9A3E3A5F771B DUP7 DUP7 DUP7 PUSH2 0x885 JUMP JUMPDEST SWAP1 POP SWAP4 SWAP3 POP POP POP JUMP JUMPDEST PUSH1 0x0 PUSH1 0x20 MSTORE DUP2 PUSH1 0x0 MSTORE PUSH1 0x40 PUSH1 0x0 KECCAK256 PUSH1 0x20 MSTORE DUP1 PUSH1 0x0 MSTORE PUSH1 0x40 PUSH1 0x0 KECCAK256 PUSH1 0x0 SWAP2 POP SWAP2 POP POP SLOAD DUP2 JUMP JUMPDEST PUSH1 0x0 PUSH2 0x259 PUSH20 0x7EF2E0048F5BAEDE046F6BF797943DAF4ED8CB47 DUP4 PUSH2 0xAC9 JUMP JUMPDEST SWAP1 POP SWAP2 SWAP1 POP JUMP JUMPDEST PUSH1 0x0 DUP1 PUSH20 0xEC29164D68C4992CEDD1D386118A47143FDCF142 DUP4 PUSH1 0x40 MLOAD PUSH1 0x24 ADD PUSH2 0x28A SWAP3 SWAP2 SWAP1 PUSH2 0x116F JUMP JUMPDEST PUSH1 0x40 MLOAD PUSH1 0x20 DUP2 DUP4 SUB SUB DUP2 MSTORE SWAP1 PUSH1 0x40 MSTORE PUSH32 0x95EA7B300000000000000000000000000000000000000000000000000000000 PUSH28 0xFFFFFFFFFFFFFFFFFFFFFFFFFFFFFFFFFFFFFFFFFFFFFFFFFFFFFFFF NOT AND PUSH1 0x20 DUP3 ADD DUP1 MLOAD PUSH28 0xFFFFFFFFFFFFFFFFFFFFFFFFFFFFFFFFFFFFFFFFFFFFFFFFFFFFFFFF DUP4 DUP2 DUP4 AND OR DUP4 MSTORE POP POP POP POP SWAP1 POP PUSH1 0x0 DUP1 DUP3 MLOAD PUSH1 0x20 DUP5 ADD PUSH1 0x0 DUP9 GAS CALL RETURNDATASIZE PUSH1 0x0 DUP1 RETURNDATACOPY DUP1 PUSH1 0x0 DUP2 EQ PUSH2 0x32F JUMPI PUSH1 0x0 MLOAD SWAP4 POP PUSH2 0x334 JUMP JUMPDEST RETURNDATASIZE PUSH1 0x0 REVERT JUMPDEST POP POP POP SWAP3 SWAP2 POP POP JUMP JUMPDEST PUSH1 0x0 PUSH2 0x35D PUSH20 0xD7ACD2A9FD159E69BB102A1CA21C9A3E3A5F771B DUP4 PUSH2 0xAC9 JUMP JUMPDEST SWAP1 POP SWAP2 SWAP1 POP JUMP JUMPDEST PUSH1 0x0 DUP1 PUSH1 0x0 DUP8 PUSH1 0x0 DUP1 PUSH20 0xD7ACD2A9FD159E69BB102A1CA21C9A3E3A5F771B PUSH20 0xFFFFFFFFFFFFFFFFFFFFFFFFFFFFFFFFFFFFFFFF AND PUSH20 0xFFFFFFFFFFFFFFFFFFFFFFFFFFFFFFFFFFFFFFFF AND DUP2 MSTORE PUSH1 0x20 ADD SWAP1 DUP2 MSTORE PUSH1 0x20 ADD PUSH1 0x0 KECCAK256 PUSH1 0x0 CALLER PUSH20 0xFFFFFFFFFFFFFFFFFFFFFFFFFFFFFFFFFFFFFFFF AND PUSH20 0xFFFFFFFFFFFFFFFFFFFFFFFFFFFFFFFFFFFFFFFF AND DUP2 MSTORE PUSH1 0x20 ADD SWAP1 DUP2 MSTORE PUSH1 0x20 ADD PUSH1 0x0 KECCAK256 SLOAD LT ISZERO PUSH2 0x43B JUMPI PUSH1 0x40 MLOAD PUSH32 0x8C379A000000000000000000000000000000000000000000000000000000000 DUP2 MSTORE PUSH1 0x4 ADD PUSH2 0x432 SWAP1 PUSH2 0x1255 JUMP JUMPDEST PUSH1 0x40 MLOAD DUP1 SWAP2 SUB SWAP1 REVERT JUMPDEST DUP7 PUSH1 0x0 DUP1 PUSH20 0x7EF2E0048F5BAEDE046F6BF797943DAF4ED8CB47 PUSH20 0xFFFFFFFFFFFFFFFFFFFFFFFFFFFFFFFFFFFFFFFF AND PUSH20 0xFFFFFFFFFFFFFFFFFFFFFFFFFFFFFFFFFFFFFFFF AND DUP2 MSTORE PUSH1 0x20 ADD SWAP1 DUP2 MSTORE PUSH1 0x20 ADD PUSH1 0x0 KECCAK256 PUSH1 0x0 CALLER PUSH20 0xFFFFFFFFFFFFFFFFFFFFFFFFFFFFFFFFFFFFFFFF AND PUSH20 0xFFFFFFFFFFFFFFFFFFFFFFFFFFFFFFFFFFFFFFFF AND DUP2 MSTORE PUSH1 0x20 ADD SWAP1 DUP2 MSTORE PUSH1 0x20 ADD PUSH1 0x0 KECCAK256 SLOAD LT ISZERO PUSH2 0x50D JUMPI PUSH1 0x40 MLOAD PUSH32 0x8C379A000000000000000000000000000000000000000000000000000000000 DUP2 MSTORE PUSH1 0x4 ADD PUSH2 0x504 SWAP1 PUSH2 0x11D5 JUMP JUMPDEST PUSH1 0x40 MLOAD DUP1 SWAP2 SUB SWAP1 REVERT JUMPDEST DUP8 PUSH1 0x0 DUP1 PUSH20 0xD7ACD2A9FD159E69BB102A1CA21C9A3E3A5F771B PUSH20 0xFFFFFFFFFFFFFFFFFFFFFFFFFFFFFFFFFFFFFFFF AND PUSH20 0xFFFFFFFFFFFFFFFFFFFFFFFFFFFFFFFFFFFFFFFF AND DUP2 MSTORE PUSH1 0x20 ADD SWAP1 DUP2 MSTORE PUSH1 0x20 ADD PUSH1 0x0 KECCAK256 PUSH1 0x0 CALLER PUSH20 0xFFFFFFFFFFFFFFFFFFFFFFFFFFFFFFFFFFFFFFFF AND PUSH20 0xFFFFFFFFFFFFFFFFFFFFFFFFFFFFFFFFFFFFFFFF AND DUP2 MSTORE PUSH1 0x20 ADD SWAP1 DUP2 MSTORE PUSH1 0x20 ADD PUSH1 0x0 KECCAK256 PUSH1 0x0 DUP3 DUP3 SLOAD PUSH2 0x5AC SWAP2 SWAP1 PUSH2 0x13FA JUMP JUMPDEST SWAP3 POP POP DUP2 SWAP1 SSTORE POP DUP7 PUSH1 0x0 DUP1 PUSH20 0x7EF2E0048F5BAEDE046F6BF797943DAF4ED8CB47 PUSH20 0xFFFFFFFFFFFFFFFFFFFFFFFFFFFFFFFFFFFFFFFF AND PUSH20 0xFFFFFFFFFFFFFFFFFFFFFFFFFFFFFFFFFFFFFFFF AND DUP2 MSTORE PUSH1 0x20 ADD SWAP1 DUP2 MSTORE PUSH1 0x20 ADD PUSH1 0x0 KECCAK256 PUSH1 0x0 CALLER PUSH20 0xFFFFFFFFFFFFFFFFFFFFFFFFFFFFFFFFFFFFFFFF AND PUSH20 0xFFFFFFFFFFFFFFFFFFFFFFFFFFFFFFFFFFFFFFFF AND DUP2 MSTORE PUSH1 0x20 ADD SWAP1 DUP2 MSTORE PUSH1 0x20 ADD PUSH1 0x0 KECCAK256 PUSH1 0x0 DUP3 DUP3 SLOAD PUSH2 0x652 SWAP2 SWAP1 PUSH2 0x13FA JUMP JUMPDEST SWAP3 POP POP DUP2 SWAP1 SSTORE POP PUSH2 0x677 PUSH20 0xD7ACD2A9FD159E69BB102A1CA21C9A3E3A5F771B DUP10 PUSH2 0x260 JUMP JUMPDEST PUSH2 0x6B6 JUMPI PUSH1 0x40 MLOAD PUSH32 0x8C379A000000000000000000000000000000000000000000000000000000000 DUP2 MSTORE PUSH1 0x4 ADD PUSH2 0x6AD SWAP1 PUSH2 0x11F5 JUMP JUMPDEST PUSH1 0x40 MLOAD DUP1 SWAP2 SUB SWAP1 REVERT JUMPDEST PUSH2 0x6D4 PUSH20 0x7EF2E0048F5BAEDE046F6BF797943DAF4ED8CB47 DUP9 PUSH2 0x260 JUMP JUMPDEST PUSH2 0x713 JUMPI PUSH1 0x40 MLOAD PUSH32 0x8C379A000000000000000000000000000000000000000000000000000000000 DUP2 MSTORE PUSH1 0x4 ADD PUSH2 0x70A SWAP1 PUSH2 0x1235 JUMP JUMPDEST PUSH1 0x40 MLOAD DUP1 SWAP2 SUB SWAP1 REVERT JUMPDEST PUSH1 0x0 PUSH2 0xE10 TIMESTAMP PUSH2 0x723 SWAP2 SWAP1 PUSH2 0x13A4 JUMP JUMPDEST SWAP1 POP PUSH1 0x0 PUSH20 0xD7ACD2A9FD159E69BB102A1CA21C9A3E3A5F771B PUSH20 0x7EF2E0048F5BAEDE046F6BF797943DAF4ED8CB47 DUP12 DUP12 DUP12 DUP12 DUP12 DUP9 PUSH1 0x40 MLOAD PUSH1 0x24 ADD PUSH2 0x76E SWAP9 SWAP8 SWAP7 SWAP6 SWAP5 SWAP4 SWAP3 SWAP2 SWAP1 PUSH2 0x10F1 JUMP JUMPDEST PUSH1 0x40 MLOAD PUSH1 0x20 DUP2 DUP4 SUB SUB DUP2 MSTORE SWAP1 PUSH1 0x40 MSTORE PUSH32 0xE8E3370000000000000000000000000000000000000000000000000000000000 PUSH28 0xFFFFFFFFFFFFFFFFFFFFFFFFFFFFFFFFFFFFFFFFFFFFFFFFFFFFFFFF NOT AND PUSH1 0x20 DUP3 ADD DUP1 MLOAD PUSH28 0xFFFFFFFFFFFFFFFFFFFFFFFFFFFFFFFFFFFFFFFFFFFFFFFFFFFFFFFF DUP4 DUP2 DUP4 AND OR DUP4 MSTORE POP POP POP POP SWAP1 POP PUSH1 0x0 DUP1 DUP3 MLOAD PUSH1 0x20 DUP5 ADD PUSH1 0x0 PUSH20 0xEC29164D68C4992CEDD1D386118A47143FDCF142 GAS CALL RETURNDATASIZE PUSH1 0x0 DUP1 RETURNDATACOPY DUP1 PUSH1 0x0 DUP2 EQ PUSH2 0x831 JUMPI PUSH1 0x0 MLOAD SWAP7 POP PUSH1 0x20 MLOAD SWAP6 POP PUSH1 0x40 MLOAD SWAP5 POP PUSH2 0x836 JUMP JUMPDEST RETURNDATASIZE PUSH1 0x0 REVERT JUMPDEST POP POP POP POP SWAP6 POP SWAP6 POP SWAP6 SWAP3 POP POP POP JUMP JUMPDEST PUSH1 0x60 PUSH2 0x87C PUSH20 0xD7ACD2A9FD159E69BB102A1CA21C9A3E3A5F771B PUSH20 0x7EF2E0048F5BAEDE046F6BF797943DAF4ED8CB47 DUP7 DUP7 DUP7 PUSH2 0x885 JUMP JUMPDEST SWAP1 POP SWAP4 SWAP3 POP POP POP JUMP JUMPDEST PUSH1 0x60 PUSH1 0x0 PUSH2 0xE10 TIMESTAMP PUSH2 0x897 SWAP2 SWAP1 PUSH2 0x13A4 JUMP JUMPDEST SWAP1 POP PUSH1 0x0 PUSH1 0x2 PUSH8 0xFFFFFFFFFFFFFFFF DUP2 GT ISZERO PUSH2 0x8DC JUMPI PUSH32 0x4E487B7100000000000000000000000000000000000000000000000000000000 PUSH1 0x0 MSTORE PUSH1 0x41 PUSH1 0x4 MSTORE PUSH1 0x24 PUSH1 0x0 REVERT JUMPDEST PUSH1 0x40 MLOAD SWAP1 DUP1 DUP3 MSTORE DUP1 PUSH1 0x20 MUL PUSH1 0x20 ADD DUP3 ADD PUSH1 0x40 MSTORE DUP1 ISZERO PUSH2 0x90A JUMPI DUP2 PUSH1 0x20 ADD PUSH1 0x20 DUP3 MUL DUP1 CALLDATASIZE DUP4 CALLDATACOPY DUP1 DUP3 ADD SWAP2 POP POP SWAP1 POP JUMPDEST POP SWAP1 POP DUP8 DUP2 PUSH1 0x0 DUP2 MLOAD DUP2 LT PUSH2 0x948 JUMPI PUSH32 0x4E487B7100000000000000000000000000000000000000000000000000000000 PUSH1 0x0 MSTORE PUSH1 0x32 PUSH1 0x4 MSTORE PUSH1 0x24 PUSH1 0x0 REVERT JUMPDEST PUSH1 0x20 MUL PUSH1 0x20 ADD ADD SWAP1 PUSH20 0xFFFFFFFFFFFFFFFFFFFFFFFFFFFFFFFFFFFFFFFF AND SWAP1 DUP2 PUSH20 0xFFFFFFFFFFFFFFFFFFFFFFFFFFFFFFFFFFFFFFFF AND DUP2 MSTORE POP POP DUP7 DUP2 PUSH1 0x1 DUP2 MLOAD DUP2 LT PUSH2 0x9BD JUMPI PUSH32 0x4E487B7100000000000000000000000000000000000000000000000000000000 PUSH1 0x0 MSTORE PUSH1 0x32 PUSH1 0x4 MSTORE PUSH1 0x24 PUSH1 0x0 REVERT JUMPDEST PUSH1 0x20 MUL PUSH1 0x20 ADD ADD SWAP1 PUSH20 0xFFFFFFFFFFFFFFFFFFFFFFFFFFFFFFFFFFFFFFFF AND SWAP1 DUP2 PUSH20 0xFFFFFFFFFFFFFFFFFFFFFFFFFFFFFFFFFFFFFFFF AND DUP2 MSTORE POP POP PUSH1 0x0 DUP7 DUP7 DUP4 DUP8 DUP7 PUSH1 0x40 MLOAD PUSH1 0x24 ADD PUSH2 0xA12 SWAP6 SWAP5 SWAP4 SWAP3 SWAP2 SWAP1 PUSH2 0x1290 JUMP JUMPDEST PUSH1 0x40 MLOAD PUSH1 0x20 DUP2 DUP4 SUB SUB DUP2 MSTORE SWAP1 PUSH1 0x40 MSTORE PUSH32 0x38ED173900000000000000000000000000000000000000000000000000000000 PUSH28 0xFFFFFFFFFFFFFFFFFFFFFFFFFFFFFFFFFFFFFFFFFFFFFFFFFFFFFFFF NOT AND PUSH1 0x20 DUP3 ADD DUP1 MLOAD PUSH28 0xFFFFFFFFFFFFFFFFFFFFFFFFFFFFFFFFFFFFFFFFFFFFFFFFFFFFFFFF DUP4 DUP2 DUP4 AND OR DUP4 MSTORE POP POP POP POP SWAP1 POP PUSH1 0x0 DUP1 DUP3 MLOAD PUSH1 0x20 DUP5 ADD PUSH20 0xEC29164D68C4992CEDD1D386118A47143FDCF142 GAS DELEGATECALL RETURNDATASIZE PUSH1 0x0 DUP1 RETURNDATACOPY DUP1 PUSH1 0x0 DUP2 EQ PUSH2 0xAC4 JUMPI RETURNDATASIZE PUSH1 0x0 RETURN JUMPDEST RETURNDATASIZE PUSH1 0x0 REVERT JUMPDEST PUSH1 0x0 DUP1 CALLER ADDRESS DUP5 PUSH1 0x40 MLOAD PUSH1 0x24 ADD PUSH2 0xAE1 SWAP4 SWAP3 SWAP2 SWAP1 PUSH2 0x10BA JUMP JUMPDEST PUSH1 0x40 MLOAD PUSH1 0x20 DUP2 DUP4 SUB SUB DUP2 MSTORE SWAP1 PUSH1 0x40 MSTORE PUSH32 0x23B872DD00000000000000000000000000000000000000000000000000000000 PUSH28 0xFFFFFFFFFFFFFFFFFFFFFFFFFFFFFFFFFFFFFFFFFFFFFFFFFFFFFFFF NOT AND PUSH1 0x20 DUP3 ADD DUP1 MLOAD PUSH28 0xFFFFFFFFFFFFFFFFFFFFFFFFFFFFFFFFFFFFFFFFFFFFFFFFFFFFFFFF DUP4 DUP2 DUP4 AND OR DUP4 MSTORE POP POP POP POP SWAP1 POP PUSH1 0x0 DUP1 DUP3 MLOAD PUSH1 0x20 DUP5 ADD PUSH1 0x0 DUP9 GAS CALL RETURNDATASIZE PUSH1 0x0 DUP1 RETURNDATACOPY DUP1 PUSH1 0x0 DUP2 EQ PUSH2 0xB86 JUMPI PUSH1 0x0 MLOAD SWAP4 POP PUSH2 0xB8B JUMP JUMPDEST RETURNDATASIZE PUSH1 0x0 REVERT JUMPDEST POP POP DUP2 PUSH2 0xBCD JUMPI PUSH1 0x40 MLOAD PUSH32 0x8C379A000000000000000000000000000000000000000000000000000000000 DUP2 MSTORE PUSH1 0x4 ADD PUSH2 0xBC4 SWAP1 PUSH2 0x1215 JUMP JUMPDEST PUSH1 0x40 MLOAD DUP1 SWAP2 SUB SWAP1 REVERT JUMPDEST DUP3 PUSH1 0x0 DUP1 DUP7 PUSH20 0xFFFFFFFFFFFFFFFFFFFFFFFFFFFFFFFFFFFFFFFF AND PUSH20 0xFFFFFFFFFFFFFFFFFFFFFFFFFFFFFFFFFFFFFFFF AND DUP2 MSTORE PUSH1 0x20 ADD SWAP1 DUP2 MSTORE PUSH1 0x20 ADD PUSH1 0x0 KECCAK256 PUSH1 0x0 CALLER PUSH20 0xFFFFFFFFFFFFFFFFFFFFFFFFFFFFFFFFFFFFFFFF AND PUSH20 0xFFFFFFFFFFFFFFFFFFFFFFFFFFFFFFFFFFFFFFFF AND DUP2 MSTORE PUSH1 0x20 ADD SWAP1 DUP2 MSTORE PUSH1 0x20 ADD PUSH1 0x0 KECCAK256 PUSH1 0x0 DUP3 DUP3 SLOAD PUSH2 0xC58 SWAP2 SWAP1 PUSH2 0x13A4 JUMP JUMPDEST SWAP3 POP POP DUP2 SWAP1 SSTORE POP POP SWAP3 SWAP2 POP POP JUMP JUMPDEST PUSH1 0x0 DUP2 CALLDATALOAD SWAP1 POP PUSH2 0xC75 DUP2 PUSH2 0x14A5 JUMP JUMPDEST SWAP3 SWAP2 POP POP JUMP JUMPDEST PUSH1 0x0 DUP2 CALLDATALOAD SWAP1 POP PUSH2 0xC8A DUP2 PUSH2 0x14BC JUMP JUMPDEST SWAP3 SWAP2 POP POP JUMP JUMPDEST PUSH1 0x0 DUP1 PUSH1 0x40 DUP4 DUP6 SUB SLT ISZERO PUSH2 0xCA3 JUMPI PUSH1 0x0 DUP1 REVERT JUMPDEST PUSH1 0x0 PUSH2 0xCB1 DUP6 DUP3 DUP7 ADD PUSH2 0xC66 JUMP JUMPDEST SWAP3 POP POP PUSH1 0x20 PUSH2 0xCC2 DUP6 DUP3 DUP7 ADD PUSH2 0xC66 JUMP JUMPDEST SWAP2 POP POP SWAP3 POP SWAP3 SWAP1 POP JUMP JUMPDEST PUSH1 0x0 DUP1 PUSH1 0x40 DUP4 DUP6 SUB SLT ISZERO PUSH2 0xCDF JUMPI PUSH1 0x0 DUP1 REVERT JUMPDEST PUSH1 0x0 PUSH2 0xCED DUP6 DUP3 DUP7 ADD PUSH2 0xC66 JUMP JUMPDEST SWAP3 POP POP PUSH1 0x20 PUSH2 0xCFE DUP6 DUP3 DUP7 ADD PUSH2 0xC7B JUMP JUMPDEST SWAP2 POP POP SWAP3 POP SWAP3 SWAP1 POP JUMP JUMPDEST PUSH1 0x0 PUSH1 0x20 DUP3 DUP5 SUB SLT ISZERO PUSH2 0xD1A JUMPI PUSH1 0x0 DUP1 REVERT JUMPDEST PUSH1 0x0 PUSH2 0xD28 DUP5 DUP3 DUP6 ADD PUSH2 0xC7B JUMP JUMPDEST SWAP2 POP POP SWAP3 SWAP2 POP POP JUMP JUMPDEST PUSH1 0x0 DUP1 PUSH1 0x0 PUSH1 0x60 DUP5 DUP7 SUB SLT ISZERO PUSH2 0xD46 JUMPI PUSH1 0x0 DUP1 REVERT JUMPDEST PUSH1 0x0 PUSH2 0xD54 DUP7 DUP3 DUP8 ADD PUSH2 0xC7B JUMP JUMPDEST SWAP4 POP POP PUSH1 0x20 PUSH2 0xD65 DUP7 DUP3 DUP8 ADD PUSH2 0xC7B JUMP JUMPDEST SWAP3 POP POP PUSH1 0x40 PUSH2 0xD76 DUP7 DUP3 DUP8 ADD PUSH2 0xC66 JUMP JUMPDEST SWAP2 POP POP SWAP3 POP SWAP3 POP SWAP3 JUMP JUMPDEST PUSH1 0x0 DUP1 PUSH1 0x0 DUP1 PUSH1 0x0 PUSH1 0xA0 DUP7 DUP9 SUB SLT ISZERO PUSH2 0xD98 JUMPI PUSH1 0x0 DUP1 REVERT JUMPDEST PUSH1 0x0 PUSH2 0xDA6 DUP9 DUP3 DUP10 ADD PUSH2 0xC7B JUMP JUMPDEST SWAP6 POP POP PUSH1 0x20 PUSH2 0xDB7 DUP9 DUP3 DUP10 ADD PUSH2 0xC7B JUMP JUMPDEST SWAP5 POP POP PUSH1 0x40 PUSH2 0xDC8 DUP9 DUP3 DUP10 ADD PUSH2 0xC7B JUMP JUMPDEST SWAP4 POP POP PUSH1 0x60 PUSH2 0xDD9 DUP9 DUP3 DUP10 ADD PUSH2 0xC7B JUMP JUMPDEST SWAP3 POP POP PUSH1 0x80 PUSH2 0xDEA DUP9 DUP3 DUP10 ADD PUSH2 0xC66 JUMP JUMPDEST SWAP2 POP POP SWAP3 SWAP6 POP SWAP3 SWAP6 SWAP1 SWAP4 POP JUMP JUMPDEST PUSH1 0x0 PUSH2 0xE03 DUP4 DUP4 PUSH2 0xE27 JUMP JUMPDEST PUSH1 0x20 DUP4 ADD SWAP1 POP SWAP3 SWAP2 POP POP JUMP JUMPDEST PUSH1 0x0 PUSH2 0xE1B DUP4 DUP4 PUSH2 0x109C JUMP JUMPDEST PUSH1 0x20 DUP4 ADD SWAP1 POP SWAP3 SWAP2 POP POP JUMP JUMPDEST PUSH2 0xE30 DUP2 PUSH2 0x142E JUMP JUMPDEST DUP3 MSTORE POP POP JUMP JUMPDEST PUSH2 0xE3F DUP2 PUSH2 0x142E JUMP JUMPDEST DUP3 MSTORE POP POP JUMP JUMPDEST PUSH1 0x0 PUSH2 0xE50 DUP3 PUSH2 0x1341 JUMP JUMPDEST PUSH2 0xE5A DUP2 DUP6 PUSH2 0x1371 JUMP JUMPDEST SWAP4 POP PUSH2 0xE65 DUP4 PUSH2 0x1321 JUMP JUMPDEST DUP1 PUSH1 0x0 JUMPDEST DUP4 DUP2 LT ISZERO PUSH2 0xE96 JUMPI DUP2 MLOAD PUSH2 0xE7D DUP9 DUP3 PUSH2 0xDF7 JUMP JUMPDEST SWAP8 POP PUSH2 0xE88 DUP4 PUSH2 0x1357 JUMP JUMPDEST SWAP3 POP POP PUSH1 0x1 DUP2 ADD SWAP1 POP PUSH2 0xE69 JUMP JUMPDEST POP DUP6 SWAP4 POP POP POP POP SWAP3 SWAP2 POP POP JUMP JUMPDEST PUSH1 0x0 PUSH2 0xEAE DUP3 PUSH2 0x134C JUMP JUMPDEST PUSH2 0xEB8 DUP2 DUP6 PUSH2 0x1382 JUMP JUMPDEST SWAP4 POP PUSH2 0xEC3 DUP4 PUSH2 0x1331 JUMP JUMPDEST DUP1 PUSH1 0x0 JUMPDEST DUP4 DUP2 LT ISZERO PUSH2 0xEF4 JUMPI DUP2 MLOAD PUSH2 0xEDB DUP9 DUP3 PUSH2 0xE0F JUMP JUMPDEST SWAP8 POP PUSH2 0xEE6 DUP4 PUSH2 0x1364 JUMP JUMPDEST SWAP3 POP POP PUSH1 0x1 DUP2 ADD SWAP1 POP PUSH2 0xEC7 JUMP JUMPDEST POP DUP6 SWAP4 POP POP POP POP SWAP3 SWAP2 POP POP JUMP JUMPDEST PUSH2 0xF0A DUP2 PUSH2 0x1440 JUMP JUMPDEST DUP3 MSTORE POP POP JUMP JUMPDEST PUSH1 0x0 PUSH2 0xF1D PUSH1 0x20 DUP4 PUSH2 0x1393 JUMP JUMPDEST SWAP2 POP PUSH32 0x556E69737761704D61726B65743A206E6F7420656E6F75676820746F6B656E42 PUSH1 0x0 DUP4 ADD MSTORE PUSH1 0x20 DUP3 ADD SWAP1 POP SWAP2 SWAP1 POP JUMP JUMPDEST PUSH1 0x0 PUSH2 0xF5D PUSH1 0x2F DUP4 PUSH2 0x1393 JUMP JUMPDEST SWAP2 POP PUSH32 0x556E69737761704D61726B65743A20746F6B656E204120617070726F76652074 PUSH1 0x0 DUP4 ADD MSTORE PUSH32 0x6F20726F75746572206661696C65640000000000000000000000000000000000 PUSH1 0x20 DUP4 ADD MSTORE PUSH1 0x40 DUP3 ADD SWAP1 POP SWAP2 SWAP1 POP JUMP JUMPDEST PUSH1 0x0 PUSH2 0xFC3 PUSH1 0x1E DUP4 PUSH2 0x1393 JUMP JUMPDEST SWAP2 POP PUSH32 0x556E69737761704D61726B65743A207472616E73666572206661696C65640000 PUSH1 0x0 DUP4 ADD MSTORE PUSH1 0x20 DUP3 ADD SWAP1 POP SWAP2 SWAP1 POP JUMP JUMPDEST PUSH1 0x0 PUSH2 0x1003 PUSH1 0x2F DUP4 PUSH2 0x1393 JUMP JUMPDEST SWAP2 POP PUSH32 0x556E69737761704D61726B65743A20746F6B656E204220617070726F76652074 PUSH1 0x0 DUP4 ADD MSTORE PUSH32 0x6F20726F75746572206661696C65640000000000000000000000000000000000 PUSH1 0x20 DUP4 ADD MSTORE PUSH1 0x40 DUP3 ADD SWAP1 POP SWAP2 SWAP1 POP JUMP JUMPDEST PUSH1 0x0 PUSH2 0x1069 PUSH1 0x20 DUP4 PUSH2 0x1393 JUMP JUMPDEST SWAP2 POP PUSH32 0x556E69737761704D61726B65743A206E6F7420656E6F75676820746F6B656E41 PUSH1 0x0 DUP4 ADD MSTORE PUSH1 0x20 DUP3 ADD SWAP1 POP SWAP2 SWAP1 POP JUMP JUMPDEST PUSH2 0x10A5 DUP2 PUSH2 0x146C JUMP JUMPDEST DUP3 MSTORE POP POP JUMP JUMPDEST PUSH2 0x10B4 DUP2 PUSH2 0x146C JUMP JUMPDEST DUP3 MSTORE POP POP JUMP JUMPDEST PUSH1 0x0 PUSH1 0x60 DUP3 ADD SWAP1 POP PUSH2 0x10CF PUSH1 0x0 DUP4 ADD DUP7 PUSH2 0xE36 JUMP JUMPDEST PUSH2 0x10DC PUSH1 0x20 DUP4 ADD DUP6 PUSH2 0xE36 JUMP JUMPDEST PUSH2 0x10E9 PUSH1 0x40 DUP4 ADD DUP5 PUSH2 0x10AB JUMP JUMPDEST SWAP5 SWAP4 POP POP POP POP JUMP JUMPDEST PUSH1 0x0 PUSH2 0x100 DUP3 ADD SWAP1 POP PUSH2 0x1107 PUSH1 0x0 DUP4 ADD DUP12 PUSH2 0xE36 JUMP JUMPDEST PUSH2 0x1114 PUSH1 0x20 DUP4 ADD DUP11 PUSH2 0xE36 JUMP JUMPDEST PUSH2 0x1121 PUSH1 0x40 DUP4 ADD DUP10 PUSH2 0x10AB JUMP JUMPDEST PUSH2 0x112E PUSH1 0x60 DUP4 ADD DUP9 PUSH2 0x10AB JUMP JUMPDEST PUSH2 0x113B PUSH1 0x80 DUP4 ADD DUP8 PUSH2 0x10AB JUMP JUMPDEST PUSH2 0x1148 PUSH1 0xA0 DUP4 ADD DUP7 PUSH2 0x10AB JUMP JUMPDEST PUSH2 0x1155 PUSH1 0xC0 DUP4 ADD DUP6 PUSH2 0xE36 JUMP JUMPDEST PUSH2 0x1162 PUSH1 0xE0 DUP4 ADD DUP5 PUSH2 0x10AB JUMP JUMPDEST SWAP10 SWAP9 POP POP POP POP POP POP POP POP POP JUMP JUMPDEST PUSH1 0x0 PUSH1 0x40 DUP3 ADD SWAP1 POP PUSH2 0x1184 PUSH1 0x0 DUP4 ADD DUP6 PUSH2 0xE36 JUMP JUMPDEST PUSH2 0x1191 PUSH1 0x20 DUP4 ADD DUP5 PUSH2 0x10AB JUMP JUMPDEST SWAP4 SWAP3 POP POP POP JUMP JUMPDEST PUSH1 0x0 PUSH1 0x20 DUP3 ADD SWAP1 POP DUP2 DUP2 SUB PUSH1 0x0 DUP4 ADD MSTORE PUSH2 0x11B2 DUP2 DUP5 PUSH2 0xEA3 JUMP JUMPDEST SWAP1 POP SWAP3 SWAP2 POP POP JUMP JUMPDEST PUSH1 0x0 PUSH1 0x20 DUP3 ADD SWAP1 POP PUSH2 0x11CF PUSH1 0x0 DUP4 ADD DUP5 PUSH2 0xF01 JUMP JUMPDEST SWAP3 SWAP2 POP POP JUMP JUMPDEST PUSH1 0x0 PUSH1 0x20 DUP3 ADD SWAP1 POP DUP2 DUP2 SUB PUSH1 0x0 DUP4 ADD MSTORE PUSH2 0x11EE DUP2 PUSH2 0xF10 JUMP JUMPDEST SWAP1 POP SWAP2 SWAP1 POP JUMP JUMPDEST PUSH1 0x0 PUSH1 0x20 DUP3 ADD SWAP1 POP DUP2 DUP2 SUB PUSH1 0x0 DUP4 ADD MSTORE PUSH2 0x120E DUP2 PUSH2 0xF50 JUMP JUMPDEST SWAP1 POP SWAP2 SWAP1 POP JUMP JUMPDEST PUSH1 0x0 PUSH1 0x20 DUP3 ADD SWAP1 POP DUP2 DUP2 SUB PUSH1 0x0 DUP4 ADD MSTORE PUSH2 0x122E DUP2 PUSH2 0xFB6 JUMP JUMPDEST SWAP1 POP SWAP2 SWAP1 POP JUMP JUMPDEST PUSH1 0x0 PUSH1 0x20 DUP3 ADD SWAP1 POP DUP2 DUP2 SUB PUSH1 0x0 DUP4 ADD MSTORE PUSH2 0x124E DUP2 PUSH2 0xFF6 JUMP JUMPDEST SWAP1 POP SWAP2 SWAP1 POP JUMP JUMPDEST PUSH1 0x0 PUSH1 0x20 DUP3 ADD SWAP1 POP DUP2 DUP2 SUB PUSH1 0x0 DUP4 ADD MSTORE PUSH2 0x126E DUP2 PUSH2 0x105C JUMP JUMPDEST SWAP1 POP SWAP2 SWAP1 POP JUMP JUMPDEST PUSH1 0x0 PUSH1 0x20 DUP3 ADD SWAP1 POP PUSH2 0x128A PUSH1 0x0 DUP4 ADD DUP5 PUSH2 0x10AB JUMP JUMPDEST SWAP3 SWAP2 POP POP JUMP JUMPDEST PUSH1 0x0 PUSH1 0xA0 DUP3 ADD SWAP1 POP PUSH2 0x12A5 PUSH1 0x0 DUP4 ADD DUP9 PUSH2 0x10AB JUMP JUMPDEST PUSH2 0x12B2 PUSH1 0x20 DUP4 ADD DUP8 PUSH2 0x10AB JUMP JUMPDEST DUP2 DUP2 SUB PUSH1 0x40 DUP4 ADD MSTORE PUSH2 0x12C4 DUP2 DUP7 PUSH2 0xE45 JUMP JUMPDEST SWAP1 POP PUSH2 0x12D3 PUSH1 0x60 DUP4 ADD DUP6 PUSH2 0xE36 JUMP JUMPDEST PUSH2 0x12E0 PUSH1 0x80 DUP4 ADD DUP5 PUSH2 0x10AB JUMP JUMPDEST SWAP7 SWAP6 POP POP POP POP POP POP JUMP JUMPDEST PUSH1 0x0 PUSH1 0x60 DUP3 ADD SWAP1 POP PUSH2 0x12FF PUSH1 0x0 DUP4 ADD DUP7 PUSH2 0x10AB JUMP JUMPDEST PUSH2 0x130C PUSH1 0x20 DUP4 ADD DUP6 PUSH2 0x10AB JUMP JUMPDEST PUSH2 0x1319 PUSH1 0x40 DUP4 ADD DUP5 PUSH2 0x10AB JUMP JUMPDEST SWAP5 SWAP4 POP POP POP POP JUMP JUMPDEST PUSH1 0x0 DUP2 SWAP1 POP PUSH1 0x20 DUP3 ADD SWAP1 POP SWAP2 SWAP1 POP JUMP JUMPDEST PUSH1 0x0 DUP2 SWAP1 POP PUSH1 0x20 DUP3 ADD SWAP1 POP SWAP2 SWAP1 POP JUMP JUMPDEST PUSH1 0x0 DUP2 MLOAD SWAP1 POP SWAP2 SWAP1 POP JUMP JUMPDEST PUSH1 0x0 DUP2 MLOAD SWAP1 POP SWAP2 SWAP1 POP JUMP JUMPDEST PUSH1 0x0 PUSH1 0x20 DUP3 ADD SWAP1 POP SWAP2 SWAP1 POP JUMP JUMPDEST PUSH1 0x0 PUSH1 0x20 DUP3 ADD SWAP1 POP SWAP2 SWAP1 POP JUMP JUMPDEST PUSH1 0x0 DUP3 DUP3 MSTORE PUSH1 0x20 DUP3 ADD SWAP1 POP SWAP3 SWAP2 POP POP JUMP JUMPDEST PUSH1 0x0 DUP3 DUP3 MSTORE PUSH1 0x20 DUP3 ADD SWAP1 POP SWAP3 SWAP2 POP POP JUMP JUMPDEST PUSH1 0x0 DUP3 DUP3 MSTORE PUSH1 0x20 DUP3 ADD SWAP1 POP SWAP3 SWAP2 POP POP JUMP JUMPDEST PUSH1 0x0 PUSH2 0x13AF DUP3 PUSH2 0x146C JUMP JUMPDEST SWAP2 POP PUSH2 0x13BA DUP4 PUSH2 0x146C JUMP JUMPDEST SWAP3 POP DUP3 PUSH32 0xFFFFFFFFFFFFFFFFFFFFFFFFFFFFFFFFFFFFFFFFFFFFFFFFFFFFFFFFFFFFFFFF SUB DUP3 GT ISZERO PUSH2 0x13EF JUMPI PUSH2 0x13EE PUSH2 0x1476 JUMP JUMPDEST JUMPDEST DUP3 DUP3 ADD SWAP1 POP SWAP3 SWAP2 POP POP JUMP JUMPDEST PUSH1 0x0 PUSH2 0x1405 DUP3 PUSH2 0x146C JUMP JUMPDEST SWAP2 POP PUSH2 0x1410 DUP4 PUSH2 0x146C JUMP JUMPDEST SWAP3 POP DUP3 DUP3 LT ISZERO PUSH2 0x1423 JUMPI PUSH2 0x1422 PUSH2 0x1476 JUMP JUMPDEST JUMPDEST DUP3 DUP3 SUB SWAP1 POP SWAP3 SWAP2 POP POP JUMP JUMPDEST PUSH1 0x0 PUSH2 0x1439 DUP3 PUSH2 0x144C JUMP JUMPDEST SWAP1 POP SWAP2 SWAP1 POP JUMP JUMPDEST PUSH1 0x0 DUP2 ISZERO ISZERO SWAP1 POP SWAP2 SWAP1 POP JUMP JUMPDEST PUSH1 0x0 PUSH20 0xFFFFFFFFFFFFFFFFFFFFFFFFFFFFFFFFFFFFFFFF DUP3 AND SWAP1 POP SWAP2 SWAP1 POP JUMP JUMPDEST PUSH1 0x0 DUP2 SWAP1 POP SWAP2 SWAP1 POP JUMP JUMPDEST PUSH32 0x4E487B7100000000000000000000000000000000000000000000000000000000 PUSH1 0x0 MSTORE PUSH1 0x11 PUSH1 0x4 MSTORE PUSH1 0x24 PUSH1 0x0 REVERT JUMPDEST PUSH2 0x14AE DUP2 PUSH2 0x142E JUMP JUMPDEST DUP2 EQ PUSH2 0x14B9 JUMPI PUSH1 0x0 DUP1 REVERT JUMPDEST POP JUMP JUMPDEST PUSH2 0x14C5 DUP2 PUSH2 0x146C JUMP JUMPDEST DUP2 EQ PUSH2 0x14D0 JUMPI PUSH1 0x0 DUP1 REVERT JUMPDEST POP JUMP INVALID LOG2 PUSH5 0x6970667358 0x22 SLT KECCAK256 0x2C PUSH16 0xA2217A22B16F7FD27ECAAEC1745F644C STATICCALL BLOCKHASH 0x22 0xAA 0xAC 0xC4 SWAP7 0xEE GASPRICE 0xA9 0xE9 0xD4 0xA6 EXTCODEHASH PUSH5 0x736F6C6343 STOP ADDMOD STOP STOP CALLER "
		},
		"gasEstimates": {
			"creation": {
				"codeDepositCost": "1077000",
				"executionCost": "1120",
				"totalCost": "1078120"
			},
			"external": {
				"addLiquidity(uint256,uint256,uint256,uint256,address)": "infinite",
				"approveToRouter(address,uint256)": "infinite",
				"buyTokenA(uint256,uint256,address)": "infinite",
				"buyTokenB(uint256,uint256,address)": "infinite",
				"depositTokenA(uint256)": "infinite",
				"depositTokenB(uint256)": "infinite",
				"tokenBalances(address,address)": "infinite"
			},
			"internal": {
				"buyToken(address,address,uint256,uint256,address)": "infinite",
				"depositToken(address,uint256)": "infinite"
			}
		},
		"methodIdentifiers": {
			"addLiquidity(uint256,uint256,uint256,uint256,address)": "e0ab0772",
			"approveToRouter(address,uint256)": "9c0e0d33",
			"buyTokenA(uint256,uint256,address)": "43308bf6",
			"buyTokenB(uint256,uint256,address)": "f612e299",
			"depositTokenA(uint256)": "9e30b1e8",
			"depositTokenB(uint256)": "76182baf",
			"tokenBalances(address,address)": "4dbf6c5a"
		}
	},
	"abi": [
		{
			"inputs": [
				{
					"internalType": "uint256",
					"name": "amountADesired",
					"type": "uint256"
				},
				{
					"internalType": "uint256",
					"name": "amountBDesired",
					"type": "uint256"
				},
				{
					"internalType": "uint256",
					"name": "amountAMin",
					"type": "uint256"
				},
				{
					"internalType": "uint256",
					"name": "amountBMin",
					"type": "uint256"
				},
				{
					"internalType": "address",
					"name": "to",
					"type": "address"
				}
			],
			"name": "addLiquidity",
			"outputs": [
				{
					"internalType": "uint256",
					"name": "amountA",
					"type": "uint256"
				},
				{
					"internalType": "uint256",
					"name": "amountB",
					"type": "uint256"
				},
				{
					"internalType": "uint256",
					"name": "liquidity",
					"type": "uint256"
				}
			],
			"stateMutability": "nonpayable",
			"type": "function"
		},
		{
			"inputs": [
				{
					"internalType": "address",
					"name": "token",
					"type": "address"
				},
				{
					"internalType": "uint256",
					"name": "amount",
					"type": "uint256"
				}
			],
			"name": "approveToRouter",
			"outputs": [
				{
					"internalType": "bool",
					"name": "result",
					"type": "bool"
				}
			],
			"stateMutability": "nonpayable",
			"type": "function"
		},
		{
			"inputs": [
				{
					"internalType": "uint256",
					"name": "amountIn",
					"type": "uint256"
				},
				{
					"internalType": "uint256",
					"name": "amountOutMin",
					"type": "uint256"
				},
				{
					"internalType": "address",
					"name": "to",
					"type": "address"
				}
			],
			"name": "buyTokenA",
			"outputs": [
				{
					"internalType": "uint256[]",
					"name": "amounts",
					"type": "uint256[]"
				}
			],
			"stateMutability": "nonpayable",
			"type": "function"
		},
		{
			"inputs": [
				{
					"internalType": "uint256",
					"name": "amountIn",
					"type": "uint256"
				},
				{
					"internalType": "uint256",
					"name": "amountOutMin",
					"type": "uint256"
				},
				{
					"internalType": "address",
					"name": "to",
					"type": "address"
				}
			],
			"name": "buyTokenB",
			"outputs": [
				{
					"internalType": "uint256[]",
					"name": "amounts",
					"type": "uint256[]"
				}
			],
			"stateMutability": "nonpayable",
			"type": "function"
		},
		{
			"inputs": [
				{
					"internalType": "uint256",
					"name": "amount",
					"type": "uint256"
				}
			],
			"name": "depositTokenA",
			"outputs": [
				{
					"internalType": "bool",
					"name": "",
					"type": "bool"
				}
			],
			"stateMutability": "nonpayable",
			"type": "function"
		},
		{
			"inputs": [
				{
					"internalType": "uint256",
					"name": "amount",
					"type": "uint256"
				}
			],
			"name": "depositTokenB",
			"outputs": [
				{
					"internalType": "bool",
					"name": "result",
					"type": "bool"
				}
			],
			"stateMutability": "nonpayable",
			"type": "function"
		},
		{
			"inputs": [
				{
					"internalType": "address",
					"name": "",
					"type": "address"
				},
				{
					"internalType": "address",
					"name": "",
					"type": "address"
				}
			],
			"name": "tokenBalances",
			"outputs": [
				{
					"internalType": "uint256",
					"name": "",
					"type": "uint256"
				}
			],
			"stateMutability": "view",
			"type": "function"
		}
	]
}