{
  "address": "0xb0E23ff0c8750f15272eC58Eb98CD874355c5e32",
  "abi": [
    {
      "inputs": [
        {
          "internalType": "contract IERC20",
          "name": "_reward",
          "type": "address"
        },
        {
          "internalType": "address",
          "name": "_receiver",
          "type": "address"
        },
        {
          "internalType": "address[]",
          "name": "_signaturer",
          "type": "address[]"
        },
        {
          "internalType": "uint256",
          "name": "_minNum",
          "type": "uint256"
        }
      ],
      "stateMutability": "nonpayable",
      "type": "constructor"
    },
    {
      "anonymous": false,
      "inputs": [
        {
          "indexed": false,
          "internalType": "address",
          "name": "requester",
          "type": "address"
        },
        {
          "indexed": false,
          "internalType": "address",
          "name": "receiver",
          "type": "address"
        },
        {
          "indexed": false,
          "internalType": "uint256",
          "name": "requestAt",
          "type": "uint256"
        },
        {
          "indexed": false,
          "internalType": "uint256",
          "name": "expireAt",
          "type": "uint256"
        },
        {
          "indexed": false,
          "internalType": "bytes32",
          "name": "salt",
          "type": "bytes32"
        },
        {
          "indexed": false,
          "internalType": "address",
          "name": "acceptor",
          "type": "address"
        },
        {
          "indexed": false,
          "internalType": "uint256",
          "name": "currentNum",
          "type": "uint256"
        }
      ],
      "name": "AcceptApplySetReceiver",
      "type": "event"
    },
    {
      "anonymous": false,
      "inputs": [
        {
          "indexed": false,
          "internalType": "address",
          "name": "requester",
          "type": "address"
        },
        {
          "indexed": false,
          "internalType": "uint256",
          "name": "amount",
          "type": "uint256"
        },
        {
          "indexed": false,
          "internalType": "uint256",
          "name": "requestAt",
          "type": "uint256"
        },
        {
          "indexed": false,
          "internalType": "uint256",
          "name": "expireAt",
          "type": "uint256"
        },
        {
          "indexed": false,
          "internalType": "bytes32",
          "name": "salt",
          "type": "bytes32"
        },
        {
          "indexed": false,
          "internalType": "address",
          "name": "acceptor",
          "type": "address"
        },
        {
          "indexed": false,
          "internalType": "uint256",
          "name": "currentNum",
          "type": "uint256"
        }
      ],
      "name": "AcceptApplyToken",
      "type": "event"
    },
    {
      "anonymous": false,
      "inputs": [
        {
          "indexed": false,
          "internalType": "address",
          "name": "requester",
          "type": "address"
        },
        {
          "indexed": false,
          "internalType": "address",
          "name": "receiver",
          "type": "address"
        },
        {
          "indexed": false,
          "internalType": "uint256",
          "name": "requestAt",
          "type": "uint256"
        },
        {
          "indexed": false,
          "internalType": "uint256",
          "name": "expireAt",
          "type": "uint256"
        },
        {
          "indexed": false,
          "internalType": "bytes32",
          "name": "salt",
          "type": "bytes32"
        }
      ],
      "name": "ApplySetReceiver",
      "type": "event"
    },
    {
      "anonymous": false,
      "inputs": [
        {
          "indexed": false,
          "internalType": "address",
          "name": "requester",
          "type": "address"
        },
        {
          "indexed": false,
          "internalType": "uint256",
          "name": "amount",
          "type": "uint256"
        },
        {
          "indexed": false,
          "internalType": "uint256",
          "name": "requestAt",
          "type": "uint256"
        },
        {
          "indexed": false,
          "internalType": "uint256",
          "name": "expireAt",
          "type": "uint256"
        },
        {
          "indexed": false,
          "internalType": "bytes32",
          "name": "salt",
          "type": "bytes32"
        }
      ],
      "name": "ApplyToken",
      "type": "event"
    },
    {
      "anonymous": false,
      "inputs": [
        {
          "indexed": false,
          "internalType": "address",
          "name": "_oldReceiver",
          "type": "address"
        },
        {
          "indexed": false,
          "internalType": "address",
          "name": "_newReceiver",
          "type": "address"
        }
      ],
      "name": "NewReceiver",
      "type": "event"
    },
    {
      "anonymous": false,
      "inputs": [
        {
          "indexed": false,
          "internalType": "address",
          "name": "requester",
          "type": "address"
        },
        {
          "indexed": false,
          "internalType": "address",
          "name": "receiver",
          "type": "address"
        },
        {
          "indexed": false,
          "internalType": "uint256",
          "name": "requestAt",
          "type": "uint256"
        },
        {
          "indexed": false,
          "internalType": "uint256",
          "name": "expireAt",
          "type": "uint256"
        },
        {
          "indexed": false,
          "internalType": "bytes32",
          "name": "salt",
          "type": "bytes32"
        }
      ],
      "name": "ProcessApplySetReceiver",
      "type": "event"
    },
    {
      "anonymous": false,
      "inputs": [
        {
          "indexed": false,
          "internalType": "address",
          "name": "requester",
          "type": "address"
        },
        {
          "indexed": false,
          "internalType": "uint256",
          "name": "amount",
          "type": "uint256"
        },
        {
          "indexed": false,
          "internalType": "uint256",
          "name": "requestAt",
          "type": "uint256"
        },
        {
          "indexed": false,
          "internalType": "uint256",
          "name": "expireAt",
          "type": "uint256"
        },
        {
          "indexed": false,
          "internalType": "bytes32",
          "name": "salt",
          "type": "bytes32"
        }
      ],
      "name": "ProcessApplyToken",
      "type": "event"
    },
    {
      "anonymous": false,
      "inputs": [
        {
          "indexed": true,
          "internalType": "bytes32",
          "name": "role",
          "type": "bytes32"
        },
        {
          "indexed": true,
          "internalType": "bytes32",
          "name": "previousAdminRole",
          "type": "bytes32"
        },
        {
          "indexed": true,
          "internalType": "bytes32",
          "name": "newAdminRole",
          "type": "bytes32"
        }
      ],
      "name": "RoleAdminChanged",
      "type": "event"
    },
    {
      "anonymous": false,
      "inputs": [
        {
          "indexed": true,
          "internalType": "bytes32",
          "name": "role",
          "type": "bytes32"
        },
        {
          "indexed": true,
          "internalType": "address",
          "name": "account",
          "type": "address"
        },
        {
          "indexed": true,
          "internalType": "address",
          "name": "sender",
          "type": "address"
        }
      ],
      "name": "RoleGranted",
      "type": "event"
    },
    {
      "anonymous": false,
      "inputs": [
        {
          "indexed": true,
          "internalType": "bytes32",
          "name": "role",
          "type": "bytes32"
        },
        {
          "indexed": true,
          "internalType": "address",
          "name": "account",
          "type": "address"
        },
        {
          "indexed": true,
          "internalType": "address",
          "name": "sender",
          "type": "address"
        }
      ],
      "name": "RoleRevoked",
      "type": "event"
    },
    {
      "inputs": [],
      "name": "DEFAULT_ADMIN_ROLE",
      "outputs": [
        {
          "internalType": "bytes32",
          "name": "",
          "type": "bytes32"
        }
      ],
      "stateMutability": "view",
      "type": "function"
    },
    {
      "inputs": [],
      "name": "SIGNATURE_MIN_NUM",
      "outputs": [
        {
          "internalType": "uint256",
          "name": "",
          "type": "uint256"
        }
      ],
      "stateMutability": "view",
      "type": "function"
    },
    {
      "inputs": [],
      "name": "SIGNER_ROLE",
      "outputs": [
        {
          "internalType": "bytes32",
          "name": "",
          "type": "bytes32"
        }
      ],
      "stateMutability": "view",
      "type": "function"
    },
    {
      "inputs": [
        {
          "internalType": "address",
          "name": "_requester",
          "type": "address"
        },
        {
          "internalType": "address",
          "name": "_receiver",
          "type": "address"
        },
        {
          "internalType": "uint256",
          "name": "_requestAt",
          "type": "uint256"
        },
        {
          "internalType": "uint256",
          "name": "_expireAt",
          "type": "uint256"
        },
        {
          "internalType": "bytes32",
          "name": "_salt",
          "type": "bytes32"
        }
      ],
      "name": "acceptApplySetReceiver",
      "outputs": [],
      "stateMutability": "nonpayable",
      "type": "function"
    },
    {
      "inputs": [
        {
          "internalType": "address",
          "name": "_requester",
          "type": "address"
        },
        {
          "internalType": "uint256",
          "name": "_amount",
          "type": "uint256"
        },
        {
          "internalType": "uint256",
          "name": "_requestAt",
          "type": "uint256"
        },
        {
          "internalType": "uint256",
          "name": "_expireAt",
          "type": "uint256"
        },
        {
          "internalType": "bytes32",
          "name": "_salt",
          "type": "bytes32"
        }
      ],
      "name": "acceptApplyToken",
      "outputs": [],
      "stateMutability": "nonpayable",
      "type": "function"
    },
    {
      "inputs": [
        {
          "internalType": "address",
          "name": "_receiver",
          "type": "address"
        },
        {
          "internalType": "uint256",
          "name": "expireAt",
          "type": "uint256"
        },
        {
          "internalType": "bytes32",
          "name": "salt",
          "type": "bytes32"
        }
      ],
      "name": "applySetReceiver",
      "outputs": [],
      "stateMutability": "nonpayable",
      "type": "function"
    },
    {
      "inputs": [
        {
          "internalType": "uint256",
          "name": "amount",
          "type": "uint256"
        },
        {
          "internalType": "uint256",
          "name": "expireAt",
          "type": "uint256"
        },
        {
          "internalType": "bytes32",
          "name": "salt",
          "type": "bytes32"
        }
      ],
      "name": "applyToken",
      "outputs": [],
      "stateMutability": "nonpayable",
      "type": "function"
    },
    {
      "inputs": [
        {
          "internalType": "bytes32",
          "name": "role",
          "type": "bytes32"
        }
      ],
      "name": "getRoleAdmin",
      "outputs": [
        {
          "internalType": "bytes32",
          "name": "",
          "type": "bytes32"
        }
      ],
      "stateMutability": "view",
      "type": "function"
    },
    {
      "inputs": [
        {
          "internalType": "bytes32",
          "name": "role",
          "type": "bytes32"
        },
        {
          "internalType": "uint256",
          "name": "index",
          "type": "uint256"
        }
      ],
      "name": "getRoleMember",
      "outputs": [
        {
          "internalType": "address",
          "name": "",
          "type": "address"
        }
      ],
      "stateMutability": "view",
      "type": "function"
    },
    {
      "inputs": [
        {
          "internalType": "bytes32",
          "name": "role",
          "type": "bytes32"
        }
      ],
      "name": "getRoleMemberCount",
      "outputs": [
        {
          "internalType": "uint256",
          "name": "",
          "type": "uint256"
        }
      ],
      "stateMutability": "view",
      "type": "function"
    },
    {
      "inputs": [
        {
          "internalType": "bytes32",
          "name": "role",
          "type": "bytes32"
        },
        {
          "internalType": "address",
          "name": "account",
          "type": "address"
        }
      ],
      "name": "grantRole",
      "outputs": [],
      "stateMutability": "nonpayable",
      "type": "function"
    },
    {
      "inputs": [
        {
          "internalType": "bytes32",
          "name": "role",
          "type": "bytes32"
        },
        {
          "internalType": "address",
          "name": "account",
          "type": "address"
        }
      ],
      "name": "hasRole",
      "outputs": [
        {
          "internalType": "bool",
          "name": "",
          "type": "bool"
        }
      ],
      "stateMutability": "view",
      "type": "function"
    },
    {
      "inputs": [],
      "name": "receiver",
      "outputs": [
        {
          "internalType": "address",
          "name": "",
          "type": "address"
        }
      ],
      "stateMutability": "view",
      "type": "function"
    },
    {
      "inputs": [
        {
          "internalType": "bytes32",
          "name": "role",
          "type": "bytes32"
        },
        {
          "internalType": "address",
          "name": "account",
          "type": "address"
        }
      ],
      "name": "renounceRole",
      "outputs": [],
      "stateMutability": "nonpayable",
      "type": "function"
    },
    {
      "inputs": [
        {
          "internalType": "bytes32",
          "name": "role",
          "type": "bytes32"
        },
        {
          "internalType": "address",
          "name": "account",
          "type": "address"
        }
      ],
      "name": "revokeRole",
      "outputs": [],
      "stateMutability": "nonpayable",
      "type": "function"
    },
    {
      "inputs": [
        {
          "internalType": "address",
          "name": "_newSignature",
          "type": "address"
        }
      ],
      "name": "setSignature",
      "outputs": [],
      "stateMutability": "nonpayable",
      "type": "function"
    },
    {
      "inputs": [
        {
          "internalType": "bytes32",
          "name": "",
          "type": "bytes32"
        }
      ],
      "name": "signatureNum",
      "outputs": [
        {
          "internalType": "uint256",
          "name": "",
          "type": "uint256"
        }
      ],
      "stateMutability": "view",
      "type": "function"
    },
    {
      "inputs": [
        {
          "internalType": "bytes32",
          "name": "",
          "type": "bytes32"
        }
      ],
      "name": "transactions",
      "outputs": [
        {
          "internalType": "bool",
          "name": "",
          "type": "bool"
        }
      ],
      "stateMutability": "view",
      "type": "function"
    }
  ],
  "transactionHash": "0x5a7961161739fb2b56192efdc95b81185848d8532015b913774b60bdcd48ab7c",
  "args": [
    "0x9a1a5B4a1A32196d686CbaC9145830F33a9013d1",
    "0x7286d8b6a41A3cE6e2360bb62eBc5B15059c2166",
    [
      "0xe44c51aF9B8D1CF2a7427469662d41A01D28566D",
      "0xC17467954aC0f98721D541AcB86D686C854E098e",
      "0xD2a41045cfCCd973C966943C55552ed62064EfBA"
    ],
    2
  ],
  "solcInputHash": "a48360f4c85458219f0e0ba11a25c0c2",
  "bytecode": "0x60c06040523480156200001157600080fd5b5060405162001c3538038062001c35833981016040819052620000349162000317565b6001600160601b0319606085901b166080526001600160a01b038316620000785760405162461bcd60e51b81526004016200006f9062000423565b60405180910390fd5b600180546001600160a01b0319166001600160a01b0385811691909117918290556040517f8c36cb7d5dd6e5782253c7206a7b069026fcf88537a213d67d3fbf4cb4ef4bef92620000cf9260009291169062000409565b60405180910390a160005b825181101562000177576200011960008051602062001c158339815191528483815181106200010557fe5b6020026020010151620001b660201b60201c565b15620001395760405162461bcd60e51b81526004016200006f906200045a565b6200016e60008051602062001c158339815191528483815181106200015a57fe5b6020026020010151620001e360201b60201c565b600101620000da565b506000811180156200018a575081518111155b620001a95760405162461bcd60e51b81526004016200006f9062000491565b60a05250620004d2915050565b6000828152602081815260408220620001da91849062000c16620001f3821b17901c565b90505b92915050565b620001ef82826200020a565b5050565b6000620001da836001600160a01b03841662000283565b6000828152602081815260409091206200022f91839062000c2b6200029b821b17901c565b15620001ef576200023f620002b2565b6001600160a01b0316816001600160a01b0316837f2f8788117e7eff1d82e926ec794901d17c78024a50270940304540a733656f0d60405160405180910390a45050565b60009081526001919091016020526040902054151590565b6000620001da836001600160a01b038416620002b6565b3390565b6000620002c4838362000283565b620002fc57508154600181810184556000848152602080822090930184905584548482528286019093526040902091909155620001dd565b506000620001dd565b80516200031281620004b9565b919050565b600080600080608085870312156200032d578384fd5b84516200033a81620004b9565b809450506020808601516200034f81620004b9565b60408701519094506001600160401b03808211156200036c578485fd5b818801915088601f83011262000380578485fd5b8151818111156200038d57fe5b83810260405185828201018181108582111715620003a757fe5b604052828152858101935084860182860187018d1015620003c6578889fd5b8895505b83861015620003f357620003de8162000305565b855260019590950194938601938601620003ca565b5060609a909a0151989b979a5050505050505050565b6001600160a01b0392831681529116602082015260400190565b60208082526018908201527f72656365697665722061646472657373206973207a65726f0000000000000000604082015260600190565b60208082526019908201527f6164647265737320616c7265616479207369676e617475726500000000000000604082015260600190565b6020808252600e908201526d696c6c6567616c206d696e4e756d60901b604082015260600190565b6001600160a01b0381168114620004cf57600080fd5b50565b60805160601c60a051611712620005036000398061067452806107405280610aa45250806106a952506117126000f3fe608060405234801561001057600080fd5b50600436106101165760003560e01c806391d14854116100a2578063c47267b611610071578063c47267b614610223578063ca15c87314610236578063d547741f14610249578063ea12aebd1461025c578063f7260d3e1461026f57610116565b806391d14854146101ed57806394d58ec314610200578063a1ebf35d14610213578063a217fddf1461021b57610116565b80633778235e116100e95780633778235e1461017f57806340e03037146101925780635314acbe146101a5578063642f2eaf146101ad5780639010d07c146101cd57610116565b80630a7f08fc1461011b578063248a9ca3146101305780632f2ff15d1461015957806336568abe1461016c575b600080fd5b61012e61012936600461134c565b610277565b005b61014361013e3660046112e8565b610356565b604051610150919061148f565b60405180910390f35b61012e610167366004611300565b61036e565b61012e61017a366004611300565b6103d5565b61012e61018d36600461120f565b610436565b61012e6101a03660046112a7565b6104a1565b61014361073e565b6101c06101bb3660046112e8565b610762565b6040516101509190611484565b6101e06101db36600461132b565b610777565b6040516101509190611377565b6101c06101fb366004611300565b610798565b61012e61020e366004611275565b6107b0565b6101436108ba565b6101436108cc565b61012e610231366004611229565b6108d1565b6101436102443660046112e8565b610b85565b61012e610257366004611300565b610b9c565b61014361026a3660046112e8565b610bf5565b6101e0610c07565b6000610281610c40565b844285856040516020016102999594939291906113bc565b60408051601f1981840301815291815281516020928301206000818152600290935291205490915060ff16156102ea5760405162461bcd60e51b81526004016102e1906114c2565b60405180910390fd5b6000818152600260209081526040808320805460ff19166001179055600390915280822091909155517f698636e6a8ce4362df5c7ff4a88da78d6c8d60c38e599716f6d1c43694db8f509061034890339087904290889088906113bc565b60405180910390a150505050565b6000818152602081905260409020600201545b919050565b60008281526020819052604090206002015461038c906101fb610c40565b6103c75760405162461bcd60e51b815260040180806020018281038252602f8152602001806115df602f913960400191505060405180910390fd5b6103d18282610c44565b5050565b6103dd610c40565b6001600160a01b0316816001600160a01b03161461042c5760405162461bcd60e51b815260040180806020018281038252602f8152602001806116ae602f913960400191505060405180910390fd5b6103d18282610cad565b6104506000805160206116648339815191526101fb610c40565b61046c5760405162461bcd60e51b81526004016102e190611528565b61048660008051602061166483398151915261017a610c40565b61049e600080516020611664833981519152826103c7565b50565b8242101580156104b15750814211155b6104cd5760405162461bcd60e51b81526004016102e19061155f565b6104e76000805160206116648339815191526101fb610c40565b6105035760405162461bcd60e51b81526004016102e190611528565b6000858585858560405160200161051e9594939291906113bc565b60408051601f1981840301815291815281516020928301206000818152600290935291205490915060ff166105655760405162461bcd60e51b81526004016102e190611498565b60008181526004602052604081209061057c610c40565b6001600160a01b0316815260208101919091526040016000205460ff16156105b65760405162461bcd60e51b81526004016102e1906114f1565b6000818152600360209081526040808320805460019081019091556004909252822090916105e2610c40565b6001600160a01b031681526020810191909152604001600020805460ff19169115159190911790557f9a10e4f2de4d7067dbb8fb6922f3f6e86594692c55b4f76aad7dfa3bb5237c018686868686610638610c40565b6000888152600360205260409081902054905161065b9796959493929190611444565b60405180910390a16000818152600360205260409020547f000000000000000000000000000000000000000000000000000000000000000011610736576001546106d2906001600160a01b037f00000000000000000000000000000000000000000000000000000000000000008116911687610d16565b6000818152600260209081526040808320805460ff19169055600390915280822091909155517ffcf14f62b9173f94fc6831150d7115fbaf587eaf0cc064bafe510faa19e6b2fd9061072d90889088908890889088906113bc565b60405180910390a15b505050505050565b7f000000000000000000000000000000000000000000000000000000000000000081565b60026020526000908152604090205460ff1681565b600082815260208190526040812061078f9083610d6d565b90505b92915050565b600082815260208190526040812061078f9083610c16565b6001600160a01b038316158015906107d657506001546001600160a01b03848116911614155b6107f25760405162461bcd60e51b81526004016102e190611585565b60006107fc610c40565b8442858560405160200161081495949392919061138b565b60408051601f1981840301815291815281516020928301206000818152600290935291205490915060ff161561085c5760405162461bcd60e51b81526004016102e1906114c2565b6000818152600260209081526040808320805460ff19166001179055600390915280822091909155517f6cfe8cb95d8b41c745bf13c414537fb29f3673e692e2b2f18dd9fd38b0df1ae690610348903390879042908890889061138b565b60008051602061166483398151915281565b600081565b8242101580156108e15750814211155b6108fd5760405162461bcd60e51b81526004016102e19061155f565b6109176000805160206116648339815191526101fb610c40565b6109335760405162461bcd60e51b81526004016102e190611528565b6000858585858560405160200161094e95949392919061138b565b60408051601f1981840301815291815281516020928301206000818152600290935291205490915060ff166109955760405162461bcd60e51b81526004016102e190611498565b6000818152600460205260408120906109ac610c40565b6001600160a01b0316815260208101919091526040016000205460ff16156109e65760405162461bcd60e51b81526004016102e1906114f1565b600081815260036020908152604080832080546001908101909155600490925282209091610a12610c40565b6001600160a01b031681526020810191909152604001600020805460ff19169115159190911790557fbd6f83d19d638d4ae39eb07cc8e7af33478590661449e6c2cc826579750613d48686868686610a68610c40565b60008881526003602052604090819020549051610a8b9796959493929190611404565b60405180910390a16000818152600360205260409020547f000000000000000000000000000000000000000000000000000000000000000011610736576001546040517f8c36cb7d5dd6e5782253c7206a7b069026fcf88537a213d67d3fbf4cb4ef4bef91610b07916001600160a01b039091169088906113ea565b60405180910390a1600180546001600160a01b0319166001600160a01b0387161790556000818152600260209081526040808320805460ff19169055600390915280822091909155517fddef3f19600eee8d8a30554d9c610f54f28ed4f82abe14d3f1db99bd997872f29061072d908890889088908890889061138b565b600081815260208190526040812061079290610d79565b600082815260208190526040902060020154610bba906101fb610c40565b61042c5760405162461bcd60e51b81526004018080602001828103825260308152602001806116346030913960400191505060405180910390fd5b60036020526000908152604090205481565b6001546001600160a01b031681565b600061078f836001600160a01b038416610d84565b600061078f836001600160a01b038416610d9c565b3390565b6000828152602081905260409020610c5c9082610c2b565b156103d157610c69610c40565b6001600160a01b0316816001600160a01b0316837f2f8788117e7eff1d82e926ec794901d17c78024a50270940304540a733656f0d60405160405180910390a45050565b6000828152602081905260409020610cc59082610de6565b156103d157610cd2610c40565b6001600160a01b0316816001600160a01b0316837ff6391f5c32d9c69d2a47ea670b442974b53935d1edc7fd64eb21e047a839171b60405160405180910390a45050565b604080516001600160a01b038416602482015260448082018490528251808303909101815260649091019091526020810180516001600160e01b031663a9059cbb60e01b179052610d68908490610dfb565b505050565b600061078f8383610eac565b600061079282610f10565b60009081526001919091016020526040902054151590565b6000610da88383610d84565b610dde57508154600181810184556000848152602080822090930184905584548482528286019093526040902091909155610792565b506000610792565b600061078f836001600160a01b038416610f14565b6000610e50826040518060400160405280602081526020017f5361666545524332303a206c6f772d6c6576656c2063616c6c206661696c6564815250856001600160a01b0316610fda9092919063ffffffff16565b805190915015610d6857808060200190516020811015610e6f57600080fd5b5051610d685760405162461bcd60e51b815260040180806020018281038252602a815260200180611684602a913960400191505060405180910390fd5b81546000908210610eee5760405162461bcd60e51b81526004018080602001828103825260228152602001806115bd6022913960400191505060405180910390fd5b826000018281548110610efd57fe5b9060005260206000200154905092915050565b5490565b60008181526001830160205260408120548015610fd05783546000198083019190810190600090879083908110610f4757fe5b9060005260206000200154905080876000018481548110610f6457fe5b600091825260208083209091019290925582815260018981019092526040902090840190558654879080610f9457fe5b60019003818190600052602060002001600090559055866001016000878152602001908152602001600020600090556001945050505050610792565b6000915050610792565b6060610fe98484600085610ff3565b90505b9392505050565b6060824710156110345760405162461bcd60e51b815260040180806020018281038252602681526020018061160e6026913960400191505060405180910390fd5b61103d8561114e565b61108e576040805162461bcd60e51b815260206004820152601d60248201527f416464726573733a2063616c6c20746f206e6f6e2d636f6e7472616374000000604482015290519081900360640190fd5b600080866001600160a01b031685876040518082805190602001908083835b602083106110cc5780518252601f1990920191602091820191016110ad565b6001836020036101000a03801982511681845116808217855250505050505090500191505060006040518083038185875af1925050503d806000811461112e576040519150601f19603f3d011682016040523d82523d6000602084013e611133565b606091505b5091509150611143828286611154565b979650505050505050565b3b151590565b60608315611163575081610fec565b8251156111735782518084602001fd5b8160405162461bcd60e51b81526004018080602001828103825283818151815260200191508051906020019080838360005b838110156111bd5781810151838201526020016111a5565b50505050905090810190601f1680156111ea5780820380516001836020036101000a031916815260200191505b509250505060405180910390fd5b80356001600160a01b038116811461036957600080fd5b600060208284031215611220578081fd5b61078f826111f8565b600080600080600060a08688031215611240578081fd5b611249866111f8565b9450611257602087016111f8565b94979496505050506040830135926060810135926080909101359150565b600080600060608486031215611289578283fd5b611292846111f8565b95602085013595506040909401359392505050565b600080600080600060a086880312156112be578081fd5b6112c7866111f8565b97602087013597506040870135966060810135965060800135945092505050565b6000602082840312156112f9578081fd5b5035919050565b60008060408385031215611312578182fd5b82359150611322602084016111f8565b90509250929050565b6000806040838503121561133d578182fd5b50508035926020909101359150565b600080600060608486031215611360578283fd5b505081359360208301359350604090920135919050565b6001600160a01b0391909116815260200190565b6001600160a01b03958616815293909416602084015260408301919091526060820152608081019190915260a00190565b6001600160a01b03959095168552602085019390935260408401919091526060830152608082015260a00190565b6001600160a01b0392831681529116602082015260400190565b6001600160a01b039788168152958716602087015260408601949094526060850192909252608084015290921660a082015260c081019190915260e00190565b6001600160a01b039788168152602081019690965260408601949094526060850192909252608084015290921660a082015260c081019190915260e00190565b901515815260200190565b90815260200190565b60208082526010908201526f6170706c79206e6f742065786973747360801b604082015260600190565b602080825260159082015274185c1c1b1e48185b1c9958591e481c995c5d595cdd605a1b604082015260600190565b6020808252601a908201527f7369676e617475726520616c7265616479206163636570746564000000000000604082015260600190565b60208082526019908201527f63616c6c6572206973206e6f742061207369676e617475726500000000000000604082015260600190565b6020808252600c908201526b696c6c6567616c2074696d6560a01b604082015260600190565b6020808252601c908201527f7265636569766572206973207a65726f206f72207468652073616d650000000060408201526060019056fe456e756d657261626c655365743a20696e646578206f7574206f6620626f756e6473416363657373436f6e74726f6c3a2073656e646572206d75737420626520616e2061646d696e20746f206772616e74416464726573733a20696e73756666696369656e742062616c616e636520666f722063616c6c416363657373436f6e74726f6c3a2073656e646572206d75737420626520616e2061646d696e20746f207265766f6b65a80db7254a39a29982aece50fa9776b38d8bc707abc848d7083d4562d087a9d85361666545524332303a204552433230206f7065726174696f6e20646964206e6f742073756363656564416363657373436f6e74726f6c3a2063616e206f6e6c792072656e6f756e636520726f6c657320666f722073656c66a26469706673582212205e1bb82b8b0b55c8e7fe9e9e9a43671e0a1bd2dd5643bae84333589fcc69c93364736f6c63430007060033a80db7254a39a29982aece50fa9776b38d8bc707abc848d7083d4562d087a9d8",
  "devdoc": {
    "kind": "dev",
    "methods": {
      "getRoleAdmin(bytes32)": {
        "details": "Returns the admin role that controls `role`. See {grantRole} and {revokeRole}. To change a role's admin, use {_setRoleAdmin}."
      },
      "getRoleMember(bytes32,uint256)": {
        "details": "Returns one of the accounts that have `role`. `index` must be a value between 0 and {getRoleMemberCount}, non-inclusive. Role bearers are not sorted in any particular way, and their ordering may change at any point. WARNING: When using {getRoleMember} and {getRoleMemberCount}, make sure you perform all queries on the same block. See the following https://forum.openzeppelin.com/t/iterating-over-elements-on-enumerableset-in-openzeppelin-contracts/2296[forum post] for more information."
      },
      "getRoleMemberCount(bytes32)": {
        "details": "Returns the number of accounts that have `role`. Can be used together with {getRoleMember} to enumerate all bearers of a role."
      },
      "grantRole(bytes32,address)": {
        "details": "Grants `role` to `account`. If `account` had not been already granted `role`, emits a {RoleGranted} event. Requirements: - the caller must have ``role``'s admin role."
      },
      "hasRole(bytes32,address)": {
        "details": "Returns `true` if `account` has been granted `role`."
      },
      "renounceRole(bytes32,address)": {
        "details": "Revokes `role` from the calling account. Roles are often managed via {grantRole} and {revokeRole}: this function's purpose is to provide a mechanism for accounts to lose their privileges if they are compromised (such as when a trusted device is misplaced). If the calling account had been granted `role`, emits a {RoleRevoked} event. Requirements: - the caller must be `account`."
      },
      "revokeRole(bytes32,address)": {
        "details": "Revokes `role` from `account`. If `account` had been granted `role`, emits a {RoleRevoked} event. Requirements: - the caller must have ``role``'s admin role."
      }
    },
    "version": 1
  },
  "userdoc": {
    "kind": "user",
    "methods": {},
    "version": 1
  },
  "storageLayout": {
    "storage": [
      {
        "astId": 22,
        "contract": "contracts/token/MultiSignature.sol:MultiSignature",
        "label": "_roles",
        "offset": 0,
        "slot": "0",
        "type": "t_mapping(t_bytes32,t_struct(RoleData)18_storage)"
      },
      {
        "astId": 11546,
        "contract": "contracts/token/MultiSignature.sol:MultiSignature",
        "label": "receiver",
        "offset": 0,
        "slot": "1",
        "type": "t_address"
      },
      {
        "astId": 11552,
        "contract": "contracts/token/MultiSignature.sol:MultiSignature",
        "label": "transactions",
        "offset": 0,
        "slot": "2",
        "type": "t_mapping(t_bytes32,t_bool)"
      },
      {
        "astId": 11556,
        "contract": "contracts/token/MultiSignature.sol:MultiSignature",
        "label": "signatureNum",
        "offset": 0,
        "slot": "3",
        "type": "t_mapping(t_bytes32,t_uint256)"
      },
      {
        "astId": 11562,
        "contract": "contracts/token/MultiSignature.sol:MultiSignature",
        "label": "signatureRecord",
        "offset": 0,
        "slot": "4",
        "type": "t_mapping(t_bytes32,t_mapping(t_address,t_bool))"
      }
    ],
    "types": {
      "t_address": {
        "encoding": "inplace",
        "label": "address",
        "numberOfBytes": "20"
      },
      "t_array(t_bytes32)dyn_storage": {
        "base": "t_bytes32",
        "encoding": "dynamic_array",
        "label": "bytes32[]",
        "numberOfBytes": "32"
      },
      "t_bool": {
        "encoding": "inplace",
        "label": "bool",
        "numberOfBytes": "1"
      },
      "t_bytes32": {
        "encoding": "inplace",
        "label": "bytes32",
        "numberOfBytes": "32"
      },
      "t_mapping(t_address,t_bool)": {
        "encoding": "mapping",
        "key": "t_address",
        "label": "mapping(address => bool)",
        "numberOfBytes": "32",
        "value": "t_bool"
      },
      "t_mapping(t_bytes32,t_bool)": {
        "encoding": "mapping",
        "key": "t_bytes32",
        "label": "mapping(bytes32 => bool)",
        "numberOfBytes": "32",
        "value": "t_bool"
      },
      "t_mapping(t_bytes32,t_mapping(t_address,t_bool))": {
        "encoding": "mapping",
        "key": "t_bytes32",
        "label": "mapping(bytes32 => mapping(address => bool))",
        "numberOfBytes": "32",
        "value": "t_mapping(t_address,t_bool)"
      },
      "t_mapping(t_bytes32,t_struct(RoleData)18_storage)": {
        "encoding": "mapping",
        "key": "t_bytes32",
        "label": "mapping(bytes32 => struct AccessControl.RoleData)",
        "numberOfBytes": "32",
        "value": "t_struct(RoleData)18_storage"
      },
      "t_mapping(t_bytes32,t_uint256)": {
        "encoding": "mapping",
        "key": "t_bytes32",
        "label": "mapping(bytes32 => uint256)",
        "numberOfBytes": "32",
        "value": "t_uint256"
      },
      "t_struct(AddressSet)3033_storage": {
        "encoding": "inplace",
        "label": "struct EnumerableSet.AddressSet",
        "members": [
          {
            "astId": 3032,
            "contract": "contracts/token/MultiSignature.sol:MultiSignature",
            "label": "_inner",
            "offset": 0,
            "slot": "0",
            "type": "t_struct(Set)2768_storage"
          }
        ],
        "numberOfBytes": "64"
      },
      "t_struct(RoleData)18_storage": {
        "encoding": "inplace",
        "label": "struct AccessControl.RoleData",
        "members": [
          {
            "astId": 15,
            "contract": "contracts/token/MultiSignature.sol:MultiSignature",
            "label": "members",
            "offset": 0,
            "slot": "0",
            "type": "t_struct(AddressSet)3033_storage"
          },
          {
            "astId": 17,
            "contract": "contracts/token/MultiSignature.sol:MultiSignature",
            "label": "adminRole",
            "offset": 0,
            "slot": "2",
            "type": "t_bytes32"
          }
        ],
        "numberOfBytes": "96"
      },
      "t_struct(Set)2768_storage": {
        "encoding": "inplace",
        "label": "struct EnumerableSet.Set",
        "members": [
          {
            "astId": 2763,
            "contract": "contracts/token/MultiSignature.sol:MultiSignature",
            "label": "_values",
            "offset": 0,
            "slot": "0",
            "type": "t_array(t_bytes32)dyn_storage"
          },
          {
            "astId": 2767,
            "contract": "contracts/token/MultiSignature.sol:MultiSignature",
            "label": "_indexes",
            "offset": 0,
            "slot": "1",
            "type": "t_mapping(t_bytes32,t_uint256)"
          }
        ],
        "numberOfBytes": "64"
      },
      "t_uint256": {
        "encoding": "inplace",
        "label": "uint256",
        "numberOfBytes": "32"
      }
    }
  }
}