{
  "address": "0x3596F8e11AeB2Dd2a89dAfb8f328fE411836F0dD",
  "abi": [
    {
      "inputs": [
        {
          "internalType": "string",
          "name": "_name",
          "type": "string"
        },
        {
          "internalType": "string",
          "name": "_symbol",
          "type": "string"
        },
        {
          "internalType": "contract IERC20",
          "name": "_token",
          "type": "address"
        },
        {
          "internalType": "uint256",
          "name": "_firstLockSeconds",
          "type": "uint256"
        },
        {
          "internalType": "uint256",
          "name": "_firstLockPercent",
          "type": "uint256"
        },
        {
          "internalType": "uint256",
          "name": "_lockPeriod",
          "type": "uint256"
        },
        {
          "internalType": "uint256",
          "name": "_lockPeriodNum",
          "type": "uint256"
        }
      ],
      "stateMutability": "nonpayable",
      "type": "constructor"
    },
    {
      "anonymous": false,
      "inputs": [
        {
          "indexed": true,
          "internalType": "address",
          "name": "owner",
          "type": "address"
        },
        {
          "indexed": true,
          "internalType": "address",
          "name": "spender",
          "type": "address"
        },
        {
          "indexed": false,
          "internalType": "uint256",
          "name": "value",
          "type": "uint256"
        }
      ],
      "name": "Approval",
      "type": "event"
    },
    {
      "anonymous": false,
      "inputs": [
        {
          "indexed": true,
          "internalType": "address",
          "name": "previousPendingOwner",
          "type": "address"
        },
        {
          "indexed": true,
          "internalType": "address",
          "name": "newPendingOwner",
          "type": "address"
        }
      ],
      "name": "ChangePendingOwner",
      "type": "event"
    },
    {
      "anonymous": false,
      "inputs": [
        {
          "indexed": false,
          "internalType": "address",
          "name": "receiver",
          "type": "address"
        },
        {
          "indexed": false,
          "internalType": "uint256",
          "name": "sendAmount",
          "type": "uint256"
        },
        {
          "indexed": false,
          "internalType": "uint256",
          "name": "totalReleaseAmount",
          "type": "uint256"
        },
        {
          "indexed": false,
          "internalType": "uint256",
          "name": "lastReleaseAt",
          "type": "uint256"
        }
      ],
      "name": "NewReceiver",
      "type": "event"
    },
    {
      "anonymous": false,
      "inputs": [
        {
          "indexed": true,
          "internalType": "address",
          "name": "previousOwner",
          "type": "address"
        },
        {
          "indexed": true,
          "internalType": "address",
          "name": "newOwner",
          "type": "address"
        }
      ],
      "name": "OwnershipTransferred",
      "type": "event"
    },
    {
      "anonymous": false,
      "inputs": [
        {
          "indexed": false,
          "internalType": "address",
          "name": "receiver",
          "type": "address"
        },
        {
          "indexed": false,
          "internalType": "uint256",
          "name": "releaseAmount",
          "type": "uint256"
        },
        {
          "indexed": false,
          "internalType": "uint256",
          "name": "nextReleaseAmount",
          "type": "uint256"
        },
        {
          "indexed": false,
          "internalType": "uint256",
          "name": "nextReleaseBlockNum",
          "type": "uint256"
        }
      ],
      "name": "ReleaseToken",
      "type": "event"
    },
    {
      "anonymous": false,
      "inputs": [
        {
          "indexed": true,
          "internalType": "address",
          "name": "from",
          "type": "address"
        },
        {
          "indexed": true,
          "internalType": "address",
          "name": "to",
          "type": "address"
        },
        {
          "indexed": false,
          "internalType": "uint256",
          "name": "value",
          "type": "uint256"
        }
      ],
      "name": "Transfer",
      "type": "event"
    },
    {
      "inputs": [],
      "name": "FIRST_LOCK_PERCENT",
      "outputs": [
        {
          "internalType": "uint256",
          "name": "",
          "type": "uint256"
        }
      ],
      "stateMutability": "view",
      "type": "function"
    },
    {
      "inputs": [],
      "name": "FIRST_LOCK_SECONDS",
      "outputs": [
        {
          "internalType": "uint256",
          "name": "",
          "type": "uint256"
        }
      ],
      "stateMutability": "view",
      "type": "function"
    },
    {
      "inputs": [],
      "name": "LOCK_PERIOD",
      "outputs": [
        {
          "internalType": "uint256",
          "name": "",
          "type": "uint256"
        }
      ],
      "stateMutability": "view",
      "type": "function"
    },
    {
      "inputs": [],
      "name": "LOCK_PERIOD_NUM",
      "outputs": [
        {
          "internalType": "uint256",
          "name": "",
          "type": "uint256"
        }
      ],
      "stateMutability": "view",
      "type": "function"
    },
    {
      "inputs": [],
      "name": "MAX_CLAIM_NUM",
      "outputs": [
        {
          "internalType": "uint256",
          "name": "",
          "type": "uint256"
        }
      ],
      "stateMutability": "view",
      "type": "function"
    },
    {
      "inputs": [],
      "name": "PERCENT_BASE",
      "outputs": [
        {
          "internalType": "uint256",
          "name": "",
          "type": "uint256"
        }
      ],
      "stateMutability": "view",
      "type": "function"
    },
    {
      "inputs": [],
      "name": "acceptOwner",
      "outputs": [],
      "stateMutability": "nonpayable",
      "type": "function"
    },
    {
      "inputs": [
        {
          "internalType": "address",
          "name": "_receiver",
          "type": "address"
        },
        {
          "internalType": "uint256",
          "name": "_amount",
          "type": "uint256"
        }
      ],
      "name": "addReceiver",
      "outputs": [],
      "stateMutability": "nonpayable",
      "type": "function"
    },
    {
      "inputs": [
        {
          "internalType": "address",
          "name": "owner",
          "type": "address"
        },
        {
          "internalType": "address",
          "name": "spender",
          "type": "address"
        }
      ],
      "name": "allowance",
      "outputs": [
        {
          "internalType": "uint256",
          "name": "",
          "type": "uint256"
        }
      ],
      "stateMutability": "view",
      "type": "function"
    },
    {
      "inputs": [
        {
          "internalType": "address",
          "name": "spender",
          "type": "address"
        },
        {
          "internalType": "uint256",
          "name": "amount",
          "type": "uint256"
        }
      ],
      "name": "approve",
      "outputs": [
        {
          "internalType": "bool",
          "name": "",
          "type": "bool"
        }
      ],
      "stateMutability": "nonpayable",
      "type": "function"
    },
    {
      "inputs": [
        {
          "internalType": "address",
          "name": "account",
          "type": "address"
        }
      ],
      "name": "balanceOf",
      "outputs": [
        {
          "internalType": "uint256",
          "name": "",
          "type": "uint256"
        }
      ],
      "stateMutability": "view",
      "type": "function"
    },
    {
      "inputs": [
        {
          "internalType": "address",
          "name": "_receiver",
          "type": "address"
        }
      ],
      "name": "claim",
      "outputs": [],
      "stateMutability": "nonpayable",
      "type": "function"
    },
    {
      "inputs": [],
      "name": "decimals",
      "outputs": [
        {
          "internalType": "uint8",
          "name": "",
          "type": "uint8"
        }
      ],
      "stateMutability": "view",
      "type": "function"
    },
    {
      "inputs": [
        {
          "internalType": "address",
          "name": "spender",
          "type": "address"
        },
        {
          "internalType": "uint256",
          "name": "subtractedValue",
          "type": "uint256"
        }
      ],
      "name": "decreaseAllowance",
      "outputs": [
        {
          "internalType": "bool",
          "name": "",
          "type": "bool"
        }
      ],
      "stateMutability": "nonpayable",
      "type": "function"
    },
    {
      "inputs": [
        {
          "internalType": "address",
          "name": "_receiver",
          "type": "address"
        }
      ],
      "name": "getReleaseInfo",
      "outputs": [
        {
          "internalType": "uint256",
          "name": "nextReleaseAt",
          "type": "uint256"
        },
        {
          "internalType": "uint256",
          "name": "nextReleaseAmount",
          "type": "uint256"
        },
        {
          "internalType": "uint256",
          "name": "alreadyReleaseAmount",
          "type": "uint256"
        },
        {
          "internalType": "uint256",
          "name": "remainReleaseAmount",
          "type": "uint256"
        }
      ],
      "stateMutability": "view",
      "type": "function"
    },
    {
      "inputs": [
        {
          "internalType": "address",
          "name": "spender",
          "type": "address"
        },
        {
          "internalType": "uint256",
          "name": "addedValue",
          "type": "uint256"
        }
      ],
      "name": "increaseAllowance",
      "outputs": [
        {
          "internalType": "bool",
          "name": "",
          "type": "bool"
        }
      ],
      "stateMutability": "nonpayable",
      "type": "function"
    },
    {
      "inputs": [],
      "name": "name",
      "outputs": [
        {
          "internalType": "string",
          "name": "",
          "type": "string"
        }
      ],
      "stateMutability": "view",
      "type": "function"
    },
    {
      "inputs": [],
      "name": "owner",
      "outputs": [
        {
          "internalType": "address",
          "name": "",
          "type": "address"
        }
      ],
      "stateMutability": "view",
      "type": "function"
    },
    {
      "inputs": [
        {
          "internalType": "address",
          "name": "_receiver",
          "type": "address"
        }
      ],
      "name": "pending",
      "outputs": [
        {
          "internalType": "uint256",
          "name": "",
          "type": "uint256"
        },
        {
          "internalType": "uint256",
          "name": "",
          "type": "uint256"
        },
        {
          "internalType": "uint256",
          "name": "",
          "type": "uint256"
        }
      ],
      "stateMutability": "view",
      "type": "function"
    },
    {
      "inputs": [],
      "name": "pendingOwner",
      "outputs": [
        {
          "internalType": "address",
          "name": "",
          "type": "address"
        }
      ],
      "stateMutability": "view",
      "type": "function"
    },
    {
      "inputs": [
        {
          "internalType": "address",
          "name": "",
          "type": "address"
        }
      ],
      "name": "receivers",
      "outputs": [
        {
          "internalType": "address",
          "name": "receiver",
          "type": "address"
        },
        {
          "internalType": "uint256",
          "name": "totalReleaseAmount",
          "type": "uint256"
        },
        {
          "internalType": "bool",
          "name": "firstUnlock",
          "type": "bool"
        },
        {
          "internalType": "uint256",
          "name": "lastReleaseAt",
          "type": "uint256"
        },
        {
          "internalType": "uint256",
          "name": "alreadyReleasedAmount",
          "type": "uint256"
        }
      ],
      "stateMutability": "view",
      "type": "function"
    },
    {
      "inputs": [],
      "name": "renounceOwnership",
      "outputs": [],
      "stateMutability": "nonpayable",
      "type": "function"
    },
    {
      "inputs": [
        {
          "internalType": "address",
          "name": "pendingOwner_",
          "type": "address"
        }
      ],
      "name": "setPendingOwner",
      "outputs": [],
      "stateMutability": "nonpayable",
      "type": "function"
    },
    {
      "inputs": [],
      "name": "symbol",
      "outputs": [
        {
          "internalType": "string",
          "name": "",
          "type": "string"
        }
      ],
      "stateMutability": "view",
      "type": "function"
    },
    {
      "inputs": [],
      "name": "token",
      "outputs": [
        {
          "internalType": "contract IERC20",
          "name": "",
          "type": "address"
        }
      ],
      "stateMutability": "view",
      "type": "function"
    },
    {
      "inputs": [],
      "name": "totalLockAmount",
      "outputs": [
        {
          "internalType": "uint256",
          "name": "",
          "type": "uint256"
        }
      ],
      "stateMutability": "view",
      "type": "function"
    },
    {
      "inputs": [],
      "name": "totalSupply",
      "outputs": [
        {
          "internalType": "uint256",
          "name": "",
          "type": "uint256"
        }
      ],
      "stateMutability": "view",
      "type": "function"
    },
    {
      "inputs": [
        {
          "internalType": "address",
          "name": "recipient",
          "type": "address"
        },
        {
          "internalType": "uint256",
          "name": "amount",
          "type": "uint256"
        }
      ],
      "name": "transfer",
      "outputs": [
        {
          "internalType": "bool",
          "name": "",
          "type": "bool"
        }
      ],
      "stateMutability": "nonpayable",
      "type": "function"
    },
    {
      "inputs": [
        {
          "internalType": "address",
          "name": "sender",
          "type": "address"
        },
        {
          "internalType": "address",
          "name": "recipient",
          "type": "address"
        },
        {
          "internalType": "uint256",
          "name": "amount",
          "type": "uint256"
        }
      ],
      "name": "transferFrom",
      "outputs": [
        {
          "internalType": "bool",
          "name": "",
          "type": "bool"
        }
      ],
      "stateMutability": "nonpayable",
      "type": "function"
    },
    {
      "inputs": [
        {
          "internalType": "address",
          "name": "",
          "type": "address"
        }
      ],
      "name": "userPending",
      "outputs": [
        {
          "internalType": "uint256",
          "name": "",
          "type": "uint256"
        }
      ],
      "stateMutability": "view",
      "type": "function"
    }
  ],
  "transactionHash": "0xa3159c5d367225a5d5cf426942eaa8665f4981af16a331a7eaa172e15e287d0c",
  "args": [
    "SeedRound TokenLocker",
    "SRTK",
    "0x9a1a5B4a1A32196d686CbaC9145830F33a9013d1",
    300,
    "100000",
    60,
    21
  ],
  "solcInputHash": "a48360f4c85458219f0e0ba11a25c0c2",
  "bytecode": "0x6101206040523480156200001257600080fd5b50604051620025bb380380620025bb833981810160405260e08110156200003857600080fd5b81019080805160405193929190846401000000008211156200005957600080fd5b9083019060208201858111156200006f57600080fd5b82516401000000008111828201881017156200008a57600080fd5b82525081516020918201929091019080838360005b83811015620000b95781810151838201526020016200009f565b50505050905090810190601f168015620000e75780820380516001836020036101000a031916815260200191505b50604052602001805160405193929190846401000000008211156200010b57600080fd5b9083019060208201858111156200012157600080fd5b82516401000000008111828201881017156200013c57600080fd5b82525081516020918201929091019080838360005b838110156200016b57818101518382015260200162000151565b50505050905090810190601f168015620001995780820380516001836020036101000a031916815260200191505b506040908152602082810151918301516060840151608085015160a090950151895194975091955093929091339189918991620001dd916003919085019062000359565b508051620001f390600490602084019062000359565b50506005805460ff19166012179055506001600160a01b0381166200021f576200021c62000355565b90505b60058054610100600160a81b0319166101006001600160a01b038416908102919091179091556040516000907f8be0079c531659141344cd1fd0a4f28419497f9722a3daafe3b4186f6b6457e0908290a350620f4240831115620002ca576040805162461bcd60e51b815260206004820152601860248201527f696c6c6567616c2066697273744c6f636b50657263656e740000000000000000604482015290519081900360640190fd5b60a08390526001600160a01b0385166200032b576040805162461bcd60e51b815260206004820152601560248201527f746f6b656e2061646472657373206973207a65726f0000000000000000000000604482015290519081900360640190fd5b60609490941b6001600160601b031916610100526080929092525060c05260e05250620004059050565b3390565b828054600181600116156101000203166002900490600052602060002090601f016020900481019282620003915760008555620003dc565b82601f10620003ac57805160ff1916838001178555620003dc565b82800160010185558215620003dc579182015b82811115620003dc578251825591602001919060010190620003bf565b50620003ea929150620003ee565b5090565b5b80821115620003ea5760008155600101620003ef565b60805160a05160c05160e0516101005160601c61213762000484600039806107955280610cef52806114345250806108f15280610a065280610eb352508061070e52806109dd5280610e8c5250806106e452806109985280610a335280610e4c5280610ee05250806109695280610e1952806110be52506121376000f3fe608060405234801561001057600080fd5b50600436106101da5760003560e01c806370a0823111610104578063a457c2d7116100a2578063e30c397811610071578063e30c3978146105d1578063e959fa04146105d9578063ebbc4965146105e1578063fc0c546a146105e9576101da565b8063a457c2d714610525578063a9059cbb14610551578063c42069ec1461057d578063dd62ed3e146105a3576101da565b80638ace124d116100de5780638ace124d146104e95780638da5cb5b146104f157806395d89b4114610515578063a111bab91461051d576101da565b806370a08231146104b3578063715018a6146104d9578063805d835d146104e1576101da565b806323b872dd1161017c578063502ad4ce1161014b578063502ad4ce146103ef5780635eebea20146103f75780635f3ccdd91461043b578063684c261114610467576101da565b806323b872dd14610349578063313ce5671461037f578063395093511461039d578063414c4695146103c9576101da565b806310dbe67f116101b857806310dbe67f146102f757806318160ddd146103115780631820cabb146103195780631e83409a14610321576101da565b806306fdde03146101df578063095ea7b31461025c5780630cb8150f1461029c575b600080fd5b6101e76105f1565b6040805160208082528351818301528351919283929083019185019080838360005b83811015610221578181015183820152602001610209565b50505050905090810190601f16801561024e5780820380516001836020036101000a031916815260200191505b509250505060405180910390f35b6102886004803603604081101561027257600080fd5b506001600160a01b038135169060200135610687565b604080519115158252519081900360200190f35b6102c2600480360360208110156102b257600080fd5b50356001600160a01b03166106a5565b604080516001600160a01b03909616865260208601949094529115158484015260608401526080830152519081900360a00190f35b6102ff6106e2565b60408051918252519081900360200190f35b6102ff610706565b6102ff61070c565b6103476004803603602081101561033757600080fd5b50356001600160a01b0316610730565b005b6102886004803603606081101561035f57600080fd5b506001600160a01b038135811691602081013590911690604001356107fe565b610387610886565b6040805160ff9092168252519081900360200190f35b610288600480360360408110156103b357600080fd5b506001600160a01b03813516906020013561088f565b6102ff600480360360208110156103df57600080fd5b50356001600160a01b03166108dd565b6102ff6108ef565b61041d6004803603602081101561040d57600080fd5b50356001600160a01b0316610913565b60408051938452602084019290925282820152519081900360600190f35b6103476004803603604081101561045157600080fd5b506001600160a01b038135169060200135610b1b565b61048d6004803603602081101561047d57600080fd5b50356001600160a01b0316610d7c565b604080519485526020850193909352838301919091526060830152519081900360800190f35b6102ff600480360360208110156104c957600080fd5b50356001600160a01b0316610f78565b610347610f97565b6102ff6110b5565b6102ff6110bc565b6104f96110e0565b604080516001600160a01b039092168252519081900360200190f35b6101e76110f4565b6102ff611155565b6102886004803603604081101561053b57600080fd5b506001600160a01b03813516906020013561115b565b6102886004803603604081101561056757600080fd5b506001600160a01b0381351690602001356111c3565b6103476004803603602081101561059357600080fd5b50356001600160a01b03166111d7565b6102ff600480360360408110156105b957600080fd5b506001600160a01b03813581169160200135166112ec565b6104f9611317565b6102ff611326565b61034761132b565b6104f9611432565b60038054604080516020601f600260001961010060018816150201909516949094049384018190048102820181019092528281526060939092909183018282801561067d5780601f106106525761010080835404028352916020019161067d565b820191906000526020600020905b81548152906001019060200180831161066057829003601f168201915b5050505050905090565b600061069b610694611456565b848461145a565b5060015b92915050565b600860205260009081526040902080546001820154600283015460038401546004909401546001600160a01b0390931693919260ff909116919085565b7f000000000000000000000000000000000000000000000000000000000000000081565b60025490565b7f000000000000000000000000000000000000000000000000000000000000000081565b60005b60648110156107565761074582611546565b61074e57610756565b600101610733565b506001600160a01b038116600090815260096020526040902054156107fb576001600160a01b038082166000908152600960205260409020546107bd917f000000000000000000000000000000000000000000000000000000000000000016908390611661565b6001600160a01b0381166000908152600960205260409020546107e19082906116b8565b6001600160a01b0381166000908152600960205260408120555b50565b600061080b8484846117b4565b61087b84610817611456565b61087685604051806060016040528060288152602001611fd1602891396001600160a01b038a16600090815260016020526040812090610855611456565b6001600160a01b03168152602081019190915260400160002054919061190f565b61145a565b5060015b9392505050565b60055460ff1690565b600061069b61089c611456565b8461087685600160006108ad611456565b6001600160a01b03908116825260208083019390935260409182016000908120918c1681529252902054906119a6565b60096020526000908152604090205481565b7f000000000000000000000000000000000000000000000000000000000000000081565b6001600160a01b03808216600081815260086020526040812080549193849384939091161461094d57600080600093509350935050610b14565b6003810154600282015442919060ff1660005b6000826109db577f0000000000000000000000000000000000000000000000000000000000000000840193506109d0620f42406109ca7f00000000000000000000000000000000000000000000000000000000000000008960010154611a0090919063ffffffff16565b90611a59565b905060019250610a65565b7f00000000000000000000000000000000000000000000000000000000000000009390930192610a627f00000000000000000000000000000000000000000000000000000000000000006109ca620f424081610a57827f0000000000000000000000000000000000000000000000000000000000000000611ac0565b60018c015490611a00565b90505b838510610ab857610a7681836119a6565b60048701546001880154610a8991611ac0565b1115610a985790810190610ab3565b60048601546001870154610aab91611ac0565b915050610ac4565b610abe565b50610ac4565b50610960565b6000610aeb82610ae588600401548960010154611ac090919063ffffffff16565b90611ac0565b6001600160a01b038b166000908152600960205260409020549499509190930196509450505050505b9193909250565b610b23611456565b6001600160a01b0316610b346110e0565b6001600160a01b031614610b8f576040805162461bcd60e51b815260206004820181905260248201527f4f776e61626c653a2063616c6c6572206973206e6f7420746865206f776e6572604482015290519081900360640190fd5b60005b6064811015610bb557610ba483611546565b610bad57610bb5565b600101610b92565b506001600160a01b038216610c11576040805162461bcd60e51b815260206004820152601860248201527f72656365697665722061646472657373206973207a65726f0000000000000000604482015290519081900360640190fd5b60008111610c5f576040805162461bcd60e51b815260206004820152601660248201527572656c6561736520616d6f756e74206973207a65726f60501b604482015290519081900360640190fd5b600754610c6c90826119a6565b6007556001600160a01b038216600090815260086020526040812060048101546001820154919291610ca9918591610ca391611ac0565b906119a6565b82546001600160a01b0319166001600160a01b038681169190911784556001840182905560028401805460ff1916905542600385015560006004850155909150610d17907f000000000000000000000000000000000000000000000000000000000000000016333086611b1d565b610d218484611b7d565b6003820154604080516001600160a01b0387168152602081018690528082018490526060810192909252517f3884827fc54f3ca6180152f3435804a27e17c9a82a5f7de1655691126ece311a9181900360800190a150505050565b6001600160a01b0381166000818152600860205260408120909182918291829190610de3576040805162461bcd60e51b81526020600482015260126024820152711c9958d95a5d995c881b9bdd08195e1a5cdd60721b604482015290519081900360640190fd5b80546001600160a01b03878116911614610e0b57600080600080945094509450945050610f71565b600281015460ff16610e85577f00000000000000000000000000000000000000000000000000000000000000008160030154019450610e7e620f42406109ca7f00000000000000000000000000000000000000000000000000000000000000008460010154611a0090919063ffffffff16565b9350610f12565b60038101547f0000000000000000000000000000000000000000000000000000000000000000019450610f0f7f00000000000000000000000000000000000000000000000000000000000000006109ca620f424081610f04827f0000000000000000000000000000000000000000000000000000000000000000611ac0565b600187015490611a00565b93505b83610f2e82600401548360010154611ac090919063ffffffff16565b1015610f4a5760048101546001820154610f4791611ac0565b93505b60048101546001820154909350610f619084611ac0565b915081841115610f6f578193505b505b9193509193565b6001600160a01b0381166000908152602081905260409020545b919050565b610f9f611456565b6001600160a01b0316610fb06110e0565b6001600160a01b03161461100b576040805162461bcd60e51b815260206004820181905260248201527f4f776e61626c653a2063616c6c6572206973206e6f7420746865206f776e6572604482015290519081900360640190fd5b60055460405160009161010090046001600160a01b0316907f8be0079c531659141344cd1fd0a4f28419497f9722a3daafe3b4186f6b6457e0908390a360058054610100600160a81b03191690556006546001600160a01b0316156110b3576006546040516000916001600160a01b0316907f4465959e7ec1f32e3ebd831ac2459ad6ef4b1d54a83f108a7068e69e62f0702f908390a3600680546001600160a01b03191690555b565b620f424081565b7f000000000000000000000000000000000000000000000000000000000000000081565b60055461010090046001600160a01b031690565b60048054604080516020601f600260001961010060018816150201909516949094049384018190048102820181019092528281526060939092909183018282801561067d5780601f106106525761010080835404028352916020019161067d565b60075481565b600061069b611168611456565b84610876856040518060600160405280602581526020016120dd6025913960016000611192611456565b6001600160a01b03908116825260208083019390935260409182016000908120918d1681529252902054919061190f565b600061069b6111d0611456565b84846117b4565b6111df611456565b6001600160a01b03166111f06110e0565b6001600160a01b03161461124b576040805162461bcd60e51b815260206004820181905260248201527f4f776e61626c653a2063616c6c6572206973206e6f7420746865206f776e6572604482015290519081900360640190fd5b6001600160a01b0381166112905760405162461bcd60e51b81526004018080602001828103825260298152602001806120b46029913960400191505060405180910390fd5b6006546040516001600160a01b038084169216907f4465959e7ec1f32e3ebd831ac2459ad6ef4b1d54a83f108a7068e69e62f0702f90600090a3600680546001600160a01b0319166001600160a01b0392909216919091179055565b6001600160a01b03918216600090815260016020908152604080832093909416825291909152205490565b6006546001600160a01b031690565b606481565b611333611456565b6001600160a01b0316611344611317565b6001600160a01b0316146113895760405162461bcd60e51b815260040180806020018281038252602781526020018061203f6027913960400191505060405180910390fd5b6006546005546040516001600160a01b0392831692610100909204909116907f8be0079c531659141344cd1fd0a4f28419497f9722a3daafe3b4186f6b6457e090600090a360065460058054610100600160a81b0319166101006001600160a01b03909316928302179055604051600091907f4465959e7ec1f32e3ebd831ac2459ad6ef4b1d54a83f108a7068e69e62f0702f908390a3600680546001600160a01b0319169055565b7f000000000000000000000000000000000000000000000000000000000000000081565b3390565b6001600160a01b03831661149f5760405162461bcd60e51b81526004018080602001828103825260248152602001806120666024913960400191505060405180910390fd5b6001600160a01b0382166114e45760405162461bcd60e51b8152600401808060200182810382526022815260200180611f426022913960400191505060405180910390fd5b6001600160a01b03808416600081815260016020908152604080832094871680845294825291829020859055815185815291517f8c5be1e5ebec7d5bd14f71427d1e84f3dd0314c0f7b2291e5b200ac8c7c3b9259281900390910190a3505050565b600080600061155484610d7c565b50509150915081421080611566575080155b1561157657600092505050610f92565b6001600160a01b0384166000908152600860205260409020600281015460ff166115aa5760028101805460ff191660011790555b6003810183905560048101546115c090836119a6565b60048201556007546115d29083611ac0565b6007556001600160a01b0385166000908152600960205260408120805484019055806115fd87610d7c565b5050604080516001600160a01b038b168152602081018890528082018490526060810183905290519294509092507fcf9133e9b53c5807f2715505c51b1db615caf0f32801f31abf2137b249a1b589919081900360800190a1509195945050505050565b604080516001600160a01b038416602482015260448082018490528251808303909101815260649091019091526020810180516001600160e01b031663a9059cbb60e01b1790526116b3908490611c6d565b505050565b6001600160a01b0382166116fd5760405162461bcd60e51b8152600401808060200182810382526021815260200180611ff96021913960400191505060405180910390fd5b611709826000836116b3565b61174681604051806060016040528060228152602001611f20602291396001600160a01b038516600090815260208190526040902054919061190f565b6001600160a01b03831660009081526020819052604090205560025461176c9082611ac0565b6002556040805182815290516000916001600160a01b038516917fddf252ad1be2c89b69c2b068fc378daa952ba7f163c4a11628f55a4df523b3ef9181900360200190a35050565b6001600160a01b0383166117f95760405162461bcd60e51b815260040180806020018281038252602581526020018061201a6025913960400191505060405180910390fd5b6001600160a01b03821661183e5760405162461bcd60e51b8152600401808060200182810382526023815260200180611efd6023913960400191505060405180910390fd5b6118498383836116b3565b61188681604051806060016040528060268152602001611f64602691396001600160a01b038616600090815260208190526040902054919061190f565b6001600160a01b0380851660009081526020819052604080822093909355908416815220546118b590826119a6565b6001600160a01b038084166000818152602081815260409182902094909455805185815290519193928716927fddf252ad1be2c89b69c2b068fc378daa952ba7f163c4a11628f55a4df523b3ef92918290030190a3505050565b6000818484111561199e5760405162461bcd60e51b81526004018080602001828103825283818151815260200191508051906020019080838360005b8381101561196357818101518382015260200161194b565b50505050905090810190601f1680156119905780820380516001836020036101000a031916815260200191505b509250505060405180910390fd5b505050900390565b60008282018381101561087f576040805162461bcd60e51b815260206004820152601b60248201527f536166654d6174683a206164646974696f6e206f766572666c6f770000000000604482015290519081900360640190fd5b600082611a0f5750600061069f565b82820282848281611a1c57fe5b041461087f5760405162461bcd60e51b8152600401808060200182810382526021815260200180611fb06021913960400191505060405180910390fd5b6000808211611aaf576040805162461bcd60e51b815260206004820152601a60248201527f536166654d6174683a206469766973696f6e206279207a65726f000000000000604482015290519081900360640190fd5b818381611ab857fe5b049392505050565b600082821115611b17576040805162461bcd60e51b815260206004820152601e60248201527f536166654d6174683a207375627472616374696f6e206f766572666c6f770000604482015290519081900360640190fd5b50900390565b604080516001600160a01b0380861660248301528416604482015260648082018490528251808303909101815260849091019091526020810180516001600160e01b03166323b872dd60e01b179052611b77908590611c6d565b50505050565b6001600160a01b038216611bd8576040805162461bcd60e51b815260206004820152601f60248201527f45524332303a206d696e7420746f20746865207a65726f206164647265737300604482015290519081900360640190fd5b611be4600083836116b3565b600254611bf190826119a6565b6002556001600160a01b038216600090815260208190526040902054611c1790826119a6565b6001600160a01b0383166000818152602081815260408083209490945583518581529351929391927fddf252ad1be2c89b69c2b068fc378daa952ba7f163c4a11628f55a4df523b3ef9281900390910190a35050565b6000611cc2826040518060400160405280602081526020017f5361666545524332303a206c6f772d6c6576656c2063616c6c206661696c6564815250856001600160a01b0316611d1e9092919063ffffffff16565b8051909150156116b357808060200190516020811015611ce157600080fd5b50516116b35760405162461bcd60e51b815260040180806020018281038252602a81526020018061208a602a913960400191505060405180910390fd5b6060611d2d8484600085611d35565b949350505050565b606082471015611d765760405162461bcd60e51b8152600401808060200182810382526026815260200180611f8a6026913960400191505060405180910390fd5b611d7f85611e90565b611dd0576040805162461bcd60e51b815260206004820152601d60248201527f416464726573733a2063616c6c20746f206e6f6e2d636f6e7472616374000000604482015290519081900360640190fd5b600080866001600160a01b031685876040518082805190602001908083835b60208310611e0e5780518252601f199092019160209182019101611def565b6001836020036101000a03801982511681845116808217855250505050505090500191505060006040518083038185875af1925050503d8060008114611e70576040519150601f19603f3d011682016040523d82523d6000602084013e611e75565b606091505b5091509150611e85828286611e96565b979650505050505050565b3b151590565b60608315611ea557508161087f565b825115611eb55782518084602001fd5b60405162461bcd60e51b815260206004820181815284516024840152845185939192839260440191908501908083836000831561196357818101518382015260200161194b56fe45524332303a207472616e7366657220746f20746865207a65726f206164647265737345524332303a206275726e20616d6f756e7420657863656564732062616c616e636545524332303a20617070726f766520746f20746865207a65726f206164647265737345524332303a207472616e7366657220616d6f756e7420657863656564732062616c616e6365416464726573733a20696e73756666696369656e742062616c616e636520666f722063616c6c536166654d6174683a206d756c7469706c69636174696f6e206f766572666c6f7745524332303a207472616e7366657220616d6f756e74206578636565647320616c6c6f77616e636545524332303a206275726e2066726f6d20746865207a65726f206164647265737345524332303a207472616e736665722066726f6d20746865207a65726f20616464726573734f776e61626c653a2063616c6c6572206973206e6f74207468652070656e64696e674f776e657245524332303a20617070726f76652066726f6d20746865207a65726f20616464726573735361666545524332303a204552433230206f7065726174696f6e20646964206e6f7420737563636565644f776e61626c653a2070656e64696e674f776e657220697320746865207a65726f206164647265737345524332303a2064656372656173656420616c6c6f77616e63652062656c6f77207a65726fa2646970667358221220623e378e04654ef5c3f26d2b6b46b1806eba52c8a512a28c8263688be08c8a0964736f6c63430007060033",
  "devdoc": {
    "kind": "dev",
    "methods": {
      "allowance(address,address)": {
        "details": "See {IERC20-allowance}."
      },
      "approve(address,uint256)": {
        "details": "See {IERC20-approve}. Requirements: - `spender` cannot be the zero address."
      },
      "balanceOf(address)": {
        "details": "See {IERC20-balanceOf}."
      },
      "decimals()": {
        "details": "Returns the number of decimals used to get its user representation. For example, if `decimals` equals `2`, a balance of `505` tokens should be displayed to a user as `5,05` (`505 / 10 ** 2`). Tokens usually opt for a value of 18, imitating the relationship between Ether and Wei. This is the value {ERC20} uses, unless {_setupDecimals} is called. NOTE: This information is only used for _display_ purposes: it in no way affects any of the arithmetic of the contract, including {IERC20-balanceOf} and {IERC20-transfer}."
      },
      "decreaseAllowance(address,uint256)": {
        "details": "Atomically decreases the allowance granted to `spender` by the caller. This is an alternative to {approve} that can be used as a mitigation for problems described in {IERC20-approve}. Emits an {Approval} event indicating the updated allowance. Requirements: - `spender` cannot be the zero address. - `spender` must have allowance for the caller of at least `subtractedValue`."
      },
      "increaseAllowance(address,uint256)": {
        "details": "Atomically increases the allowance granted to `spender` by the caller. This is an alternative to {approve} that can be used as a mitigation for problems described in {IERC20-approve}. Emits an {Approval} event indicating the updated allowance. Requirements: - `spender` cannot be the zero address."
      },
      "name()": {
        "details": "Returns the name of the token."
      },
      "symbol()": {
        "details": "Returns the symbol of the token, usually a shorter version of the name."
      },
      "totalSupply()": {
        "details": "See {IERC20-totalSupply}."
      },
      "transfer(address,uint256)": {
        "details": "See {IERC20-transfer}. Requirements: - `recipient` cannot be the zero address. - the caller must have a balance of at least `amount`."
      },
      "transferFrom(address,address,uint256)": {
        "details": "See {IERC20-transferFrom}. Emits an {Approval} event indicating the updated allowance. This is not required by the EIP. See the note at the beginning of {ERC20}. Requirements: - `sender` and `recipient` cannot be the zero address. - `sender` must have a balance of at least `amount`. - the caller must have allowance for ``sender``'s tokens of at least `amount`."
      }
    },
    "version": 1
  },
  "userdoc": {
    "kind": "user",
    "methods": {},
    "version": 1
  },
  "storageLayout": {
    "storage": [
      {
        "astId": 1582,
        "contract": "contracts/token/TokenLocker.sol:TokenLocker",
        "label": "_balances",
        "offset": 0,
        "slot": "0",
        "type": "t_mapping(t_address,t_uint256)"
      },
      {
        "astId": 1588,
        "contract": "contracts/token/TokenLocker.sol:TokenLocker",
        "label": "_allowances",
        "offset": 0,
        "slot": "1",
        "type": "t_mapping(t_address,t_mapping(t_address,t_uint256))"
      },
      {
        "astId": 1590,
        "contract": "contracts/token/TokenLocker.sol:TokenLocker",
        "label": "_totalSupply",
        "offset": 0,
        "slot": "2",
        "type": "t_uint256"
      },
      {
        "astId": 1592,
        "contract": "contracts/token/TokenLocker.sol:TokenLocker",
        "label": "_name",
        "offset": 0,
        "slot": "3",
        "type": "t_string_storage"
      },
      {
        "astId": 1594,
        "contract": "contracts/token/TokenLocker.sol:TokenLocker",
        "label": "_symbol",
        "offset": 0,
        "slot": "4",
        "type": "t_string_storage"
      },
      {
        "astId": 1596,
        "contract": "contracts/token/TokenLocker.sol:TokenLocker",
        "label": "_decimals",
        "offset": 0,
        "slot": "5",
        "type": "t_uint8"
      },
      {
        "astId": 3297,
        "contract": "contracts/token/TokenLocker.sol:TokenLocker",
        "label": "_owner",
        "offset": 1,
        "slot": "5",
        "type": "t_address"
      },
      {
        "astId": 3299,
        "contract": "contracts/token/TokenLocker.sol:TokenLocker",
        "label": "_pendingOwner",
        "offset": 0,
        "slot": "6",
        "type": "t_address"
      },
      {
        "astId": 13030,
        "contract": "contracts/token/TokenLocker.sol:TokenLocker",
        "label": "totalLockAmount",
        "offset": 0,
        "slot": "7",
        "type": "t_uint256"
      },
      {
        "astId": 13045,
        "contract": "contracts/token/TokenLocker.sol:TokenLocker",
        "label": "receivers",
        "offset": 0,
        "slot": "8",
        "type": "t_mapping(t_address,t_struct(ReleaseInfo)13041_storage)"
      },
      {
        "astId": 13049,
        "contract": "contracts/token/TokenLocker.sol:TokenLocker",
        "label": "userPending",
        "offset": 0,
        "slot": "9",
        "type": "t_mapping(t_address,t_uint256)"
      }
    ],
    "types": {
      "t_address": {
        "encoding": "inplace",
        "label": "address",
        "numberOfBytes": "20"
      },
      "t_bool": {
        "encoding": "inplace",
        "label": "bool",
        "numberOfBytes": "1"
      },
      "t_mapping(t_address,t_mapping(t_address,t_uint256))": {
        "encoding": "mapping",
        "key": "t_address",
        "label": "mapping(address => mapping(address => uint256))",
        "numberOfBytes": "32",
        "value": "t_mapping(t_address,t_uint256)"
      },
      "t_mapping(t_address,t_struct(ReleaseInfo)13041_storage)": {
        "encoding": "mapping",
        "key": "t_address",
        "label": "mapping(address => struct TokenLocker.ReleaseInfo)",
        "numberOfBytes": "32",
        "value": "t_struct(ReleaseInfo)13041_storage"
      },
      "t_mapping(t_address,t_uint256)": {
        "encoding": "mapping",
        "key": "t_address",
        "label": "mapping(address => uint256)",
        "numberOfBytes": "32",
        "value": "t_uint256"
      },
      "t_string_storage": {
        "encoding": "bytes",
        "label": "string",
        "numberOfBytes": "32"
      },
      "t_struct(ReleaseInfo)13041_storage": {
        "encoding": "inplace",
        "label": "struct TokenLocker.ReleaseInfo",
        "members": [
          {
            "astId": 13032,
            "contract": "contracts/token/TokenLocker.sol:TokenLocker",
            "label": "receiver",
            "offset": 0,
            "slot": "0",
            "type": "t_address"
          },
          {
            "astId": 13034,
            "contract": "contracts/token/TokenLocker.sol:TokenLocker",
            "label": "totalReleaseAmount",
            "offset": 0,
            "slot": "1",
            "type": "t_uint256"
          },
          {
            "astId": 13036,
            "contract": "contracts/token/TokenLocker.sol:TokenLocker",
            "label": "firstUnlock",
            "offset": 0,
            "slot": "2",
            "type": "t_bool"
          },
          {
            "astId": 13038,
            "contract": "contracts/token/TokenLocker.sol:TokenLocker",
            "label": "lastReleaseAt",
            "offset": 0,
            "slot": "3",
            "type": "t_uint256"
          },
          {
            "astId": 13040,
            "contract": "contracts/token/TokenLocker.sol:TokenLocker",
            "label": "alreadyReleasedAmount",
            "offset": 0,
            "slot": "4",
            "type": "t_uint256"
          }
        ],
        "numberOfBytes": "160"
      },
      "t_uint256": {
        "encoding": "inplace",
        "label": "uint256",
        "numberOfBytes": "32"
      },
      "t_uint8": {
        "encoding": "inplace",
        "label": "uint8",
        "numberOfBytes": "1"
      }
    }
  }
}