{
  "address": "0xB9a057012ABEBE63b6c642E8Cd03c34D5feE34Ae",
  "abi": [
    {
      "inputs": [
        {
          "internalType": "uint256",
          "name": "minDelay",
          "type": "uint256"
        },
        {
          "internalType": "address[]",
          "name": "proposers",
          "type": "address[]"
        },
        {
          "internalType": "address[]",
          "name": "executors",
          "type": "address[]"
        }
      ],
      "stateMutability": "nonpayable",
      "type": "constructor"
    },
    {
      "anonymous": false,
      "inputs": [
        {
          "indexed": true,
          "internalType": "bytes32",
          "name": "id",
          "type": "bytes32"
        },
        {
          "indexed": true,
          "internalType": "uint256",
          "name": "index",
          "type": "uint256"
        },
        {
          "indexed": false,
          "internalType": "address",
          "name": "target",
          "type": "address"
        },
        {
          "indexed": false,
          "internalType": "uint256",
          "name": "value",
          "type": "uint256"
        },
        {
          "indexed": false,
          "internalType": "bytes",
          "name": "data",
          "type": "bytes"
        }
      ],
      "name": "CallExecuted",
      "type": "event"
    },
    {
      "anonymous": false,
      "inputs": [
        {
          "indexed": true,
          "internalType": "bytes32",
          "name": "id",
          "type": "bytes32"
        },
        {
          "indexed": true,
          "internalType": "uint256",
          "name": "index",
          "type": "uint256"
        },
        {
          "indexed": false,
          "internalType": "address",
          "name": "target",
          "type": "address"
        },
        {
          "indexed": false,
          "internalType": "uint256",
          "name": "value",
          "type": "uint256"
        },
        {
          "indexed": false,
          "internalType": "bytes",
          "name": "data",
          "type": "bytes"
        },
        {
          "indexed": false,
          "internalType": "bytes32",
          "name": "predecessor",
          "type": "bytes32"
        },
        {
          "indexed": false,
          "internalType": "uint256",
          "name": "delay",
          "type": "uint256"
        }
      ],
      "name": "CallScheduled",
      "type": "event"
    },
    {
      "anonymous": false,
      "inputs": [
        {
          "indexed": true,
          "internalType": "bytes32",
          "name": "id",
          "type": "bytes32"
        }
      ],
      "name": "Cancelled",
      "type": "event"
    },
    {
      "anonymous": false,
      "inputs": [
        {
          "indexed": false,
          "internalType": "uint256",
          "name": "oldDuration",
          "type": "uint256"
        },
        {
          "indexed": false,
          "internalType": "uint256",
          "name": "newDuration",
          "type": "uint256"
        }
      ],
      "name": "MinDelayChange",
      "type": "event"
    },
    {
      "anonymous": false,
      "inputs": [
        {
          "indexed": true,
          "internalType": "bytes32",
          "name": "role",
          "type": "bytes32"
        },
        {
          "indexed": true,
          "internalType": "bytes32",
          "name": "previousAdminRole",
          "type": "bytes32"
        },
        {
          "indexed": true,
          "internalType": "bytes32",
          "name": "newAdminRole",
          "type": "bytes32"
        }
      ],
      "name": "RoleAdminChanged",
      "type": "event"
    },
    {
      "anonymous": false,
      "inputs": [
        {
          "indexed": true,
          "internalType": "bytes32",
          "name": "role",
          "type": "bytes32"
        },
        {
          "indexed": true,
          "internalType": "address",
          "name": "account",
          "type": "address"
        },
        {
          "indexed": true,
          "internalType": "address",
          "name": "sender",
          "type": "address"
        }
      ],
      "name": "RoleGranted",
      "type": "event"
    },
    {
      "anonymous": false,
      "inputs": [
        {
          "indexed": true,
          "internalType": "bytes32",
          "name": "role",
          "type": "bytes32"
        },
        {
          "indexed": true,
          "internalType": "address",
          "name": "account",
          "type": "address"
        },
        {
          "indexed": true,
          "internalType": "address",
          "name": "sender",
          "type": "address"
        }
      ],
      "name": "RoleRevoked",
      "type": "event"
    },
    {
      "inputs": [],
      "name": "DEFAULT_ADMIN_ROLE",
      "outputs": [
        {
          "internalType": "bytes32",
          "name": "",
          "type": "bytes32"
        }
      ],
      "stateMutability": "view",
      "type": "function"
    },
    {
      "inputs": [],
      "name": "EXECUTOR_ROLE",
      "outputs": [
        {
          "internalType": "bytes32",
          "name": "",
          "type": "bytes32"
        }
      ],
      "stateMutability": "view",
      "type": "function"
    },
    {
      "inputs": [],
      "name": "PROPOSER_ROLE",
      "outputs": [
        {
          "internalType": "bytes32",
          "name": "",
          "type": "bytes32"
        }
      ],
      "stateMutability": "view",
      "type": "function"
    },
    {
      "inputs": [],
      "name": "TIMELOCK_ADMIN_ROLE",
      "outputs": [
        {
          "internalType": "bytes32",
          "name": "",
          "type": "bytes32"
        }
      ],
      "stateMutability": "view",
      "type": "function"
    },
    {
      "inputs": [
        {
          "internalType": "contract SafeOwnable",
          "name": "con",
          "type": "address"
        }
      ],
      "name": "acceptOwner",
      "outputs": [],
      "stateMutability": "nonpayable",
      "type": "function"
    },
    {
      "inputs": [
        {
          "internalType": "bytes32",
          "name": "id",
          "type": "bytes32"
        }
      ],
      "name": "cancel",
      "outputs": [],
      "stateMutability": "nonpayable",
      "type": "function"
    },
    {
      "inputs": [
        {
          "internalType": "address",
          "name": "target",
          "type": "address"
        },
        {
          "internalType": "uint256",
          "name": "value",
          "type": "uint256"
        },
        {
          "internalType": "bytes",
          "name": "data",
          "type": "bytes"
        },
        {
          "internalType": "bytes32",
          "name": "predecessor",
          "type": "bytes32"
        },
        {
          "internalType": "bytes32",
          "name": "salt",
          "type": "bytes32"
        }
      ],
      "name": "execute",
      "outputs": [],
      "stateMutability": "payable",
      "type": "function"
    },
    {
      "inputs": [
        {
          "internalType": "address[]",
          "name": "targets",
          "type": "address[]"
        },
        {
          "internalType": "uint256[]",
          "name": "values",
          "type": "uint256[]"
        },
        {
          "internalType": "bytes[]",
          "name": "datas",
          "type": "bytes[]"
        },
        {
          "internalType": "bytes32",
          "name": "predecessor",
          "type": "bytes32"
        },
        {
          "internalType": "bytes32",
          "name": "salt",
          "type": "bytes32"
        }
      ],
      "name": "executeBatch",
      "outputs": [],
      "stateMutability": "payable",
      "type": "function"
    },
    {
      "inputs": [],
      "name": "getMinDelay",
      "outputs": [
        {
          "internalType": "uint256",
          "name": "duration",
          "type": "uint256"
        }
      ],
      "stateMutability": "view",
      "type": "function"
    },
    {
      "inputs": [
        {
          "internalType": "bytes32",
          "name": "role",
          "type": "bytes32"
        }
      ],
      "name": "getRoleAdmin",
      "outputs": [
        {
          "internalType": "bytes32",
          "name": "",
          "type": "bytes32"
        }
      ],
      "stateMutability": "view",
      "type": "function"
    },
    {
      "inputs": [
        {
          "internalType": "bytes32",
          "name": "role",
          "type": "bytes32"
        },
        {
          "internalType": "uint256",
          "name": "index",
          "type": "uint256"
        }
      ],
      "name": "getRoleMember",
      "outputs": [
        {
          "internalType": "address",
          "name": "",
          "type": "address"
        }
      ],
      "stateMutability": "view",
      "type": "function"
    },
    {
      "inputs": [
        {
          "internalType": "bytes32",
          "name": "role",
          "type": "bytes32"
        }
      ],
      "name": "getRoleMemberCount",
      "outputs": [
        {
          "internalType": "uint256",
          "name": "",
          "type": "uint256"
        }
      ],
      "stateMutability": "view",
      "type": "function"
    },
    {
      "inputs": [
        {
          "internalType": "bytes32",
          "name": "id",
          "type": "bytes32"
        }
      ],
      "name": "getTimestamp",
      "outputs": [
        {
          "internalType": "uint256",
          "name": "timestamp",
          "type": "uint256"
        }
      ],
      "stateMutability": "view",
      "type": "function"
    },
    {
      "inputs": [
        {
          "internalType": "bytes32",
          "name": "role",
          "type": "bytes32"
        },
        {
          "internalType": "address",
          "name": "account",
          "type": "address"
        }
      ],
      "name": "grantRole",
      "outputs": [],
      "stateMutability": "nonpayable",
      "type": "function"
    },
    {
      "inputs": [
        {
          "internalType": "bytes32",
          "name": "role",
          "type": "bytes32"
        },
        {
          "internalType": "address",
          "name": "account",
          "type": "address"
        }
      ],
      "name": "hasRole",
      "outputs": [
        {
          "internalType": "bool",
          "name": "",
          "type": "bool"
        }
      ],
      "stateMutability": "view",
      "type": "function"
    },
    {
      "inputs": [
        {
          "internalType": "address",
          "name": "target",
          "type": "address"
        },
        {
          "internalType": "uint256",
          "name": "value",
          "type": "uint256"
        },
        {
          "internalType": "bytes",
          "name": "data",
          "type": "bytes"
        },
        {
          "internalType": "bytes32",
          "name": "predecessor",
          "type": "bytes32"
        },
        {
          "internalType": "bytes32",
          "name": "salt",
          "type": "bytes32"
        }
      ],
      "name": "hashOperation",
      "outputs": [
        {
          "internalType": "bytes32",
          "name": "hash",
          "type": "bytes32"
        }
      ],
      "stateMutability": "pure",
      "type": "function"
    },
    {
      "inputs": [
        {
          "internalType": "address[]",
          "name": "targets",
          "type": "address[]"
        },
        {
          "internalType": "uint256[]",
          "name": "values",
          "type": "uint256[]"
        },
        {
          "internalType": "bytes[]",
          "name": "datas",
          "type": "bytes[]"
        },
        {
          "internalType": "bytes32",
          "name": "predecessor",
          "type": "bytes32"
        },
        {
          "internalType": "bytes32",
          "name": "salt",
          "type": "bytes32"
        }
      ],
      "name": "hashOperationBatch",
      "outputs": [
        {
          "internalType": "bytes32",
          "name": "hash",
          "type": "bytes32"
        }
      ],
      "stateMutability": "pure",
      "type": "function"
    },
    {
      "inputs": [
        {
          "internalType": "bytes32",
          "name": "id",
          "type": "bytes32"
        }
      ],
      "name": "isOperation",
      "outputs": [
        {
          "internalType": "bool",
          "name": "pending",
          "type": "bool"
        }
      ],
      "stateMutability": "view",
      "type": "function"
    },
    {
      "inputs": [
        {
          "internalType": "bytes32",
          "name": "id",
          "type": "bytes32"
        }
      ],
      "name": "isOperationDone",
      "outputs": [
        {
          "internalType": "bool",
          "name": "done",
          "type": "bool"
        }
      ],
      "stateMutability": "view",
      "type": "function"
    },
    {
      "inputs": [
        {
          "internalType": "bytes32",
          "name": "id",
          "type": "bytes32"
        }
      ],
      "name": "isOperationPending",
      "outputs": [
        {
          "internalType": "bool",
          "name": "pending",
          "type": "bool"
        }
      ],
      "stateMutability": "view",
      "type": "function"
    },
    {
      "inputs": [
        {
          "internalType": "bytes32",
          "name": "id",
          "type": "bytes32"
        }
      ],
      "name": "isOperationReady",
      "outputs": [
        {
          "internalType": "bool",
          "name": "ready",
          "type": "bool"
        }
      ],
      "stateMutability": "view",
      "type": "function"
    },
    {
      "inputs": [
        {
          "internalType": "bytes32",
          "name": "role",
          "type": "bytes32"
        },
        {
          "internalType": "address",
          "name": "account",
          "type": "address"
        }
      ],
      "name": "renounceRole",
      "outputs": [],
      "stateMutability": "nonpayable",
      "type": "function"
    },
    {
      "inputs": [
        {
          "internalType": "bytes32",
          "name": "role",
          "type": "bytes32"
        },
        {
          "internalType": "address",
          "name": "account",
          "type": "address"
        }
      ],
      "name": "revokeRole",
      "outputs": [],
      "stateMutability": "nonpayable",
      "type": "function"
    },
    {
      "inputs": [
        {
          "internalType": "address",
          "name": "target",
          "type": "address"
        },
        {
          "internalType": "uint256",
          "name": "value",
          "type": "uint256"
        },
        {
          "internalType": "bytes",
          "name": "data",
          "type": "bytes"
        },
        {
          "internalType": "bytes32",
          "name": "predecessor",
          "type": "bytes32"
        },
        {
          "internalType": "bytes32",
          "name": "salt",
          "type": "bytes32"
        },
        {
          "internalType": "uint256",
          "name": "delay",
          "type": "uint256"
        }
      ],
      "name": "schedule",
      "outputs": [],
      "stateMutability": "nonpayable",
      "type": "function"
    },
    {
      "inputs": [
        {
          "internalType": "address[]",
          "name": "targets",
          "type": "address[]"
        },
        {
          "internalType": "uint256[]",
          "name": "values",
          "type": "uint256[]"
        },
        {
          "internalType": "bytes[]",
          "name": "datas",
          "type": "bytes[]"
        },
        {
          "internalType": "bytes32",
          "name": "predecessor",
          "type": "bytes32"
        },
        {
          "internalType": "bytes32",
          "name": "salt",
          "type": "bytes32"
        },
        {
          "internalType": "uint256",
          "name": "delay",
          "type": "uint256"
        }
      ],
      "name": "scheduleBatch",
      "outputs": [],
      "stateMutability": "nonpayable",
      "type": "function"
    },
    {
      "inputs": [
        {
          "internalType": "uint256",
          "name": "newDelay",
          "type": "uint256"
        }
      ],
      "name": "updateDelay",
      "outputs": [],
      "stateMutability": "nonpayable",
      "type": "function"
    },
    {
      "stateMutability": "payable",
      "type": "receive"
    }
  ],
  "transactionHash": "0xe4f2c2cd72620311b5d2275f70199b19659fb43adb4762025fb80948b3e596d7",
  "args": [
    60,
    [
      "0x7B2B75a20fb006c4bEC5361Ba28Aa3635cB0C83B"
    ],
    [
      "0x7B2B75a20fb006c4bEC5361Ba28Aa3635cB0C83B"
    ]
  ],
  "solcInputHash": "a48360f4c85458219f0e0ba11a25c0c2",
  "bytecode": "0x60806040523480156200001157600080fd5b506040516200201d3803806200201d8339810160408190526200003491620003d4565b8282826200005260008051602062001fbd83398151915280620001b7565b6200007c60008051602062001fdd83398151915260008051602062001fbd833981519152620001b7565b620000a660008051602062001ffd83398151915260008051602062001fbd833981519152620001b7565b620000ca60008051602062001fbd833981519152620000c462000209565b6200020d565b620000e560008051602062001fbd833981519152306200020d565b60005b825181101562000130576200012760008051602062001fdd8339815191528483815181106200011357fe5b60200260200101516200020d60201b60201c565b600101620000e8565b5060005b815181101562000168576200015f60008051602062001ffd8339815191528383815181106200011357fe5b60010162000134565b5060028390556040517f11c24f4ead16507c69ac467fbd5e4eed5fb5c699626d2cc6d66421df253886d590620001a390600090869062000445565b60405180910390a150505050505062000453565b600082815260208190526040808220600201549051839285917fbd79b86ffe0ab8e8776151514217cd7cacd52c909f66475c3af44e129f0b00ff9190a460009182526020829052604090912060020155565b3390565b6200021982826200021d565b5050565b6000828152602081815260409091206200024291839062000d2a62000296821b17901c565b1562000219576200025262000209565b6001600160a01b0316816001600160a01b0316837f2f8788117e7eff1d82e926ec794901d17c78024a50270940304540a733656f0d60405160405180910390a45050565b6000620002ad836001600160a01b038416620002b6565b90505b92915050565b6000620002c4838362000305565b620002fc57508154600181810184556000848152602080822090930184905584548482528286019093526040902091909155620002b0565b506000620002b0565b60009081526001919091016020526040902054151590565b80516001600160a01b03811681146200033557600080fd5b919050565b600082601f8301126200034b578081fd5b815160206001600160401b03808311156200036257fe5b818302604051838282010181811084821117156200037c57fe5b604052848152838101925086840182880185018910156200039b578687fd5b8692505b85831015620003c857620003b3816200031d565b8452928401926001929092019184016200039f565b50979650505050505050565b600080600060608486031215620003e9578283fd5b835160208501519093506001600160401b038082111562000408578384fd5b62000416878388016200033a565b935060408601519150808211156200042c578283fd5b506200043b868287016200033a565b9150509250925092565b918252602082015260400190565b611b5a80620004636000396000f3fe6080604052600436106101855760003560e01c80638065657f116100d1578063b1c5f4271161008a578063d45c443511610064578063d45c44351461044a578063d547741f1461046a578063e38335e51461048a578063f27a0c921461049d5761018c565b8063b1c5f427146103ea578063c4d252f51461040a578063ca15c8731461042a5761018c565b80638065657f146103335780638f2a0bb0146103535780638f61f4f5146103735780639010d07c1461038857806391d14854146103b5578063a217fddf146103d55761018c565b8063248a9ca31161013e57806331d507501161011857806331d50750146102b357806336568abe146102d3578063584b153e146102f357806364d62353146103135761018c565b8063248a9ca3146102535780632ab0f529146102735780632f2ff15d146102935761018c565b806301d5062a1461019157806307bd0265146101b35780630d3cf6fc146101de57806310df76b8146101f3578063134008d31461021357806313bc9f20146102265761018c565b3661018c57005b600080fd5b34801561019d57600080fd5b506101b16101ac366004611311565b6104b2565b005b3480156101bf57600080fd5b506101c861056e565b6040516101d5919061173b565b60405180910390f35b3480156101ea57600080fd5b506101c8610592565b3480156101ff57600080fd5b506101b161020e366004611289565b6105b6565b6101b16102213660046112a5565b610667565b34801561023257600080fd5b506102466102413660046114d9565b6106ff565b6040516101d59190611730565b34801561025f57600080fd5b506101c861026e3660046114d9565b610724565b34801561027f57600080fd5b5061024661028e3660046114d9565b610739565b34801561029f57600080fd5b506101b16102ae3660046114f1565b61074d565b3480156102bf57600080fd5b506102466102ce3660046114d9565b6107b4565b3480156102df57600080fd5b506101b16102ee3660046114f1565b6107c7565b3480156102ff57600080fd5b5061024661030e3660046114d9565b610828565b34801561031f57600080fd5b506101b161032e3660046114d9565b610835565b34801561033f57600080fd5b506101c861034e3660046112a5565b610894565b34801561035f57600080fd5b506101b161036e36600461142b565b6108d3565b34801561037f57600080fd5b506101c8610a29565b34801561039457600080fd5b506103a86103a3366004611520565b610a3b565b6040516101d59190611606565b3480156103c157600080fd5b506102466103d03660046114f1565b610a5c565b3480156103e157600080fd5b506101c8610a74565b3480156103f657600080fd5b506101c8610405366004611386565b610a79565b34801561041657600080fd5b506101b16104253660046114d9565b610abe565b34801561043657600080fd5b506101c86104453660046114d9565b610b67565b34801561045657600080fd5b506101c86104653660046114d9565b610b7e565b34801561047657600080fd5b506101b16104853660046114f1565b610b90565b6101b1610498366004611386565b610be9565b3480156104a957600080fd5b506101c8610d24565b600080516020611ad68339815191526104cd816103d0610d3f565b806104de57506104de816000610a5c565b6105035760405162461bcd60e51b81526004016104fa906117cd565b60405180910390fd5b6000610513898989898989610894565b905061051f8184610d43565b6000817f4cf4410cc57040e44862ef0f45f3dd5a5e02db8eb8add648d4b0e236f1d07dca8b8b8b8b8b8a60405161055b9695949392919061164c565b60405180910390a3505050505050505050565b7fd8aa0f3194971a2a116679f7c2090f6939c8d4e01a2a8d7e41d55e5351469e6381565b7f5f58e3a2316349923ce3780f8d587db2d72378aed66a8261c916544fa6846ca581565b7f5f58e3a2316349923ce3780f8d587db2d72378aed66a8261c916544fa6846ca56105e3816103d0610d3f565b806105f457506105f4816000610a5c565b6106105760405162461bcd60e51b81526004016104fa906117cd565b816001600160a01b031663ebbc49656040518163ffffffff1660e01b8152600401600060405180830381600087803b15801561064b57600080fd5b505af115801561065f573d6000803e3d6000fd5b505050505050565b7fd8aa0f3194971a2a116679f7c2090f6939c8d4e01a2a8d7e41d55e5351469e63610694816103d0610d3f565b806106a557506106a5816000610a5c565b6106c15760405162461bcd60e51b81526004016104fa906117cd565b60006106d1888888888888610894565b90506106dd8185610db0565b6106ec8160008a8a8a8a610e02565b6106f581610eca565b5050505050505050565b60008061070b83610b7e565b905060018111801561071d5750428111155b9392505050565b60009081526020819052604090206002015490565b6000600161074683610b7e565b1492915050565b60008281526020819052604090206002015461076b906103d0610d3f565b6107a65760405162461bcd60e51b815260040180806020018281038252602f815260200180611a77602f913960400191505060405180910390fd5b6107b08282610f03565b5050565b6000806107c083610b7e565b1192915050565b6107cf610d3f565b6001600160a01b0316816001600160a01b03161461081e5760405162461bcd60e51b815260040180806020018281038252602f815260200180611af6602f913960400191505060405180910390fd5b6107b08282610f6c565b600060016107c083610b7e565b3330146108545760405162461bcd60e51b81526004016104fa9061194b565b7f11c24f4ead16507c69ac467fbd5e4eed5fb5c699626d2cc6d66421df253886d5600254826040516108879291906119e9565b60405180910390a1600255565b60008686868686866040516020016108b19695949392919061164c565b6040516020818303038152906040528051906020012090509695505050505050565b600080516020611ad68339815191526108ee816103d0610d3f565b806108ff57506108ff816000610a5c565b61091b5760405162461bcd60e51b81526004016104fa906117cd565b88871461093a5760405162461bcd60e51b81526004016104fa9061178a565b8885146109595760405162461bcd60e51b81526004016104fa9061178a565b600061096b8b8b8b8b8b8b8b8b610a79565b90506109778184610d43565b60005b8a811015610a1b5780827f4cf4410cc57040e44862ef0f45f3dd5a5e02db8eb8add648d4b0e236f1d07dca8e8e858181106109b157fe5b90506020020160208101906109c69190611289565b8d8d868181106109d257fe5b905060200201358c8c878181106109e557fe5b90506020028101906109f791906119f7565b8c8b604051610a0b9695949392919061164c565b60405180910390a360010161097a565b505050505050505050505050565b600080516020611ad683398151915281565b6000828152602081905260408120610a539083610fd5565b90505b92915050565b6000828152602081905260408120610a539083610fe1565b600081565b60008888888888888888604051602001610a9a989796959493929190611689565b60405160208183030381529060405280519060200120905098975050505050505050565b600080516020611ad6833981519152610ad9816103d0610d3f565b80610aea5750610aea816000610a5c565b610b065760405162461bcd60e51b81526004016104fa906117cd565b610b0f82610828565b610b2b5760405162461bcd60e51b81526004016104fa906118fa565b6000828152600160205260408082208290555183917fbaa1eb22f2a492ba1a5fea61b8df4d27c6c8b5f3971e63bb58fa14ff72eedb7091a25050565b6000818152602081905260408120610a5690610ff6565b60009081526001602052604090205490565b600082815260208190526040902060020154610bae906103d0610d3f565b61081e5760405162461bcd60e51b8152600401808060200182810382526030815260200180611aa66030913960400191505060405180910390fd5b7fd8aa0f3194971a2a116679f7c2090f6939c8d4e01a2a8d7e41d55e5351469e63610c16816103d0610d3f565b80610c275750610c27816000610a5c565b610c435760405162461bcd60e51b81526004016104fa906117cd565b878614610c625760405162461bcd60e51b81526004016104fa9061178a565b878414610c815760405162461bcd60e51b81526004016104fa9061178a565b6000610c938a8a8a8a8a8a8a8a610a79565b9050610c9f8185610db0565b60005b89811015610d0e57610d0682828d8d85818110610cbb57fe5b9050602002016020810190610cd09190611289565b8c8c86818110610cdc57fe5b905060200201358b8b87818110610cef57fe5b9050602002810190610d0191906119f7565b610e02565b600101610ca2565b50610d1881610eca565b50505050505050505050565b60025490565b6000610a53836001600160a01b038416611001565b3390565b610d4c826107b4565b15610d695760405162461bcd60e51b81526004016104fa90611861565b610d71610d24565b811015610d905760405162461bcd60e51b81526004016104fa9061181b565b610d9a428261104b565b6000928352600160205260409092209190915550565b610db9826106ff565b610dd55760405162461bcd60e51b81526004016104fa906118b0565b801580610de65750610de681610739565b6107b05760405162461bcd60e51b81526004016104fa90611744565b6000846001600160a01b0316848484604051610e1f9291906115f6565b60006040518083038185875af1925050503d8060008114610e5c576040519150601f19603f3d011682016040523d82523d6000602084013e610e61565b606091505b5050905080610e825760405162461bcd60e51b81526004016104fa90611996565b85877fc2617efa69bab66782fa219543714338489c4e9e178271560a91b82c3f612b5887878787604051610eb9949392919061161a565b60405180910390a350505050505050565b610ed3816106ff565b610eef5760405162461bcd60e51b81526004016104fa906118b0565b600090815260016020819052604090912055565b6000828152602081905260409020610f1b9082610d2a565b156107b057610f28610d3f565b6001600160a01b0316816001600160a01b0316837f2f8788117e7eff1d82e926ec794901d17c78024a50270940304540a733656f0d60405160405180910390a45050565b6000828152602081905260409020610f8490826110a5565b156107b057610f91610d3f565b6001600160a01b0316816001600160a01b0316837ff6391f5c32d9c69d2a47ea670b442974b53935d1edc7fd64eb21e047a839171b60405160405180910390a45050565b6000610a5383836110ba565b6000610a53836001600160a01b03841661111e565b6000610a5682611136565b600061100d838361111e565b61104357508154600181810184556000848152602080822090930184905584548482528286019093526040902091909155610a56565b506000610a56565b600082820183811015610a53576040805162461bcd60e51b815260206004820152601b60248201527f536166654d6174683a206164646974696f6e206f766572666c6f770000000000604482015290519081900360640190fd5b6000610a53836001600160a01b03841661113a565b815460009082106110fc5760405162461bcd60e51b8152600401808060200182810382526022815260200180611a556022913960400191505060405180910390fd5b82600001828154811061110b57fe5b9060005260206000200154905092915050565b60009081526001919091016020526040902054151590565b5490565b600081815260018301602052604081205480156111f6578354600019808301919081019060009087908390811061116d57fe5b906000526020600020015490508087600001848154811061118a57fe5b6000918252602080832090910192909255828152600189810190925260409020908401905586548790806111ba57fe5b60019003818190600052602060002001600090559055866001016000878152602001908152602001600020600090556001945050505050610a56565b6000915050610a56565b60008083601f840112611211578182fd5b50813567ffffffffffffffff811115611228578182fd5b602083019150836020808302850101111561124257600080fd5b9250929050565b60008083601f84011261125a578182fd5b50813567ffffffffffffffff811115611271578182fd5b60208301915083602082850101111561124257600080fd5b60006020828403121561129a578081fd5b8135610a5381611a3c565b60008060008060008060a087890312156112bd578182fd5b86356112c881611a3c565b955060208701359450604087013567ffffffffffffffff8111156112ea578283fd5b6112f689828a01611249565b979a9699509760608101359660809091013595509350505050565b600080600080600080600060c0888a03121561132b578081fd5b873561133681611a3c565b965060208801359550604088013567ffffffffffffffff811115611358578182fd5b6113648a828b01611249565b989b979a50986060810135976080820135975060a09091013595509350505050565b60008060008060008060008060a0898b0312156113a1578081fd5b883567ffffffffffffffff808211156113b8578283fd5b6113c48c838d01611200565b909a50985060208b01359150808211156113dc578283fd5b6113e88c838d01611200565b909850965060408b0135915080821115611400578283fd5b5061140d8b828c01611200565b999c989b509699959896976060870135966080013595509350505050565b600080600080600080600080600060c08a8c031215611448578081fd5b893567ffffffffffffffff8082111561145f578283fd5b61146b8d838e01611200565b909b50995060208c0135915080821115611483578283fd5b61148f8d838e01611200565b909950975060408c01359150808211156114a7578283fd5b506114b48c828d01611200565b9a9d999c50979a969997986060880135976080810135975060a0013595509350505050565b6000602082840312156114ea578081fd5b5035919050565b60008060408385031215611503578182fd5b82359150602083013561151581611a3c565b809150509250929050565b60008060408385031215611532578182fd5b50508035926020909101359150565b818352602080840193600091908185020181018584845b878110156115bf5782840389528135601e19883603018112611578578687fd5b8701803567ffffffffffffffff811115611590578788fd5b80360389131561159e578788fd5b6115ab86828985016115cc565b9a87019a9550505090840190600101611558565b5091979650505050505050565b60008284528282602086013780602084860101526020601f19601f85011685010190509392505050565b6000828483379101908152919050565b6001600160a01b0391909116815260200190565b600060018060a01b0386168252846020830152606060408301526116426060830184866115cc565b9695505050505050565b600060018060a01b038816825286602083015260a0604083015261167460a0830186886115cc565b60608301949094525060800152949350505050565b60a0808252810188905260008960c08301825b8b8110156116cc5782356116af81611a3c565b6001600160a01b031682526020928301929091019060010161169c565b5083810360208501528881526001600160fb1b038911156116eb578283fd5b602089029150818a6020830137016020818101838152848303909101604085015261171781888a611541565b6060850196909652505050608001529695505050505050565b901515815260200190565b90815260200190565b60208082526026908201527f54696d656c6f636b436f6e74726f6c6c65723a206d697373696e6720646570656040820152656e64656e637960d01b606082015260800190565b60208082526023908201527f54696d656c6f636b436f6e74726f6c6c65723a206c656e677468206d69736d616040820152620e8c6d60eb1b606082015260800190565b6020808252602e908201527f54696d656c6f636b436f6e74726f6c6c65723a2073656e64657220726571756960408201526d3932b9903832b936b4b9b9b4b7b760911b606082015260800190565b60208082526026908201527f54696d656c6f636b436f6e74726f6c6c65723a20696e73756666696369656e746040820152652064656c617960d01b606082015260800190565b6020808252602f908201527f54696d656c6f636b436f6e74726f6c6c65723a206f7065726174696f6e20616c60408201526e1c9958591e481cd8da19591d5b1959608a1b606082015260800190565b6020808252602a908201527f54696d656c6f636b436f6e74726f6c6c65723a206f7065726174696f6e206973604082015269206e6f7420726561647960b01b606082015260800190565b60208082526031908201527f54696d656c6f636b436f6e74726f6c6c65723a206f7065726174696f6e2063616040820152701b9b9bdd0818994818d85b98d95b1b1959607a1b606082015260800190565b6020808252602b908201527f54696d656c6f636b436f6e74726f6c6c65723a2063616c6c6572206d7573742060408201526a62652074696d656c6f636b60a81b606082015260800190565b60208082526033908201527f54696d656c6f636b436f6e74726f6c6c65723a20756e6465726c79696e6720746040820152721c985b9cd858dd1a5bdb881c995d995c9d1959606a1b606082015260800190565b918252602082015260400190565b6000808335601e19843603018112611a0d578283fd5b83018035915067ffffffffffffffff821115611a27578283fd5b60200191503681900382131561124257600080fd5b6001600160a01b0381168114611a5157600080fd5b5056fe456e756d657261626c655365743a20696e646578206f7574206f6620626f756e6473416363657373436f6e74726f6c3a2073656e646572206d75737420626520616e2061646d696e20746f206772616e74416363657373436f6e74726f6c3a2073656e646572206d75737420626520616e2061646d696e20746f207265766f6b65b09aa5aeb3702cfd50b6b62bc4532604938f21248a27a1d5ca736082b6819cc1416363657373436f6e74726f6c3a2063616e206f6e6c792072656e6f756e636520726f6c657320666f722073656c66a2646970667358221220737fa53a31fbbf6bc30576cb602d0a0f75825d7f9900fcb85906ee53d895b6ee64736f6c634300070600335f58e3a2316349923ce3780f8d587db2d72378aed66a8261c916544fa6846ca5b09aa5aeb3702cfd50b6b62bc4532604938f21248a27a1d5ca736082b6819cc1d8aa0f3194971a2a116679f7c2090f6939c8d4e01a2a8d7e41d55e5351469e63",
  "devdoc": {
    "kind": "dev",
    "methods": {
      "cancel(bytes32)": {
        "details": "Cancel an operation. Requirements: - the caller must have the 'proposer' role."
      },
      "execute(address,uint256,bytes,bytes32,bytes32)": {
        "details": "Execute an (ready) operation containing a single transaction. Emits a {CallExecuted} event. Requirements: - the caller must have the 'executor' role."
      },
      "executeBatch(address[],uint256[],bytes[],bytes32,bytes32)": {
        "details": "Execute an (ready) operation containing a batch of transactions. Emits one {CallExecuted} event per transaction in the batch. Requirements: - the caller must have the 'executor' role."
      },
      "getMinDelay()": {
        "details": "Returns the minimum delay for an operation to become valid. This value can be changed by executing an operation that calls `updateDelay`."
      },
      "getRoleAdmin(bytes32)": {
        "details": "Returns the admin role that controls `role`. See {grantRole} and {revokeRole}. To change a role's admin, use {_setRoleAdmin}."
      },
      "getRoleMember(bytes32,uint256)": {
        "details": "Returns one of the accounts that have `role`. `index` must be a value between 0 and {getRoleMemberCount}, non-inclusive. Role bearers are not sorted in any particular way, and their ordering may change at any point. WARNING: When using {getRoleMember} and {getRoleMemberCount}, make sure you perform all queries on the same block. See the following https://forum.openzeppelin.com/t/iterating-over-elements-on-enumerableset-in-openzeppelin-contracts/2296[forum post] for more information."
      },
      "getRoleMemberCount(bytes32)": {
        "details": "Returns the number of accounts that have `role`. Can be used together with {getRoleMember} to enumerate all bearers of a role."
      },
      "getTimestamp(bytes32)": {
        "details": "Returns the timestamp at with an operation becomes ready (0 for unset operations, 1 for done operations)."
      },
      "grantRole(bytes32,address)": {
        "details": "Grants `role` to `account`. If `account` had not been already granted `role`, emits a {RoleGranted} event. Requirements: - the caller must have ``role``'s admin role."
      },
      "hasRole(bytes32,address)": {
        "details": "Returns `true` if `account` has been granted `role`."
      },
      "hashOperation(address,uint256,bytes,bytes32,bytes32)": {
        "details": "Returns the identifier of an operation containing a single transaction."
      },
      "hashOperationBatch(address[],uint256[],bytes[],bytes32,bytes32)": {
        "details": "Returns the identifier of an operation containing a batch of transactions."
      },
      "isOperation(bytes32)": {
        "details": "Returns whether an id correspond to a registered operation. This includes both Pending, Ready and Done operations."
      },
      "isOperationDone(bytes32)": {
        "details": "Returns whether an operation is done or not."
      },
      "isOperationPending(bytes32)": {
        "details": "Returns whether an operation is pending or not."
      },
      "isOperationReady(bytes32)": {
        "details": "Returns whether an operation is ready or not."
      },
      "renounceRole(bytes32,address)": {
        "details": "Revokes `role` from the calling account. Roles are often managed via {grantRole} and {revokeRole}: this function's purpose is to provide a mechanism for accounts to lose their privileges if they are compromised (such as when a trusted device is misplaced). If the calling account had been granted `role`, emits a {RoleRevoked} event. Requirements: - the caller must be `account`."
      },
      "revokeRole(bytes32,address)": {
        "details": "Revokes `role` from `account`. If `account` had been granted `role`, emits a {RoleRevoked} event. Requirements: - the caller must have ``role``'s admin role."
      },
      "schedule(address,uint256,bytes,bytes32,bytes32,uint256)": {
        "details": "Schedule an operation containing a single transaction. Emits a {CallScheduled} event. Requirements: - the caller must have the 'proposer' role."
      },
      "scheduleBatch(address[],uint256[],bytes[],bytes32,bytes32,uint256)": {
        "details": "Schedule an operation containing a batch of transactions. Emits one {CallScheduled} event per transaction in the batch. Requirements: - the caller must have the 'proposer' role."
      },
      "updateDelay(uint256)": {
        "details": "Changes the minimum timelock duration for future operations. Emits a {MinDelayChange} event. Requirements: - the caller must be the timelock itself. This can only be achieved by scheduling and later executing an operation where the timelock is the target and the data is the ABI-encoded call to this function."
      }
    },
    "version": 1
  },
  "userdoc": {
    "kind": "user",
    "methods": {},
    "version": 1
  },
  "storageLayout": {
    "storage": [
      {
        "astId": 22,
        "contract": "contracts/core/TimeLocker.sol:TimeLocker",
        "label": "_roles",
        "offset": 0,
        "slot": "0",
        "type": "t_mapping(t_bytes32,t_struct(RoleData)18_storage)"
      },
      {
        "astId": 315,
        "contract": "contracts/core/TimeLocker.sol:TimeLocker",
        "label": "_timestamps",
        "offset": 0,
        "slot": "1",
        "type": "t_mapping(t_bytes32,t_uint256)"
      },
      {
        "astId": 317,
        "contract": "contracts/core/TimeLocker.sol:TimeLocker",
        "label": "_minDelay",
        "offset": 0,
        "slot": "2",
        "type": "t_uint256"
      }
    ],
    "types": {
      "t_array(t_bytes32)dyn_storage": {
        "base": "t_bytes32",
        "encoding": "dynamic_array",
        "label": "bytes32[]",
        "numberOfBytes": "32"
      },
      "t_bytes32": {
        "encoding": "inplace",
        "label": "bytes32",
        "numberOfBytes": "32"
      },
      "t_mapping(t_bytes32,t_struct(RoleData)18_storage)": {
        "encoding": "mapping",
        "key": "t_bytes32",
        "label": "mapping(bytes32 => struct AccessControl.RoleData)",
        "numberOfBytes": "32",
        "value": "t_struct(RoleData)18_storage"
      },
      "t_mapping(t_bytes32,t_uint256)": {
        "encoding": "mapping",
        "key": "t_bytes32",
        "label": "mapping(bytes32 => uint256)",
        "numberOfBytes": "32",
        "value": "t_uint256"
      },
      "t_struct(AddressSet)3033_storage": {
        "encoding": "inplace",
        "label": "struct EnumerableSet.AddressSet",
        "members": [
          {
            "astId": 3032,
            "contract": "contracts/core/TimeLocker.sol:TimeLocker",
            "label": "_inner",
            "offset": 0,
            "slot": "0",
            "type": "t_struct(Set)2768_storage"
          }
        ],
        "numberOfBytes": "64"
      },
      "t_struct(RoleData)18_storage": {
        "encoding": "inplace",
        "label": "struct AccessControl.RoleData",
        "members": [
          {
            "astId": 15,
            "contract": "contracts/core/TimeLocker.sol:TimeLocker",
            "label": "members",
            "offset": 0,
            "slot": "0",
            "type": "t_struct(AddressSet)3033_storage"
          },
          {
            "astId": 17,
            "contract": "contracts/core/TimeLocker.sol:TimeLocker",
            "label": "adminRole",
            "offset": 0,
            "slot": "2",
            "type": "t_bytes32"
          }
        ],
        "numberOfBytes": "96"
      },
      "t_struct(Set)2768_storage": {
        "encoding": "inplace",
        "label": "struct EnumerableSet.Set",
        "members": [
          {
            "astId": 2763,
            "contract": "contracts/core/TimeLocker.sol:TimeLocker",
            "label": "_values",
            "offset": 0,
            "slot": "0",
            "type": "t_array(t_bytes32)dyn_storage"
          },
          {
            "astId": 2767,
            "contract": "contracts/core/TimeLocker.sol:TimeLocker",
            "label": "_indexes",
            "offset": 0,
            "slot": "1",
            "type": "t_mapping(t_bytes32,t_uint256)"
          }
        ],
        "numberOfBytes": "64"
      },
      "t_uint256": {
        "encoding": "inplace",
        "label": "uint256",
        "numberOfBytes": "32"
      }
    }
  }
}