{
  "address": "0x7B2B75a20fb006c4bEC5361Ba28Aa3635cB0C83B",
  "abi": [
    {
      "inputs": [
        {
          "internalType": "contract IERC20",
          "name": "_token",
          "type": "address"
        },
        {
          "internalType": "address[]",
          "name": "_signaturer",
          "type": "address[]"
        },
        {
          "internalType": "uint256",
          "name": "_minNum",
          "type": "uint256"
        }
      ],
      "stateMutability": "nonpayable",
      "type": "constructor"
    },
    {
      "anonymous": false,
      "inputs": [
        {
          "indexed": false,
          "internalType": "address",
          "name": "requester",
          "type": "address"
        },
        {
          "indexed": false,
          "internalType": "address",
          "name": "minter",
          "type": "address"
        },
        {
          "indexed": false,
          "internalType": "uint256",
          "name": "maxAmount",
          "type": "uint256"
        },
        {
          "indexed": false,
          "internalType": "uint256",
          "name": "requestAt",
          "type": "uint256"
        },
        {
          "indexed": false,
          "internalType": "uint256",
          "name": "expireAt",
          "type": "uint256"
        },
        {
          "indexed": false,
          "internalType": "bytes32",
          "name": "salt",
          "type": "bytes32"
        },
        {
          "indexed": false,
          "internalType": "address",
          "name": "acceptor",
          "type": "address"
        },
        {
          "indexed": false,
          "internalType": "uint256",
          "name": "currentNum",
          "type": "uint256"
        }
      ],
      "name": "AcceptAddMinter",
      "type": "event"
    },
    {
      "anonymous": false,
      "inputs": [
        {
          "indexed": false,
          "internalType": "address",
          "name": "requester",
          "type": "address"
        },
        {
          "indexed": false,
          "internalType": "address",
          "name": "minter",
          "type": "address"
        },
        {
          "indexed": false,
          "internalType": "uint256",
          "name": "requestAt",
          "type": "uint256"
        },
        {
          "indexed": false,
          "internalType": "uint256",
          "name": "expireAt",
          "type": "uint256"
        },
        {
          "indexed": false,
          "internalType": "bytes32",
          "name": "salt",
          "type": "bytes32"
        },
        {
          "indexed": false,
          "internalType": "address",
          "name": "acceptor",
          "type": "address"
        },
        {
          "indexed": false,
          "internalType": "uint256",
          "name": "currentNum",
          "type": "uint256"
        }
      ],
      "name": "AcceptDelMinter",
      "type": "event"
    },
    {
      "anonymous": false,
      "inputs": [
        {
          "indexed": false,
          "internalType": "address",
          "name": "requester",
          "type": "address"
        },
        {
          "indexed": false,
          "internalType": "address",
          "name": "owner",
          "type": "address"
        },
        {
          "indexed": false,
          "internalType": "uint256",
          "name": "requestAt",
          "type": "uint256"
        },
        {
          "indexed": false,
          "internalType": "uint256",
          "name": "expireAt",
          "type": "uint256"
        },
        {
          "indexed": false,
          "internalType": "bytes32",
          "name": "salt",
          "type": "bytes32"
        },
        {
          "indexed": false,
          "internalType": "address",
          "name": "acceptor",
          "type": "address"
        },
        {
          "indexed": false,
          "internalType": "uint256",
          "name": "currentNum",
          "type": "uint256"
        }
      ],
      "name": "AcceptSetPendingOwner",
      "type": "event"
    },
    {
      "anonymous": false,
      "inputs": [
        {
          "indexed": false,
          "internalType": "address",
          "name": "requester",
          "type": "address"
        },
        {
          "indexed": false,
          "internalType": "address",
          "name": "minter",
          "type": "address"
        },
        {
          "indexed": false,
          "internalType": "uint256",
          "name": "maxAmount",
          "type": "uint256"
        },
        {
          "indexed": false,
          "internalType": "uint256",
          "name": "requestAt",
          "type": "uint256"
        },
        {
          "indexed": false,
          "internalType": "uint256",
          "name": "expireAt",
          "type": "uint256"
        },
        {
          "indexed": false,
          "internalType": "bytes32",
          "name": "salt",
          "type": "bytes32"
        }
      ],
      "name": "ApplyAddMinter",
      "type": "event"
    },
    {
      "anonymous": false,
      "inputs": [
        {
          "indexed": false,
          "internalType": "address",
          "name": "requester",
          "type": "address"
        },
        {
          "indexed": false,
          "internalType": "address",
          "name": "minter",
          "type": "address"
        },
        {
          "indexed": false,
          "internalType": "uint256",
          "name": "requestAt",
          "type": "uint256"
        },
        {
          "indexed": false,
          "internalType": "uint256",
          "name": "expireAt",
          "type": "uint256"
        },
        {
          "indexed": false,
          "internalType": "bytes32",
          "name": "salt",
          "type": "bytes32"
        }
      ],
      "name": "ApplyDelMinter",
      "type": "event"
    },
    {
      "anonymous": false,
      "inputs": [
        {
          "indexed": false,
          "internalType": "address",
          "name": "requester",
          "type": "address"
        },
        {
          "indexed": false,
          "internalType": "address",
          "name": "owner",
          "type": "address"
        },
        {
          "indexed": false,
          "internalType": "uint256",
          "name": "requestAt",
          "type": "uint256"
        },
        {
          "indexed": false,
          "internalType": "uint256",
          "name": "expireAt",
          "type": "uint256"
        },
        {
          "indexed": false,
          "internalType": "bytes32",
          "name": "salt",
          "type": "bytes32"
        }
      ],
      "name": "ApplySetPendingOwner",
      "type": "event"
    },
    {
      "anonymous": false,
      "inputs": [
        {
          "indexed": false,
          "internalType": "address",
          "name": "oldTimeLocker",
          "type": "address"
        },
        {
          "indexed": false,
          "internalType": "address",
          "name": "newTimeLocker",
          "type": "address"
        }
      ],
      "name": "NewTimeLocker",
      "type": "event"
    },
    {
      "anonymous": false,
      "inputs": [
        {
          "indexed": true,
          "internalType": "bytes32",
          "name": "role",
          "type": "bytes32"
        },
        {
          "indexed": true,
          "internalType": "bytes32",
          "name": "previousAdminRole",
          "type": "bytes32"
        },
        {
          "indexed": true,
          "internalType": "bytes32",
          "name": "newAdminRole",
          "type": "bytes32"
        }
      ],
      "name": "RoleAdminChanged",
      "type": "event"
    },
    {
      "anonymous": false,
      "inputs": [
        {
          "indexed": true,
          "internalType": "bytes32",
          "name": "role",
          "type": "bytes32"
        },
        {
          "indexed": true,
          "internalType": "address",
          "name": "account",
          "type": "address"
        },
        {
          "indexed": true,
          "internalType": "address",
          "name": "sender",
          "type": "address"
        }
      ],
      "name": "RoleGranted",
      "type": "event"
    },
    {
      "anonymous": false,
      "inputs": [
        {
          "indexed": true,
          "internalType": "bytes32",
          "name": "role",
          "type": "bytes32"
        },
        {
          "indexed": true,
          "internalType": "address",
          "name": "account",
          "type": "address"
        },
        {
          "indexed": true,
          "internalType": "address",
          "name": "sender",
          "type": "address"
        }
      ],
      "name": "RoleRevoked",
      "type": "event"
    },
    {
      "inputs": [],
      "name": "DEFAULT_ADMIN_ROLE",
      "outputs": [
        {
          "internalType": "bytes32",
          "name": "",
          "type": "bytes32"
        }
      ],
      "stateMutability": "view",
      "type": "function"
    },
    {
      "inputs": [],
      "name": "SIGNATURE_MIN_NUM",
      "outputs": [
        {
          "internalType": "uint256",
          "name": "",
          "type": "uint256"
        }
      ],
      "stateMutability": "view",
      "type": "function"
    },
    {
      "inputs": [],
      "name": "SIGNER_ROLE",
      "outputs": [
        {
          "internalType": "bytes32",
          "name": "",
          "type": "bytes32"
        }
      ],
      "stateMutability": "view",
      "type": "function"
    },
    {
      "inputs": [
        {
          "internalType": "address",
          "name": "_requester",
          "type": "address"
        },
        {
          "internalType": "address",
          "name": "_minter",
          "type": "address"
        },
        {
          "internalType": "uint256",
          "name": "_maxAmount",
          "type": "uint256"
        },
        {
          "internalType": "uint256",
          "name": "_requestAt",
          "type": "uint256"
        },
        {
          "internalType": "uint256",
          "name": "_expireAt",
          "type": "uint256"
        },
        {
          "internalType": "bytes32",
          "name": "_salt",
          "type": "bytes32"
        }
      ],
      "name": "acceptAddMinter",
      "outputs": [],
      "stateMutability": "nonpayable",
      "type": "function"
    },
    {
      "inputs": [
        {
          "internalType": "address",
          "name": "_requester",
          "type": "address"
        },
        {
          "internalType": "address",
          "name": "_minter",
          "type": "address"
        },
        {
          "internalType": "uint256",
          "name": "_requestAt",
          "type": "uint256"
        },
        {
          "internalType": "uint256",
          "name": "_expireAt",
          "type": "uint256"
        },
        {
          "internalType": "bytes32",
          "name": "_salt",
          "type": "bytes32"
        }
      ],
      "name": "acceptDelMinter",
      "outputs": [],
      "stateMutability": "nonpayable",
      "type": "function"
    },
    {
      "inputs": [
        {
          "internalType": "address",
          "name": "_requester",
          "type": "address"
        },
        {
          "internalType": "address",
          "name": "_owner",
          "type": "address"
        },
        {
          "internalType": "uint256",
          "name": "_requestAt",
          "type": "uint256"
        },
        {
          "internalType": "uint256",
          "name": "_expireAt",
          "type": "uint256"
        },
        {
          "internalType": "bytes32",
          "name": "_salt",
          "type": "bytes32"
        }
      ],
      "name": "acceptSetPendingOwner",
      "outputs": [],
      "stateMutability": "nonpayable",
      "type": "function"
    },
    {
      "inputs": [
        {
          "internalType": "address",
          "name": "minter",
          "type": "address"
        },
        {
          "internalType": "uint256",
          "name": "maxAmount",
          "type": "uint256"
        },
        {
          "internalType": "uint256",
          "name": "expireAt",
          "type": "uint256"
        },
        {
          "internalType": "bytes32",
          "name": "salt",
          "type": "bytes32"
        }
      ],
      "name": "applyAddMinter",
      "outputs": [],
      "stateMutability": "nonpayable",
      "type": "function"
    },
    {
      "inputs": [
        {
          "internalType": "address",
          "name": "minter",
          "type": "address"
        },
        {
          "internalType": "uint256",
          "name": "expireAt",
          "type": "uint256"
        },
        {
          "internalType": "bytes32",
          "name": "salt",
          "type": "bytes32"
        }
      ],
      "name": "applyDelMinter",
      "outputs": [],
      "stateMutability": "nonpayable",
      "type": "function"
    },
    {
      "inputs": [
        {
          "internalType": "address",
          "name": "owner",
          "type": "address"
        },
        {
          "internalType": "uint256",
          "name": "expireAt",
          "type": "uint256"
        },
        {
          "internalType": "bytes32",
          "name": "salt",
          "type": "bytes32"
        }
      ],
      "name": "applySetPendingOwner",
      "outputs": [],
      "stateMutability": "nonpayable",
      "type": "function"
    },
    {
      "inputs": [
        {
          "internalType": "address",
          "name": "_minter",
          "type": "address"
        },
        {
          "internalType": "uint256",
          "name": "_maxAmount",
          "type": "uint256"
        },
        {
          "internalType": "bytes32",
          "name": "_salt",
          "type": "bytes32"
        }
      ],
      "name": "executeAddMinter",
      "outputs": [],
      "stateMutability": "nonpayable",
      "type": "function"
    },
    {
      "inputs": [
        {
          "internalType": "address",
          "name": "_minter",
          "type": "address"
        },
        {
          "internalType": "bytes32",
          "name": "_salt",
          "type": "bytes32"
        }
      ],
      "name": "executeDelMinter",
      "outputs": [],
      "stateMutability": "nonpayable",
      "type": "function"
    },
    {
      "inputs": [
        {
          "internalType": "address",
          "name": "_owner",
          "type": "address"
        },
        {
          "internalType": "bytes32",
          "name": "_salt",
          "type": "bytes32"
        }
      ],
      "name": "executeSetPendingOwner",
      "outputs": [],
      "stateMutability": "nonpayable",
      "type": "function"
    },
    {
      "inputs": [
        {
          "internalType": "bytes32",
          "name": "role",
          "type": "bytes32"
        }
      ],
      "name": "getRoleAdmin",
      "outputs": [
        {
          "internalType": "bytes32",
          "name": "",
          "type": "bytes32"
        }
      ],
      "stateMutability": "view",
      "type": "function"
    },
    {
      "inputs": [
        {
          "internalType": "bytes32",
          "name": "role",
          "type": "bytes32"
        },
        {
          "internalType": "uint256",
          "name": "index",
          "type": "uint256"
        }
      ],
      "name": "getRoleMember",
      "outputs": [
        {
          "internalType": "address",
          "name": "",
          "type": "address"
        }
      ],
      "stateMutability": "view",
      "type": "function"
    },
    {
      "inputs": [
        {
          "internalType": "bytes32",
          "name": "role",
          "type": "bytes32"
        }
      ],
      "name": "getRoleMemberCount",
      "outputs": [
        {
          "internalType": "uint256",
          "name": "",
          "type": "uint256"
        }
      ],
      "stateMutability": "view",
      "type": "function"
    },
    {
      "inputs": [
        {
          "internalType": "bytes32",
          "name": "role",
          "type": "bytes32"
        },
        {
          "internalType": "address",
          "name": "account",
          "type": "address"
        }
      ],
      "name": "grantRole",
      "outputs": [],
      "stateMutability": "nonpayable",
      "type": "function"
    },
    {
      "inputs": [
        {
          "internalType": "bytes32",
          "name": "role",
          "type": "bytes32"
        },
        {
          "internalType": "address",
          "name": "account",
          "type": "address"
        }
      ],
      "name": "hasRole",
      "outputs": [
        {
          "internalType": "bool",
          "name": "",
          "type": "bool"
        }
      ],
      "stateMutability": "view",
      "type": "function"
    },
    {
      "inputs": [
        {
          "internalType": "bytes32",
          "name": "role",
          "type": "bytes32"
        },
        {
          "internalType": "address",
          "name": "account",
          "type": "address"
        }
      ],
      "name": "renounceRole",
      "outputs": [],
      "stateMutability": "nonpayable",
      "type": "function"
    },
    {
      "inputs": [
        {
          "internalType": "bytes32",
          "name": "role",
          "type": "bytes32"
        },
        {
          "internalType": "address",
          "name": "account",
          "type": "address"
        }
      ],
      "name": "revokeRole",
      "outputs": [],
      "stateMutability": "nonpayable",
      "type": "function"
    },
    {
      "inputs": [
        {
          "internalType": "address",
          "name": "_newSignature",
          "type": "address"
        }
      ],
      "name": "setSignature",
      "outputs": [],
      "stateMutability": "nonpayable",
      "type": "function"
    },
    {
      "inputs": [
        {
          "internalType": "contract TimeLocker",
          "name": "_timeLocker",
          "type": "address"
        }
      ],
      "name": "setTimeLocker",
      "outputs": [],
      "stateMutability": "nonpayable",
      "type": "function"
    },
    {
      "inputs": [
        {
          "internalType": "bytes32",
          "name": "",
          "type": "bytes32"
        }
      ],
      "name": "signatureNum",
      "outputs": [
        {
          "internalType": "uint256",
          "name": "",
          "type": "uint256"
        }
      ],
      "stateMutability": "view",
      "type": "function"
    },
    {
      "inputs": [],
      "name": "timeLocker",
      "outputs": [
        {
          "internalType": "contract TimeLocker",
          "name": "",
          "type": "address"
        }
      ],
      "stateMutability": "view",
      "type": "function"
    },
    {
      "inputs": [],
      "name": "token",
      "outputs": [
        {
          "internalType": "contract IERC20",
          "name": "",
          "type": "address"
        }
      ],
      "stateMutability": "view",
      "type": "function"
    },
    {
      "inputs": [
        {
          "internalType": "bytes32",
          "name": "",
          "type": "bytes32"
        }
      ],
      "name": "transactions",
      "outputs": [
        {
          "internalType": "bool",
          "name": "",
          "type": "bool"
        }
      ],
      "stateMutability": "view",
      "type": "function"
    }
  ],
  "transactionHash": "0xd530fe7952521e11145757bd50d81e046dc715531a55a9df1297d45dfecbc021",
  "args": [
    "0x9a1a5B4a1A32196d686CbaC9145830F33a9013d1",
    [
      "0xe44c51aF9B8D1CF2a7427469662d41A01D28566D",
      "0xC17467954aC0f98721D541AcB86D686C854E098e",
      "0xD2a41045cfCCd973C966943C55552ed62064EfBA"
    ],
    2
  ],
  "solcInputHash": "a48360f4c85458219f0e0ba11a25c0c2",
  "bytecode": "0x60a06040523480156200001157600080fd5b5060405162002101380380620021018339810160408190526200003491620002c0565b6001600160a01b038316620000665760405162461bcd60e51b81526004016200005d90620003a0565b60405180910390fd5b600180546001600160a01b0319166001600160a01b03851617905560005b82518110156200012157620000c3600080516020620020e1833981519152848381518110620000af57fe5b60200260200101516200015f60201b60201c565b15620000e35760405162461bcd60e51b81526004016200005d90620003c7565b62000118600080516020620020e18339815191528483815181106200010457fe5b60200260200101516200018c60201b60201c565b60010162000084565b5060008111801562000134575081518111155b620001535760405162461bcd60e51b81526004016200005d90620003fe565b608052506200043f9050565b6000828152602081815260408220620001839184906200138f6200019c821b17901c565b90505b92915050565b620001988282620001b3565b5050565b600062000183836001600160a01b0384166200022c565b600082815260208181526040909120620001d8918390620013a462000244821b17901c565b156200019857620001e86200025b565b6001600160a01b0316816001600160a01b0316837f2f8788117e7eff1d82e926ec794901d17c78024a50270940304540a733656f0d60405160405180910390a45050565b60009081526001919091016020526040902054151590565b600062000183836001600160a01b0384166200025f565b3390565b60006200026d83836200022c565b620002a55750815460018181018455600084815260208082209093018490558454848252828601909352604090209190915562000186565b50600062000186565b8051620002bb8162000426565b919050565b600080600060608486031215620002d5578283fd5b8351620002e28162000426565b602085810151919450906001600160401b038082111562000301578485fd5b818701915087601f83011262000315578485fd5b8151818111156200032257fe5b838102604051858282010181811085821117156200033c57fe5b604052828152858101935084860182860187018c10156200035b578889fd5b8895505b8386101562000388576200037381620002ae565b8552600195909501949386019386016200035f565b50809750505050505050604084015190509250925092565b6020808252600d908201526c34b63632b3b0b6103a37b5b2b760991b604082015260600190565b60208082526019908201527f6164647265737320616c7265616479207369676e617475726500000000000000604082015260600190565b6020808252600e908201526d696c6c6567616c206d696e4e756d60901b604082015260600190565b6001600160a01b03811681146200043c57600080fd5b50565b608051611c7862000469600039806105b352806109075280610afc52806110bf5250611c786000f3fe608060405234801561001057600080fd5b50600436106101735760003560e01c80639010d07c116100de578063bdd9383e11610097578063d792fd5c11610071578063d792fd5c14610318578063ea12aebd14610320578063f5ce6d8d14610333578063fc0c546a1461034657610173565b8063bdd9383e146102df578063ca15c873146102f2578063d547741f1461030557610173565b80639010d07c1461027657806391d1485414610296578063a1ebf35d146102a9578063a217fddf146102b1578063a652dabc146102b9578063a8a67cd2146102cc57610173565b806347a9648d1161013057806347a9648d146102025780635314acbe146102155780635909e9d71461021d578063642f2eaf1461023057806369955e0814610250578063750572be1461026357610173565b806307aa10431461017857806310d41a3a1461018d578063248a9ca3146101a05780632f2ff15d146101c957806336568abe146101dc5780633778235e146101ef575b600080fd5b61018b61018636600461164b565b61034e565b005b61018b61019b36600461166e565b6103e0565b6101b36101ae3660046117af565b610706565b6040516101c09190611a3c565b60405180910390f35b61018b6101d73660046117c7565b61071b565b61018b6101ea3660046117c7565b610782565b61018b6101fd36600461164b565b6107e3565b61018b610210366004611741565b61084e565b6101b3610905565b61018b61022b36600461166e565b610929565b61024361023e3660046117af565b610bbb565b6040516101c09190611a31565b61018b61025e366004611741565b610bd0565b61018b610271366004611741565b610ca6565b6102896102843660046117f6565b610d6e565b6040516101c0919061187a565b6102436102a43660046117c7565b610d8f565b6101b3610da7565b6101b3610db9565b61018b6102c7366004611716565b610dbe565b61018b6102da366004611716565b610e6a565b61018b6102ed3660046116be565b610ee8565b6101b36103003660046117af565b611214565b61018b6103133660046117c7565b61122b565b610289611284565b6101b361032e3660046117af565b611293565b61018b610341366004611775565b6112a5565b610289611380565b6002546001600160a01b0316156103805760405162461bcd60e51b815260040161037790611a45565b60405180910390fd5b600280546001600160a01b0319166001600160a01b0383811691909117918290556040517f34f09017aa2a4f4f67449ec66612e7e0a23cd82cacb02145088f4060996a1a83926103d59260009291169061188e565b60405180910390a150565b8242101580156103f05750814211155b61040c5760405162461bcd60e51b815260040161037790611b37565b610426600080516020611bf48339815191526102a46113b9565b6104425760405162461bcd60e51b815260040161037790611b00565b6000858585858560405160200161045d9594939291906118a8565b60408051601f1981840301815291815281516020928301206000818152600390935291205490915060ff166104a45760405162461bcd60e51b815260040161037790611a70565b6000818152600560205260408120906104bb6113b9565b6001600160a01b0316815260208101919091526040016000205460ff16156104f55760405162461bcd60e51b815260040161037790611ac9565b6000818152600460209081526040808320805460019081019091556005909252822090916105216113b9565b6001600160a01b031681526020810191909152604001600020805460ff19169115159190911790557fae5e82f9173939b4cac1436ec129eecad9ea6fbd0299c9e8dcb0d36e9541beee86868686866105776113b9565b6000888152600460205260409081902054905161059a979695949392919061190f565b60405180910390a16000818152600460205260409020547f0000000000000000000000000000000000000000000000000000000000000000116106fe576002546001546040516001600160a01b03928316926301d5062a921690600090610605908a9060240161187a565b60408051601f19818403018152918152602080830180516001600160e01b0316630466717160e31b179052600254825163793d064960e11b815292516000938b936001600160a01b039093169263f27a0c9292600480840193829003018186803b15801561067257600080fd5b505afa158015610686573d6000803e3d6000fd5b505050506040513d601f19601f820116820180604052508101906106aa9190611817565b6040518763ffffffff1660e01b81526004016106cb969594939291906119d3565b600060405180830381600087803b1580156106e557600080fd5b505af11580156106f9573d6000803e3d6000fd5b505050505b505050505050565b60009081526020819052604090206002015490565b600082815260208190526040902060020154610739906102a46113b9565b6107745760405162461bcd60e51b815260040180806020018281038252602f815260200180611b95602f913960400191505060405180910390fd5b61077e82826113bd565b5050565b61078a6113b9565b6001600160a01b0316816001600160a01b0316146107d95760405162461bcd60e51b815260040180806020018281038252602f815260200180611c14602f913960400191505060405180910390fd5b61077e8282611426565b6107fd600080516020611bf48339815191526102a46113b9565b6108195760405162461bcd60e51b815260040161037790611b00565b610833600080516020611bf48339815191526101ea6113b9565b61084b600080516020611bf483398151915282610774565b50565b6002546001546040516001600160a01b039283169263134008d392169060009061087e9088908890602401611a18565b60408051601f198184030181529181526020820180516001600160e01b0316631d84922d60e21b1790525160e085901b6001600160e01b03191681526108ce939291906000908890600401611998565b600060405180830381600087803b1580156108e857600080fd5b505af11580156108fc573d6000803e3d6000fd5b50505050505050565b7f000000000000000000000000000000000000000000000000000000000000000081565b8242101580156109395750814211155b6109555760405162461bcd60e51b815260040161037790611b37565b61096f600080516020611bf48339815191526102a46113b9565b61098b5760405162461bcd60e51b815260040161037790611b00565b600085858585856040516020016109a69594939291906118a8565b60408051601f1981840301815291815281516020928301206000818152600390935291205490915060ff166109ed5760405162461bcd60e51b815260040161037790611a70565b600081815260056020526040812090610a046113b9565b6001600160a01b0316815260208101919091526040016000205460ff1615610a3e5760405162461bcd60e51b815260040161037790611ac9565b600081815260046020908152604080832080546001908101909155600590925282209091610a6a6113b9565b6001600160a01b031681526020810191909152604001600020805460ff19169115159190911790557f570d30912567aafec1f25c4160b90e9ca102fad59a1e506072e0de6d321152be8686868686610ac06113b9565b60008881526004602052604090819020549051610ae3979695949392919061190f565b60405180910390a16000818152600460205260409020547f0000000000000000000000000000000000000000000000000000000000000000116106fe576002546001546040516001600160a01b03928316926301d5062a921690600090610b4e908a9060240161187a565b60408051601f19818403018152918152602080830180516001600160e01b03166331081a7b60e21b179052600254825163793d064960e11b815292516000938b936001600160a01b039093169263f27a0c9292600480840193829003018186803b15801561067257600080fd5b60036020526000908152604090205460ff1681565b6000610bda6113b9565b84428585604051602001610bf29594939291906118a8565b60408051601f1981840301815291815281516020928301206000818152600390935291205490915060ff1615610c3a5760405162461bcd60e51b815260040161037790611a9a565b6000818152600360209081526040808320805460ff19166001179055600490915280822091909155517f8ece089eb42becf2f14e565e17dabb1d4ac0f0d2109fbda1aec62c0c6e47372a90610c9890339087904290889088906118a8565b60405180910390a150505050565b6000610cb06113b9565b84428585604051602001610cc89594939291906118a8565b60408051601f1981840301815291815281516020928301206000818152600390935291205490915060ff1615610d105760405162461bcd60e51b815260040161037790611a9a565b6000818152600360209081526040808320805460ff19166001179055600490915280822091909155517f997fc751a2bd040de5ef7aec77117794559c5773a709e28a980d303c2394487e90610c9890339087904290889088906118a8565b6000828152602081905260408120610d86908361148f565b90505b92915050565b6000828152602081905260408120610d86908361138f565b600080516020611bf483398151915281565b600081565b6002546001546040516001600160a01b039283169263134008d3921690600090610dec90879060240161187a565b60408051601f198184030181529181526020820180516001600160e01b03166331081a7b60e21b1790525160e085901b6001600160e01b0319168152610e3c939291906000908890600401611998565b600060405180830381600087803b158015610e5657600080fd5b505af11580156106fe573d6000803e3d6000fd5b6002546001546040516001600160a01b039283169263134008d3921690600090610e9890879060240161187a565b60408051601f198184030181529181526020820180516001600160e01b0316630466717160e31b1790525160e085901b6001600160e01b0319168152610e3c939291906000908890600401611998565b824210158015610ef85750814211155b610f145760405162461bcd60e51b815260040161037790611b37565b610f2e600080516020611bf48339815191526102a46113b9565b610f4a5760405162461bcd60e51b815260040161037790611b00565b6000868686868686604051602001610f67969594939291906118d9565b60408051601f1981840301815291815281516020928301206000818152600390935291205490915060ff16610fae5760405162461bcd60e51b815260040161037790611a70565b600081815260056020526040812090610fc56113b9565b6001600160a01b0316815260208101919091526040016000205460ff1615610fff5760405162461bcd60e51b815260040161037790611ac9565b60008181526004602090815260408083208054600190810190915560059092528220909161102b6113b9565b6001600160a01b031681526020810191909152604001600020805460ff19169115159190911790557fa3b3e18e7c98592adb629b7ac36ac3b969b78c81d5d3bb00174181dd0eb9ad3a8787878787876110826113b9565b600089815260046020526040908190205490516110a698979695949392919061194f565b60405180910390a16000818152600460205260409020547f0000000000000000000000000000000000000000000000000000000000000000116108fc576002546001546040516001600160a01b03928316926301d5062a921690600090611113908b908b90602401611a18565b60408051601f19818403018152918152602080830180516001600160e01b0316631d84922d60e21b179052600254825163793d064960e11b815292516000938b936001600160a01b039093169263f27a0c9292600480840193829003018186803b15801561118057600080fd5b505afa158015611194573d6000803e3d6000fd5b505050506040513d601f19601f820116820180604052508101906111b89190611817565b6040518763ffffffff1660e01b81526004016111d9969594939291906119d3565b600060405180830381600087803b1580156111f357600080fd5b505af1158015611207573d6000803e3d6000fd5b5050505050505050505050565b6000818152602081905260408120610d899061149b565b600082815260208190526040902060020154611249906102a46113b9565b6107d95760405162461bcd60e51b8152600401808060200182810382526030815260200180611bc46030913960400191505060405180910390fd5b6002546001600160a01b031681565b60046020526000908152604090205481565b60006112af6113b9565b85854286866040516020016112c9969594939291906118d9565b60408051601f1981840301815291815281516020928301206000818152600390935291205490915060ff16156113115760405162461bcd60e51b815260040161037790611a9a565b6000818152600360209081526040808320805460ff19166001179055600490915280822091909155517fcaf44b79cf74994bd1910d0bd4eaa72132403ac532fcd7c84f28c3dbc50ffd9290611371903390889088904290899089906118d9565b60405180910390a15050505050565b6001546001600160a01b031681565b6000610d86836001600160a01b0384166114a6565b6000610d86836001600160a01b0384166114be565b3390565b60008281526020819052604090206113d590826113a4565b1561077e576113e26113b9565b6001600160a01b0316816001600160a01b0316837f2f8788117e7eff1d82e926ec794901d17c78024a50270940304540a733656f0d60405160405180910390a45050565b600082815260208190526040902061143e9082611508565b1561077e5761144b6113b9565b6001600160a01b0316816001600160a01b0316837ff6391f5c32d9c69d2a47ea670b442974b53935d1edc7fd64eb21e047a839171b60405160405180910390a45050565b6000610d86838361151d565b6000610d8982611581565b60009081526001919091016020526040902054151590565b60006114ca83836114a6565b61150057508154600181810184556000848152602080822090930184905584548482528286019093526040902091909155610d89565b506000610d89565b6000610d86836001600160a01b038416611585565b8154600090821061155f5760405162461bcd60e51b8152600401808060200182810382526022815260200180611b736022913960400191505060405180910390fd5b82600001828154811061156e57fe5b9060005260206000200154905092915050565b5490565b6000818152600183016020526040812054801561164157835460001980830191908101906000908790839081106115b857fe5b90600052602060002001549050808760000184815481106115d557fe5b60009182526020808320909101929092558281526001898101909252604090209084019055865487908061160557fe5b60019003818190600052602060002001600090559055866001016000878152602001908152602001600020600090556001945050505050610d89565b6000915050610d89565b60006020828403121561165c578081fd5b813561166781611b5d565b9392505050565b600080600080600060a08688031215611685578081fd5b853561169081611b5d565b945060208601356116a081611b5d565b94979496505050506040830135926060810135926080909101359150565b60008060008060008060c087890312156116d6578081fd5b86356116e181611b5d565b955060208701356116f181611b5d565b95989597505050506040840135936060810135936080820135935060a0909101359150565b60008060408385031215611728578182fd5b823561173381611b5d565b946020939093013593505050565b600080600060608486031215611755578283fd5b833561176081611b5d565b95602085013595506040909401359392505050565b6000806000806080858703121561178a578384fd5b843561179581611b5d565b966020860135965060408601359560600135945092505050565b6000602082840312156117c0578081fd5b5035919050565b600080604083850312156117d9578182fd5b8235915060208301356117eb81611b5d565b809150509250929050565b60008060408385031215611808578182fd5b50508035926020909101359150565b600060208284031215611828578081fd5b5051919050565b60008151808452815b8181101561185457602081850181015186830182015201611838565b818111156118655782602083870101525b50601f01601f19169290920160200192915050565b6001600160a01b0391909116815260200190565b6001600160a01b0392831681529116602082015260400190565b6001600160a01b03958616815293909416602084015260408301919091526060820152608081019190915260a00190565b6001600160a01b03968716815294909516602085015260408401929092526060830152608082015260a081019190915260c00190565b6001600160a01b039788168152958716602087015260408601949094526060850192909252608084015290921660a082015260c081019190915260e00190565b6001600160a01b039889168152968816602088015260408701959095526060860193909352608085019190915260a084015290921660c082015260e08101919091526101000190565b600060018060a01b038716825285602083015260a060408301526119bf60a083018661182f565b606083019490945250608001529392505050565b600060018060a01b038816825286602083015260c060408301526119fa60c083018761182f565b606083019590955250608081019290925260a0909101529392505050565b6001600160a01b03929092168252602082015260400190565b901515815260200190565b90815260200190565b602080825260119082015270185b1c9958591e481899481cd95d1d1959607a1b604082015260600190565b60208082526010908201526f6170706c79206e6f742065786973747360801b604082015260600190565b602080825260159082015274185c1c1b1e48185b1c9958591e481c995c5d595cdd605a1b604082015260600190565b6020808252601a908201527f7369676e617475726520616c7265616479206163636570746564000000000000604082015260600190565b60208082526019908201527f63616c6c6572206973206e6f742061207369676e617475726500000000000000604082015260600190565b6020808252600c908201526b696c6c6567616c2074696d6560a01b604082015260600190565b6001600160a01b038116811461084b57600080fdfe456e756d657261626c655365743a20696e646578206f7574206f6620626f756e6473416363657373436f6e74726f6c3a2073656e646572206d75737420626520616e2061646d696e20746f206772616e74416363657373436f6e74726f6c3a2073656e646572206d75737420626520616e2061646d696e20746f207265766f6b65a80db7254a39a29982aece50fa9776b38d8bc707abc848d7083d4562d087a9d8416363657373436f6e74726f6c3a2063616e206f6e6c792072656e6f756e636520726f6c657320666f722073656c66a26469706673582212207676ba174f9f5c98899f7ebf5e89ad31577dfa4a4af239179d9376c0d5e651d064736f6c63430007060033a80db7254a39a29982aece50fa9776b38d8bc707abc848d7083d4562d087a9d8",
  "devdoc": {
    "kind": "dev",
    "methods": {
      "getRoleAdmin(bytes32)": {
        "details": "Returns the admin role that controls `role`. See {grantRole} and {revokeRole}. To change a role's admin, use {_setRoleAdmin}."
      },
      "getRoleMember(bytes32,uint256)": {
        "details": "Returns one of the accounts that have `role`. `index` must be a value between 0 and {getRoleMemberCount}, non-inclusive. Role bearers are not sorted in any particular way, and their ordering may change at any point. WARNING: When using {getRoleMember} and {getRoleMemberCount}, make sure you perform all queries on the same block. See the following https://forum.openzeppelin.com/t/iterating-over-elements-on-enumerableset-in-openzeppelin-contracts/2296[forum post] for more information."
      },
      "getRoleMemberCount(bytes32)": {
        "details": "Returns the number of accounts that have `role`. Can be used together with {getRoleMember} to enumerate all bearers of a role."
      },
      "grantRole(bytes32,address)": {
        "details": "Grants `role` to `account`. If `account` had not been already granted `role`, emits a {RoleGranted} event. Requirements: - the caller must have ``role``'s admin role."
      },
      "hasRole(bytes32,address)": {
        "details": "Returns `true` if `account` has been granted `role`."
      },
      "renounceRole(bytes32,address)": {
        "details": "Revokes `role` from the calling account. Roles are often managed via {grantRole} and {revokeRole}: this function's purpose is to provide a mechanism for accounts to lose their privileges if they are compromised (such as when a trusted device is misplaced). If the calling account had been granted `role`, emits a {RoleRevoked} event. Requirements: - the caller must be `account`."
      },
      "revokeRole(bytes32,address)": {
        "details": "Revokes `role` from `account`. If `account` had been granted `role`, emits a {RoleRevoked} event. Requirements: - the caller must have ``role``'s admin role."
      }
    },
    "version": 1
  },
  "userdoc": {
    "kind": "user",
    "methods": {},
    "version": 1
  },
  "storageLayout": {
    "storage": [
      {
        "astId": 22,
        "contract": "contracts/token/TokenControllerMultiSignature.sol:TokenControllerMultiSignature",
        "label": "_roles",
        "offset": 0,
        "slot": "0",
        "type": "t_mapping(t_bytes32,t_struct(RoleData)18_storage)"
      },
      {
        "astId": 12175,
        "contract": "contracts/token/TokenControllerMultiSignature.sol:TokenControllerMultiSignature",
        "label": "token",
        "offset": 0,
        "slot": "1",
        "type": "t_contract(IERC20)2225"
      },
      {
        "astId": 12177,
        "contract": "contracts/token/TokenControllerMultiSignature.sol:TokenControllerMultiSignature",
        "label": "timeLocker",
        "offset": 0,
        "slot": "2",
        "type": "t_contract(TimeLocker)3525"
      },
      {
        "astId": 12181,
        "contract": "contracts/token/TokenControllerMultiSignature.sol:TokenControllerMultiSignature",
        "label": "transactions",
        "offset": 0,
        "slot": "3",
        "type": "t_mapping(t_bytes32,t_bool)"
      },
      {
        "astId": 12185,
        "contract": "contracts/token/TokenControllerMultiSignature.sol:TokenControllerMultiSignature",
        "label": "signatureNum",
        "offset": 0,
        "slot": "4",
        "type": "t_mapping(t_bytes32,t_uint256)"
      },
      {
        "astId": 12191,
        "contract": "contracts/token/TokenControllerMultiSignature.sol:TokenControllerMultiSignature",
        "label": "signatureRecord",
        "offset": 0,
        "slot": "5",
        "type": "t_mapping(t_bytes32,t_mapping(t_address,t_bool))"
      }
    ],
    "types": {
      "t_address": {
        "encoding": "inplace",
        "label": "address",
        "numberOfBytes": "20"
      },
      "t_array(t_bytes32)dyn_storage": {
        "base": "t_bytes32",
        "encoding": "dynamic_array",
        "label": "bytes32[]",
        "numberOfBytes": "32"
      },
      "t_bool": {
        "encoding": "inplace",
        "label": "bool",
        "numberOfBytes": "1"
      },
      "t_bytes32": {
        "encoding": "inplace",
        "label": "bytes32",
        "numberOfBytes": "32"
      },
      "t_contract(IERC20)2225": {
        "encoding": "inplace",
        "label": "contract IERC20",
        "numberOfBytes": "20"
      },
      "t_contract(TimeLocker)3525": {
        "encoding": "inplace",
        "label": "contract TimeLocker",
        "numberOfBytes": "20"
      },
      "t_mapping(t_address,t_bool)": {
        "encoding": "mapping",
        "key": "t_address",
        "label": "mapping(address => bool)",
        "numberOfBytes": "32",
        "value": "t_bool"
      },
      "t_mapping(t_bytes32,t_bool)": {
        "encoding": "mapping",
        "key": "t_bytes32",
        "label": "mapping(bytes32 => bool)",
        "numberOfBytes": "32",
        "value": "t_bool"
      },
      "t_mapping(t_bytes32,t_mapping(t_address,t_bool))": {
        "encoding": "mapping",
        "key": "t_bytes32",
        "label": "mapping(bytes32 => mapping(address => bool))",
        "numberOfBytes": "32",
        "value": "t_mapping(t_address,t_bool)"
      },
      "t_mapping(t_bytes32,t_struct(RoleData)18_storage)": {
        "encoding": "mapping",
        "key": "t_bytes32",
        "label": "mapping(bytes32 => struct AccessControl.RoleData)",
        "numberOfBytes": "32",
        "value": "t_struct(RoleData)18_storage"
      },
      "t_mapping(t_bytes32,t_uint256)": {
        "encoding": "mapping",
        "key": "t_bytes32",
        "label": "mapping(bytes32 => uint256)",
        "numberOfBytes": "32",
        "value": "t_uint256"
      },
      "t_struct(AddressSet)3033_storage": {
        "encoding": "inplace",
        "label": "struct EnumerableSet.AddressSet",
        "members": [
          {
            "astId": 3032,
            "contract": "contracts/token/TokenControllerMultiSignature.sol:TokenControllerMultiSignature",
            "label": "_inner",
            "offset": 0,
            "slot": "0",
            "type": "t_struct(Set)2768_storage"
          }
        ],
        "numberOfBytes": "64"
      },
      "t_struct(RoleData)18_storage": {
        "encoding": "inplace",
        "label": "struct AccessControl.RoleData",
        "members": [
          {
            "astId": 15,
            "contract": "contracts/token/TokenControllerMultiSignature.sol:TokenControllerMultiSignature",
            "label": "members",
            "offset": 0,
            "slot": "0",
            "type": "t_struct(AddressSet)3033_storage"
          },
          {
            "astId": 17,
            "contract": "contracts/token/TokenControllerMultiSignature.sol:TokenControllerMultiSignature",
            "label": "adminRole",
            "offset": 0,
            "slot": "2",
            "type": "t_bytes32"
          }
        ],
        "numberOfBytes": "96"
      },
      "t_struct(Set)2768_storage": {
        "encoding": "inplace",
        "label": "struct EnumerableSet.Set",
        "members": [
          {
            "astId": 2763,
            "contract": "contracts/token/TokenControllerMultiSignature.sol:TokenControllerMultiSignature",
            "label": "_values",
            "offset": 0,
            "slot": "0",
            "type": "t_array(t_bytes32)dyn_storage"
          },
          {
            "astId": 2767,
            "contract": "contracts/token/TokenControllerMultiSignature.sol:TokenControllerMultiSignature",
            "label": "_indexes",
            "offset": 0,
            "slot": "1",
            "type": "t_mapping(t_bytes32,t_uint256)"
          }
        ],
        "numberOfBytes": "64"
      },
      "t_uint256": {
        "encoding": "inplace",
        "label": "uint256",
        "numberOfBytes": "32"
      }
    }
  }
}