{
  "address": "0x456469b4FCd1993A734fe7caE3bE039aB946BA9A",
  "abi": [
    {
      "inputs": [],
      "stateMutability": "nonpayable",
      "type": "constructor"
    },
    {
      "anonymous": false,
      "inputs": [
        {
          "indexed": true,
          "internalType": "address",
          "name": "owner",
          "type": "address"
        },
        {
          "indexed": true,
          "internalType": "address",
          "name": "spender",
          "type": "address"
        },
        {
          "indexed": false,
          "internalType": "uint256",
          "name": "value",
          "type": "uint256"
        }
      ],
      "name": "Approval",
      "type": "event"
    },
    {
      "anonymous": false,
      "inputs": [
        {
          "indexed": true,
          "internalType": "address",
          "name": "previousPendingOwner",
          "type": "address"
        },
        {
          "indexed": true,
          "internalType": "address",
          "name": "newPendingOwner",
          "type": "address"
        }
      ],
      "name": "ChangePendingOwner",
      "type": "event"
    },
    {
      "anonymous": false,
      "inputs": [
        {
          "indexed": true,
          "internalType": "address",
          "name": "delegator",
          "type": "address"
        },
        {
          "indexed": true,
          "internalType": "address",
          "name": "fromDelegate",
          "type": "address"
        },
        {
          "indexed": true,
          "internalType": "address",
          "name": "toDelegate",
          "type": "address"
        }
      ],
      "name": "DelegateChanged",
      "type": "event"
    },
    {
      "anonymous": false,
      "inputs": [
        {
          "indexed": true,
          "internalType": "address",
          "name": "delegate",
          "type": "address"
        },
        {
          "indexed": false,
          "internalType": "uint256",
          "name": "previousBalance",
          "type": "uint256"
        },
        {
          "indexed": false,
          "internalType": "uint256",
          "name": "newBalance",
          "type": "uint256"
        }
      ],
      "name": "DelegateVotesChanged",
      "type": "event"
    },
    {
      "anonymous": false,
      "inputs": [
        {
          "indexed": true,
          "internalType": "address",
          "name": "minter",
          "type": "address"
        },
        {
          "indexed": false,
          "internalType": "uint256",
          "name": "maxAmount",
          "type": "uint256"
        }
      ],
      "name": "MinterChanged",
      "type": "event"
    },
    {
      "anonymous": false,
      "inputs": [
        {
          "indexed": true,
          "internalType": "address",
          "name": "previousOwner",
          "type": "address"
        },
        {
          "indexed": true,
          "internalType": "address",
          "name": "newOwner",
          "type": "address"
        }
      ],
      "name": "OwnershipTransferred",
      "type": "event"
    },
    {
      "anonymous": false,
      "inputs": [
        {
          "indexed": true,
          "internalType": "address",
          "name": "from",
          "type": "address"
        },
        {
          "indexed": true,
          "internalType": "address",
          "name": "to",
          "type": "address"
        },
        {
          "indexed": false,
          "internalType": "uint256",
          "name": "value",
          "type": "uint256"
        }
      ],
      "name": "Transfer",
      "type": "event"
    },
    {
      "inputs": [],
      "name": "DELEGATION_TYPEHASH",
      "outputs": [
        {
          "internalType": "bytes32",
          "name": "",
          "type": "bytes32"
        }
      ],
      "stateMutability": "view",
      "type": "function"
    },
    {
      "inputs": [],
      "name": "DOMAIN_TYPEHASH",
      "outputs": [
        {
          "internalType": "bytes32",
          "name": "",
          "type": "bytes32"
        }
      ],
      "stateMutability": "view",
      "type": "function"
    },
    {
      "inputs": [],
      "name": "MAX_SUPPLY",
      "outputs": [
        {
          "internalType": "uint256",
          "name": "",
          "type": "uint256"
        }
      ],
      "stateMutability": "view",
      "type": "function"
    },
    {
      "inputs": [],
      "name": "acceptOwner",
      "outputs": [],
      "stateMutability": "nonpayable",
      "type": "function"
    },
    {
      "inputs": [
        {
          "internalType": "address",
          "name": "_minter",
          "type": "address"
        },
        {
          "internalType": "uint256",
          "name": "_maxAmount",
          "type": "uint256"
        }
      ],
      "name": "addMinter",
      "outputs": [],
      "stateMutability": "nonpayable",
      "type": "function"
    },
    {
      "inputs": [
        {
          "internalType": "address",
          "name": "owner",
          "type": "address"
        },
        {
          "internalType": "address",
          "name": "spender",
          "type": "address"
        }
      ],
      "name": "allowance",
      "outputs": [
        {
          "internalType": "uint256",
          "name": "",
          "type": "uint256"
        }
      ],
      "stateMutability": "view",
      "type": "function"
    },
    {
      "inputs": [
        {
          "internalType": "address",
          "name": "spender",
          "type": "address"
        },
        {
          "internalType": "uint256",
          "name": "amount",
          "type": "uint256"
        }
      ],
      "name": "approve",
      "outputs": [
        {
          "internalType": "bool",
          "name": "",
          "type": "bool"
        }
      ],
      "stateMutability": "nonpayable",
      "type": "function"
    },
    {
      "inputs": [
        {
          "internalType": "address",
          "name": "account",
          "type": "address"
        }
      ],
      "name": "balanceOf",
      "outputs": [
        {
          "internalType": "uint256",
          "name": "",
          "type": "uint256"
        }
      ],
      "stateMutability": "view",
      "type": "function"
    },
    {
      "inputs": [],
      "name": "cap",
      "outputs": [
        {
          "internalType": "uint256",
          "name": "",
          "type": "uint256"
        }
      ],
      "stateMutability": "view",
      "type": "function"
    },
    {
      "inputs": [
        {
          "internalType": "address",
          "name": "",
          "type": "address"
        },
        {
          "internalType": "uint32",
          "name": "",
          "type": "uint32"
        }
      ],
      "name": "checkpoints",
      "outputs": [
        {
          "internalType": "uint32",
          "name": "fromBlock",
          "type": "uint32"
        },
        {
          "internalType": "uint256",
          "name": "votes",
          "type": "uint256"
        }
      ],
      "stateMutability": "view",
      "type": "function"
    },
    {
      "inputs": [],
      "name": "decimals",
      "outputs": [
        {
          "internalType": "uint8",
          "name": "",
          "type": "uint8"
        }
      ],
      "stateMutability": "view",
      "type": "function"
    },
    {
      "inputs": [
        {
          "internalType": "address",
          "name": "spender",
          "type": "address"
        },
        {
          "internalType": "uint256",
          "name": "subtractedValue",
          "type": "uint256"
        }
      ],
      "name": "decreaseAllowance",
      "outputs": [
        {
          "internalType": "bool",
          "name": "",
          "type": "bool"
        }
      ],
      "stateMutability": "nonpayable",
      "type": "function"
    },
    {
      "inputs": [
        {
          "internalType": "address",
          "name": "_minter",
          "type": "address"
        }
      ],
      "name": "delMinter",
      "outputs": [],
      "stateMutability": "nonpayable",
      "type": "function"
    },
    {
      "inputs": [
        {
          "internalType": "address",
          "name": "delegatee",
          "type": "address"
        }
      ],
      "name": "delegate",
      "outputs": [],
      "stateMutability": "nonpayable",
      "type": "function"
    },
    {
      "inputs": [
        {
          "internalType": "address",
          "name": "delegatee",
          "type": "address"
        },
        {
          "internalType": "uint256",
          "name": "nonce",
          "type": "uint256"
        },
        {
          "internalType": "uint256",
          "name": "expiry",
          "type": "uint256"
        },
        {
          "internalType": "uint8",
          "name": "v",
          "type": "uint8"
        },
        {
          "internalType": "bytes32",
          "name": "r",
          "type": "bytes32"
        },
        {
          "internalType": "bytes32",
          "name": "s",
          "type": "bytes32"
        }
      ],
      "name": "delegateBySig",
      "outputs": [],
      "stateMutability": "nonpayable",
      "type": "function"
    },
    {
      "inputs": [
        {
          "internalType": "address",
          "name": "delegator",
          "type": "address"
        }
      ],
      "name": "delegates",
      "outputs": [
        {
          "internalType": "address",
          "name": "",
          "type": "address"
        }
      ],
      "stateMutability": "view",
      "type": "function"
    },
    {
      "inputs": [
        {
          "internalType": "address",
          "name": "account",
          "type": "address"
        }
      ],
      "name": "getCurrentVotes",
      "outputs": [
        {
          "internalType": "uint256",
          "name": "",
          "type": "uint256"
        }
      ],
      "stateMutability": "view",
      "type": "function"
    },
    {
      "inputs": [
        {
          "internalType": "address",
          "name": "account",
          "type": "address"
        },
        {
          "internalType": "uint256",
          "name": "blockNumber",
          "type": "uint256"
        }
      ],
      "name": "getPriorVotes",
      "outputs": [
        {
          "internalType": "uint256",
          "name": "",
          "type": "uint256"
        }
      ],
      "stateMutability": "view",
      "type": "function"
    },
    {
      "inputs": [
        {
          "internalType": "address",
          "name": "spender",
          "type": "address"
        },
        {
          "internalType": "uint256",
          "name": "addedValue",
          "type": "uint256"
        }
      ],
      "name": "increaseAllowance",
      "outputs": [
        {
          "internalType": "bool",
          "name": "",
          "type": "bool"
        }
      ],
      "stateMutability": "nonpayable",
      "type": "function"
    },
    {
      "inputs": [
        {
          "internalType": "address",
          "name": "to",
          "type": "address"
        },
        {
          "internalType": "uint256",
          "name": "amount",
          "type": "uint256"
        }
      ],
      "name": "mint",
      "outputs": [
        {
          "internalType": "uint256",
          "name": "",
          "type": "uint256"
        }
      ],
      "stateMutability": "nonpayable",
      "type": "function"
    },
    {
      "inputs": [
        {
          "internalType": "address",
          "name": "",
          "type": "address"
        }
      ],
      "name": "minters",
      "outputs": [
        {
          "internalType": "uint256",
          "name": "",
          "type": "uint256"
        }
      ],
      "stateMutability": "view",
      "type": "function"
    },
    {
      "inputs": [],
      "name": "name",
      "outputs": [
        {
          "internalType": "string",
          "name": "",
          "type": "string"
        }
      ],
      "stateMutability": "view",
      "type": "function"
    },
    {
      "inputs": [
        {
          "internalType": "address",
          "name": "",
          "type": "address"
        }
      ],
      "name": "nonces",
      "outputs": [
        {
          "internalType": "uint256",
          "name": "",
          "type": "uint256"
        }
      ],
      "stateMutability": "view",
      "type": "function"
    },
    {
      "inputs": [
        {
          "internalType": "address",
          "name": "",
          "type": "address"
        }
      ],
      "name": "numCheckpoints",
      "outputs": [
        {
          "internalType": "uint32",
          "name": "",
          "type": "uint32"
        }
      ],
      "stateMutability": "view",
      "type": "function"
    },
    {
      "inputs": [],
      "name": "owner",
      "outputs": [
        {
          "internalType": "address",
          "name": "",
          "type": "address"
        }
      ],
      "stateMutability": "view",
      "type": "function"
    },
    {
      "inputs": [],
      "name": "pendingOwner",
      "outputs": [
        {
          "internalType": "address",
          "name": "",
          "type": "address"
        }
      ],
      "stateMutability": "view",
      "type": "function"
    },
    {
      "inputs": [],
      "name": "renounceOwnership",
      "outputs": [],
      "stateMutability": "nonpayable",
      "type": "function"
    },
    {
      "inputs": [
        {
          "internalType": "address",
          "name": "pendingOwner_",
          "type": "address"
        }
      ],
      "name": "setPendingOwner",
      "outputs": [],
      "stateMutability": "nonpayable",
      "type": "function"
    },
    {
      "inputs": [],
      "name": "symbol",
      "outputs": [
        {
          "internalType": "string",
          "name": "",
          "type": "string"
        }
      ],
      "stateMutability": "view",
      "type": "function"
    },
    {
      "inputs": [],
      "name": "totalSupply",
      "outputs": [
        {
          "internalType": "uint256",
          "name": "",
          "type": "uint256"
        }
      ],
      "stateMutability": "view",
      "type": "function"
    },
    {
      "inputs": [
        {
          "internalType": "address",
          "name": "recipient",
          "type": "address"
        },
        {
          "internalType": "uint256",
          "name": "amount",
          "type": "uint256"
        }
      ],
      "name": "transfer",
      "outputs": [
        {
          "internalType": "bool",
          "name": "",
          "type": "bool"
        }
      ],
      "stateMutability": "nonpayable",
      "type": "function"
    },
    {
      "inputs": [
        {
          "internalType": "address",
          "name": "sender",
          "type": "address"
        },
        {
          "internalType": "address",
          "name": "recipient",
          "type": "address"
        },
        {
          "internalType": "uint256",
          "name": "amount",
          "type": "uint256"
        }
      ],
      "name": "transferFrom",
      "outputs": [
        {
          "internalType": "bool",
          "name": "",
          "type": "bool"
        }
      ],
      "stateMutability": "nonpayable",
      "type": "function"
    }
  ],
  "transactionHash": "0xd4b3e6d02fd3ca733cd1d72220b1e329970387a7d9a3f9d9ba5094bdedf337ab",
  "args": [],
  "solcInputHash": "e577d9c1c1b645b75be857097efe7345",
  "bytecode": "0x60806040523480156200001157600080fd5b5060408051808201825260058082526446494e474f60d81b6020808401828152855180870190965292855284015281516b033b2e3c9fd0803ce800000093916200005f9160039190620002d3565b50805162000075906004906020840190620002d3565b50506005805460ff191660121790555080620000d8576040805162461bcd60e51b815260206004820152601560248201527f45524332304361707065643a2063617020697320300000000000000000000000604482015290519081900360640190fd5b6006556000620000e762000149565b600780546001600160a01b0319166001600160a01b038316908117909155604051919250906000907f8be0079c531659141344cd1fd0a4f28419497f9722a3daafe3b4186f6b6457e0908290a35062000143336000196200014d565b6200037f565b3390565b6200015762000149565b6001600160a01b03166200016a620002c4565b6001600160a01b031614620001c6576040805162461bcd60e51b815260206004820181905260248201527f4f776e61626c653a2063616c6c6572206973206e6f7420746865206f776e6572604482015290519081900360640190fd5b6001600160a01b03821662000213576040805162461bcd60e51b815260206004820152600e60248201526d34b63632b3b0b61036b4b73a32b960911b604482015290519081900360640190fd5b6001600160a01b0382166000908152600960205260409020541562000270576040805162461bcd60e51b815260206004820152600e60248201526d30b63932b0b23c9036b4b73a32b960911b604482015290519081900360640190fd5b6001600160a01b038216600081815260096020908152604091829020849055815184815291517fd75fd184f209746726e627e2bd2ed917eeb5f5b35120d7e89e4df569e6bb16879281900390910190a25050565b6007546001600160a01b031690565b828054600181600116156101000203166002900490600052602060002090601f0160209004810192826200030b576000855562000356565b82601f106200032657805160ff191683800117855562000356565b8280016001018555821562000356579182015b828111156200035657825182559160200191906001019062000339565b506200036492915062000368565b5090565b5b8082111562000364576000815560010162000369565b61211a806200038f6000396000f3fe608060405234801561001057600080fd5b50600436106101f05760003560e01c8063761248b41161010f578063c3cda520116100a2578063e7a324dc11610071578063e7a324dc1461063c578063ebbc496514610644578063f1127ed81461064c578063f46eccc41461069e576101f0565b8063c3cda52014610599578063c42069ec146105e0578063dd62ed3e14610606578063e30c397814610634576101f0565b806395d89b41116100de57806395d89b4114610513578063a457c2d71461051b578063a9059cbb14610547578063b4b5ea5714610573576101f0565b8063761248b41461048d578063782d6fe1146104b95780637ecebe00146104e55780638da5cb5b1461050b576101f0565b8063355274ea116101875780635c19a95c116101565780635c19a95c146103fa5780636fcfff451461042057806370a082311461045f578063715018a614610485576101f0565b8063355274ea14610358578063395093511461036057806340c10f191461038c578063587cde1e146103b8576101f0565b806323338b88116101c357806323338b88146102d457806323b872dd146102fc578063313ce5671461033257806332cb6b0c14610350576101f0565b806306fdde03146101f5578063095ea7b31461027257806318160ddd146102b257806320606b70146102cc575b600080fd5b6101fd6106c4565b6040805160208082528351818301528351919283929083019185019080838360005b8381101561023757818101518382015260200161021f565b50505050905090810190601f1680156102645780820380516001836020036101000a031916815260200191505b509250505060405180910390f35b61029e6004803603604081101561028857600080fd5b506001600160a01b03813516906020013561075a565b604080519115158252519081900360200190f35b6102ba610778565b60408051918252519081900360200190f35b6102ba61077e565b6102fa600480360360208110156102ea57600080fd5b50356001600160a01b03166107a2565b005b61029e6004803603606081101561031257600080fd5b506001600160a01b038135811691602081013590911690604001356108f8565b61033a61097f565b6040805160ff9092168252519081900360200190f35b6102ba610988565b6102ba610998565b61029e6004803603604081101561037657600080fd5b506001600160a01b03813516906020013561099e565b6102ba600480360360408110156103a257600080fd5b506001600160a01b0381351690602001356109ec565b6103de600480360360208110156103ce57600080fd5b50356001600160a01b0316610aa9565b604080516001600160a01b039092168252519081900360200190f35b6102fa6004803603602081101561041057600080fd5b50356001600160a01b0316610ac7565b6104466004803603602081101561043657600080fd5b50356001600160a01b0316610ad4565b6040805163ffffffff9092168252519081900360200190f35b6102ba6004803603602081101561047557600080fd5b50356001600160a01b0316610aec565b6102fa610b07565b6102fa600480360360408110156104a357600080fd5b506001600160a01b038135169060200135610b83565b6102ba600480360360408110156104cf57600080fd5b506001600160a01b038135169060200135610ce1565b6102ba600480360360208110156104fb57600080fd5b50356001600160a01b0316610ee4565b6103de610ef6565b6101fd610f05565b61029e6004803603604081101561053157600080fd5b506001600160a01b038135169060200135610f66565b61029e6004803603604081101561055d57600080fd5b506001600160a01b038135169060200135610fce565b6102ba6004803603602081101561058957600080fd5b50356001600160a01b0316610fe2565b6102fa600480360360c08110156105af57600080fd5b506001600160a01b038135169060208101359060408101359060ff6060820135169060808101359060a00135611046565b6102fa600480360360208110156105f657600080fd5b50356001600160a01b03166112b9565b6102ba6004803603604081101561061c57600080fd5b506001600160a01b03813581169160200135166113bc565b6103de6113e7565b6102ba6113f6565b6102fa61141a565b61067e6004803603604081101561066257600080fd5b5080356001600160a01b0316906020013563ffffffff16611516565b6040805163ffffffff909316835260208301919091528051918290030190f35b6102ba600480360360208110156106b457600080fd5b50356001600160a01b0316611543565b60038054604080516020601f60026000196101006001881615020190951694909404938401819004810282018101909252828152606093909290918301828280156107505780601f1061072557610100808354040283529160200191610750565b820191906000526020600020905b81548152906001019060200180831161073357829003601f168201915b5050505050905090565b600061076e610767611555565b8484611559565b5060015b92915050565b60025490565b7f8cad95687ba82c2ce50e74f7b754645e5117c3a5bec8151c0726d5857980a86681565b6107aa611555565b6001600160a01b03166107bb610ef6565b6001600160a01b031614610804576040805162461bcd60e51b81526020600482018190526024820152600080516020611f98833981519152604482015290519081900360640190fd5b6001600160a01b038116610850576040805162461bcd60e51b815260206004820152600e60248201526d34b63632b3b0b61036b4b73a32b960911b604482015290519081900360640190fd5b6001600160a01b0381166000908152600960205260409020546108a7576040805162461bcd60e51b815260206004820152600a6024820152693737ba1036b4b73a32b960b11b604482015290519081900360640190fd5b6001600160a01b03811660008181526009602090815260408083208390558051928352517fd75fd184f209746726e627e2bd2ed917eeb5f5b35120d7e89e4df569e6bb16879281900390910190a250565b6000610905848484611645565b61097584610911611555565b61097085604051806060016040528060288152602001611f70602891396001600160a01b038a1660009081526001602052604081209061094f611555565b6001600160a01b0316815260208101919091526040016000205491906117a0565b611559565b5060019392505050565b60055460ff1690565b6b033b2e3c9fd0803ce800000081565b60065490565b600061076e6109ab611555565b8461097085600160006109bc611555565b6001600160a01b03908116825260208083019390935260409182016000908120918c168152925290205490611837565b336000908152600960205260408120548290811115610a3c5760405162461bcd60e51b8152600401808060200182810382526022815260200180611fb86022913960400191505060405180910390fd5b610a5a610a47610778565b6b033b2e3c9fd0803ce800000090611891565b831115610a6a5760009150610aa2565b33600090815260096020526040902054610a849084611891565b33600090815260096020526040902055610a9e84846118ee565b8291505b5092915050565b6001600160a01b039081166000908152600a60205260409020541690565b610ad133826119de565b50565b600c6020526000908152604090205463ffffffff1681565b6001600160a01b031660009081526020819052604090205490565b610b0f611555565b6001600160a01b0316610b20610ef6565b6001600160a01b031614610b69576040805162461bcd60e51b81526020600482018190526024820152600080516020611f98833981519152604482015290519081900360640190fd5b610b79610b74610ef6565b6107a2565b610b81611a73565b565b610b8b611555565b6001600160a01b0316610b9c610ef6565b6001600160a01b031614610be5576040805162461bcd60e51b81526020600482018190526024820152600080516020611f98833981519152604482015290519081900360640190fd5b6001600160a01b038216610c31576040805162461bcd60e51b815260206004820152600e60248201526d34b63632b3b0b61036b4b73a32b960911b604482015290519081900360640190fd5b6001600160a01b03821660009081526009602052604090205415610c8d576040805162461bcd60e51b815260206004820152600e60248201526d30b63932b0b23c9036b4b73a32b960911b604482015290519081900360640190fd5b6001600160a01b038216600081815260096020908152604091829020849055815184815291517fd75fd184f209746726e627e2bd2ed917eeb5f5b35120d7e89e4df569e6bb16879281900390910190a25050565b6000438210610d215760405162461bcd60e51b8152600401808060200182810382526027815260200180611fff6027913960400191505060405180910390fd5b6001600160a01b0383166000908152600c602052604090205463ffffffff1680610d4f576000915050610772565b6001600160a01b0384166000908152600b6020908152604080832063ffffffff600019860181168552925290912054168310610dbe576001600160a01b0384166000908152600b602090815260408083206000199490940163ffffffff16835292905220600101549050610772565b6001600160a01b0384166000908152600b6020908152604080832083805290915290205463ffffffff16831015610df9576000915050610772565b600060001982015b8163ffffffff168163ffffffff161115610ead576000600263ffffffff848403166001600160a01b0389166000908152600b6020908152604080832094909304860363ffffffff8181168452948252918390208351808501909452805490941680845260019094015490830152925090871415610e88576020015194506107729350505050565b805163ffffffff16871115610e9f57819350610ea6565b6001820392505b5050610e01565b506001600160a01b0385166000908152600b6020908152604080832063ffffffff9094168352929052206001015491505092915050565b600d6020526000908152604090205481565b6007546001600160a01b031690565b60048054604080516020601f60026000196101006001881615020190951694909404938401819004810282018101909252828152606093909290918301828280156107505780601f1061072557610100808354040283529160200191610750565b600061076e610f73611555565b84610970856040518060600160405280602581526020016120c06025913960016000610f9d611555565b6001600160a01b03908116825260208083019390935260409182016000908120918d168152925290205491906117a0565b600061076e610fdb611555565b8484611645565b6001600160a01b0381166000908152600c602052604081205463ffffffff168061100d57600061103f565b6001600160a01b0383166000908152600b6020908152604080832063ffffffff60001986011684529091529020600101545b9392505050565b60007f8cad95687ba82c2ce50e74f7b754645e5117c3a5bec8151c0726d5857980a8666110716106c4565b80519060200120611080611b78565b60408051602080820195909552808201939093526060830191909152306080808401919091528151808403909101815260a0830182528051908401207fe48329057bfd03d55e49b547132e39cffd9c1820ad7b9d4c5307691425d15adf60c08401526001600160a01b038b1660e084015261010083018a90526101208084018a9052825180850390910181526101408401835280519085012061190160f01b6101608501526101628401829052610182808501829052835180860390910181526101a285018085528151918701919091206000918290526101c2860180865281905260ff8b166101e287015261020286018a90526102228601899052935192965090949293909260019261024280840193601f198301929081900390910190855afa1580156111b3573d6000803e3d6000fd5b5050604051601f1901519150506001600160a01b0381166112055760405162461bcd60e51b8152600401808060200182810382526026815260200180611eac6026913960400191505060405180910390fd5b6001600160a01b0381166000908152600d6020526040902080546001810190915589146112635760405162461bcd60e51b8152600401808060200182810382526022815260200180611f1a6022913960400191505060405180910390fd5b874211156112a25760405162461bcd60e51b81526004018080602001828103825260268152602001806120716026913960400191505060405180910390fd5b6112ac818b6119de565b505050505b505050505050565b6112c1611555565b6001600160a01b03166112d2610ef6565b6001600160a01b03161461131b576040805162461bcd60e51b81526020600482018190526024820152600080516020611f98833981519152604482015290519081900360640190fd5b6001600160a01b0381166113605760405162461bcd60e51b81526004018080602001828103825260298152602001806120976029913960400191505060405180910390fd5b6008546040516001600160a01b038084169216907f4465959e7ec1f32e3ebd831ac2459ad6ef4b1d54a83f108a7068e69e62f0702f90600090a3600880546001600160a01b0319166001600160a01b0392909216919091179055565b6001600160a01b03918216600090815260016020908152604080832093909416825291909152205490565b6008546001600160a01b031690565b7fe48329057bfd03d55e49b547132e39cffd9c1820ad7b9d4c5307691425d15adf81565b611422611555565b6001600160a01b03166114336113e7565b6001600160a01b0316146114785760405162461bcd60e51b81526004018080602001828103825260278152602001806120266027913960400191505060405180910390fd5b6008546007546040516001600160a01b0392831692909116907f8be0079c531659141344cd1fd0a4f28419497f9722a3daafe3b4186f6b6457e090600090a3600854600780546001600160a01b0319166001600160a01b039092169182179055604051600091907f4465959e7ec1f32e3ebd831ac2459ad6ef4b1d54a83f108a7068e69e62f0702f908390a3600880546001600160a01b0319169055565b600b6020908152600092835260408084209091529082529020805460019091015463ffffffff9091169082565b60096020526000908152604090205481565b3390565b6001600160a01b03831661159e5760405162461bcd60e51b815260040180806020018281038252602481526020018061204d6024913960400191505060405180910390fd5b6001600160a01b0382166115e35760405162461bcd60e51b8152600401808060200182810382526022815260200180611ed26022913960400191505060405180910390fd5b6001600160a01b03808416600081815260016020908152604080832094871680845294825291829020859055815185815291517f8c5be1e5ebec7d5bd14f71427d1e84f3dd0314c0f7b2291e5b200ac8c7c3b9259281900390910190a3505050565b6001600160a01b03831661168a5760405162461bcd60e51b8152600401808060200182810382526025815260200180611fda6025913960400191505060405180910390fd5b6001600160a01b0382166116cf5760405162461bcd60e51b8152600401808060200182810382526023815260200180611e896023913960400191505060405180910390fd5b6116da838383611b7c565b61171781604051806060016040528060268152602001611ef4602691396001600160a01b03861660009081526020819052604090205491906117a0565b6001600160a01b0380851660009081526020819052604080822093909355908416815220546117469082611837565b6001600160a01b038084166000818152602081815260409182902094909455805185815290519193928716927fddf252ad1be2c89b69c2b068fc378daa952ba7f163c4a11628f55a4df523b3ef92918290030190a3505050565b6000818484111561182f5760405162461bcd60e51b81526004018080602001828103825283818151815260200191508051906020019080838360005b838110156117f45781810151838201526020016117dc565b50505050905090810190601f1680156118215780820380516001836020036101000a031916815260200191505b509250505060405180910390fd5b505050900390565b60008282018381101561103f576040805162461bcd60e51b815260206004820152601b60248201527f536166654d6174683a206164646974696f6e206f766572666c6f770000000000604482015290519081900360640190fd5b6000828211156118e8576040805162461bcd60e51b815260206004820152601e60248201527f536166654d6174683a207375627472616374696f6e206f766572666c6f770000604482015290519081900360640190fd5b50900390565b6001600160a01b038216611949576040805162461bcd60e51b815260206004820152601f60248201527f45524332303a206d696e7420746f20746865207a65726f206164647265737300604482015290519081900360640190fd5b61195560008383611b7c565b6002546119629082611837565b6002556001600160a01b0382166000908152602081905260409020546119889082611837565b6001600160a01b0383166000818152602081815260408083209490945583518581529351929391927fddf252ad1be2c89b69c2b068fc378daa952ba7f163c4a11628f55a4df523b3ef9281900390910190a35050565b6001600160a01b038083166000908152600a602052604081205490911690611a0584610aec565b6001600160a01b038581166000818152600a602052604080822080546001600160a01b031916898616908117909155905194955093928616927f3134e8a2e6d97e929a7e54011ea5485d7d196dd5f0ba4d4ef95803e8e3fc257f9190a4611a6d828483611b8c565b50505050565b611a7b611555565b6001600160a01b0316611a8c610ef6565b6001600160a01b031614611ad5576040805162461bcd60e51b81526020600482018190526024820152600080516020611f98833981519152604482015290519081900360640190fd5b6007546040516000916001600160a01b0316907f8be0079c531659141344cd1fd0a4f28419497f9722a3daafe3b4186f6b6457e0908390a3600780546001600160a01b03191690556008546001600160a01b031615610b81576008546040516000916001600160a01b0316907f4465959e7ec1f32e3ebd831ac2459ad6ef4b1d54a83f108a7068e69e62f0702f908390a3600880546001600160a01b0319169055565b4690565b611b87838383611b8c565b505050565b816001600160a01b0316836001600160a01b031614158015611bae5750600081115b15611b87576001600160a01b03831615611c40576001600160a01b0383166000908152600c602052604081205463ffffffff169081611bee576000611c20565b6001600160a01b0385166000908152600b6020908152604080832063ffffffff60001987011684529091529020600101545b90506000611c2e8285611891565b9050611c3c86848484611cc5565b5050505b6001600160a01b03821615611b87576001600160a01b0382166000908152600c602052604081205463ffffffff169081611c7b576000611cad565b6001600160a01b0384166000908152600b6020908152604080832063ffffffff60001987011684529091529020600101545b90506000611cbb8285611837565b90506112b1858484845b6000611ce943604051806060016040528060348152602001611f3c60349139611e2a565b905060008463ffffffff16118015611d3257506001600160a01b0385166000908152600b6020908152604080832063ffffffff6000198901811685529252909120548282169116145b15611d6f576001600160a01b0385166000908152600b6020908152604080832063ffffffff60001989011684529091529020600101829055611de0565b60408051808201825263ffffffff808416825260208083018681526001600160a01b038a166000818152600b84528681208b8616825284528681209551865490861663ffffffff199182161787559251600196870155908152600c9092529390208054928801909116919092161790555b604080518481526020810184905281516001600160a01b038816927fdec2bacdd2f05b59de34da9b523dff8be42e5e38e818c82fdb0bae774387a724928290030190a25050505050565b6000816401000000008410611e805760405162461bcd60e51b81526020600482018181528351602484015283519092839260449091019190850190808383600083156117f45781810151838201526020016117dc565b50919291505056fe45524332303a207472616e7366657220746f20746865207a65726f2061646472657373474942583a3a64656c656761746542795369673a20696e76616c6964207369676e617475726545524332303a20617070726f766520746f20746865207a65726f206164647265737345524332303a207472616e7366657220616d6f756e7420657863656564732062616c616e6365474942583a3a64656c656761746542795369673a20696e76616c6964206e6f6e6365474942583a3a5f7772697465436865636b706f696e743a20626c6f636b206e756d6265722065786365656473203332206269747345524332303a207472616e7366657220616d6f756e74206578636565647320616c6c6f77616e63654f776e61626c653a2063616c6c6572206973206e6f7420746865206f776e657263616c6c6572206973206e6f74206d696e746572206f72206e6f7420656e6f75676845524332303a207472616e736665722066726f6d20746865207a65726f2061646472657373474942583a3a6765745072696f72566f7465733a206e6f74207965742064657465726d696e65644f776e61626c653a2063616c6c6572206973206e6f74207468652070656e64696e674f776e657245524332303a20617070726f76652066726f6d20746865207a65726f2061646472657373474942583a3a64656c656761746542795369673a207369676e617475726520657870697265644f776e61626c653a2070656e64696e674f776e657220697320746865207a65726f206164647265737345524332303a2064656372656173656420616c6c6f77616e63652062656c6f77207a65726fa2646970667358221220fbf1bbe7981205be91c856d1297205cdc62a497bd24d90b48f456bbc50603d7e64736f6c63430007060033",
  "devdoc": {
    "kind": "dev",
    "methods": {
      "allowance(address,address)": {
        "details": "See {IERC20-allowance}."
      },
      "approve(address,uint256)": {
        "details": "See {IERC20-approve}. Requirements: - `spender` cannot be the zero address."
      },
      "balanceOf(address)": {
        "details": "See {IERC20-balanceOf}."
      },
      "cap()": {
        "details": "Returns the cap on the token's total supply."
      },
      "decimals()": {
        "details": "Returns the number of decimals used to get its user representation. For example, if `decimals` equals `2`, a balance of `505` tokens should be displayed to a user as `5,05` (`505 / 10 ** 2`). Tokens usually opt for a value of 18, imitating the relationship between Ether and Wei. This is the value {ERC20} uses, unless {_setupDecimals} is called. NOTE: This information is only used for _display_ purposes: it in no way affects any of the arithmetic of the contract, including {IERC20-balanceOf} and {IERC20-transfer}."
      },
      "decreaseAllowance(address,uint256)": {
        "details": "Atomically decreases the allowance granted to `spender` by the caller. This is an alternative to {approve} that can be used as a mitigation for problems described in {IERC20-approve}. Emits an {Approval} event indicating the updated allowance. Requirements: - `spender` cannot be the zero address. - `spender` must have allowance for the caller of at least `subtractedValue`."
      },
      "increaseAllowance(address,uint256)": {
        "details": "Atomically increases the allowance granted to `spender` by the caller. This is an alternative to {approve} that can be used as a mitigation for problems described in {IERC20-approve}. Emits an {Approval} event indicating the updated allowance. Requirements: - `spender` cannot be the zero address."
      },
      "name()": {
        "details": "Returns the name of the token."
      },
      "symbol()": {
        "details": "Returns the symbol of the token, usually a shorter version of the name."
      },
      "totalSupply()": {
        "details": "See {IERC20-totalSupply}."
      },
      "transfer(address,uint256)": {
        "details": "See {IERC20-transfer}. Requirements: - `recipient` cannot be the zero address. - the caller must have a balance of at least `amount`."
      },
      "transferFrom(address,address,uint256)": {
        "details": "See {IERC20-transferFrom}. Emits an {Approval} event indicating the updated allowance. This is not required by the EIP. See the note at the beginning of {ERC20}. Requirements: - `sender` and `recipient` cannot be the zero address. - `sender` must have a balance of at least `amount`. - the caller must have allowance for ``sender``'s tokens of at least `amount`."
      }
    },
    "version": 1
  },
  "userdoc": {
    "kind": "user",
    "methods": {},
    "version": 1
  },
  "storageLayout": {
    "storage": [
      {
        "astId": 442,
        "contract": "contracts/token/FINGOToken.sol:FINGOToken",
        "label": "_balances",
        "offset": 0,
        "slot": "0",
        "type": "t_mapping(t_address,t_uint256)"
      },
      {
        "astId": 448,
        "contract": "contracts/token/FINGOToken.sol:FINGOToken",
        "label": "_allowances",
        "offset": 0,
        "slot": "1",
        "type": "t_mapping(t_address,t_mapping(t_address,t_uint256))"
      },
      {
        "astId": 450,
        "contract": "contracts/token/FINGOToken.sol:FINGOToken",
        "label": "_totalSupply",
        "offset": 0,
        "slot": "2",
        "type": "t_uint256"
      },
      {
        "astId": 452,
        "contract": "contracts/token/FINGOToken.sol:FINGOToken",
        "label": "_name",
        "offset": 0,
        "slot": "3",
        "type": "t_string_storage"
      },
      {
        "astId": 454,
        "contract": "contracts/token/FINGOToken.sol:FINGOToken",
        "label": "_symbol",
        "offset": 0,
        "slot": "4",
        "type": "t_string_storage"
      },
      {
        "astId": 456,
        "contract": "contracts/token/FINGOToken.sol:FINGOToken",
        "label": "_decimals",
        "offset": 0,
        "slot": "5",
        "type": "t_uint8"
      },
      {
        "astId": 939,
        "contract": "contracts/token/FINGOToken.sol:FINGOToken",
        "label": "_cap",
        "offset": 0,
        "slot": "6",
        "type": "t_uint256"
      },
      {
        "astId": 1625,
        "contract": "contracts/token/FINGOToken.sol:FINGOToken",
        "label": "_owner",
        "offset": 0,
        "slot": "7",
        "type": "t_address"
      },
      {
        "astId": 1627,
        "contract": "contracts/token/FINGOToken.sol:FINGOToken",
        "label": "_pendingOwner",
        "offset": 0,
        "slot": "8",
        "type": "t_address"
      },
      {
        "astId": 1836,
        "contract": "contracts/token/FINGOToken.sol:FINGOToken",
        "label": "minters",
        "offset": 0,
        "slot": "9",
        "type": "t_mapping(t_address,t_uint256)"
      },
      {
        "astId": 2036,
        "contract": "contracts/token/FINGOToken.sol:FINGOToken",
        "label": "_delegates",
        "offset": 0,
        "slot": "10",
        "type": "t_mapping(t_address,t_address)"
      },
      {
        "astId": 2042,
        "contract": "contracts/token/FINGOToken.sol:FINGOToken",
        "label": "checkpoints",
        "offset": 0,
        "slot": "11",
        "type": "t_mapping(t_address,t_mapping(t_uint32,t_struct(Checkpoint)2032_storage))"
      },
      {
        "astId": 2046,
        "contract": "contracts/token/FINGOToken.sol:FINGOToken",
        "label": "numCheckpoints",
        "offset": 0,
        "slot": "12",
        "type": "t_mapping(t_address,t_uint32)"
      },
      {
        "astId": 2060,
        "contract": "contracts/token/FINGOToken.sol:FINGOToken",
        "label": "nonces",
        "offset": 0,
        "slot": "13",
        "type": "t_mapping(t_address,t_uint256)"
      }
    ],
    "types": {
      "t_address": {
        "encoding": "inplace",
        "label": "address",
        "numberOfBytes": "20"
      },
      "t_mapping(t_address,t_address)": {
        "encoding": "mapping",
        "key": "t_address",
        "label": "mapping(address => address)",
        "numberOfBytes": "32",
        "value": "t_address"
      },
      "t_mapping(t_address,t_mapping(t_address,t_uint256))": {
        "encoding": "mapping",
        "key": "t_address",
        "label": "mapping(address => mapping(address => uint256))",
        "numberOfBytes": "32",
        "value": "t_mapping(t_address,t_uint256)"
      },
      "t_mapping(t_address,t_mapping(t_uint32,t_struct(Checkpoint)2032_storage))": {
        "encoding": "mapping",
        "key": "t_address",
        "label": "mapping(address => mapping(uint32 => struct FINGOToken.Checkpoint))",
        "numberOfBytes": "32",
        "value": "t_mapping(t_uint32,t_struct(Checkpoint)2032_storage)"
      },
      "t_mapping(t_address,t_uint256)": {
        "encoding": "mapping",
        "key": "t_address",
        "label": "mapping(address => uint256)",
        "numberOfBytes": "32",
        "value": "t_uint256"
      },
      "t_mapping(t_address,t_uint32)": {
        "encoding": "mapping",
        "key": "t_address",
        "label": "mapping(address => uint32)",
        "numberOfBytes": "32",
        "value": "t_uint32"
      },
      "t_mapping(t_uint32,t_struct(Checkpoint)2032_storage)": {
        "encoding": "mapping",
        "key": "t_uint32",
        "label": "mapping(uint32 => struct FINGOToken.Checkpoint)",
        "numberOfBytes": "32",
        "value": "t_struct(Checkpoint)2032_storage"
      },
      "t_string_storage": {
        "encoding": "bytes",
        "label": "string",
        "numberOfBytes": "32"
      },
      "t_struct(Checkpoint)2032_storage": {
        "encoding": "inplace",
        "label": "struct FINGOToken.Checkpoint",
        "members": [
          {
            "astId": 2029,
            "contract": "contracts/token/FINGOToken.sol:FINGOToken",
            "label": "fromBlock",
            "offset": 0,
            "slot": "0",
            "type": "t_uint32"
          },
          {
            "astId": 2031,
            "contract": "contracts/token/FINGOToken.sol:FINGOToken",
            "label": "votes",
            "offset": 0,
            "slot": "1",
            "type": "t_uint256"
          }
        ],
        "numberOfBytes": "64"
      },
      "t_uint256": {
        "encoding": "inplace",
        "label": "uint256",
        "numberOfBytes": "32"
      },
      "t_uint32": {
        "encoding": "inplace",
        "label": "uint32",
        "numberOfBytes": "4"
      },
      "t_uint8": {
        "encoding": "inplace",
        "label": "uint8",
        "numberOfBytes": "1"
      }
    }
  }
}