{
  "address": "0xc6FA5BE47c387D8Addb1123982336c96b6B0684C",
  "abi": [
    {
      "inputs": [
        {
          "internalType": "contract IERC20",
          "name": "_rewardToken",
          "type": "address"
        }
      ],
      "stateMutability": "nonpayable",
      "type": "constructor"
    },
    {
      "anonymous": false,
      "inputs": [
        {
          "indexed": true,
          "internalType": "address",
          "name": "previousPendingOwner",
          "type": "address"
        },
        {
          "indexed": true,
          "internalType": "address",
          "name": "newPendingOwner",
          "type": "address"
        }
      ],
      "name": "ChangePendingOwner",
      "type": "event"
    },
    {
      "anonymous": false,
      "inputs": [
        {
          "indexed": false,
          "internalType": "address",
          "name": "user",
          "type": "address"
        },
        {
          "indexed": false,
          "internalType": "uint256",
          "name": "amount",
          "type": "uint256"
        },
        {
          "indexed": false,
          "internalType": "uint256",
          "name": "totalAmount",
          "type": "uint256"
        }
      ],
      "name": "Claim",
      "type": "event"
    },
    {
      "anonymous": false,
      "inputs": [
        {
          "indexed": false,
          "internalType": "bytes32",
          "name": "oldHash",
          "type": "bytes32"
        },
        {
          "indexed": false,
          "internalType": "bytes32",
          "name": "newHash",
          "type": "bytes32"
        }
      ],
      "name": "NewHash",
      "type": "event"
    },
    {
      "anonymous": false,
      "inputs": [
        {
          "indexed": true,
          "internalType": "address",
          "name": "previousOwner",
          "type": "address"
        },
        {
          "indexed": true,
          "internalType": "address",
          "name": "newOwner",
          "type": "address"
        }
      ],
      "name": "OwnershipTransferred",
      "type": "event"
    },
    {
      "inputs": [],
      "name": "acceptOwner",
      "outputs": [],
      "stateMutability": "nonpayable",
      "type": "function"
    },
    {
      "inputs": [
        {
          "internalType": "address",
          "name": "_to",
          "type": "address"
        },
        {
          "internalType": "uint256",
          "name": "_amount",
          "type": "uint256"
        },
        {
          "internalType": "bytes32[]",
          "name": "_proof",
          "type": "bytes32[]"
        }
      ],
      "name": "claim",
      "outputs": [],
      "stateMutability": "nonpayable",
      "type": "function"
    },
    {
      "inputs": [],
      "name": "owner",
      "outputs": [
        {
          "internalType": "address",
          "name": "",
          "type": "address"
        }
      ],
      "stateMutability": "view",
      "type": "function"
    },
    {
      "inputs": [],
      "name": "pendingOwner",
      "outputs": [
        {
          "internalType": "address",
          "name": "",
          "type": "address"
        }
      ],
      "stateMutability": "view",
      "type": "function"
    },
    {
      "inputs": [],
      "name": "renounceOwnership",
      "outputs": [],
      "stateMutability": "nonpayable",
      "type": "function"
    },
    {
      "inputs": [],
      "name": "rewardToken",
      "outputs": [
        {
          "internalType": "contract IERC20",
          "name": "",
          "type": "address"
        }
      ],
      "stateMutability": "view",
      "type": "function"
    },
    {
      "inputs": [],
      "name": "rootHash",
      "outputs": [
        {
          "internalType": "bytes32",
          "name": "",
          "type": "bytes32"
        }
      ],
      "stateMutability": "view",
      "type": "function"
    },
    {
      "inputs": [
        {
          "internalType": "address",
          "name": "pendingOwner_",
          "type": "address"
        }
      ],
      "name": "setPendingOwner",
      "outputs": [],
      "stateMutability": "nonpayable",
      "type": "function"
    },
    {
      "inputs": [
        {
          "internalType": "bytes32",
          "name": "_rootHash",
          "type": "bytes32"
        }
      ],
      "name": "updateRooHash",
      "outputs": [],
      "stateMutability": "nonpayable",
      "type": "function"
    },
    {
      "inputs": [
        {
          "internalType": "address",
          "name": "",
          "type": "address"
        }
      ],
      "name": "userClaimed",
      "outputs": [
        {
          "internalType": "uint256",
          "name": "",
          "type": "uint256"
        }
      ],
      "stateMutability": "view",
      "type": "function"
    }
  ],
  "transactionHash": "0xf2ac42755580e74f42d84660526767caf2b4bbafc7c67734af1b809dbc09db3e",
  "args": [
    "0x456469b4FCd1993A734fe7caE3bE039aB946BA9A"
  ],
  "solcInputHash": "e577d9c1c1b645b75be857097efe7345",
  "bytecode": "0x60a060405234801561001057600080fd5b50604051610d97380380610d978339818101604052602081101561003357600080fd5b5051600061003f61009e565b600080546001600160a01b0319166001600160a01b0383169081178255604051929350917f8be0079c531659141344cd1fd0a4f28419497f9722a3daafe3b4186f6b6457e0908290a35060601b6001600160601b0319166080526100a2565b3390565b60805160601c610cd36100c4600039806103ec52806107a95250610cd36000f3fe608060405234801561001057600080fd5b506004361061009e5760003560e01c80638da5cb5b116100665780638da5cb5b146101c2578063c42069ec146101e6578063e30c39781461020c578063ebbc496514610214578063f7c618c11461021c5761009e565b80631d80009a146100a35780632f1aee39146100bd5780633b7fcdca146100dc5780633d13f87414610102578063715018a6146101ba575b600080fd5b6100ab610224565b60408051918252519081900360200190f35b6100da600480360360208110156100d357600080fd5b503561022a565b005b6100ab600480360360208110156100f257600080fd5b50356001600160a01b03166102e0565b6100da6004803603606081101561011857600080fd5b6001600160a01b038235169160208101359181019060608101604082013564010000000081111561014857600080fd5b82018360208201111561015a57600080fd5b8035906020019184602083028401116401000000008311171561017c57600080fd5b9190808060200260200160405190810160405280939291908181526020018383602002808284376000920191909152509295506102f2945050505050565b6100da610463565b6101ca61057b565b604080516001600160a01b039092168252519081900360200190f35b6100da600480360360208110156101fc57600080fd5b50356001600160a01b031661058a565b6101ca61069f565b6100da6106ae565b6101ca6107a7565b60025481565b6102326107cb565b6001600160a01b031661024361057b565b6001600160a01b03161461029e576040805162461bcd60e51b815260206004820181905260248201527f4f776e61626c653a2063616c6c6572206973206e6f7420746865206f776e6572604482015290519081900360640190fd5b600254604080519182526020820183905280517fa5a1ff5ae2c83e84c67ccf88aa36b771582ddb9bf09c3ad5a3222e4f1b7ce0439281900390910190a1600255565b60036020526000908152604090205481565b6001600160a01b0383166000908152600360205260408120546103169084906107cf565b90506000848260405160200180836001600160a01b031660601b8152601401828152602001925050506040516020818303038152906040528051906020012090506103648360025483610830565b6103a6576040805162461bcd60e51b815260206004820152600e60248201526d1a5b1b1959d85b08185b5bdd5b9d60921b604482015290519081900360640190fd5b6001600160a01b0385166000908152600360205260409020546103c990856107cf565b6001600160a01b03808716600090815260036020526040902091909155610413907f00000000000000000000000000000000000000000000000000000000000000001686866108d9565b604080516001600160a01b03871681526020810186905280820184905290517f34fcbac0073d7c3d388e51312faf357774904998eeb8fca628b9e6f65ee1cbf79181900360600190a15050505050565b61046b6107cb565b6001600160a01b031661047c61057b565b6001600160a01b0316146104d7576040805162461bcd60e51b815260206004820181905260248201527f4f776e61626c653a2063616c6c6572206973206e6f7420746865206f776e6572604482015290519081900360640190fd5b600080546040516001600160a01b03909116907f8be0079c531659141344cd1fd0a4f28419497f9722a3daafe3b4186f6b6457e0908390a3600080546001600160a01b03191690556001546001600160a01b031615610579576001546040516000916001600160a01b0316907f4465959e7ec1f32e3ebd831ac2459ad6ef4b1d54a83f108a7068e69e62f0702f908390a3600180546001600160a01b03191690555b565b6000546001600160a01b031690565b6105926107cb565b6001600160a01b03166105a361057b565b6001600160a01b0316146105fe576040805162461bcd60e51b815260206004820181905260248201527f4f776e61626c653a2063616c6c6572206973206e6f7420746865206f776e6572604482015290519081900360640190fd5b6001600160a01b0381166106435760405162461bcd60e51b8152600401808060200182810382526029815260200180610c756029913960400191505060405180910390fd5b6001546040516001600160a01b038084169216907f4465959e7ec1f32e3ebd831ac2459ad6ef4b1d54a83f108a7068e69e62f0702f90600090a3600180546001600160a01b0319166001600160a01b0392909216919091179055565b6001546001600160a01b031690565b6106b66107cb565b6001600160a01b03166106c761069f565b6001600160a01b03161461070c5760405162461bcd60e51b8152600401808060200182810382526027815260200180610c246027913960400191505060405180910390fd5b600154600080546040516001600160a01b0393841693909116917f8be0079c531659141344cd1fd0a4f28419497f9722a3daafe3b4186f6b6457e091a3600154600080546001600160a01b0319166001600160a01b0390921691821781556040519091907f4465959e7ec1f32e3ebd831ac2459ad6ef4b1d54a83f108a7068e69e62f0702f908390a3600180546001600160a01b0319169055565b7f000000000000000000000000000000000000000000000000000000000000000081565b3390565b600082820183811015610829576040805162461bcd60e51b815260206004820152601b60248201527f536166654d6174683a206164646974696f6e206f766572666c6f770000000000604482015290519081900360640190fd5b9392505050565b600081815b85518110156108ce57600086828151811061084c57fe5b6020026020010151905080831161089357828160405160200180838152602001828152602001925050506040516020818303038152906040528051906020012092506108c5565b808360405160200180838152602001828152602001925050506040516020818303038152906040528051906020012092505b50600101610835565b509092149392505050565b604080516001600160a01b038416602482015260448082018490528251808303909101815260649091019091526020810180516001600160e01b031663a9059cbb60e01b17905261092b908490610930565b505050565b6000610985826040518060400160405280602081526020017f5361666545524332303a206c6f772d6c6576656c2063616c6c206661696c6564815250856001600160a01b03166109e19092919063ffffffff16565b80519091501561092b578080602001905160208110156109a457600080fd5b505161092b5760405162461bcd60e51b815260040180806020018281038252602a815260200180610c4b602a913960400191505060405180910390fd5b60606109f084846000856109f8565b949350505050565b606082471015610a395760405162461bcd60e51b8152600401808060200182810382526026815260200180610bfe6026913960400191505060405180910390fd5b610a4285610b53565b610a93576040805162461bcd60e51b815260206004820152601d60248201527f416464726573733a2063616c6c20746f206e6f6e2d636f6e7472616374000000604482015290519081900360640190fd5b600080866001600160a01b031685876040518082805190602001908083835b60208310610ad15780518252601f199092019160209182019101610ab2565b6001836020036101000a03801982511681845116808217855250505050505090500191505060006040518083038185875af1925050503d8060008114610b33576040519150601f19603f3d011682016040523d82523d6000602084013e610b38565b606091505b5091509150610b48828286610b59565b979650505050505050565b3b151590565b60608315610b68575081610829565b825115610b785782518084602001fd5b8160405162461bcd60e51b81526004018080602001828103825283818151815260200191508051906020019080838360005b83811015610bc2578181015183820152602001610baa565b50505050905090810190601f168015610bef5780820380516001836020036101000a031916815260200191505b509250505060405180910390fdfe416464726573733a20696e73756666696369656e742062616c616e636520666f722063616c6c4f776e61626c653a2063616c6c6572206973206e6f74207468652070656e64696e674f776e65725361666545524332303a204552433230206f7065726174696f6e20646964206e6f7420737563636565644f776e61626c653a2070656e64696e674f776e657220697320746865207a65726f2061646472657373a2646970667358221220307c5b6555201eb9ee97989641efae35255a0cdda0d17959f4b1eb680333e19064736f6c63430007060033",
  "devdoc": {
    "kind": "dev",
    "methods": {},
    "version": 1
  },
  "userdoc": {
    "kind": "user",
    "methods": {},
    "version": 1
  },
  "storageLayout": {
    "storage": [
      {
        "astId": 1625,
        "contract": "contracts/vault/FINGOVault.sol:FINGOVault",
        "label": "_owner",
        "offset": 0,
        "slot": "0",
        "type": "t_address"
      },
      {
        "astId": 1627,
        "contract": "contracts/vault/FINGOVault.sol:FINGOVault",
        "label": "_pendingOwner",
        "offset": 0,
        "slot": "1",
        "type": "t_address"
      },
      {
        "astId": 2648,
        "contract": "contracts/vault/FINGOVault.sol:FINGOVault",
        "label": "rootHash",
        "offset": 0,
        "slot": "2",
        "type": "t_bytes32"
      },
      {
        "astId": 2654,
        "contract": "contracts/vault/FINGOVault.sol:FINGOVault",
        "label": "userClaimed",
        "offset": 0,
        "slot": "3",
        "type": "t_mapping(t_address,t_uint256)"
      }
    ],
    "types": {
      "t_address": {
        "encoding": "inplace",
        "label": "address",
        "numberOfBytes": "20"
      },
      "t_bytes32": {
        "encoding": "inplace",
        "label": "bytes32",
        "numberOfBytes": "32"
      },
      "t_mapping(t_address,t_uint256)": {
        "encoding": "mapping",
        "key": "t_address",
        "label": "mapping(address => uint256)",
        "numberOfBytes": "32",
        "value": "t_uint256"
      },
      "t_uint256": {
        "encoding": "inplace",
        "label": "uint256",
        "numberOfBytes": "32"
      }
    }
  }
}