{
  "address": "0x0f86b4092AC03C65140087C333a27cb3cD7084C0",
  "abi": [
    {
      "inputs": [
        {
          "internalType": "bytes",
          "name": "_data",
          "type": "bytes"
        }
      ],
      "name": "doHash",
      "outputs": [
        {
          "internalType": "bytes32",
          "name": "",
          "type": "bytes32"
        }
      ],
      "stateMutability": "pure",
      "type": "function"
    },
    {
      "inputs": [
        {
          "internalType": "address",
          "name": "_user",
          "type": "address"
        },
        {
          "internalType": "uint256",
          "name": "_amount",
          "type": "uint256"
        }
      ],
      "name": "encode",
      "outputs": [
        {
          "internalType": "bytes",
          "name": "result",
          "type": "bytes"
        }
      ],
      "stateMutability": "pure",
      "type": "function"
    },
    {
      "inputs": [
        {
          "internalType": "address",
          "name": "_user",
          "type": "address"
        },
        {
          "internalType": "uint256",
          "name": "_amount",
          "type": "uint256"
        }
      ],
      "name": "encodePacked",
      "outputs": [
        {
          "internalType": "bytes",
          "name": "result",
          "type": "bytes"
        }
      ],
      "stateMutability": "pure",
      "type": "function"
    },
    {
      "inputs": [
        {
          "internalType": "bytes32",
          "name": "hash1",
          "type": "bytes32"
        },
        {
          "internalType": "bytes32",
          "name": "hash2",
          "type": "bytes32"
        }
      ],
      "name": "merkle",
      "outputs": [
        {
          "internalType": "bytes32",
          "name": "",
          "type": "bytes32"
        }
      ],
      "stateMutability": "pure",
      "type": "function"
    }
  ],
  "transactionHash": "0x48e7aaa570c5760902b7158e08a1660df832218c63ceaa33ca291f7674ae4e92",
  "args": [],
  "solcInputHash": "47c7aee12e71f92cc015d58c26562a87",
  "bytecode": "0x608060405234801561001057600080fd5b506102d1806100206000396000f3fe608060405234801561001057600080fd5b506004361061004c5760003560e01c806320013ab7146100515780639a1054f014610086578063a4357f4914610127578063e32af74114610153575b600080fd5b6100746004803603604081101561006757600080fd5b50803590602001356101f9565b60408051918252519081900360200190f35b6100b26004803603604081101561009c57600080fd5b506001600160a01b038135169060200135610225565b6040805160208082528351818301528351919283929083019185019080838360005b838110156100ec5781810151838201526020016100d4565b50505050905090810190601f1680156101195780820380516001836020036101000a031916815260200191505b509250505060405180910390f35b6100b26004803603604081101561013d57600080fd5b506001600160a01b038135169060200135610261565b6100746004803603602081101561016957600080fd5b81019060208101813564010000000081111561018457600080fd5b82018360208201111561019657600080fd5b803590602001918460018302840111640100000000831117156101b857600080fd5b91908080601f016020809104026020016040519081016040528093929190818152602001838380828437600092019190915250929550610290945050505050565b604080516020808201949094528082019290925280518083038201815260609092019052805191012090565b6040805160609390931b6bffffffffffffffffffffffff1916602084015260348084019290925280518084039092018252605490920190915290565b604080516001600160a01b03909316602084015282810191909152805180830382018152606092909201905290565b80516020909101209056fea264697066735822122068063d9e6fc6345ffd3d43e49f2ab19b031a5c86503875b7881a90325a59a71064736f6c63430007060033",
  "devdoc": {
    "kind": "dev",
    "methods": {},
    "version": 1
  },
  "userdoc": {
    "kind": "user",
    "methods": {},
    "version": 1
  },
  "storageLayout": {
    "storage": [],
    "types": null
  }
}